{
  "abi": [
    {
      "inputs": [
        {
          "internalType": "string",
          "name": "_name",
          "type": "string"
        },
        {
          "internalType": "string",
          "name": "_symbol",
          "type": "string"
        },
        {
          "internalType": "string",
          "name": "_initBaseURI",
          "type": "string"
        },
        {
          "internalType": "string",
          "name": "_initContractURI",
          "type": "string"
        },
        {
          "internalType": "uint256[]",
          "name": "_initRewardRates",
          "type": "uint256[]"
        },
        {
          "internalType": "address[]",
          "name": "_initAddresses",
          "type": "address[]"
        },
        {
          "internalType": "uint256[]",
          "name": "dollarFees",
          "type": "uint256[]"
        },
        {
          "internalType": "uint256[]",
          "name": "_initPriceNodes",
          "type": "uint256[]"
        },
        {
          "internalType": "uint256",
          "name": "_initMintRate",
          "type": "uint256"
        },
        {
          "internalType": "uint256[]",
          "name": "_initTierMax",
          "type": "uint256[]"
        }
      ],
      "stateMutability": "nonpayable",
      "type": "constructor"
    },
    {
      "anonymous": false,
      "inputs": [
        {
          "indexed": true,
          "internalType": "address",
          "name": "owner",
          "type": "address"
        },
        {
          "indexed": true,
          "internalType": "address",
          "name": "approved",
          "type": "address"
        },
        {
          "indexed": true,
          "internalType": "uint256",
          "name": "tokenId",
          "type": "uint256"
        }
      ],
      "name": "Approval",
      "type": "event"
    },
    {
      "anonymous": false,
      "inputs": [
        {
          "indexed": true,
          "internalType": "address",
          "name": "owner",
          "type": "address"
        },
        {
          "indexed": true,
          "internalType": "address",
          "name": "operator",
          "type": "address"
        },
        {
          "indexed": false,
          "internalType": "bool",
          "name": "approved",
          "type": "bool"
        }
      ],
      "name": "ApprovalForAll",
      "type": "event"
    },
    {
      "anonymous": false,
      "inputs": [
        {
          "indexed": true,
          "internalType": "address",
          "name": "previousOwner",
          "type": "address"
        },
        {
          "indexed": true,
          "internalType": "address",
          "name": "newOwner",
          "type": "address"
        }
      ],
      "name": "OwnershipTransferred",
      "type": "event"
    },
    {
      "anonymous": false,
      "inputs": [
        {
          "indexed": true,
          "internalType": "address",
          "name": "from",
          "type": "address"
        },
        {
          "indexed": true,
          "internalType": "address",
          "name": "to",
          "type": "address"
        },
        {
          "indexed": true,
          "internalType": "uint256",
          "name": "tokenId",
          "type": "uint256"
        }
      ],
      "name": "Transfer",
      "type": "event"
    },
    {
      "inputs": [
        {
          "internalType": "uint256",
          "name": "",
          "type": "uint256"
        }
      ],
      "name": "addresses",
      "outputs": [
        {
          "internalType": "address",
          "name": "",
          "type": "address"
        }
      ],
      "stateMutability": "view",
      "type": "function"
    },
    {
      "inputs": [
        {
          "internalType": "address",
          "name": "to",
          "type": "address"
        },
        {
          "internalType": "uint256",
          "name": "tokenId",
          "type": "uint256"
        }
      ],
      "name": "approve",
      "outputs": [],
      "stateMutability": "nonpayable",
      "type": "function"
    },
    {
      "inputs": [
        {
          "internalType": "address",
          "name": "owner",
          "type": "address"
        }
      ],
      "name": "balanceOf",
      "outputs": [
        {
          "internalType": "uint256",
          "name": "",
          "type": "uint256"
        }
      ],
      "stateMutability": "view",
      "type": "function"
    },
    {
      "inputs": [],
      "name": "baseURI",
      "outputs": [
        {
          "internalType": "string",
          "name": "",
          "type": "string"
        }
      ],
      "stateMutability": "view",
      "type": "function"
    },
    {
      "inputs": [
        {
          "internalType": "uint256",
          "name": "tier",
          "type": "uint256"
        }
      ],
      "name": "buy",
      "outputs": [],
      "stateMutability": "payable",
      "type": "function"
    },
    {
      "inputs": [
        {
          "internalType": "uint256",
          "name": "_tokenId",
          "type": "uint256"
        }
      ],
      "name": "calcTimeElapsedFee",
      "outputs": [
        {
          "internalType": "uint256",
          "name": "",
          "type": "uint256"
        }
      ],
      "stateMutability": "view",
      "type": "function"
    },
    {
      "inputs": [
        {
          "internalType": "address",
          "name": "_staker",
          "type": "address"
        },
        {
          "internalType": "uint256",
          "name": "_tokenId",
          "type": "uint256"
        }
      ],
      "name": "calcTimeElapsedForNFTMint",
      "outputs": [
        {
          "internalType": "uint256",
          "name": "",
          "type": "uint256"
        }
      ],
      "stateMutability": "view",
      "type": "function"
    },
    {
      "inputs": [
        {
          "internalType": "uint256",
          "name": "_tokenId",
          "type": "uint256"
        }
      ],
      "name": "calcTimeElapsedReward",
      "outputs": [
        {
          "internalType": "uint256",
          "name": "",
          "type": "uint256"
        }
      ],
      "stateMutability": "view",
      "type": "function"
    },
    {
      "inputs": [
        {
          "internalType": "address",
          "name": "_staker",
          "type": "address"
        },
        {
          "internalType": "uint256",
          "name": "_tokenId",
          "type": "uint256"
        }
      ],
      "name": "checkIfTimeForMint",
      "outputs": [
        {
          "internalType": "bool",
          "name": "",
          "type": "bool"
        }
      ],
      "stateMutability": "view",
      "type": "function"
    },
    {
      "inputs": [
        {
          "internalType": "uint256",
          "name": "nodeTokenId",
          "type": "uint256"
        }
      ],
      "name": "claimRewards",
      "outputs": [],
      "stateMutability": "nonpayable",
      "type": "function"
    },
    {
      "inputs": [],
      "name": "contractURI",
      "outputs": [
        {
          "internalType": "string",
          "name": "",
          "type": "string"
        }
      ],
      "stateMutability": "view",
      "type": "function"
    },
    {
      "inputs": [],
      "name": "contractUri",
      "outputs": [
        {
          "internalType": "string",
          "name": "",
          "type": "string"
        }
      ],
      "stateMutability": "view",
      "type": "function"
    },
    {
      "inputs": [],
      "name": "counter",
      "outputs": [
        {
          "internalType": "uint256",
          "name": "",
          "type": "uint256"
        }
      ],
      "stateMutability": "view",
      "type": "function"
    },
    {
      "inputs": [
        {
          "internalType": "uint256",
          "name": "",
          "type": "uint256"
        }
      ],
      "name": "fees",
      "outputs": [
        {
          "internalType": "uint256",
          "name": "",
          "type": "uint256"
        }
      ],
      "stateMutability": "view",
      "type": "function"
    },
    {
      "inputs": [
        {
          "internalType": "uint256",
          "name": "tokenId",
          "type": "uint256"
        }
      ],
      "name": "getApproved",
      "outputs": [
        {
          "internalType": "address",
          "name": "",
          "type": "address"
        }
      ],
      "stateMutability": "view",
      "type": "function"
    },
    {
      "inputs": [
        {
          "internalType": "uint256",
          "name": "_tokenId",
          "type": "uint256"
        }
      ],
      "name": "getClaimFee",
      "outputs": [
        {
          "internalType": "uint256",
          "name": "",
          "type": "uint256"
        }
      ],
      "stateMutability": "view",
      "type": "function"
    },
    {
      "inputs": [
        {
          "internalType": "uint256",
          "name": "ftmAmount",
          "type": "uint256"
        }
      ],
      "name": "getConversionRate",
      "outputs": [
        {
          "internalType": "uint256",
          "name": "",
          "type": "uint256"
        }
      ],
      "stateMutability": "view",
      "type": "function"
    },
    {
      "inputs": [
        {
          "internalType": "uint256",
          "name": "tokenId",
          "type": "uint256"
        }
      ],
      "name": "getNodeToken",
      "outputs": [
        {
          "internalType": "uint256",
          "name": "",
          "type": "uint256"
        },
        {
          "internalType": "uint256",
          "name": "",
          "type": "uint256"
        },
        {
          "internalType": "uint256",
          "name": "",
          "type": "uint256"
        },
        {
          "internalType": "bool",
          "name": "",
          "type": "bool"
        },
        {
          "internalType": "uint256",
          "name": "",
          "type": "uint256"
        }
      ],
      "stateMutability": "view",
      "type": "function"
    },
    {
      "inputs": [
        {
          "internalType": "address",
          "name": "staker",
          "type": "address"
        },
        {
          "internalType": "uint256",
          "name": "tokenId",
          "type": "uint256"
        }
      ],
      "name": "getNumberOfNodes",
      "outputs": [
        {
          "internalType": "uint256",
          "name": "",
          "type": "uint256"
        }
      ],
      "stateMutability": "view",
      "type": "function"
    },
    {
      "inputs": [],
      "name": "getPrice",
      "outputs": [
        {
          "internalType": "uint256",
          "name": "",
          "type": "uint256"
        }
      ],
      "stateMutability": "view",
      "type": "function"
    },
    {
      "inputs": [],
      "name": "getTime",
      "outputs": [
        {
          "internalType": "uint256",
          "name": "",
          "type": "uint256"
        }
      ],
      "stateMutability": "view",
      "type": "function"
    },
    {
      "inputs": [
        {
          "internalType": "address",
          "name": "owner",
          "type": "address"
        },
        {
          "internalType": "address",
          "name": "operator",
          "type": "address"
        }
      ],
      "name": "isApprovedForAll",
      "outputs": [
        {
          "internalType": "bool",
          "name": "",
          "type": "bool"
        }
      ],
      "stateMutability": "view",
      "type": "function"
    },
    {
      "inputs": [
        {
          "internalType": "uint256",
          "name": "tokenId",
          "type": "uint256"
        }
      ],
      "name": "mint",
      "outputs": [],
      "stateMutability": "payable",
      "type": "function"
    },
    {
      "inputs": [
        {
          "internalType": "uint256",
          "name": "number",
          "type": "uint256"
        }
      ],
      "name": "mintForGiveaways",
      "outputs": [],
      "stateMutability": "nonpayable",
      "type": "function"
    },
    {
      "inputs": [],
      "name": "mintRate",
      "outputs": [
        {
          "internalType": "uint256",
          "name": "",
          "type": "uint256"
        }
      ],
      "stateMutability": "view",
      "type": "function"
    },
    {
      "inputs": [],
      "name": "name",
      "outputs": [
        {
          "internalType": "string",
          "name": "",
          "type": "string"
        }
      ],
      "stateMutability": "view",
      "type": "function"
    },
    {
      "inputs": [
        {
          "internalType": "address",
          "name": "",
          "type": "address"
        },
        {
          "internalType": "uint256",
          "name": "",
          "type": "uint256"
        }
      ],
      "name": "nftMapping",
      "outputs": [
        {
          "internalType": "uint256",
          "name": "lastUpdate",
          "type": "uint256"
        },
        {
          "internalType": "bool",
          "name": "firstMintOver",
          "type": "bool"
        }
      ],
      "stateMutability": "view",
      "type": "function"
    },
    {
      "inputs": [
        {
          "internalType": "uint256",
          "name": "",
          "type": "uint256"
        }
      ],
      "name": "nodeToken",
      "outputs": [
        {
          "internalType": "uint256",
          "name": "rewardTimestamp",
          "type": "uint256"
        },
        {
          "internalType": "uint256",
          "name": "feeTimestamp",
          "type": "uint256"
        },
        {
          "internalType": "uint256",
          "name": "tierNumber",
          "type": "uint256"
        },
        {
          "internalType": "uint256",
          "name": "rewardSum",
          "type": "uint256"
        },
        {
          "internalType": "uint256",
          "name": "rewardRate",
          "type": "uint256"
        },
        {
          "internalType": "bool",
          "name": "monthlyFeePaid",
          "type": "bool"
        },
        {
          "internalType": "bool",
          "name": "firstRound",
          "type": "bool"
        },
        {
          "internalType": "uint256",
          "name": "calcPre",
          "type": "uint256"
        }
      ],
      "stateMutability": "view",
      "type": "function"
    },
    {
      "inputs": [],
      "name": "owner",
      "outputs": [
        {
          "internalType": "address",
          "name": "",
          "type": "address"
        }
      ],
      "stateMutability": "view",
      "type": "function"
    },
    {
      "inputs": [
        {
          "internalType": "uint256",
          "name": "tokenId",
          "type": "uint256"
        }
      ],
      "name": "ownerOf",
      "outputs": [
        {
          "internalType": "address",
          "name": "",
          "type": "address"
        }
      ],
      "stateMutability": "view",
      "type": "function"
    },
    {
      "inputs": [
        {
          "internalType": "bool",
          "name": "_state",
          "type": "bool"
        }
      ],
      "name": "pause",
      "outputs": [],
      "stateMutability": "nonpayable",
      "type": "function"
    },
    {
      "inputs": [],
      "name": "paused",
      "outputs": [
        {
          "internalType": "bool",
          "name": "",
          "type": "bool"
        }
      ],
      "stateMutability": "view",
      "type": "function"
    },
    {
      "inputs": [
        {
          "internalType": "uint256",
          "name": "_tokenId",
          "type": "uint256"
        }
      ],
      "name": "payMonthlyFee",
      "outputs": [],
      "stateMutability": "payable",
      "type": "function"
    },
    {
      "inputs": [
        {
          "internalType": "uint256",
          "name": "",
          "type": "uint256"
        }
      ],
      "name": "priceNodes",
      "outputs": [
        {
          "internalType": "uint256",
          "name": "",
          "type": "uint256"
        }
      ],
      "stateMutability": "view",
      "type": "function"
    },
    {
      "inputs": [],
      "name": "renounceOwnership",
      "outputs": [],
      "stateMutability": "nonpayable",
      "type": "function"
    },
    {
      "inputs": [
        {
          "internalType": "uint256",
          "name": "",
          "type": "uint256"
        }
      ],
      "name": "rewardRates",
      "outputs": [
        {
          "internalType": "uint256",
          "name": "",
          "type": "uint256"
        }
      ],
      "stateMutability": "view",
      "type": "function"
    },
    {
      "inputs": [
        {
          "internalType": "address",
          "name": "from",
          "type": "address"
        },
        {
          "internalType": "address",
          "name": "to",
          "type": "address"
        },
        {
          "internalType": "uint256",
          "name": "tokenId",
          "type": "uint256"
        }
      ],
      "name": "safeTransferFrom",
      "outputs": [],
      "stateMutability": "nonpayable",
      "type": "function"
    },
    {
      "inputs": [
        {
          "internalType": "address",
          "name": "from",
          "type": "address"
        },
        {
          "internalType": "address",
          "name": "to",
          "type": "address"
        },
        {
          "internalType": "uint256",
          "name": "tokenId",
          "type": "uint256"
        },
        {
          "internalType": "bytes",
          "name": "_data",
          "type": "bytes"
        }
      ],
      "name": "safeTransferFrom",
      "outputs": [],
      "stateMutability": "nonpayable",
      "type": "function"
    },
    {
      "inputs": [
        {
          "internalType": "address[]",
          "name": "_addresses",
          "type": "address[]"
        }
      ],
      "name": "setAddresses",
      "outputs": [],
      "stateMutability": "nonpayable",
      "type": "function"
    },
    {
      "inputs": [
        {
          "internalType": "address",
          "name": "operator",
          "type": "address"
        },
        {
          "internalType": "bool",
          "name": "approved",
          "type": "bool"
        }
      ],
      "name": "setApprovalForAll",
      "outputs": [],
      "stateMutability": "nonpayable",
      "type": "function"
    },
    {
      "inputs": [
        {
          "internalType": "string",
          "name": "_newBaseURI",
          "type": "string"
        }
      ],
      "name": "setBaseURI",
      "outputs": [],
      "stateMutability": "nonpayable",
      "type": "function"
    },
    {
      "inputs": [
        {
          "internalType": "string",
          "name": "_contractURI",
          "type": "string"
        }
      ],
      "name": "setContractURI",
      "outputs": [],
      "stateMutability": "nonpayable",
      "type": "function"
    },
    {
      "inputs": [
        {
          "internalType": "uint256[]",
          "name": "_fees",
          "type": "uint256[]"
        }
      ],
      "name": "setFees",
      "outputs": [],
      "stateMutability": "nonpayable",
      "type": "function"
    },
    {
      "inputs": [
        {
          "internalType": "bool",
          "name": "_locked",
          "type": "bool"
        }
      ],
      "name": "setLocked",
      "outputs": [],
      "stateMutability": "nonpayable",
      "type": "function"
    },
    {
      "inputs": [
        {
          "internalType": "uint256",
          "name": "_newMintRate",
          "type": "uint256"
        }
      ],
      "name": "setMintRate",
      "outputs": [],
      "stateMutability": "nonpayable",
      "type": "function"
    },
    {
      "inputs": [
        {
          "internalType": "uint256[]",
          "name": "_newPriceNodes",
          "type": "uint256[]"
        }
      ],
      "name": "setPriceNodes",
      "outputs": [],
      "stateMutability": "nonpayable",
      "type": "function"
    },
    {
      "inputs": [
        {
          "internalType": "uint256[]",
          "name": "_newRewardRates",
          "type": "uint256[]"
        }
      ],
      "name": "setRewardRates",
      "outputs": [],
      "stateMutability": "nonpayable",
      "type": "function"
    },
    {
      "inputs": [
        {
          "internalType": "uint256[]",
          "name": "_newTierMax",
          "type": "uint256[]"
        }
      ],
      "name": "setTierMax",
      "outputs": [],
      "stateMutability": "nonpayable",
      "type": "function"
    },
    {
      "inputs": [
        {
          "internalType": "bytes4",
          "name": "interfaceId",
          "type": "bytes4"
        }
      ],
      "name": "supportsInterface",
      "outputs": [
        {
          "internalType": "bool",
          "name": "",
          "type": "bool"
        }
      ],
      "stateMutability": "view",
      "type": "function"
    },
    {
      "inputs": [],
      "name": "symbol",
      "outputs": [
        {
          "internalType": "string",
          "name": "",
          "type": "string"
        }
      ],
      "stateMutability": "view",
      "type": "function"
    },
    {
      "inputs": [
        {
          "internalType": "uint256",
          "name": "index",
          "type": "uint256"
        }
      ],
      "name": "tokenByIndex",
      "outputs": [
        {
          "internalType": "uint256",
          "name": "",
          "type": "uint256"
        }
      ],
      "stateMutability": "view",
      "type": "function"
    },
    {
      "inputs": [
        {
          "internalType": "address",
          "name": "",
          "type": "address"
        },
        {
          "internalType": "uint256",
          "name": "",
          "type": "uint256"
        }
      ],
      "name": "tokenIds",
      "outputs": [
        {
          "internalType": "uint256",
          "name": "",
          "type": "uint256"
        }
      ],
      "stateMutability": "view",
      "type": "function"
    },
    {
      "inputs": [
        {
          "internalType": "address",
          "name": "owner",
          "type": "address"
        },
        {
          "internalType": "uint256",
          "name": "index",
          "type": "uint256"
        }
      ],
      "name": "tokenOfOwnerByIndex",
      "outputs": [
        {
          "internalType": "uint256",
          "name": "",
          "type": "uint256"
        }
      ],
      "stateMutability": "view",
      "type": "function"
    },
    {
      "inputs": [
        {
          "internalType": "uint256",
          "name": "tokenId",
          "type": "uint256"
        }
      ],
      "name": "tokenURI",
      "outputs": [
        {
          "internalType": "string",
          "name": "",
          "type": "string"
        }
      ],
      "stateMutability": "view",
      "type": "function"
    },
    {
      "inputs": [
        {
          "internalType": "address",
          "name": "",
          "type": "address"
        },
        {
          "internalType": "uint256",
          "name": "",
          "type": "uint256"
        }
      ],
      "name": "tokensReceived",
      "outputs": [
        {
          "internalType": "uint256",
          "name": "",
          "type": "uint256"
        }
      ],
      "stateMutability": "view",
      "type": "function"
    },
    {
      "inputs": [],
      "name": "totalSupply",
      "outputs": [
        {
          "internalType": "uint256",
          "name": "",
          "type": "uint256"
        }
      ],
      "stateMutability": "view",
      "type": "function"
    },
    {
      "inputs": [
        {
          "internalType": "address",
          "name": "from",
          "type": "address"
        },
        {
          "internalType": "address",
          "name": "to",
          "type": "address"
        },
        {
          "internalType": "uint256",
          "name": "tokenId",
          "type": "uint256"
        }
      ],
      "name": "transferFrom",
      "outputs": [],
      "stateMutability": "nonpayable",
      "type": "function"
    },
    {
      "inputs": [
        {
          "internalType": "address",
          "name": "newOwner",
          "type": "address"
        }
      ],
      "name": "transferOwnership",
      "outputs": [],
      "stateMutability": "nonpayable",
      "type": "function"
    },
    {
      "inputs": [
        {
          "internalType": "address",
          "name": "_owner",
          "type": "address"
        }
      ],
      "name": "walletOfOwner",
      "outputs": [
        {
          "internalType": "uint256[]",
          "name": "",
          "type": "uint256[]"
        }
      ],
      "stateMutability": "view",
      "type": "function"
    },
    {
      "inputs": [],
      "name": "withdraw",
      "outputs": [],
      "stateMutability": "payable",
      "type": "function"
    }
  ],
  "bytecode": "60806040526001600c55600d805460ff191690553480156200002057600080fd5b5060405162004b7538038062004b758339810160408190526200004391620007b0565b89518a908a906200005c90600090602085019062000485565b5080516200007290600190602084019062000485565b5050506200008f620000896200013760201b60201c565b6200013b565b6200009a886200018d565b620000a587620001f5565b620000b08662000255565b620000bb85620002b5565b620000c68462000315565b620000d18362000375565b620000dc82620003d5565b620000e78162000425565b6014805460ff19166001179055604080516003808252608082019092529060208201606080368337505081516200012692601592506020019062000514565b505050505050505050505062000978565b3390565b600a80546001600160a01b038381166001600160a01b0319831681179093556040519116919082907f8be0079c531659141344cd1fd0a4f28419497f9722a3daafe3b4186f6b6457e090600090a35050565b600a546001600160a01b03163314620001dc5760405162461bcd60e51b8152602060048201819052602482015260008051602062004b5583398151915260448201526064015b60405180910390fd5b8051620001f190600b90602084019062000485565b5050565b600a546001600160a01b03163314620002405760405162461bcd60e51b8152602060048201819052602482015260008051602062004b558339815191526044820152606401620001d3565b8051620001f190600e90602084019062000485565b600a546001600160a01b03163314620002a05760405162461bcd60e51b8152602060048201819052602482015260008051602062004b558339815191526044820152606401620001d3565b8051620001f190600f90602084019062000514565b600a546001600160a01b03163314620003005760405162461bcd60e51b8152602060048201819052602482015260008051602062004b558339815191526044820152606401620001d3565b8051620001f190601090602084019062000551565b600a546001600160a01b03163314620003605760405162461bcd60e51b8152602060048201819052602482015260008051602062004b558339815191526044820152606401620001d3565b8051620001f190601190602084019062000514565b600a546001600160a01b03163314620003c05760405162461bcd60e51b8152602060048201819052602482015260008051602062004b558339815191526044820152606401620001d3565b8051620001f190601290602084019062000514565b600a546001600160a01b03163314620004205760405162461bcd60e51b8152602060048201819052602482015260008051602062004b558339815191526044820152606401620001d3565b601355565b600a546001600160a01b03163314620004705760405162461bcd60e51b8152602060048201819052602482015260008051602062004b558339815191526044820152606401620001d3565b8051620001f190601690602084019062000514565b82805462000493906200093b565b90600052602060002090601f016020900481019282620004b7576000855562000502565b82601f10620004d257805160ff191683800117855562000502565b8280016001018555821562000502579182015b8281111562000502578251825591602001919060010190620004e5565b5062000510929150620005a9565b5090565b82805482825590600052602060002090810192821562000502579160200282018281111562000502578251825591602001919060010190620004e5565b82805482825590600052602060002090810192821562000502579160200282015b828111156200050257825182546001600160a01b0319166001600160a01b0390911617825560209092019160019091019062000572565b5b80821115620005105760008155600101620005aa565b634e487b7160e01b600052604160045260246000fd5b604051601f8201601f191681016001600160401b0381118282101715620006015762000601620005c0565b604052919050565b600082601f8301126200061b57600080fd5b81516001600160401b03811115620006375762000637620005c0565b60206200064d601f8301601f19168201620005d6565b82815285828487010111156200066257600080fd5b60005b838110156200068257858101830151828201840152820162000665565b83811115620006945760008385840101525b5095945050505050565b60006001600160401b03821115620006ba57620006ba620005c0565b5060051b60200190565b600082601f830112620006d657600080fd5b81516020620006ef620006e9836200069e565b620005d6565b82815260059290921b840181019181810190868411156200070f57600080fd5b8286015b848110156200072c578051835291830191830162000713565b509695505050505050565b600082601f8301126200074957600080fd5b815160206200075c620006e9836200069e565b82815260059290921b840181019181810190868411156200077c57600080fd5b8286015b848110156200072c5780516001600160a01b0381168114620007a25760008081fd5b835291830191830162000780565b6000806000806000806000806000806101408b8d031215620007d157600080fd5b8a516001600160401b0380821115620007e957600080fd5b620007f78e838f0162000609565b9b5060208d01519150808211156200080e57600080fd5b6200081c8e838f0162000609565b9a5060408d01519150808211156200083357600080fd5b620008418e838f0162000609565b995060608d01519150808211156200085857600080fd5b620008668e838f0162000609565b985060808d01519150808211156200087d57600080fd5b6200088b8e838f01620006c4565b975060a08d0151915080821115620008a257600080fd5b620008b08e838f0162000737565b965060c08d0151915080821115620008c757600080fd5b620008d58e838f01620006c4565b955060e08d0151915080821115620008ec57600080fd5b620008fa8e838f01620006c4565b94506101008d015193506101208d01519150808211156200091a57600080fd5b50620009298d828e01620006c4565b9150509295989b9194979a5092959850565b600181811c908216806200095057607f821691505b602082108114156200097257634e487b7160e01b600052602260045260246000fd5b50919050565b6141cd80620009886000396000f3fe6080604052600436106103975760003560e01c80636352211e116101dc578063b957172111610102578063ce9878d6116100a0578063e985e9c51161006f578063e985e9c514610b5e578063edf26d9b14610ba7578063f2caeb1e14610bc7578063f2fde38b14610be757600080fd5b8063ce9878d614610a72578063d96a094a14610b16578063dbe2193f14610b29578063e8a3d48514610b4957600080fd5b8063c3da8d93116100dc578063c3da8d93146109c5578063c87b56dd14610a1c578063c9e060a214610a3c578063ca0dcf1614610a5c57600080fd5b8063b957172114610970578063bfbe109e14610990578063c0e24d5e146109b057600080fd5b80638da5cb5b1161017a57806398d5fdca1161014957806398d5fdca14610908578063a0712d681461091d578063a22cb46514610930578063b88d4fde1461095057600080fd5b80638da5cb5b14610895578063938e3d7b146108b357806395d89b41146108d357806397f79a6d146108e857600080fd5b80636e5b6b28116101b65780636e5b6b281461082d57806370a082311461084d578063715018a61461086d5780637a57a9c61461088257600080fd5b80636352211e146107d85780636638c452146107f85780636c0360eb1461081857600080fd5b80633ccfd60b116102c15780634f6ccce71161025f5780635ab168c31161022e5780635ab168c3146107685780635af15d53146107885780635c975abb146107a857806361bc221a146107c257600080fd5b80634f6ccce7146106f55780635345c68714610715578063557ed1ba1461073557806355f804b31461074857600080fd5b8063438b63001161029b578063438b6300146106685780634a6c5f0e146106955780634acc79ed146106b55780634bc580f0146106d557600080fd5b80633ccfd60b146106205780633de419e91461062857806342842e0e1461064857600080fd5b8063103aa7d31161033957806324a756d11161030857806324a756d1146105885780632ae0357f146105c05780632f745c59146105e057806335305a581461060057600080fd5b8063103aa7d31461050557806318160ddd14610533578063211e28b61461054857806323b872dd1461056857600080fd5b806306fdde031161037557806306fdde031461046b578063081812fc1461048d578063095ea7b3146104c55780630962ef79146104e557600080fd5b806301f4054b1461039c57806301ffc9a71461041957806302329a2914610449575b600080fd5b3480156103a857600080fd5b506103ea6103b73660046138cf565b6000908152601860205260409020805460018201546002830154600584015460049094015492949193909260ff90911691565b6040805195865260208601949094529284019190915215156060830152608082015260a0015b60405180910390f35b34801561042557600080fd5b506104396104343660046138fe565b610c07565b6040519015158152602001610410565b34801561045557600080fd5b50610469610464366004613930565b610c32565b005b34801561047757600080fd5b50610480610c78565b60405161041091906139a5565b34801561049957600080fd5b506104ad6104a83660046138cf565b610d0a565b6040516001600160a01b039091168152602001610410565b3480156104d157600080fd5b506104696104e03660046139cf565b610d9f565b3480156104f157600080fd5b506104696105003660046138cf565b610eb5565b34801561051157600080fd5b506105256105203660046138cf565b61126b565b604051908152602001610410565b34801561053f57600080fd5b50600854610525565b34801561055457600080fd5b50610469610563366004613930565b611286565b34801561057457600080fd5b506104696105833660046139f9565b6112c3565b34801561059457600080fd5b506105256105a33660046139cf565b601960209081526000928352604080842090915290825290205481565b3480156105cc57600080fd5b506104696105db366004613aa0565b6112f4565b3480156105ec57600080fd5b506105256105fb3660046139cf565b611335565b34801561060c57600080fd5b5061046961061b366004613aa0565b6113cb565b610469611408565b34801561063457600080fd5b506105256106433660046139cf565b611461565b34801561065457600080fd5b506104696106633660046139f9565b611492565b34801561067457600080fd5b50610688610683366004613b36565b6114ad565b6040516104109190613b51565b3480156106a157600080fd5b506105256106b03660046139cf565b61154f565b3480156106c157600080fd5b506105256106d03660046138cf565b611764565b3480156106e157600080fd5b506105256106f03660046138cf565b611785565b34801561070157600080fd5b506105256107103660046138cf565b6117e0565b34801561072157600080fd5b506105256107303660046139cf565b611873565b34801561074157600080fd5b5042610525565b34801561075457600080fd5b50610469610763366004613bed565b6118af565b34801561077457600080fd5b50610469610783366004613aa0565b6118ec565b34801561079457600080fd5b506105256107a33660046138cf565b611929565b3480156107b457600080fd5b50600d546104399060ff1681565b3480156107ce57600080fd5b50610525600c5481565b3480156107e457600080fd5b506104ad6107f33660046138cf565b611939565b34801561080457600080fd5b506105256108133660046138cf565b6119b0565b34801561082457600080fd5b506104806119c8565b34801561083957600080fd5b506105256108483660046138cf565b611a56565b34801561085957600080fd5b50610525610868366004613b36565b611a7e565b34801561087957600080fd5b50610469611b05565b6104696108903660046138cf565b611b3b565b3480156108a157600080fd5b50600a546001600160a01b03166104ad565b3480156108bf57600080fd5b506104696108ce366004613bed565b611d63565b3480156108df57600080fd5b50610480611da0565b3480156108f457600080fd5b506104396109033660046139cf565b611daf565b34801561091457600080fd5b50610525611dcb565b61046961092b3660046138cf565b611e7e565b34801561093c57600080fd5b5061046961094b366004613c36565b6122da565b34801561095c57600080fd5b5061046961096b366004613c6d565b61239f565b34801561097c57600080fd5b5061046961098b366004613ce9565b6123d1565b34801561099c57600080fd5b506104696109ab3660046138cf565b61240e565b3480156109bc57600080fd5b50610480612472565b3480156109d157600080fd5b50610a076109e03660046139cf565b601a6020908152600092835260408084209091529082529020805460019091015460ff1682565b60408051928352901515602083015201610410565b348015610a2857600080fd5b50610480610a373660046138cf565b61247f565b348015610a4857600080fd5b50610469610a57366004613aa0565b6125bc565b348015610a6857600080fd5b5061052560135481565b348015610a7e57600080fd5b50610ad7610a8d3660046138cf565b60186020526000908152604090208054600182015460028301546003840154600485015460058601546006909601549495939492939192909160ff80821692610100909204169088565b6040805198895260208901979097529587019490945260608601929092526080850152151560a0840152151560c083015260e082015261010001610410565b610469610b243660046138cf565b6125f9565b348015610b3557600080fd5b50610469610b443660046138cf565b612a48565b348015610b5557600080fd5b50610480612a77565b348015610b6a57600080fd5b50610439610b79366004613d76565b6001600160a01b03918216600090815260056020908152604080832093909416825291909152205460ff1690565b348015610bb357600080fd5b506104ad610bc23660046138cf565b612a86565b348015610bd357600080fd5b50610525610be23660046138cf565b612ab0565b348015610bf357600080fd5b50610469610c02366004613b36565b612ac0565b60006001600160e01b0319821663780e9d6360e01b1480610c2c5750610c2c82612b58565b92915050565b600a546001600160a01b03163314610c655760405162461bcd60e51b8152600401610c5c90613da9565b60405180910390fd5b600d805460ff1916911515919091179055565b606060008054610c8790613dde565b80601f0160208091040260200160405190810160405280929190818152602001828054610cb390613dde565b8015610d005780601f10610cd557610100808354040283529160200191610d00565b820191906000526020600020905b815481529060010190602001808311610ce357829003601f168201915b5050505050905090565b6000818152600260205260408120546001600160a01b0316610d835760405162461bcd60e51b815260206004820152602c60248201527f4552433732313a20617070726f76656420717565727920666f72206e6f6e657860448201526b34b9ba32b73a103a37b5b2b760a11b6064820152608401610c5c565b506000908152600460205260409020546001600160a01b031690565b6000610daa82611939565b9050806001600160a01b0316836001600160a01b03161415610e185760405162461bcd60e51b815260206004820152602160248201527f4552433732313a20617070726f76616c20746f2063757272656e74206f776e656044820152603960f91b6064820152608401610c5c565b336001600160a01b0382161480610e345750610e348133610b79565b610ea65760405162461bcd60e51b815260206004820152603860248201527f4552433732313a20617070726f76652063616c6c6572206973206e6f74206f7760448201527f6e6572206e6f7220617070726f76656420666f7220616c6c00000000000000006064820152608401610c5c565b610eb08383612ba8565b505050565b33610ebf82611939565b6001600160a01b031614610f155760405162461bcd60e51b815260206004820152601d60248201527f4e6565647320746f206265206f776e6572206f6620746865206e6f64650000006044820152606401610c5c565b610f1f8133612c16565b60008181526018602052604090206005015460ff161515600114610f855760405162461bcd60e51b815260206004820152601e60248201527f596f75206e65656420746f2070617920746865206665652066697273742100006044820152606401610c5c565b600081815260186020526040902060020154600f90610fa690600190613e2f565b81548110610fb657610fb6613e46565b600091825260208083209091015483835260189091526040822060040155610fdd82611785565b600083815260186020526040902060040154610ff88461126b565b6110029190613e5c565b61100c9190613e5c565b905042600083815260186020526040902055806110765760405162461bcd60e51b815260206004820152602260248201527f526577617264206e6565647320746f2062652067726561746572207468616e20604482015261302160f01b6064820152608401610c5c565b601060008154811061108a5761108a613e46565b6000918252602090912001546001600160a01b03166323b872dd6110b6600a546001600160a01b031690565b336110c2606486613e91565b6040516001600160e01b031960e086901b1681526001600160a01b03938416600482015292909116602483015260448201526064016020604051808303816000875af1158015611116573d6000803e3d6000fd5b505050506040513d601f19601f8201168201806040525081019061113a9190613ea5565b506000828152601860205260408120600301805483929061115c908490613ec2565b909155505060008281526018602052604081206002015460129061118290600190613e2f565b8154811061119257611192613e46565b906000526020600020015460186000858152602001908152602001600020600301546111be9190613e91565b600084815260186020526040902060060154909150811180156111e2575060018111155b1561123257600083815260186020526040902060040154600a90611207906007613e5c565b6112119190613e91565b60008481526018602052604090206004810191909155600601819055505050565b600083815260186020526040902060060154811115610eb05760008381526018602052604090206004015460649061120790605f613e5c565b600081815260186020526040812054425b610c2c9190613e2f565b600a546001600160a01b031633146112b05760405162461bcd60e51b8152600401610c5c90613da9565b6014805460ff1916911515919091179055565b6112cd3382612d07565b6112e95760405162461bcd60e51b8152600401610c5c90613eda565b610eb0838383612dfe565b600a546001600160a01b0316331461131e5760405162461bcd60e51b8152600401610c5c90613da9565b80516113319060119060208401906137a7565b5050565b600061134083611a7e565b82106113a25760405162461bcd60e51b815260206004820152602b60248201527f455243373231456e756d657261626c653a206f776e657220696e646578206f7560448201526a74206f6620626f756e647360a81b6064820152608401610c5c565b506001600160a01b03919091166000908152600660209081526040808320938352929052205490565b600a546001600160a01b031633146113f55760405162461bcd60e51b8152600401610c5c90613da9565b805161133190600f9060208401906137a7565b600a546001600160a01b031633146114325760405162461bcd60e51b8152600401610c5c90613da9565b60405133904780156108fc02916000818181858888f1935050505015801561145e573d6000803e3d6000fd5b50565b6017602052816000526040600020818154811061147d57600080fd5b90600052602060002001600091509150505481565b610eb08383836040518060200160405280600081525061239f565b606060006114ba83611a7e565b905060008167ffffffffffffffff8111156114d7576114d7613a35565b604051908082528060200260200182016040528015611500578160200160208202803683370190505b50905060005b82811015611547576115188582611335565b82828151811061152a5761152a613e46565b60209081029190910101528061153f81613f2b565b915050611506565b509392505050565b600080600080601060018154811061156957611569613e46565b6000918252602090912001546040516328d68ca360e11b8152336004820152602481018790526001600160a01b03909116906351ad194690604401606060405180830381865afa1580156115c1573d6000803e3d6000fd5b505050506040513d601f19601f820116820180604052508101906115e59190613f46565b6001600160a01b0389166000908152601a602090815260408083208b845290915290205491945092501590508061163e57506001600160a01b0386166000908152601a6020908152604080832088845290915290205482115b156116915761165081622819a0613e5c565b61165a9083613ec2565b42111561168a578161166f82622819a0613e5c565b6116799084613ec2565b6116839190613e2f565b925061175a565b8142611679565b61169e81622819a0613e5c565b6116a89083613ec2565b6001600160a01b0387166000908152601a60209081526040808320898452909152902054106116da576000925061175a565b6116e781622819a0613e5c565b6116f19083613ec2565b421115611729576001600160a01b0386166000908152601a6020908152604080832088845290915290205461166f82622819a0613e5c565b6001600160a01b0386166000908152601a602090815260408083208884529091529020546117579042613e2f565b92505b5090949350505050565b6011818154811061177457600080fd5b600091825260209091200154905081565b60006207e9006117948361126b565b10156117a257506058919050565b6207e9006117af8361126b565b1180156117c65750621123806117c48361126b565b105b156117d35750605e919050565b506064919050565b919050565b60006117eb60085490565b821061184e5760405162461bcd60e51b815260206004820152602c60248201527f455243373231456e756d657261626c653a20676c6f62616c20696e646578206f60448201526b7574206f6620626f756e647360a01b6064820152608401610c5c565b6008828154811061186157611861613e46565b90600052602060002001549050919050565b600061187f8383611daf565b1515600114156118a757601354611896848461154f565b6118a09190613e91565b9050610c2c565b506000610c2c565b600a546001600160a01b031633146118d95760405162461bcd60e51b8152600401610c5c90613da9565b805161133190600b9060208401906137f2565b600a546001600160a01b031633146119165760405162461bcd60e51b8152600401610c5c90613da9565b80516113319060129060208401906137a7565b6012818154811061177457600080fd5b6000818152600260205260408120546001600160a01b031680610c2c5760405162461bcd60e51b815260206004820152602960248201527f4552433732313a206f776e657220717565727920666f72206e6f6e657869737460448201526832b73a103a37b5b2b760b91b6064820152608401610c5c565b6000818152601860205260408120600101544261127c565b600b80546119d590613dde565b80601f0160208091040260200160405190810160405280929190818152602001828054611a0190613dde565b8015611a4e5780601f10611a2357610100808354040283529160200191611a4e565b820191906000526020600020905b815481529060010190602001808311611a3157829003601f168201915b505050505081565b6000670de0b6b3a764000082611a6a611dcb565b611a749190613e5c565b610c2c9190613e91565b60006001600160a01b038216611ae95760405162461bcd60e51b815260206004820152602a60248201527f4552433732313a2062616c616e636520717565727920666f7220746865207a65604482015269726f206164647265737360b01b6064820152608401610c5c565b506001600160a01b031660009081526003602052604090205490565b600a546001600160a01b03163314611b2f5760405162461bcd60e51b8152600401610c5c90613da9565b611b396000612fa9565b565b33611b4582611939565b6001600160a01b031614611b9b5760405162461bcd60e51b815260206004820152601960248201527f4e6565647320746f206265206f776e6572206f66204e6f6465000000000000006044820152606401610c5c565b60006010600381548110611bb157611bb1613e46565b6000918252602090912001546040516370a0823160e01b81523360048201526001600160a01b03909116906370a0823190602401602060405180830381865afa158015611c02573d6000803e3d6000fd5b505050506040513d601f19601f82011682018060405250810190611c269190613f7d565b1115611c8557600081815260186020526040902060020154600314611c855760405162461bcd60e51b8152602060048201526015602482015274596f7520646f6e2774206e65656420746f2070617960581b6044820152606401610c5c565b600081815260186020526040902060020154601190611ca690600190613e2f565b81548110611cb657611cb6613e46565b9060005260206000200154670de0b6b3a7640000611cd49190613e5c565b611cdd34611a56565b1015611d2b5760405162461bcd60e51b815260206004820152601c60248201527f596f7520646f6e2774206861766520656e6f756768206d6f6e657921000000006044820152606401610c5c565b6000818152601860205260409020600501805460ff19166001179055611d4e4290565b60009182526018602052604090912060010155565b600a546001600160a01b03163314611d8d5760405162461bcd60e51b8152600401610c5c90613da9565b805161133190600e9060208401906137f2565b606060018054610c8790613dde565b6000601354611dbe848461154f565b106118a757506001610c2c565b6000806010600281548110611de257611de2613e46565b9060005260206000200160009054906101000a90046001600160a01b03166001600160a01b031663feaf968c6040518163ffffffff1660e01b815260040160a060405180830381865afa158015611e3d573d6000803e3d6000fd5b505050506040513d601f19601f82011682018060405250810190611e619190613fb0565b505050915050806402540be400611e789190614000565b91505090565b600d5460ff1615611ebf5760405162461bcd60e51b815260206004820152600b60248201526a135a5b9d081c185d5cd95960aa1b6044820152606401610c5c565b60008060006010600181548110611ed857611ed8613e46565b6000918252602090912001546040516328d68ca360e11b8152336004820152602481018690526001600160a01b03909116906351ad194690604401606060405180830381865afa158015611f30573d6000803e3d6000fd5b505050506040513d601f19601f82011682018060405250810190611f549190613f46565b50909150506001811515141561225a57336000908152601a6020908152604080832087845290915290206001015460ff16158015611f9b57506001611f993386611873565b105b15611fa95760019150611ffb565b611fb33385611873565b915060008211611ffb5760405162461bcd60e51b8152602060048201526013602482015272596f752063616e2774206d696e74207965742160681b6044820152606401610c5c565b61269e841161200d5760019250612012565b600392505b601661201f600185613e2f565b8154811061202f5761202f613e46565b906000526020600020015482601560018661204a9190613e2f565b8154811061205a5761205a613e46565b906000526020600020015461206f9190613ec2565b11156120a95760405162461bcd60e51b8152602060048201526009602482015268536f6c64206f75742160b81b6044820152606401610c5c565b60005b82811015612206576120c033600c54612ffb565b6120c8613015565b6040518061010001604052806120db4290565b81526020014281526020810186905260006040820152606001600f612101600188613e2f565b8154811061211157612111613e46565b60009182526020808320909101548352600183820181905260408085018490526060948501849052600c54845260188352928390208551815591850151828201559184015160028201559183015160038301556080830151600483015560a083015160058301805460c086015115156101000261ff00199315159390931661ffff199091161791909117905560e09092015160069091015560156121b58287613e2f565b815481106121c5576121c5613e46565b9060005260206000200160008282546121de9190613ec2565b9091555050600c546121f1906001613ec2565b600c55806121fe81613f2b565b9150506120ac565b5060405180604001604052806122194290565b815260016020918201819052336000908152601a83526040808220898352845290208351815592909101519101805460ff19169115159190911790556122d4565b336000908152601a6020908152604080832087845290915281209081556001908101805460ff19169055811515146122d45760405162461bcd60e51b815260206004820152601c60248201527f596f7520646f6e277420686176652061207374616b6564204e465421000000006044820152606401610c5c565b50505050565b6001600160a01b0382163314156123335760405162461bcd60e51b815260206004820152601960248201527f4552433732313a20617070726f766520746f2063616c6c6572000000000000006044820152606401610c5c565b3360008181526005602090815260408083206001600160a01b03871680855290835292819020805460ff191686151590811790915590519081529192917f17307eab39ab6107e8899845ad3d59bd9653f200f220920489ca2b5937696c31910160405180910390a35050565b6123a93383612d07565b6123c55760405162461bcd60e51b8152600401610c5c90613eda565b6122d48484848461311c565b600a546001600160a01b031633146123fb5760405162461bcd60e51b8152600401610c5c90613da9565b8051611331906010906020840190613865565b600a546001600160a01b031633146124385760405162461bcd60e51b8152600401610c5c90613da9565b60005b818110156113315761244f33600c54612ffb565b600c5461245d906001613ec2565b600c558061246a81613f2b565b91505061243b565b600e80546119d590613dde565b6000818152600260205260409020546060906001600160a01b03166124fe5760405162461bcd60e51b815260206004820152602f60248201527f4552433732314d657461646174613a2055524920717565727920666f72206e6f60448201526e3732bc34b9ba32b73a103a37b5b2b760891b6064820152608401610c5c565b600082815260186020526040902060020154600114156125515761252061314f565b61252a600161315e565b60405160200161253b929190614085565b6040516020818303038152906040529050919050565b6000828152601860205260409020600290810154141561257d5761257361314f565b61252a600261315e565b600061258761314f565b905080612594600361315e565b6040516020016125a5929190614085565b604051602081830303815290604052915050919050565b600a546001600160a01b031633146125e65760405162461bcd60e51b8152600401610c5c90613da9565b80516113319060169060208401906137a7565b600d5460ff161561263b5760405162461bcd60e51b815260206004820152600c60248201526b4d696e74207061757365642160a01b6044820152606401610c5c565b60008111801561264b5750600481105b6126975760405162461bcd60e51b815260206004820152601760248201527f5468657265206973206f6e6c79207469657220312d33210000000000000000006044820152606401610c5c565b60166126a4600183613e2f565b815481106126b4576126b4613e46565b906000526020600020015460156001836126ce9190613e2f565b815481106126de576126de613e46565b906000526020600020015411156127235760405162461bcd60e51b8152602060048201526009602482015268536f6c64206f75742160b81b6044820152606401610c5c565b61272b613015565b6012612738600183613e2f565b8154811061274857612748613e46565b9060005260206000200154601060008154811061276757612767613e46565b6000918252602090912001546040516370a0823160e01b81523360048201526001600160a01b03909116906370a0823190602401602060405180830381865afa1580156127b8573d6000803e3d6000fd5b505050506040513d601f19601f820116820180604052508101906127dc9190613f7d565b101561282a5760405162461bcd60e51b815260206004820152601960248201527f4e6f7420656e6f75676820746f6b656e7320746f2062757921000000000000006044820152606401610c5c565b601060008154811061283e5761283e613e46565b6000918252602090912001546001600160a01b03166323b872dd3361286b600a546001600160a01b031690565b6012612878600187613e2f565b8154811061288857612888613e46565b6000918252602090912001546040516001600160e01b031960e086901b1681526001600160a01b03938416600482015292909116602483015260448201526064016020604051808303816000875af11580156128e8573d6000803e3d6000fd5b505050506040513d601f19601f8201168201806040525081019061290c9190613ea5565b5061291933600c54612ffb565b60405180610100016040528061292c4290565b81526020014281526020810183905260006040820152606001600f612952600185613e2f565b8154811061296257612962613e46565b60009182526020808320909101548352600183820181905260408085018490526060948501849052600c54845260188352928390208551815591850151828201559184015160028201559183015160038301556080830151600483015560a083015160058301805460c086015115156101000261ff00199315159390931661ffff199091161791909117905560e0909201516006909101556015612a068284613e2f565b81548110612a1657612a16613e46565b906000526020600020016000828254612a2f9190613ec2565b9091555050600c54612a42906001613ec2565b600c5550565b600a546001600160a01b03163314612a725760405162461bcd60e51b8152600401610c5c90613da9565b601355565b6060600e8054610c8790613dde565b60108181548110612a9657600080fd5b6000918252602090912001546001600160a01b0316905081565b600f818154811061177457600080fd5b600a546001600160a01b03163314612aea5760405162461bcd60e51b8152600401610c5c90613da9565b6001600160a01b038116612b4f5760405162461bcd60e51b815260206004820152602660248201527f4f776e61626c653a206e6577206f776e657220697320746865207a65726f206160448201526564647265737360d01b6064820152608401610c5c565b61145e81612fa9565b60006001600160e01b031982166380ac58cd60e01b1480612b8957506001600160e01b03198216635b5e139f60e01b145b80610c2c57506301ffc9a760e01b6001600160e01b0319831614610c2c565b600081815260046020526040902080546001600160a01b0319166001600160a01b0384169081179091558190612bdd82611939565b6001600160a01b03167f8c5be1e5ebec7d5bd14f71427d1e84f3dd0314c0f7b2291e5b200ac8c7c3b92560405160405180910390a45050565b601354612c22836119b0565b1115611331576010600381548110612c3c57612c3c613e46565b6000918252602090912001546040516370a0823160e01b81523360048201526001600160a01b03909116906370a0823190602401602060405180830381865afa158015612c8d573d6000803e3d6000fd5b505050506040513d601f19601f82011682018060405250810190612cb19190613f7d565b612cd157506000908152601860205260409020600501805460ff19169055565b6000828152601860205260409020600201546003141561133157506000908152601860205260409020600501805460ff19169055565b6000818152600260205260408120546001600160a01b0316612d805760405162461bcd60e51b815260206004820152602c60248201527f4552433732313a206f70657261746f7220717565727920666f72206e6f6e657860448201526b34b9ba32b73a103a37b5b2b760a11b6064820152608401610c5c565b6000612d8b83611939565b9050806001600160a01b0316846001600160a01b03161480612dc65750836001600160a01b0316612dbb84610d0a565b6001600160a01b0316145b80612df657506001600160a01b0380821660009081526005602090815260408083209388168352929052205460ff165b949350505050565b826001600160a01b0316612e1182611939565b6001600160a01b031614612e795760405162461bcd60e51b815260206004820152602960248201527f4552433732313a207472616e73666572206f6620746f6b656e2074686174206960448201526839903737ba1037bbb760b91b6064820152608401610c5c565b6001600160a01b038216612edb5760405162461bcd60e51b8152602060048201526024808201527f4552433732313a207472616e7366657220746f20746865207a65726f206164646044820152637265737360e01b6064820152608401610c5c565b612ee683838361325c565b612ef1600082612ba8565b6001600160a01b0383166000908152600360205260408120805460019290612f1a908490613e2f565b90915550506001600160a01b0382166000908152600360205260408120805460019290612f48908490613ec2565b909155505060008181526002602052604080822080546001600160a01b0319166001600160a01b0386811691821790925591518493918716917fddf252ad1be2c89b69c2b068fc378daa952ba7f163c4a11628f55a4df523b3ef91a4505050565b600a80546001600160a01b038381166001600160a01b0319831681179093556040519116919082907f8be0079c531659141344cd1fd0a4f28419497f9722a3daafe3b4186f6b6457e090600090a35050565b6113318282604051806020016040528060008152506132e0565b612710600c5461302591906140c1565b61307657601260008154811061303d5761303d613e46565b906000526020600020015460016130549190613ec2565b601260008154811061306857613068613e46565b600091825260209091200155565b611388600c5461308691906140c1565b6130c957601260018154811061309e5761309e613e46565b906000526020600020015460036130b59190613ec2565b601260018154811061306857613068613e46565b610bb8600c546130d991906140c1565b611b395760126002815481106130f1576130f1613e46565b9060005260206000200154600b6131089190613ec2565b601260028154811061306857613068613e46565b613127848484612dfe565b61313384848484613313565b6122d45760405162461bcd60e51b8152600401610c5c906140d5565b6060600b8054610c8790613dde565b6060816131825750506040805180820190915260018152600360fc1b602082015290565b8160005b81156131ac578061319681613f2b565b91506131a59050600a83613e91565b9150613186565b60008167ffffffffffffffff8111156131c7576131c7613a35565b6040519080825280601f01601f1916602001820160405280156131f1576020820181803683370190505b5090505b8415612df657613206600183613e2f565b9150613213600a866140c1565b61321e906030613ec2565b60f81b81838151811061323357613233613e46565b60200101906001600160f81b031916908160001a905350613255600a86613e91565b94506131f5565b613267838383613411565b60145460ff16151560011415610eb0576001600160a01b03831615610eb05760405162461bcd60e51b815260206004820152602960248201527f4e6f6465204e4654205472616e73666572732063757272656e746c79206e6f7460448201526820616c6c6f7765642160b81b6064820152608401610c5c565b6132ea83836134c9565b6132f76000848484613313565b610eb05760405162461bcd60e51b8152600401610c5c906140d5565b60006001600160a01b0384163b1561340657604051630a85bd0160e11b81526001600160a01b0385169063150b7a0290613357903390899088908890600401614127565b6020604051808303816000875af1925050508015613392575060408051601f3d908101601f1916820190925261338f91810190614164565b60015b6133ec573d8080156133c0576040519150601f19603f3d011682016040523d82523d6000602084013e6133c5565b606091505b5080516133e45760405162461bcd60e51b8152600401610c5c906140d5565b805181602001fd5b6001600160e01b031916630a85bd0160e11b149050612df6565b506001949350505050565b6001600160a01b03831661346c5761346781600880546000838152600960205260408120829055600182018355919091527ff3f7a9fe364faab93b216da50a3214154f22a0a2b415b23a84c8169e8b636ee30155565b61348f565b816001600160a01b0316836001600160a01b03161461348f5761348f8382613617565b6001600160a01b0382166134a657610eb0816136b4565b826001600160a01b0316826001600160a01b031614610eb057610eb08282613763565b6001600160a01b03821661351f5760405162461bcd60e51b815260206004820181905260248201527f4552433732313a206d696e7420746f20746865207a65726f20616464726573736044820152606401610c5c565b6000818152600260205260409020546001600160a01b0316156135845760405162461bcd60e51b815260206004820152601c60248201527f4552433732313a20746f6b656e20616c7265616479206d696e746564000000006044820152606401610c5c565b6135906000838361325c565b6001600160a01b03821660009081526003602052604081208054600192906135b9908490613ec2565b909155505060008181526002602052604080822080546001600160a01b0319166001600160a01b03861690811790915590518392907fddf252ad1be2c89b69c2b068fc378daa952ba7f163c4a11628f55a4df523b3ef908290a45050565b6000600161362484611a7e565b61362e9190613e2f565b600083815260076020526040902054909150808214613681576001600160a01b03841660009081526006602090815260408083208584528252808320548484528184208190558352600790915290208190555b5060009182526007602090815260408084208490556001600160a01b039094168352600681528383209183525290812055565b6008546000906136c690600190613e2f565b600083815260096020526040812054600880549394509092849081106136ee576136ee613e46565b90600052602060002001549050806008838154811061370f5761370f613e46565b600091825260208083209091019290925582815260099091526040808220849055858252812055600880548061374757613747614181565b6001900381819060005260206000200160009055905550505050565b600061376e83611a7e565b6001600160a01b039093166000908152600660209081526040808320868452825280832085905593825260079052919091209190915550565b8280548282559060005260206000209081019282156137e2579160200282015b828111156137e25782518255916020019190600101906137c7565b506137ee9291506138ba565b5090565b8280546137fe90613dde565b90600052602060002090601f01602090048101928261382057600085556137e2565b82601f1061383957805160ff19168380011785556137e2565b828001600101855582156137e257918201828111156137e25782518255916020019190600101906137c7565b8280548282559060005260206000209081019282156137e2579160200282015b828111156137e257825182546001600160a01b0319166001600160a01b03909116178255602090920191600190910190613885565b5b808211156137ee57600081556001016138bb565b6000602082840312156138e157600080fd5b5035919050565b6001600160e01b03198116811461145e57600080fd5b60006020828403121561391057600080fd5b813561391b816138e8565b9392505050565b801515811461145e57600080fd5b60006020828403121561394257600080fd5b813561391b81613922565b60005b83811015613968578181015183820152602001613950565b838111156122d45750506000910152565b6000815180845261399181602086016020860161394d565b601f01601f19169290920160200192915050565b60208152600061391b6020830184613979565b80356001600160a01b03811681146117db57600080fd5b600080604083850312156139e257600080fd5b6139eb836139b8565b946020939093013593505050565b600080600060608486031215613a0e57600080fd5b613a17846139b8565b9250613a25602085016139b8565b9150604084013590509250925092565b634e487b7160e01b600052604160045260246000fd5b604051601f8201601f1916810167ffffffffffffffff81118282101715613a7457613a74613a35565b604052919050565b600067ffffffffffffffff821115613a9657613a96613a35565b5060051b60200190565b60006020808385031215613ab357600080fd5b823567ffffffffffffffff811115613aca57600080fd5b8301601f81018513613adb57600080fd5b8035613aee613ae982613a7c565b613a4b565b81815260059190911b82018301908381019087831115613b0d57600080fd5b928401925b82841015613b2b57833582529284019290840190613b12565b979650505050505050565b600060208284031215613b4857600080fd5b61391b826139b8565b6020808252825182820181905260009190848201906040850190845b81811015613b8957835183529284019291840191600101613b6d565b50909695505050505050565b600067ffffffffffffffff831115613baf57613baf613a35565b613bc2601f8401601f1916602001613a4b565b9050828152838383011115613bd657600080fd5b828260208301376000602084830101529392505050565b600060208284031215613bff57600080fd5b813567ffffffffffffffff811115613c1657600080fd5b8201601f81018413613c2757600080fd5b612df684823560208401613b95565b60008060408385031215613c4957600080fd5b613c52836139b8565b91506020830135613c6281613922565b809150509250929050565b60008060008060808587031215613c8357600080fd5b613c8c856139b8565b9350613c9a602086016139b8565b925060408501359150606085013567ffffffffffffffff811115613cbd57600080fd5b8501601f81018713613cce57600080fd5b613cdd87823560208401613b95565b91505092959194509250565b60006020808385031215613cfc57600080fd5b823567ffffffffffffffff811115613d1357600080fd5b8301601f81018513613d2457600080fd5b8035613d32613ae982613a7c565b81815260059190911b82018301908381019087831115613d5157600080fd5b928401925b82841015613b2b57613d67846139b8565b82529284019290840190613d56565b60008060408385031215613d8957600080fd5b613d92836139b8565b9150613da0602084016139b8565b90509250929050565b6020808252818101527f4f776e61626c653a2063616c6c6572206973206e6f7420746865206f776e6572604082015260600190565b600181811c90821680613df257607f821691505b60208210811415613e1357634e487b7160e01b600052602260045260246000fd5b50919050565b634e487b7160e01b600052601160045260246000fd5b600082821015613e4157613e41613e19565b500390565b634e487b7160e01b600052603260045260246000fd5b6000816000190483118215151615613e7657613e76613e19565b500290565b634e487b7160e01b600052601260045260246000fd5b600082613ea057613ea0613e7b565b500490565b600060208284031215613eb757600080fd5b815161391b81613922565b60008219821115613ed557613ed5613e19565b500190565b60208082526031908201527f4552433732313a207472616e736665722063616c6c6572206973206e6f74206f6040820152701ddb995c881b9bdc88185c1c1c9bdd9959607a1b606082015260800190565b6000600019821415613f3f57613f3f613e19565b5060010190565b600080600060608486031215613f5b57600080fd5b8351613f6681613922565b602085015160409095015190969495509392505050565b600060208284031215613f8f57600080fd5b5051919050565b805169ffffffffffffffffffff811681146117db57600080fd5b600080600080600060a08688031215613fc857600080fd5b613fd186613f96565b9450602086015193506040860151925060608601519150613ff460808701613f96565b90509295509295909350565b60006001600160ff1b038184138284138082168684048611161561402657614026613e19565b600160ff1b600087128281168783058912161561404557614045613e19565b6000871292508782058712848416161561406157614061613e19565b8785058712818416161561407757614077613e19565b505050929093029392505050565b6000835161409781846020880161394d565b602f60f81b90830190815283516140b581600184016020880161394d565b01600101949350505050565b6000826140d0576140d0613e7b565b500690565b60208082526032908201527f4552433732313a207472616e7366657220746f206e6f6e20455243373231526560408201527131b2b4bb32b91034b6b83632b6b2b73a32b960711b606082015260800190565b6001600160a01b038581168252841660208201526040810183905260806060820181905260009061415a90830184613979565b9695505050505050565b60006020828403121561417657600080fd5b815161391b816138e8565b634e487b7160e01b600052603160045260246000fdfea2646970667358221220cf3d955edfd0935607eaea991484abffca041cfe1a3b90f0bd3ab6d8b9ecb5c064736f6c634300080b00334f776e61626c653a2063616c6c6572206973206e6f7420746865206f776e6572",
  "bytecodeSha1": "da39a3ee5e6b4b0d3255bfef95601890afd80709",
  "compiler": {
    "evm_version": "istanbul",
    "optimizer": {
      "enabled": true,
      "runs": 200
    },
    "version": "0.8.11+commit.d7f03943"
  },
  "contractName": "CreateNFTNode",
  "language": "Solidity",
  "natspec": {
    "kind": "dev",
    "methods": {
      "approve(address,uint256)": {
        "details": "See {IERC721-approve}."
      },
      "balanceOf(address)": {
        "details": "See {IERC721-balanceOf}."
      },
      "getApproved(uint256)": {
        "details": "See {IERC721-getApproved}."
      },
      "isApprovedForAll(address,address)": {
        "details": "See {IERC721-isApprovedForAll}."
      },
      "name()": {
        "details": "See {IERC721Metadata-name}."
      },
      "owner()": {
        "details": "Returns the address of the current owner."
      },
      "ownerOf(uint256)": {
        "details": "See {IERC721-ownerOf}."
      },
      "renounceOwnership()": {
        "details": "Leaves the contract without owner. It will not be possible to call `onlyOwner` functions anymore. Can only be called by the current owner. NOTE: Renouncing ownership will leave the contract without an owner, thereby removing any functionality that is only available to the owner."
      },
      "safeTransferFrom(address,address,uint256)": {
        "details": "See {IERC721-safeTransferFrom}."
      },
      "safeTransferFrom(address,address,uint256,bytes)": {
        "details": "See {IERC721-safeTransferFrom}."
      },
      "setApprovalForAll(address,bool)": {
        "details": "See {IERC721-setApprovalForAll}."
      },
      "supportsInterface(bytes4)": {
        "details": "See {IERC165-supportsInterface}."
      },
      "symbol()": {
        "details": "See {IERC721Metadata-symbol}."
      },
      "tokenByIndex(uint256)": {
        "details": "See {IERC721Enumerable-tokenByIndex}."
      },
      "tokenOfOwnerByIndex(address,uint256)": {
        "details": "See {IERC721Enumerable-tokenOfOwnerByIndex}."
      },
      "tokenURI(uint256)": {
        "details": "See {IERC721Metadata-tokenURI}."
      },
      "totalSupply()": {
        "details": "See {IERC721Enumerable-totalSupply}."
      },
      "transferFrom(address,address,uint256)": {
        "details": "See {IERC721-transferFrom}."
      },
      "transferOwnership(address)": {
        "details": "Transfers ownership of the contract to a new account (`newOwner`). Can only be called by the current owner."
      }
    },
    "version": 1
  },
  "opcodes": "PUSH1 0x80 PUSH1 0x40 MSTORE PUSH1 0x4 CALLDATASIZE LT PUSH2 0x397 JUMPI PUSH1 0x0 CALLDATALOAD PUSH1 0xE0 SHR DUP1 PUSH4 0x6352211E GT PUSH2 0x1DC JUMPI DUP1 PUSH4 0xB9571721 GT PUSH2 0x102 JUMPI DUP1 PUSH4 0xCE9878D6 GT PUSH2 0xA0 JUMPI DUP1 PUSH4 0xE985E9C5 GT PUSH2 0x6F JUMPI DUP1 PUSH4 0xE985E9C5 EQ PUSH2 0xB5E JUMPI DUP1 PUSH4 0xEDF26D9B EQ PUSH2 0xBA7 JUMPI DUP1 PUSH4 0xF2CAEB1E EQ PUSH2 0xBC7 JUMPI DUP1 PUSH4 0xF2FDE38B EQ PUSH2 0xBE7 JUMPI PUSH1 0x0 DUP1 REVERT JUMPDEST DUP1 PUSH4 0xCE9878D6 EQ PUSH2 0xA72 JUMPI DUP1 PUSH4 0xD96A094A EQ PUSH2 0xB16 JUMPI DUP1 PUSH4 0xDBE2193F EQ PUSH2 0xB29 JUMPI DUP1 PUSH4 0xE8A3D485 EQ PUSH2 0xB49 JUMPI PUSH1 0x0 DUP1 REVERT JUMPDEST DUP1 PUSH4 0xC3DA8D93 GT PUSH2 0xDC JUMPI DUP1 PUSH4 0xC3DA8D93 EQ PUSH2 0x9C5 JUMPI DUP1 PUSH4 0xC87B56DD EQ PUSH2 0xA1C JUMPI DUP1 PUSH4 0xC9E060A2 EQ PUSH2 0xA3C JUMPI DUP1 PUSH4 0xCA0DCF16 EQ PUSH2 0xA5C JUMPI PUSH1 0x0 DUP1 REVERT JUMPDEST DUP1 PUSH4 0xB9571721 EQ PUSH2 0x970 JUMPI DUP1 PUSH4 0xBFBE109E EQ PUSH2 0x990 JUMPI DUP1 PUSH4 0xC0E24D5E EQ PUSH2 0x9B0 JUMPI PUSH1 0x0 DUP1 REVERT JUMPDEST DUP1 PUSH4 0x8DA5CB5B GT PUSH2 0x17A JUMPI DUP1 PUSH4 0x98D5FDCA GT PUSH2 0x149 JUMPI DUP1 PUSH4 0x98D5FDCA EQ PUSH2 0x908 JUMPI DUP1 PUSH4 0xA0712D68 EQ PUSH2 0x91D JUMPI DUP1 PUSH4 0xA22CB465 EQ PUSH2 0x930 JUMPI DUP1 PUSH4 0xB88D4FDE EQ PUSH2 0x950 JUMPI PUSH1 0x0 DUP1 REVERT JUMPDEST DUP1 PUSH4 0x8DA5CB5B EQ PUSH2 0x895 JUMPI DUP1 PUSH4 0x938E3D7B EQ PUSH2 0x8B3 JUMPI DUP1 PUSH4 0x95D89B41 EQ PUSH2 0x8D3 JUMPI DUP1 PUSH4 0x97F79A6D EQ PUSH2 0x8E8 JUMPI PUSH1 0x0 DUP1 REVERT JUMPDEST DUP1 PUSH4 0x6E5B6B28 GT PUSH2 0x1B6 JUMPI DUP1 PUSH4 0x6E5B6B28 EQ PUSH2 0x82D JUMPI DUP1 PUSH4 0x70A08231 EQ PUSH2 0x84D JUMPI DUP1 PUSH4 0x715018A6 EQ PUSH2 0x86D JUMPI DUP1 PUSH4 0x7A57A9C6 EQ PUSH2 0x882 JUMPI PUSH1 0x0 DUP1 REVERT JUMPDEST DUP1 PUSH4 0x6352211E EQ PUSH2 0x7D8 JUMPI DUP1 PUSH4 0x6638C452 EQ PUSH2 0x7F8 JUMPI DUP1 PUSH4 0x6C0360EB EQ PUSH2 0x818 JUMPI PUSH1 0x0 DUP1 REVERT JUMPDEST DUP1 PUSH4 0x3CCFD60B GT PUSH2 0x2C1 JUMPI DUP1 PUSH4 0x4F6CCCE7 GT PUSH2 0x25F JUMPI DUP1 PUSH4 0x5AB168C3 GT PUSH2 0x22E JUMPI DUP1 PUSH4 0x5AB168C3 EQ PUSH2 0x768 JUMPI DUP1 PUSH4 0x5AF15D53 EQ PUSH2 0x788 JUMPI DUP1 PUSH4 0x5C975ABB EQ PUSH2 0x7A8 JUMPI DUP1 PUSH4 0x61BC221A EQ PUSH2 0x7C2 JUMPI PUSH1 0x0 DUP1 REVERT JUMPDEST DUP1 PUSH4 0x4F6CCCE7 EQ PUSH2 0x6F5 JUMPI DUP1 PUSH4 0x5345C687 EQ PUSH2 0x715 JUMPI DUP1 PUSH4 0x557ED1BA EQ PUSH2 0x735 JUMPI DUP1 PUSH4 0x55F804B3 EQ PUSH2 0x748 JUMPI PUSH1 0x0 DUP1 REVERT JUMPDEST DUP1 PUSH4 0x438B6300 GT PUSH2 0x29B JUMPI DUP1 PUSH4 0x438B6300 EQ PUSH2 0x668 JUMPI DUP1 PUSH4 0x4A6C5F0E EQ PUSH2 0x695 JUMPI DUP1 PUSH4 0x4ACC79ED EQ PUSH2 0x6B5 JUMPI DUP1 PUSH4 0x4BC580F0 EQ PUSH2 0x6D5 JUMPI PUSH1 0x0 DUP1 REVERT JUMPDEST DUP1 PUSH4 0x3CCFD60B EQ PUSH2 0x620 JUMPI DUP1 PUSH4 0x3DE419E9 EQ PUSH2 0x628 JUMPI DUP1 PUSH4 0x42842E0E EQ PUSH2 0x648 JUMPI PUSH1 0x0 DUP1 REVERT JUMPDEST DUP1 PUSH4 0x103AA7D3 GT PUSH2 0x339 JUMPI DUP1 PUSH4 0x24A756D1 GT PUSH2 0x308 JUMPI DUP1 PUSH4 0x24A756D1 EQ PUSH2 0x588 JUMPI DUP1 PUSH4 0x2AE0357F EQ PUSH2 0x5C0 JUMPI DUP1 PUSH4 0x2F745C59 EQ PUSH2 0x5E0 JUMPI DUP1 PUSH4 0x35305A58 EQ PUSH2 0x600 JUMPI PUSH1 0x0 DUP1 REVERT JUMPDEST DUP1 PUSH4 0x103AA7D3 EQ PUSH2 0x505 JUMPI DUP1 PUSH4 0x18160DDD EQ PUSH2 0x533 JUMPI DUP1 PUSH4 0x211E28B6 EQ PUSH2 0x548 JUMPI DUP1 PUSH4 0x23B872DD EQ PUSH2 0x568 JUMPI PUSH1 0x0 DUP1 REVERT JUMPDEST DUP1 PUSH4 0x6FDDE03 GT PUSH2 0x375 JUMPI DUP1 PUSH4 0x6FDDE03 EQ PUSH2 0x46B JUMPI DUP1 PUSH4 0x81812FC EQ PUSH2 0x48D JUMPI DUP1 PUSH4 0x95EA7B3 EQ PUSH2 0x4C5 JUMPI DUP1 PUSH4 0x962EF79 EQ PUSH2 0x4E5 JUMPI PUSH1 0x0 DUP1 REVERT JUMPDEST DUP1 PUSH4 0x1F4054B EQ PUSH2 0x39C JUMPI DUP1 PUSH4 0x1FFC9A7 EQ PUSH2 0x419 JUMPI DUP1 PUSH4 0x2329A29 EQ PUSH2 0x449 JUMPI JUMPDEST PUSH1 0x0 DUP1 REVERT JUMPDEST CALLVALUE DUP1 ISZERO PUSH2 0x3A8 JUMPI PUSH1 0x0 DUP1 REVERT JUMPDEST POP PUSH2 0x3EA PUSH2 0x3B7 CALLDATASIZE PUSH1 0x4 PUSH2 0x38CF JUMP JUMPDEST PUSH1 0x0 SWAP1 DUP2 MSTORE PUSH1 0x18 PUSH1 0x20 MSTORE PUSH1 0x40 SWAP1 KECCAK256 DUP1 SLOAD PUSH1 0x1 DUP3 ADD SLOAD PUSH1 0x2 DUP4 ADD SLOAD PUSH1 0x5 DUP5 ADD SLOAD PUSH1 0x4 SWAP1 SWAP5 ADD SLOAD SWAP3 SWAP5 SWAP2 SWAP4 SWAP1 SWAP3 PUSH1 0xFF SWAP1 SWAP2 AND SWAP2 JUMP JUMPDEST PUSH1 0x40 DUP1 MLOAD SWAP6 DUP7 MSTORE PUSH1 0x20 DUP7 ADD SWAP5 SWAP1 SWAP5 MSTORE SWAP3 DUP5 ADD SWAP2 SWAP1 SWAP2 MSTORE ISZERO ISZERO PUSH1 0x60 DUP4 ADD MSTORE PUSH1 0x80 DUP3 ADD MSTORE PUSH1 0xA0 ADD JUMPDEST PUSH1 0x40 MLOAD DUP1 SWAP2 SUB SWAP1 RETURN JUMPDEST CALLVALUE DUP1 ISZERO PUSH2 0x425 JUMPI PUSH1 0x0 DUP1 REVERT JUMPDEST POP PUSH2 0x439 PUSH2 0x434 CALLDATASIZE PUSH1 0x4 PUSH2 0x38FE JUMP JUMPDEST PUSH2 0xC07 JUMP JUMPDEST PUSH1 0x40 MLOAD SWAP1 ISZERO ISZERO DUP2 MSTORE PUSH1 0x20 ADD PUSH2 0x410 JUMP JUMPDEST CALLVALUE DUP1 ISZERO PUSH2 0x455 JUMPI PUSH1 0x0 DUP1 REVERT JUMPDEST POP PUSH2 0x469 PUSH2 0x464 CALLDATASIZE PUSH1 0x4 PUSH2 0x3930 JUMP JUMPDEST PUSH2 0xC32 JUMP JUMPDEST STOP JUMPDEST CALLVALUE DUP1 ISZERO PUSH2 0x477 JUMPI PUSH1 0x0 DUP1 REVERT JUMPDEST POP PUSH2 0x480 PUSH2 0xC78 JUMP JUMPDEST PUSH1 0x40 MLOAD PUSH2 0x410 SWAP2 SWAP1 PUSH2 0x39A5 JUMP JUMPDEST CALLVALUE DUP1 ISZERO PUSH2 0x499 JUMPI PUSH1 0x0 DUP1 REVERT JUMPDEST POP PUSH2 0x4AD PUSH2 0x4A8 CALLDATASIZE PUSH1 0x4 PUSH2 0x38CF JUMP JUMPDEST PUSH2 0xD0A JUMP JUMPDEST PUSH1 0x40 MLOAD PUSH1 0x1 PUSH1 0x1 PUSH1 0xA0 SHL SUB SWAP1 SWAP2 AND DUP2 MSTORE PUSH1 0x20 ADD PUSH2 0x410 JUMP JUMPDEST CALLVALUE DUP1 ISZERO PUSH2 0x4D1 JUMPI PUSH1 0x0 DUP1 REVERT JUMPDEST POP PUSH2 0x469 PUSH2 0x4E0 CALLDATASIZE PUSH1 0x4 PUSH2 0x39CF JUMP JUMPDEST PUSH2 0xD9F JUMP JUMPDEST CALLVALUE DUP1 ISZERO PUSH2 0x4F1 JUMPI PUSH1 0x0 DUP1 REVERT JUMPDEST POP PUSH2 0x469 PUSH2 0x500 CALLDATASIZE PUSH1 0x4 PUSH2 0x38CF JUMP JUMPDEST PUSH2 0xEB5 JUMP JUMPDEST CALLVALUE DUP1 ISZERO PUSH2 0x511 JUMPI PUSH1 0x0 DUP1 REVERT JUMPDEST POP PUSH2 0x525 PUSH2 0x520 CALLDATASIZE PUSH1 0x4 PUSH2 0x38CF JUMP JUMPDEST PUSH2 0x126B JUMP JUMPDEST PUSH1 0x40 MLOAD SWAP1 DUP2 MSTORE PUSH1 0x20 ADD PUSH2 0x410 JUMP JUMPDEST CALLVALUE DUP1 ISZERO PUSH2 0x53F JUMPI PUSH1 0x0 DUP1 REVERT JUMPDEST POP PUSH1 0x8 SLOAD PUSH2 0x525 JUMP JUMPDEST CALLVALUE DUP1 ISZERO PUSH2 0x554 JUMPI PUSH1 0x0 DUP1 REVERT JUMPDEST POP PUSH2 0x469 PUSH2 0x563 CALLDATASIZE PUSH1 0x4 PUSH2 0x3930 JUMP JUMPDEST PUSH2 0x1286 JUMP JUMPDEST CALLVALUE DUP1 ISZERO PUSH2 0x574 JUMPI PUSH1 0x0 DUP1 REVERT JUMPDEST POP PUSH2 0x469 PUSH2 0x583 CALLDATASIZE PUSH1 0x4 PUSH2 0x39F9 JUMP JUMPDEST PUSH2 0x12C3 JUMP JUMPDEST CALLVALUE DUP1 ISZERO PUSH2 0x594 JUMPI PUSH1 0x0 DUP1 REVERT JUMPDEST POP PUSH2 0x525 PUSH2 0x5A3 CALLDATASIZE PUSH1 0x4 PUSH2 0x39CF JUMP JUMPDEST PUSH1 0x19 PUSH1 0x20 SWAP1 DUP2 MSTORE PUSH1 0x0 SWAP3 DUP4 MSTORE PUSH1 0x40 DUP1 DUP5 KECCAK256 SWAP1 SWAP2 MSTORE SWAP1 DUP3 MSTORE SWAP1 KECCAK256 SLOAD DUP2 JUMP JUMPDEST CALLVALUE DUP1 ISZERO PUSH2 0x5CC JUMPI PUSH1 0x0 DUP1 REVERT JUMPDEST POP PUSH2 0x469 PUSH2 0x5DB CALLDATASIZE PUSH1 0x4 PUSH2 0x3AA0 JUMP JUMPDEST PUSH2 0x12F4 JUMP JUMPDEST CALLVALUE DUP1 ISZERO PUSH2 0x5EC JUMPI PUSH1 0x0 DUP1 REVERT JUMPDEST POP PUSH2 0x525 PUSH2 0x5FB CALLDATASIZE PUSH1 0x4 PUSH2 0x39CF JUMP JUMPDEST PUSH2 0x1335 JUMP JUMPDEST CALLVALUE DUP1 ISZERO PUSH2 0x60C JUMPI PUSH1 0x0 DUP1 REVERT JUMPDEST POP PUSH2 0x469 PUSH2 0x61B CALLDATASIZE PUSH1 0x4 PUSH2 0x3AA0 JUMP JUMPDEST PUSH2 0x13CB JUMP JUMPDEST PUSH2 0x469 PUSH2 0x1408 JUMP JUMPDEST CALLVALUE DUP1 ISZERO PUSH2 0x634 JUMPI PUSH1 0x0 DUP1 REVERT JUMPDEST POP PUSH2 0x525 PUSH2 0x643 CALLDATASIZE PUSH1 0x4 PUSH2 0x39CF JUMP JUMPDEST PUSH2 0x1461 JUMP JUMPDEST CALLVALUE DUP1 ISZERO PUSH2 0x654 JUMPI PUSH1 0x0 DUP1 REVERT JUMPDEST POP PUSH2 0x469 PUSH2 0x663 CALLDATASIZE PUSH1 0x4 PUSH2 0x39F9 JUMP JUMPDEST PUSH2 0x1492 JUMP JUMPDEST CALLVALUE DUP1 ISZERO PUSH2 0x674 JUMPI PUSH1 0x0 DUP1 REVERT JUMPDEST POP PUSH2 0x688 PUSH2 0x683 CALLDATASIZE PUSH1 0x4 PUSH2 0x3B36 JUMP JUMPDEST PUSH2 0x14AD JUMP JUMPDEST PUSH1 0x40 MLOAD PUSH2 0x410 SWAP2 SWAP1 PUSH2 0x3B51 JUMP JUMPDEST CALLVALUE DUP1 ISZERO PUSH2 0x6A1 JUMPI PUSH1 0x0 DUP1 REVERT JUMPDEST POP PUSH2 0x525 PUSH2 0x6B0 CALLDATASIZE PUSH1 0x4 PUSH2 0x39CF JUMP JUMPDEST PUSH2 0x154F JUMP JUMPDEST CALLVALUE DUP1 ISZERO PUSH2 0x6C1 JUMPI PUSH1 0x0 DUP1 REVERT JUMPDEST POP PUSH2 0x525 PUSH2 0x6D0 CALLDATASIZE PUSH1 0x4 PUSH2 0x38CF JUMP JUMPDEST PUSH2 0x1764 JUMP JUMPDEST CALLVALUE DUP1 ISZERO PUSH2 0x6E1 JUMPI PUSH1 0x0 DUP1 REVERT JUMPDEST POP PUSH2 0x525 PUSH2 0x6F0 CALLDATASIZE PUSH1 0x4 PUSH2 0x38CF JUMP JUMPDEST PUSH2 0x1785 JUMP JUMPDEST CALLVALUE DUP1 ISZERO PUSH2 0x701 JUMPI PUSH1 0x0 DUP1 REVERT JUMPDEST POP PUSH2 0x525 PUSH2 0x710 CALLDATASIZE PUSH1 0x4 PUSH2 0x38CF JUMP JUMPDEST PUSH2 0x17E0 JUMP JUMPDEST CALLVALUE DUP1 ISZERO PUSH2 0x721 JUMPI PUSH1 0x0 DUP1 REVERT JUMPDEST POP PUSH2 0x525 PUSH2 0x730 CALLDATASIZE PUSH1 0x4 PUSH2 0x39CF JUMP JUMPDEST PUSH2 0x1873 JUMP JUMPDEST CALLVALUE DUP1 ISZERO PUSH2 0x741 JUMPI PUSH1 0x0 DUP1 REVERT JUMPDEST POP TIMESTAMP PUSH2 0x525 JUMP JUMPDEST CALLVALUE DUP1 ISZERO PUSH2 0x754 JUMPI PUSH1 0x0 DUP1 REVERT JUMPDEST POP PUSH2 0x469 PUSH2 0x763 CALLDATASIZE PUSH1 0x4 PUSH2 0x3BED JUMP JUMPDEST PUSH2 0x18AF JUMP JUMPDEST CALLVALUE DUP1 ISZERO PUSH2 0x774 JUMPI PUSH1 0x0 DUP1 REVERT JUMPDEST POP PUSH2 0x469 PUSH2 0x783 CALLDATASIZE PUSH1 0x4 PUSH2 0x3AA0 JUMP JUMPDEST PUSH2 0x18EC JUMP JUMPDEST CALLVALUE DUP1 ISZERO PUSH2 0x794 JUMPI PUSH1 0x0 DUP1 REVERT JUMPDEST POP PUSH2 0x525 PUSH2 0x7A3 CALLDATASIZE PUSH1 0x4 PUSH2 0x38CF JUMP JUMPDEST PUSH2 0x1929 JUMP JUMPDEST CALLVALUE DUP1 ISZERO PUSH2 0x7B4 JUMPI PUSH1 0x0 DUP1 REVERT JUMPDEST POP PUSH1 0xD SLOAD PUSH2 0x439 SWAP1 PUSH1 0xFF AND DUP2 JUMP JUMPDEST CALLVALUE DUP1 ISZERO PUSH2 0x7CE JUMPI PUSH1 0x0 DUP1 REVERT JUMPDEST POP PUSH2 0x525 PUSH1 0xC SLOAD DUP2 JUMP JUMPDEST CALLVALUE DUP1 ISZERO PUSH2 0x7E4 JUMPI PUSH1 0x0 DUP1 REVERT JUMPDEST POP PUSH2 0x4AD PUSH2 0x7F3 CALLDATASIZE PUSH1 0x4 PUSH2 0x38CF JUMP JUMPDEST PUSH2 0x1939 JUMP JUMPDEST CALLVALUE DUP1 ISZERO PUSH2 0x804 JUMPI PUSH1 0x0 DUP1 REVERT JUMPDEST POP PUSH2 0x525 PUSH2 0x813 CALLDATASIZE PUSH1 0x4 PUSH2 0x38CF JUMP JUMPDEST PUSH2 0x19B0 JUMP JUMPDEST CALLVALUE DUP1 ISZERO PUSH2 0x824 JUMPI PUSH1 0x0 DUP1 REVERT JUMPDEST POP PUSH2 0x480 PUSH2 0x19C8 JUMP JUMPDEST CALLVALUE DUP1 ISZERO PUSH2 0x839 JUMPI PUSH1 0x0 DUP1 REVERT JUMPDEST POP PUSH2 0x525 PUSH2 0x848 CALLDATASIZE PUSH1 0x4 PUSH2 0x38CF JUMP JUMPDEST PUSH2 0x1A56 JUMP JUMPDEST CALLVALUE DUP1 ISZERO PUSH2 0x859 JUMPI PUSH1 0x0 DUP1 REVERT JUMPDEST POP PUSH2 0x525 PUSH2 0x868 CALLDATASIZE PUSH1 0x4 PUSH2 0x3B36 JUMP JUMPDEST PUSH2 0x1A7E JUMP JUMPDEST CALLVALUE DUP1 ISZERO PUSH2 0x879 JUMPI PUSH1 0x0 DUP1 REVERT JUMPDEST POP PUSH2 0x469 PUSH2 0x1B05 JUMP JUMPDEST PUSH2 0x469 PUSH2 0x890 CALLDATASIZE PUSH1 0x4 PUSH2 0x38CF JUMP JUMPDEST PUSH2 0x1B3B JUMP JUMPDEST CALLVALUE DUP1 ISZERO PUSH2 0x8A1 JUMPI PUSH1 0x0 DUP1 REVERT JUMPDEST POP PUSH1 0xA SLOAD PUSH1 0x1 PUSH1 0x1 PUSH1 0xA0 SHL SUB AND PUSH2 0x4AD JUMP JUMPDEST CALLVALUE DUP1 ISZERO PUSH2 0x8BF JUMPI PUSH1 0x0 DUP1 REVERT JUMPDEST POP PUSH2 0x469 PUSH2 0x8CE CALLDATASIZE PUSH1 0x4 PUSH2 0x3BED JUMP JUMPDEST PUSH2 0x1D63 JUMP JUMPDEST CALLVALUE DUP1 ISZERO PUSH2 0x8DF JUMPI PUSH1 0x0 DUP1 REVERT JUMPDEST POP PUSH2 0x480 PUSH2 0x1DA0 JUMP JUMPDEST CALLVALUE DUP1 ISZERO PUSH2 0x8F4 JUMPI PUSH1 0x0 DUP1 REVERT JUMPDEST POP PUSH2 0x439 PUSH2 0x903 CALLDATASIZE PUSH1 0x4 PUSH2 0x39CF JUMP JUMPDEST PUSH2 0x1DAF JUMP JUMPDEST CALLVALUE DUP1 ISZERO PUSH2 0x914 JUMPI PUSH1 0x0 DUP1 REVERT JUMPDEST POP PUSH2 0x525 PUSH2 0x1DCB JUMP JUMPDEST PUSH2 0x469 PUSH2 0x92B CALLDATASIZE PUSH1 0x4 PUSH2 0x38CF JUMP JUMPDEST PUSH2 0x1E7E JUMP JUMPDEST CALLVALUE DUP1 ISZERO PUSH2 0x93C JUMPI PUSH1 0x0 DUP1 REVERT JUMPDEST POP PUSH2 0x469 PUSH2 0x94B CALLDATASIZE PUSH1 0x4 PUSH2 0x3C36 JUMP JUMPDEST PUSH2 0x22DA JUMP JUMPDEST CALLVALUE DUP1 ISZERO PUSH2 0x95C JUMPI PUSH1 0x0 DUP1 REVERT JUMPDEST POP PUSH2 0x469 PUSH2 0x96B CALLDATASIZE PUSH1 0x4 PUSH2 0x3C6D JUMP JUMPDEST PUSH2 0x239F JUMP JUMPDEST CALLVALUE DUP1 ISZERO PUSH2 0x97C JUMPI PUSH1 0x0 DUP1 REVERT JUMPDEST POP PUSH2 0x469 PUSH2 0x98B CALLDATASIZE PUSH1 0x4 PUSH2 0x3CE9 JUMP JUMPDEST PUSH2 0x23D1 JUMP JUMPDEST CALLVALUE DUP1 ISZERO PUSH2 0x99C JUMPI PUSH1 0x0 DUP1 REVERT JUMPDEST POP PUSH2 0x469 PUSH2 0x9AB CALLDATASIZE PUSH1 0x4 PUSH2 0x38CF JUMP JUMPDEST PUSH2 0x240E JUMP JUMPDEST CALLVALUE DUP1 ISZERO PUSH2 0x9BC JUMPI PUSH1 0x0 DUP1 REVERT JUMPDEST POP PUSH2 0x480 PUSH2 0x2472 JUMP JUMPDEST CALLVALUE DUP1 ISZERO PUSH2 0x9D1 JUMPI PUSH1 0x0 DUP1 REVERT JUMPDEST POP PUSH2 0xA07 PUSH2 0x9E0 CALLDATASIZE PUSH1 0x4 PUSH2 0x39CF JUMP JUMPDEST PUSH1 0x1A PUSH1 0x20 SWAP1 DUP2 MSTORE PUSH1 0x0 SWAP3 DUP4 MSTORE PUSH1 0x40 DUP1 DUP5 KECCAK256 SWAP1 SWAP2 MSTORE SWAP1 DUP3 MSTORE SWAP1 KECCAK256 DUP1 SLOAD PUSH1 0x1 SWAP1 SWAP2 ADD SLOAD PUSH1 0xFF AND DUP3 JUMP JUMPDEST PUSH1 0x40 DUP1 MLOAD SWAP3 DUP4 MSTORE SWAP1 ISZERO ISZERO PUSH1 0x20 DUP4 ADD MSTORE ADD PUSH2 0x410 JUMP JUMPDEST CALLVALUE DUP1 ISZERO PUSH2 0xA28 JUMPI PUSH1 0x0 DUP1 REVERT JUMPDEST POP PUSH2 0x480 PUSH2 0xA37 CALLDATASIZE PUSH1 0x4 PUSH2 0x38CF JUMP JUMPDEST PUSH2 0x247F JUMP JUMPDEST CALLVALUE DUP1 ISZERO PUSH2 0xA48 JUMPI PUSH1 0x0 DUP1 REVERT JUMPDEST POP PUSH2 0x469 PUSH2 0xA57 CALLDATASIZE PUSH1 0x4 PUSH2 0x3AA0 JUMP JUMPDEST PUSH2 0x25BC JUMP JUMPDEST CALLVALUE DUP1 ISZERO PUSH2 0xA68 JUMPI PUSH1 0x0 DUP1 REVERT JUMPDEST POP PUSH2 0x525 PUSH1 0x13 SLOAD DUP2 JUMP JUMPDEST CALLVALUE DUP1 ISZERO PUSH2 0xA7E JUMPI PUSH1 0x0 DUP1 REVERT JUMPDEST POP PUSH2 0xAD7 PUSH2 0xA8D CALLDATASIZE PUSH1 0x4 PUSH2 0x38CF JUMP JUMPDEST PUSH1 0x18 PUSH1 0x20 MSTORE PUSH1 0x0 SWAP1 DUP2 MSTORE PUSH1 0x40 SWAP1 KECCAK256 DUP1 SLOAD PUSH1 0x1 DUP3 ADD SLOAD PUSH1 0x2 DUP4 ADD SLOAD PUSH1 0x3 DUP5 ADD SLOAD PUSH1 0x4 DUP6 ADD SLOAD PUSH1 0x5 DUP7 ADD SLOAD PUSH1 0x6 SWAP1 SWAP7 ADD SLOAD SWAP5 SWAP6 SWAP4 SWAP5 SWAP3 SWAP4 SWAP2 SWAP3 SWAP1 SWAP2 PUSH1 0xFF DUP1 DUP3 AND SWAP3 PUSH2 0x100 SWAP1 SWAP3 DIV AND SWAP1 DUP9 JUMP JUMPDEST PUSH1 0x40 DUP1 MLOAD SWAP9 DUP10 MSTORE PUSH1 0x20 DUP10 ADD SWAP8 SWAP1 SWAP8 MSTORE SWAP6 DUP8 ADD SWAP5 SWAP1 SWAP5 MSTORE PUSH1 0x60 DUP7 ADD SWAP3 SWAP1 SWAP3 MSTORE PUSH1 0x80 DUP6 ADD MSTORE ISZERO ISZERO PUSH1 0xA0 DUP5 ADD MSTORE ISZERO ISZERO PUSH1 0xC0 DUP4 ADD MSTORE PUSH1 0xE0 DUP3 ADD MSTORE PUSH2 0x100 ADD PUSH2 0x410 JUMP JUMPDEST PUSH2 0x469 PUSH2 0xB24 CALLDATASIZE PUSH1 0x4 PUSH2 0x38CF JUMP JUMPDEST PUSH2 0x25F9 JUMP JUMPDEST CALLVALUE DUP1 ISZERO PUSH2 0xB35 JUMPI PUSH1 0x0 DUP1 REVERT JUMPDEST POP PUSH2 0x469 PUSH2 0xB44 CALLDATASIZE PUSH1 0x4 PUSH2 0x38CF JUMP JUMPDEST PUSH2 0x2A48 JUMP JUMPDEST CALLVALUE DUP1 ISZERO PUSH2 0xB55 JUMPI PUSH1 0x0 DUP1 REVERT JUMPDEST POP PUSH2 0x480 PUSH2 0x2A77 JUMP JUMPDEST CALLVALUE DUP1 ISZERO PUSH2 0xB6A JUMPI PUSH1 0x0 DUP1 REVERT JUMPDEST POP PUSH2 0x439 PUSH2 0xB79 CALLDATASIZE PUSH1 0x4 PUSH2 0x3D76 JUMP JUMPDEST PUSH1 0x1 PUSH1 0x1 PUSH1 0xA0 SHL SUB SWAP2 DUP3 AND PUSH1 0x0 SWAP1 DUP2 MSTORE PUSH1 0x5 PUSH1 0x20 SWAP1 DUP2 MSTORE PUSH1 0x40 DUP1 DUP4 KECCAK256 SWAP4 SWAP1 SWAP5 AND DUP3 MSTORE SWAP2 SWAP1 SWAP2 MSTORE KECCAK256 SLOAD PUSH1 0xFF AND SWAP1 JUMP JUMPDEST CALLVALUE DUP1 ISZERO PUSH2 0xBB3 JUMPI PUSH1 0x0 DUP1 REVERT JUMPDEST POP PUSH2 0x4AD PUSH2 0xBC2 CALLDATASIZE PUSH1 0x4 PUSH2 0x38CF JUMP JUMPDEST PUSH2 0x2A86 JUMP JUMPDEST CALLVALUE DUP1 ISZERO PUSH2 0xBD3 JUMPI PUSH1 0x0 DUP1 REVERT JUMPDEST POP PUSH2 0x525 PUSH2 0xBE2 CALLDATASIZE PUSH1 0x4 PUSH2 0x38CF JUMP JUMPDEST PUSH2 0x2AB0 JUMP JUMPDEST CALLVALUE DUP1 ISZERO PUSH2 0xBF3 JUMPI PUSH1 0x0 DUP1 REVERT JUMPDEST POP PUSH2 0x469 PUSH2 0xC02 CALLDATASIZE PUSH1 0x4 PUSH2 0x3B36 JUMP JUMPDEST PUSH2 0x2AC0 JUMP JUMPDEST PUSH1 0x0 PUSH1 0x1 PUSH1 0x1 PUSH1 0xE0 SHL SUB NOT DUP3 AND PUSH4 0x780E9D63 PUSH1 0xE0 SHL EQ DUP1 PUSH2 0xC2C JUMPI POP PUSH2 0xC2C DUP3 PUSH2 0x2B58 JUMP JUMPDEST SWAP3 SWAP2 POP POP JUMP JUMPDEST PUSH1 0xA SLOAD PUSH1 0x1 PUSH1 0x1 PUSH1 0xA0 SHL SUB AND CALLER EQ PUSH2 0xC65 JUMPI PUSH1 0x40 MLOAD PUSH3 0x461BCD PUSH1 0xE5 SHL DUP2 MSTORE PUSH1 0x4 ADD PUSH2 0xC5C SWAP1 PUSH2 0x3DA9 JUMP JUMPDEST PUSH1 0x40 MLOAD DUP1 SWAP2 SUB SWAP1 REVERT JUMPDEST PUSH1 0xD DUP1 SLOAD PUSH1 0xFF NOT AND SWAP2 ISZERO ISZERO SWAP2 SWAP1 SWAP2 OR SWAP1 SSTORE JUMP JUMPDEST PUSH1 0x60 PUSH1 0x0 DUP1 SLOAD PUSH2 0xC87 SWAP1 PUSH2 0x3DDE JUMP JUMPDEST DUP1 PUSH1 0x1F ADD PUSH1 0x20 DUP1 SWAP2 DIV MUL PUSH1 0x20 ADD PUSH1 0x40 MLOAD SWAP1 DUP2 ADD PUSH1 0x40 MSTORE DUP1 SWAP3 SWAP2 SWAP1 DUP2 DUP2 MSTORE PUSH1 0x20 ADD DUP3 DUP1 SLOAD PUSH2 0xCB3 SWAP1 PUSH2 0x3DDE JUMP JUMPDEST DUP1 ISZERO PUSH2 0xD00 JUMPI DUP1 PUSH1 0x1F LT PUSH2 0xCD5 JUMPI PUSH2 0x100 DUP1 DUP4 SLOAD DIV MUL DUP4 MSTORE SWAP2 PUSH1 0x20 ADD SWAP2 PUSH2 0xD00 JUMP JUMPDEST DUP3 ADD SWAP2 SWAP1 PUSH1 0x0 MSTORE PUSH1 0x20 PUSH1 0x0 KECCAK256 SWAP1 JUMPDEST DUP2 SLOAD DUP2 MSTORE SWAP1 PUSH1 0x1 ADD SWAP1 PUSH1 0x20 ADD DUP1 DUP4 GT PUSH2 0xCE3 JUMPI DUP3 SWAP1 SUB PUSH1 0x1F AND DUP3 ADD SWAP2 JUMPDEST POP POP POP POP POP SWAP1 POP SWAP1 JUMP JUMPDEST PUSH1 0x0 DUP2 DUP2 MSTORE PUSH1 0x2 PUSH1 0x20 MSTORE PUSH1 0x40 DUP2 KECCAK256 SLOAD PUSH1 0x1 PUSH1 0x1 PUSH1 0xA0 SHL SUB AND PUSH2 0xD83 JUMPI PUSH1 0x40 MLOAD PUSH3 0x461BCD PUSH1 0xE5 SHL DUP2 MSTORE PUSH1 0x20 PUSH1 0x4 DUP3 ADD MSTORE PUSH1 0x2C PUSH1 0x24 DUP3 ADD MSTORE PUSH32 0x4552433732313A20617070726F76656420717565727920666F72206E6F6E6578 PUSH1 0x44 DUP3 ADD MSTORE PUSH12 0x34B9BA32B73A103A37B5B2B7 PUSH1 0xA1 SHL PUSH1 0x64 DUP3 ADD MSTORE PUSH1 0x84 ADD PUSH2 0xC5C JUMP JUMPDEST POP PUSH1 0x0 SWAP1 DUP2 MSTORE PUSH1 0x4 PUSH1 0x20 MSTORE PUSH1 0x40 SWAP1 KECCAK256 SLOAD PUSH1 0x1 PUSH1 0x1 PUSH1 0xA0 SHL SUB AND SWAP1 JUMP JUMPDEST PUSH1 0x0 PUSH2 0xDAA DUP3 PUSH2 0x1939 JUMP JUMPDEST SWAP1 POP DUP1 PUSH1 0x1 PUSH1 0x1 PUSH1 0xA0 SHL SUB AND DUP4 PUSH1 0x1 PUSH1 0x1 PUSH1 0xA0 SHL SUB AND EQ ISZERO PUSH2 0xE18 JUMPI PUSH1 0x40 MLOAD PUSH3 0x461BCD PUSH1 0xE5 SHL DUP2 MSTORE PUSH1 0x20 PUSH1 0x4 DUP3 ADD MSTORE PUSH1 0x21 PUSH1 0x24 DUP3 ADD MSTORE PUSH32 0x4552433732313A20617070726F76616C20746F2063757272656E74206F776E65 PUSH1 0x44 DUP3 ADD MSTORE PUSH1 0x39 PUSH1 0xF9 SHL PUSH1 0x64 DUP3 ADD MSTORE PUSH1 0x84 ADD PUSH2 0xC5C JUMP JUMPDEST CALLER PUSH1 0x1 PUSH1 0x1 PUSH1 0xA0 SHL SUB DUP3 AND EQ DUP1 PUSH2 0xE34 JUMPI POP PUSH2 0xE34 DUP2 CALLER PUSH2 0xB79 JUMP JUMPDEST PUSH2 0xEA6 JUMPI PUSH1 0x40 MLOAD PUSH3 0x461BCD PUSH1 0xE5 SHL DUP2 MSTORE PUSH1 0x20 PUSH1 0x4 DUP3 ADD MSTORE PUSH1 0x38 PUSH1 0x24 DUP3 ADD MSTORE PUSH32 0x4552433732313A20617070726F76652063616C6C6572206973206E6F74206F77 PUSH1 0x44 DUP3 ADD MSTORE PUSH32 0x6E6572206E6F7220617070726F76656420666F7220616C6C0000000000000000 PUSH1 0x64 DUP3 ADD MSTORE PUSH1 0x84 ADD PUSH2 0xC5C JUMP JUMPDEST PUSH2 0xEB0 DUP4 DUP4 PUSH2 0x2BA8 JUMP JUMPDEST POP POP POP JUMP JUMPDEST CALLER PUSH2 0xEBF DUP3 PUSH2 0x1939 JUMP JUMPDEST PUSH1 0x1 PUSH1 0x1 PUSH1 0xA0 SHL SUB AND EQ PUSH2 0xF15 JUMPI PUSH1 0x40 MLOAD PUSH3 0x461BCD PUSH1 0xE5 SHL DUP2 MSTORE PUSH1 0x20 PUSH1 0x4 DUP3 ADD MSTORE PUSH1 0x1D PUSH1 0x24 DUP3 ADD MSTORE PUSH32 0x4E6565647320746F206265206F776E6572206F6620746865206E6F6465000000 PUSH1 0x44 DUP3 ADD MSTORE PUSH1 0x64 ADD PUSH2 0xC5C JUMP JUMPDEST PUSH2 0xF1F DUP2 CALLER PUSH2 0x2C16 JUMP JUMPDEST PUSH1 0x0 DUP2 DUP2 MSTORE PUSH1 0x18 PUSH1 0x20 MSTORE PUSH1 0x40 SWAP1 KECCAK256 PUSH1 0x5 ADD SLOAD PUSH1 0xFF AND ISZERO ISZERO PUSH1 0x1 EQ PUSH2 0xF85 JUMPI PUSH1 0x40 MLOAD PUSH3 0x461BCD PUSH1 0xE5 SHL DUP2 MSTORE PUSH1 0x20 PUSH1 0x4 DUP3 ADD MSTORE PUSH1 0x1E PUSH1 0x24 DUP3 ADD MSTORE PUSH32 0x596F75206E65656420746F207061792074686520666565206669727374210000 PUSH1 0x44 DUP3 ADD MSTORE PUSH1 0x64 ADD PUSH2 0xC5C JUMP JUMPDEST PUSH1 0x0 DUP2 DUP2 MSTORE PUSH1 0x18 PUSH1 0x20 MSTORE PUSH1 0x40 SWAP1 KECCAK256 PUSH1 0x2 ADD SLOAD PUSH1 0xF SWAP1 PUSH2 0xFA6 SWAP1 PUSH1 0x1 SWAP1 PUSH2 0x3E2F JUMP JUMPDEST DUP2 SLOAD DUP2 LT PUSH2 0xFB6 JUMPI PUSH2 0xFB6 PUSH2 0x3E46 JUMP JUMPDEST PUSH1 0x0 SWAP2 DUP3 MSTORE PUSH1 0x20 DUP1 DUP4 KECCAK256 SWAP1 SWAP2 ADD SLOAD DUP4 DUP4 MSTORE PUSH1 0x18 SWAP1 SWAP2 MSTORE PUSH1 0x40 DUP3 KECCAK256 PUSH1 0x4 ADD SSTORE PUSH2 0xFDD DUP3 PUSH2 0x1785 JUMP JUMPDEST PUSH1 0x0 DUP4 DUP2 MSTORE PUSH1 0x18 PUSH1 0x20 MSTORE PUSH1 0x40 SWAP1 KECCAK256 PUSH1 0x4 ADD SLOAD PUSH2 0xFF8 DUP5 PUSH2 0x126B JUMP JUMPDEST PUSH2 0x1002 SWAP2 SWAP1 PUSH2 0x3E5C JUMP JUMPDEST PUSH2 0x100C SWAP2 SWAP1 PUSH2 0x3E5C JUMP JUMPDEST SWAP1 POP TIMESTAMP PUSH1 0x0 DUP4 DUP2 MSTORE PUSH1 0x18 PUSH1 0x20 MSTORE PUSH1 0x40 SWAP1 KECCAK256 SSTORE DUP1 PUSH2 0x1076 JUMPI PUSH1 0x40 MLOAD PUSH3 0x461BCD PUSH1 0xE5 SHL DUP2 MSTORE PUSH1 0x20 PUSH1 0x4 DUP3 ADD MSTORE PUSH1 0x22 PUSH1 0x24 DUP3 ADD MSTORE PUSH32 0x526577617264206E6565647320746F2062652067726561746572207468616E20 PUSH1 0x44 DUP3 ADD MSTORE PUSH2 0x3021 PUSH1 0xF0 SHL PUSH1 0x64 DUP3 ADD MSTORE PUSH1 0x84 ADD PUSH2 0xC5C JUMP JUMPDEST PUSH1 0x10 PUSH1 0x0 DUP2 SLOAD DUP2 LT PUSH2 0x108A JUMPI PUSH2 0x108A PUSH2 0x3E46 JUMP JUMPDEST PUSH1 0x0 SWAP2 DUP3 MSTORE PUSH1 0x20 SWAP1 SWAP2 KECCAK256 ADD SLOAD PUSH1 0x1 PUSH1 0x1 PUSH1 0xA0 SHL SUB AND PUSH4 0x23B872DD PUSH2 0x10B6 PUSH1 0xA SLOAD PUSH1 0x1 PUSH1 0x1 PUSH1 0xA0 SHL SUB AND SWAP1 JUMP JUMPDEST CALLER PUSH2 0x10C2 PUSH1 0x64 DUP7 PUSH2 0x3E91 JUMP JUMPDEST PUSH1 0x40 MLOAD PUSH1 0x1 PUSH1 0x1 PUSH1 0xE0 SHL SUB NOT PUSH1 0xE0 DUP7 SWAP1 SHL AND DUP2 MSTORE PUSH1 0x1 PUSH1 0x1 PUSH1 0xA0 SHL SUB SWAP4 DUP5 AND PUSH1 0x4 DUP3 ADD MSTORE SWAP3 SWAP1 SWAP2 AND PUSH1 0x24 DUP4 ADD MSTORE PUSH1 0x44 DUP3 ADD MSTORE PUSH1 0x64 ADD PUSH1 0x20 PUSH1 0x40 MLOAD DUP1 DUP4 SUB DUP2 PUSH1 0x0 DUP8 GAS CALL ISZERO DUP1 ISZERO PUSH2 0x1116 JUMPI RETURNDATASIZE PUSH1 0x0 DUP1 RETURNDATACOPY RETURNDATASIZE PUSH1 0x0 REVERT JUMPDEST POP POP POP POP PUSH1 0x40 MLOAD RETURNDATASIZE PUSH1 0x1F NOT PUSH1 0x1F DUP3 ADD AND DUP3 ADD DUP1 PUSH1 0x40 MSTORE POP DUP2 ADD SWAP1 PUSH2 0x113A SWAP2 SWAP1 PUSH2 0x3EA5 JUMP JUMPDEST POP PUSH1 0x0 DUP3 DUP2 MSTORE PUSH1 0x18 PUSH1 0x20 MSTORE PUSH1 0x40 DUP2 KECCAK256 PUSH1 0x3 ADD DUP1 SLOAD DUP4 SWAP3 SWAP1 PUSH2 0x115C SWAP1 DUP5 SWAP1 PUSH2 0x3EC2 JUMP JUMPDEST SWAP1 SWAP2 SSTORE POP POP PUSH1 0x0 DUP3 DUP2 MSTORE PUSH1 0x18 PUSH1 0x20 MSTORE PUSH1 0x40 DUP2 KECCAK256 PUSH1 0x2 ADD SLOAD PUSH1 0x12 SWAP1 PUSH2 0x1182 SWAP1 PUSH1 0x1 SWAP1 PUSH2 0x3E2F JUMP JUMPDEST DUP2 SLOAD DUP2 LT PUSH2 0x1192 JUMPI PUSH2 0x1192 PUSH2 0x3E46 JUMP JUMPDEST SWAP1 PUSH1 0x0 MSTORE PUSH1 0x20 PUSH1 0x0 KECCAK256 ADD SLOAD PUSH1 0x18 PUSH1 0x0 DUP6 DUP2 MSTORE PUSH1 0x20 ADD SWAP1 DUP2 MSTORE PUSH1 0x20 ADD PUSH1 0x0 KECCAK256 PUSH1 0x3 ADD SLOAD PUSH2 0x11BE SWAP2 SWAP1 PUSH2 0x3E91 JUMP JUMPDEST PUSH1 0x0 DUP5 DUP2 MSTORE PUSH1 0x18 PUSH1 0x20 MSTORE PUSH1 0x40 SWAP1 KECCAK256 PUSH1 0x6 ADD SLOAD SWAP1 SWAP2 POP DUP2 GT DUP1 ISZERO PUSH2 0x11E2 JUMPI POP PUSH1 0x1 DUP2 GT ISZERO JUMPDEST ISZERO PUSH2 0x1232 JUMPI PUSH1 0x0 DUP4 DUP2 MSTORE PUSH1 0x18 PUSH1 0x20 MSTORE PUSH1 0x40 SWAP1 KECCAK256 PUSH1 0x4 ADD SLOAD PUSH1 0xA SWAP1 PUSH2 0x1207 SWAP1 PUSH1 0x7 PUSH2 0x3E5C JUMP JUMPDEST PUSH2 0x1211 SWAP2 SWAP1 PUSH2 0x3E91 JUMP JUMPDEST PUSH1 0x0 DUP5 DUP2 MSTORE PUSH1 0x18 PUSH1 0x20 MSTORE PUSH1 0x40 SWAP1 KECCAK256 PUSH1 0x4 DUP2 ADD SWAP2 SWAP1 SWAP2 SSTORE PUSH1 0x6 ADD DUP2 SWAP1 SSTORE POP POP POP JUMP JUMPDEST PUSH1 0x0 DUP4 DUP2 MSTORE PUSH1 0x18 PUSH1 0x20 MSTORE PUSH1 0x40 SWAP1 KECCAK256 PUSH1 0x6 ADD SLOAD DUP2 GT ISZERO PUSH2 0xEB0 JUMPI PUSH1 0x0 DUP4 DUP2 MSTORE PUSH1 0x18 PUSH1 0x20 MSTORE PUSH1 0x40 SWAP1 KECCAK256 PUSH1 0x4 ADD SLOAD PUSH1 0x64 SWAP1 PUSH2 0x1207 SWAP1 PUSH1 0x5F PUSH2 0x3E5C JUMP JUMPDEST PUSH1 0x0 DUP2 DUP2 MSTORE PUSH1 0x18 PUSH1 0x20 MSTORE PUSH1 0x40 DUP2 KECCAK256 SLOAD TIMESTAMP JUMPDEST PUSH2 0xC2C SWAP2 SWAP1 PUSH2 0x3E2F JUMP JUMPDEST PUSH1 0xA SLOAD PUSH1 0x1 PUSH1 0x1 PUSH1 0xA0 SHL SUB AND CALLER EQ PUSH2 0x12B0 JUMPI PUSH1 0x40 MLOAD PUSH3 0x461BCD PUSH1 0xE5 SHL DUP2 MSTORE PUSH1 0x4 ADD PUSH2 0xC5C SWAP1 PUSH2 0x3DA9 JUMP JUMPDEST PUSH1 0x14 DUP1 SLOAD PUSH1 0xFF NOT AND SWAP2 ISZERO ISZERO SWAP2 SWAP1 SWAP2 OR SWAP1 SSTORE JUMP JUMPDEST PUSH2 0x12CD CALLER DUP3 PUSH2 0x2D07 JUMP JUMPDEST PUSH2 0x12E9 JUMPI PUSH1 0x40 MLOAD PUSH3 0x461BCD PUSH1 0xE5 SHL DUP2 MSTORE PUSH1 0x4 ADD PUSH2 0xC5C SWAP1 PUSH2 0x3EDA JUMP JUMPDEST PUSH2 0xEB0 DUP4 DUP4 DUP4 PUSH2 0x2DFE JUMP JUMPDEST PUSH1 0xA SLOAD PUSH1 0x1 PUSH1 0x1 PUSH1 0xA0 SHL SUB AND CALLER EQ PUSH2 0x131E JUMPI PUSH1 0x40 MLOAD PUSH3 0x461BCD PUSH1 0xE5 SHL DUP2 MSTORE PUSH1 0x4 ADD PUSH2 0xC5C SWAP1 PUSH2 0x3DA9 JUMP JUMPDEST DUP1 MLOAD PUSH2 0x1331 SWAP1 PUSH1 0x11 SWAP1 PUSH1 0x20 DUP5 ADD SWAP1 PUSH2 0x37A7 JUMP JUMPDEST POP POP JUMP JUMPDEST PUSH1 0x0 PUSH2 0x1340 DUP4 PUSH2 0x1A7E JUMP JUMPDEST DUP3 LT PUSH2 0x13A2 JUMPI PUSH1 0x40 MLOAD PUSH3 0x461BCD PUSH1 0xE5 SHL DUP2 MSTORE PUSH1 0x20 PUSH1 0x4 DUP3 ADD MSTORE PUSH1 0x2B PUSH1 0x24 DUP3 ADD MSTORE PUSH32 0x455243373231456E756D657261626C653A206F776E657220696E646578206F75 PUSH1 0x44 DUP3 ADD MSTORE PUSH11 0x74206F6620626F756E6473 PUSH1 0xA8 SHL PUSH1 0x64 DUP3 ADD MSTORE PUSH1 0x84 ADD PUSH2 0xC5C JUMP JUMPDEST POP PUSH1 0x1 PUSH1 0x1 PUSH1 0xA0 SHL SUB SWAP2 SWAP1 SWAP2 AND PUSH1 0x0 SWAP1 DUP2 MSTORE PUSH1 0x6 PUSH1 0x20 SWAP1 DUP2 MSTORE PUSH1 0x40 DUP1 DUP4 KECCAK256 SWAP4 DUP4 MSTORE SWAP3 SWAP1 MSTORE KECCAK256 SLOAD SWAP1 JUMP JUMPDEST PUSH1 0xA SLOAD PUSH1 0x1 PUSH1 0x1 PUSH1 0xA0 SHL SUB AND CALLER EQ PUSH2 0x13F5 JUMPI PUSH1 0x40 MLOAD PUSH3 0x461BCD PUSH1 0xE5 SHL DUP2 MSTORE PUSH1 0x4 ADD PUSH2 0xC5C SWAP1 PUSH2 0x3DA9 JUMP JUMPDEST DUP1 MLOAD PUSH2 0x1331 SWAP1 PUSH1 0xF SWAP1 PUSH1 0x20 DUP5 ADD SWAP1 PUSH2 0x37A7 JUMP JUMPDEST PUSH1 0xA SLOAD PUSH1 0x1 PUSH1 0x1 PUSH1 0xA0 SHL SUB AND CALLER EQ PUSH2 0x1432 JUMPI PUSH1 0x40 MLOAD PUSH3 0x461BCD PUSH1 0xE5 SHL DUP2 MSTORE PUSH1 0x4 ADD PUSH2 0xC5C SWAP1 PUSH2 0x3DA9 JUMP JUMPDEST PUSH1 0x40 MLOAD CALLER SWAP1 SELFBALANCE DUP1 ISZERO PUSH2 0x8FC MUL SWAP2 PUSH1 0x0 DUP2 DUP2 DUP2 DUP6 DUP9 DUP9 CALL SWAP4 POP POP POP POP ISZERO DUP1 ISZERO PUSH2 0x145E JUMPI RETURNDATASIZE PUSH1 0x0 DUP1 RETURNDATACOPY RETURNDATASIZE PUSH1 0x0 REVERT JUMPDEST POP JUMP JUMPDEST PUSH1 0x17 PUSH1 0x20 MSTORE DUP2 PUSH1 0x0 MSTORE PUSH1 0x40 PUSH1 0x0 KECCAK256 DUP2 DUP2 SLOAD DUP2 LT PUSH2 0x147D JUMPI PUSH1 0x0 DUP1 REVERT JUMPDEST SWAP1 PUSH1 0x0 MSTORE PUSH1 0x20 PUSH1 0x0 KECCAK256 ADD PUSH1 0x0 SWAP2 POP SWAP2 POP POP SLOAD DUP2 JUMP JUMPDEST PUSH2 0xEB0 DUP4 DUP4 DUP4 PUSH1 0x40 MLOAD DUP1 PUSH1 0x20 ADD PUSH1 0x40 MSTORE DUP1 PUSH1 0x0 DUP2 MSTORE POP PUSH2 0x239F JUMP JUMPDEST PUSH1 0x60 PUSH1 0x0 PUSH2 0x14BA DUP4 PUSH2 0x1A7E JUMP JUMPDEST SWAP1 POP PUSH1 0x0 DUP2 PUSH8 0xFFFFFFFFFFFFFFFF DUP2 GT ISZERO PUSH2 0x14D7 JUMPI PUSH2 0x14D7 PUSH2 0x3A35 JUMP JUMPDEST PUSH1 0x40 MLOAD SWAP1 DUP1 DUP3 MSTORE DUP1 PUSH1 0x20 MUL PUSH1 0x20 ADD DUP3 ADD PUSH1 0x40 MSTORE DUP1 ISZERO PUSH2 0x1500 JUMPI DUP2 PUSH1 0x20 ADD PUSH1 0x20 DUP3 MUL DUP1 CALLDATASIZE DUP4 CALLDATACOPY ADD SWAP1 POP JUMPDEST POP SWAP1 POP PUSH1 0x0 JUMPDEST DUP3 DUP2 LT ISZERO PUSH2 0x1547 JUMPI PUSH2 0x1518 DUP6 DUP3 PUSH2 0x1335 JUMP JUMPDEST DUP3 DUP3 DUP2 MLOAD DUP2 LT PUSH2 0x152A JUMPI PUSH2 0x152A PUSH2 0x3E46 JUMP JUMPDEST PUSH1 0x20 SWAP1 DUP2 MUL SWAP2 SWAP1 SWAP2 ADD ADD MSTORE DUP1 PUSH2 0x153F DUP2 PUSH2 0x3F2B JUMP JUMPDEST SWAP2 POP POP PUSH2 0x1506 JUMP JUMPDEST POP SWAP4 SWAP3 POP POP POP JUMP JUMPDEST PUSH1 0x0 DUP1 PUSH1 0x0 DUP1 PUSH1 0x10 PUSH1 0x1 DUP2 SLOAD DUP2 LT PUSH2 0x1569 JUMPI PUSH2 0x1569 PUSH2 0x3E46 JUMP JUMPDEST PUSH1 0x0 SWAP2 DUP3 MSTORE PUSH1 0x20 SWAP1 SWAP2 KECCAK256 ADD SLOAD PUSH1 0x40 MLOAD PUSH4 0x28D68CA3 PUSH1 0xE1 SHL DUP2 MSTORE CALLER PUSH1 0x4 DUP3 ADD MSTORE PUSH1 0x24 DUP2 ADD DUP8 SWAP1 MSTORE PUSH1 0x1 PUSH1 0x1 PUSH1 0xA0 SHL SUB SWAP1 SWAP2 AND SWAP1 PUSH4 0x51AD1946 SWAP1 PUSH1 0x44 ADD PUSH1 0x60 PUSH1 0x40 MLOAD DUP1 DUP4 SUB DUP2 DUP7 GAS STATICCALL ISZERO DUP1 ISZERO PUSH2 0x15C1 JUMPI RETURNDATASIZE PUSH1 0x0 DUP1 RETURNDATACOPY RETURNDATASIZE PUSH1 0x0 REVERT JUMPDEST POP POP POP POP PUSH1 0x40 MLOAD RETURNDATASIZE PUSH1 0x1F NOT PUSH1 0x1F DUP3 ADD AND DUP3 ADD DUP1 PUSH1 0x40 MSTORE POP DUP2 ADD SWAP1 PUSH2 0x15E5 SWAP2 SWAP1 PUSH2 0x3F46 JUMP JUMPDEST PUSH1 0x1 PUSH1 0x1 PUSH1 0xA0 SHL SUB DUP10 AND PUSH1 0x0 SWAP1 DUP2 MSTORE PUSH1 0x1A PUSH1 0x20 SWAP1 DUP2 MSTORE PUSH1 0x40 DUP1 DUP4 KECCAK256 DUP12 DUP5 MSTORE SWAP1 SWAP2 MSTORE SWAP1 KECCAK256 SLOAD SWAP2 SWAP5 POP SWAP3 POP ISZERO SWAP1 POP DUP1 PUSH2 0x163E JUMPI POP PUSH1 0x1 PUSH1 0x1 PUSH1 0xA0 SHL SUB DUP7 AND PUSH1 0x0 SWAP1 DUP2 MSTORE PUSH1 0x1A PUSH1 0x20 SWAP1 DUP2 MSTORE PUSH1 0x40 DUP1 DUP4 KECCAK256 DUP9 DUP5 MSTORE SWAP1 SWAP2 MSTORE SWAP1 KECCAK256 SLOAD DUP3 GT JUMPDEST ISZERO PUSH2 0x1691 JUMPI PUSH2 0x1650 DUP2 PUSH3 0x2819A0 PUSH2 0x3E5C JUMP JUMPDEST PUSH2 0x165A SWAP1 DUP4 PUSH2 0x3EC2 JUMP JUMPDEST TIMESTAMP GT ISZERO PUSH2 0x168A JUMPI DUP2 PUSH2 0x166F DUP3 PUSH3 0x2819A0 PUSH2 0x3E5C JUMP JUMPDEST PUSH2 0x1679 SWAP1 DUP5 PUSH2 0x3EC2 JUMP JUMPDEST PUSH2 0x1683 SWAP2 SWAP1 PUSH2 0x3E2F JUMP JUMPDEST SWAP3 POP PUSH2 0x175A JUMP JUMPDEST DUP2 TIMESTAMP PUSH2 0x1679 JUMP JUMPDEST PUSH2 0x169E DUP2 PUSH3 0x2819A0 PUSH2 0x3E5C JUMP JUMPDEST PUSH2 0x16A8 SWAP1 DUP4 PUSH2 0x3EC2 JUMP JUMPDEST PUSH1 0x1 PUSH1 0x1 PUSH1 0xA0 SHL SUB DUP8 AND PUSH1 0x0 SWAP1 DUP2 MSTORE PUSH1 0x1A PUSH1 0x20 SWAP1 DUP2 MSTORE PUSH1 0x40 DUP1 DUP4 KECCAK256 DUP10 DUP5 MSTORE SWAP1 SWAP2 MSTORE SWAP1 KECCAK256 SLOAD LT PUSH2 0x16DA JUMPI PUSH1 0x0 SWAP3 POP PUSH2 0x175A JUMP JUMPDEST PUSH2 0x16E7 DUP2 PUSH3 0x2819A0 PUSH2 0x3E5C JUMP JUMPDEST PUSH2 0x16F1 SWAP1 DUP4 PUSH2 0x3EC2 JUMP JUMPDEST TIMESTAMP GT ISZERO PUSH2 0x1729 JUMPI PUSH1 0x1 PUSH1 0x1 PUSH1 0xA0 SHL SUB DUP7 AND PUSH1 0x0 SWAP1 DUP2 MSTORE PUSH1 0x1A PUSH1 0x20 SWAP1 DUP2 MSTORE PUSH1 0x40 DUP1 DUP4 KECCAK256 DUP9 DUP5 MSTORE SWAP1 SWAP2 MSTORE SWAP1 KECCAK256 SLOAD PUSH2 0x166F DUP3 PUSH3 0x2819A0 PUSH2 0x3E5C JUMP JUMPDEST PUSH1 0x1 PUSH1 0x1 PUSH1 0xA0 SHL SUB DUP7 AND PUSH1 0x0 SWAP1 DUP2 MSTORE PUSH1 0x1A PUSH1 0x20 SWAP1 DUP2 MSTORE PUSH1 0x40 DUP1 DUP4 KECCAK256 DUP9 DUP5 MSTORE SWAP1 SWAP2 MSTORE SWAP1 KECCAK256 SLOAD PUSH2 0x1757 SWAP1 TIMESTAMP PUSH2 0x3E2F JUMP JUMPDEST SWAP3 POP JUMPDEST POP SWAP1 SWAP5 SWAP4 POP POP POP POP JUMP JUMPDEST PUSH1 0x11 DUP2 DUP2 SLOAD DUP2 LT PUSH2 0x1774 JUMPI PUSH1 0x0 DUP1 REVERT JUMPDEST PUSH1 0x0 SWAP2 DUP3 MSTORE PUSH1 0x20 SWAP1 SWAP2 KECCAK256 ADD SLOAD SWAP1 POP DUP2 JUMP JUMPDEST PUSH1 0x0 PUSH3 0x7E900 PUSH2 0x1794 DUP4 PUSH2 0x126B JUMP JUMPDEST LT ISZERO PUSH2 0x17A2 JUMPI POP PUSH1 0x58 SWAP2 SWAP1 POP JUMP JUMPDEST PUSH3 0x7E900 PUSH2 0x17AF DUP4 PUSH2 0x126B JUMP JUMPDEST GT DUP1 ISZERO PUSH2 0x17C6 JUMPI POP PUSH3 0x112380 PUSH2 0x17C4 DUP4 PUSH2 0x126B JUMP JUMPDEST LT JUMPDEST ISZERO PUSH2 0x17D3 JUMPI POP PUSH1 0x5E SWAP2 SWAP1 POP JUMP JUMPDEST POP PUSH1 0x64 SWAP2 SWAP1 POP JUMP JUMPDEST SWAP2 SWAP1 POP JUMP JUMPDEST PUSH1 0x0 PUSH2 0x17EB PUSH1 0x8 SLOAD SWAP1 JUMP JUMPDEST DUP3 LT PUSH2 0x184E JUMPI PUSH1 0x40 MLOAD PUSH3 0x461BCD PUSH1 0xE5 SHL DUP2 MSTORE PUSH1 0x20 PUSH1 0x4 DUP3 ADD MSTORE PUSH1 0x2C PUSH1 0x24 DUP3 ADD MSTORE PUSH32 0x455243373231456E756D657261626C653A20676C6F62616C20696E646578206F PUSH1 0x44 DUP3 ADD MSTORE PUSH12 0x7574206F6620626F756E6473 PUSH1 0xA0 SHL PUSH1 0x64 DUP3 ADD MSTORE PUSH1 0x84 ADD PUSH2 0xC5C JUMP JUMPDEST PUSH1 0x8 DUP3 DUP2 SLOAD DUP2 LT PUSH2 0x1861 JUMPI PUSH2 0x1861 PUSH2 0x3E46 JUMP JUMPDEST SWAP1 PUSH1 0x0 MSTORE PUSH1 0x20 PUSH1 0x0 KECCAK256 ADD SLOAD SWAP1 POP SWAP2 SWAP1 POP JUMP JUMPDEST PUSH1 0x0 PUSH2 0x187F DUP4 DUP4 PUSH2 0x1DAF JUMP JUMPDEST ISZERO ISZERO PUSH1 0x1 EQ ISZERO PUSH2 0x18A7 JUMPI PUSH1 0x13 SLOAD PUSH2 0x1896 DUP5 DUP5 PUSH2 0x154F JUMP JUMPDEST PUSH2 0x18A0 SWAP2 SWAP1 PUSH2 0x3E91 JUMP JUMPDEST SWAP1 POP PUSH2 0xC2C JUMP JUMPDEST POP PUSH1 0x0 PUSH2 0xC2C JUMP JUMPDEST PUSH1 0xA SLOAD PUSH1 0x1 PUSH1 0x1 PUSH1 0xA0 SHL SUB AND CALLER EQ PUSH2 0x18D9 JUMPI PUSH1 0x40 MLOAD PUSH3 0x461BCD PUSH1 0xE5 SHL DUP2 MSTORE PUSH1 0x4 ADD PUSH2 0xC5C SWAP1 PUSH2 0x3DA9 JUMP JUMPDEST DUP1 MLOAD PUSH2 0x1331 SWAP1 PUSH1 0xB SWAP1 PUSH1 0x20 DUP5 ADD SWAP1 PUSH2 0x37F2 JUMP JUMPDEST PUSH1 0xA SLOAD PUSH1 0x1 PUSH1 0x1 PUSH1 0xA0 SHL SUB AND CALLER EQ PUSH2 0x1916 JUMPI PUSH1 0x40 MLOAD PUSH3 0x461BCD PUSH1 0xE5 SHL DUP2 MSTORE PUSH1 0x4 ADD PUSH2 0xC5C SWAP1 PUSH2 0x3DA9 JUMP JUMPDEST DUP1 MLOAD PUSH2 0x1331 SWAP1 PUSH1 0x12 SWAP1 PUSH1 0x20 DUP5 ADD SWAP1 PUSH2 0x37A7 JUMP JUMPDEST PUSH1 0x12 DUP2 DUP2 SLOAD DUP2 LT PUSH2 0x1774 JUMPI PUSH1 0x0 DUP1 REVERT JUMPDEST PUSH1 0x0 DUP2 DUP2 MSTORE PUSH1 0x2 PUSH1 0x20 MSTORE PUSH1 0x40 DUP2 KECCAK256 SLOAD PUSH1 0x1 PUSH1 0x1 PUSH1 0xA0 SHL SUB AND DUP1 PUSH2 0xC2C JUMPI PUSH1 0x40 MLOAD PUSH3 0x461BCD PUSH1 0xE5 SHL DUP2 MSTORE PUSH1 0x20 PUSH1 0x4 DUP3 ADD MSTORE PUSH1 0x29 PUSH1 0x24 DUP3 ADD MSTORE PUSH32 0x4552433732313A206F776E657220717565727920666F72206E6F6E6578697374 PUSH1 0x44 DUP3 ADD MSTORE PUSH9 0x32B73A103A37B5B2B7 PUSH1 0xB9 SHL PUSH1 0x64 DUP3 ADD MSTORE PUSH1 0x84 ADD PUSH2 0xC5C JUMP JUMPDEST PUSH1 0x0 DUP2 DUP2 MSTORE PUSH1 0x18 PUSH1 0x20 MSTORE PUSH1 0x40 DUP2 KECCAK256 PUSH1 0x1 ADD SLOAD TIMESTAMP PUSH2 0x127C JUMP JUMPDEST PUSH1 0xB DUP1 SLOAD PUSH2 0x19D5 SWAP1 PUSH2 0x3DDE JUMP JUMPDEST DUP1 PUSH1 0x1F ADD PUSH1 0x20 DUP1 SWAP2 DIV MUL PUSH1 0x20 ADD PUSH1 0x40 MLOAD SWAP1 DUP2 ADD PUSH1 0x40 MSTORE DUP1 SWAP3 SWAP2 SWAP1 DUP2 DUP2 MSTORE PUSH1 0x20 ADD DUP3 DUP1 SLOAD PUSH2 0x1A01 SWAP1 PUSH2 0x3DDE JUMP JUMPDEST DUP1 ISZERO PUSH2 0x1A4E JUMPI DUP1 PUSH1 0x1F LT PUSH2 0x1A23 JUMPI PUSH2 0x100 DUP1 DUP4 SLOAD DIV MUL DUP4 MSTORE SWAP2 PUSH1 0x20 ADD SWAP2 PUSH2 0x1A4E JUMP JUMPDEST DUP3 ADD SWAP2 SWAP1 PUSH1 0x0 MSTORE PUSH1 0x20 PUSH1 0x0 KECCAK256 SWAP1 JUMPDEST DUP2 SLOAD DUP2 MSTORE SWAP1 PUSH1 0x1 ADD SWAP1 PUSH1 0x20 ADD DUP1 DUP4 GT PUSH2 0x1A31 JUMPI DUP3 SWAP1 SUB PUSH1 0x1F AND DUP3 ADD SWAP2 JUMPDEST POP POP POP POP POP DUP2 JUMP JUMPDEST PUSH1 0x0 PUSH8 0xDE0B6B3A7640000 DUP3 PUSH2 0x1A6A PUSH2 0x1DCB JUMP JUMPDEST PUSH2 0x1A74 SWAP2 SWAP1 PUSH2 0x3E5C JUMP JUMPDEST PUSH2 0xC2C SWAP2 SWAP1 PUSH2 0x3E91 JUMP JUMPDEST PUSH1 0x0 PUSH1 0x1 PUSH1 0x1 PUSH1 0xA0 SHL SUB DUP3 AND PUSH2 0x1AE9 JUMPI PUSH1 0x40 MLOAD PUSH3 0x461BCD PUSH1 0xE5 SHL DUP2 MSTORE PUSH1 0x20 PUSH1 0x4 DUP3 ADD MSTORE PUSH1 0x2A PUSH1 0x24 DUP3 ADD MSTORE PUSH32 0x4552433732313A2062616C616E636520717565727920666F7220746865207A65 PUSH1 0x44 DUP3 ADD MSTORE PUSH10 0x726F2061646472657373 PUSH1 0xB0 SHL PUSH1 0x64 DUP3 ADD MSTORE PUSH1 0x84 ADD PUSH2 0xC5C JUMP JUMPDEST POP PUSH1 0x1 PUSH1 0x1 PUSH1 0xA0 SHL SUB AND PUSH1 0x0 SWAP1 DUP2 MSTORE PUSH1 0x3 PUSH1 0x20 MSTORE PUSH1 0x40 SWAP1 KECCAK256 SLOAD SWAP1 JUMP JUMPDEST PUSH1 0xA SLOAD PUSH1 0x1 PUSH1 0x1 PUSH1 0xA0 SHL SUB AND CALLER EQ PUSH2 0x1B2F JUMPI PUSH1 0x40 MLOAD PUSH3 0x461BCD PUSH1 0xE5 SHL DUP2 MSTORE PUSH1 0x4 ADD PUSH2 0xC5C SWAP1 PUSH2 0x3DA9 JUMP JUMPDEST PUSH2 0x1B39 PUSH1 0x0 PUSH2 0x2FA9 JUMP JUMPDEST JUMP JUMPDEST CALLER PUSH2 0x1B45 DUP3 PUSH2 0x1939 JUMP JUMPDEST PUSH1 0x1 PUSH1 0x1 PUSH1 0xA0 SHL SUB AND EQ PUSH2 0x1B9B JUMPI PUSH1 0x40 MLOAD PUSH3 0x461BCD PUSH1 0xE5 SHL DUP2 MSTORE PUSH1 0x20 PUSH1 0x4 DUP3 ADD MSTORE PUSH1 0x19 PUSH1 0x24 DUP3 ADD MSTORE PUSH32 0x4E6565647320746F206265206F776E6572206F66204E6F646500000000000000 PUSH1 0x44 DUP3 ADD MSTORE PUSH1 0x64 ADD PUSH2 0xC5C JUMP JUMPDEST PUSH1 0x0 PUSH1 0x10 PUSH1 0x3 DUP2 SLOAD DUP2 LT PUSH2 0x1BB1 JUMPI PUSH2 0x1BB1 PUSH2 0x3E46 JUMP JUMPDEST PUSH1 0x0 SWAP2 DUP3 MSTORE PUSH1 0x20 SWAP1 SWAP2 KECCAK256 ADD SLOAD PUSH1 0x40 MLOAD PUSH4 0x70A08231 PUSH1 0xE0 SHL DUP2 MSTORE CALLER PUSH1 0x4 DUP3 ADD MSTORE PUSH1 0x1 PUSH1 0x1 PUSH1 0xA0 SHL SUB SWAP1 SWAP2 AND SWAP1 PUSH4 0x70A08231 SWAP1 PUSH1 0x24 ADD PUSH1 0x20 PUSH1 0x40 MLOAD DUP1 DUP4 SUB DUP2 DUP7 GAS STATICCALL ISZERO DUP1 ISZERO PUSH2 0x1C02 JUMPI RETURNDATASIZE PUSH1 0x0 DUP1 RETURNDATACOPY RETURNDATASIZE PUSH1 0x0 REVERT JUMPDEST POP POP POP POP PUSH1 0x40 MLOAD RETURNDATASIZE PUSH1 0x1F NOT PUSH1 0x1F DUP3 ADD AND DUP3 ADD DUP1 PUSH1 0x40 MSTORE POP DUP2 ADD SWAP1 PUSH2 0x1C26 SWAP2 SWAP1 PUSH2 0x3F7D JUMP JUMPDEST GT ISZERO PUSH2 0x1C85 JUMPI PUSH1 0x0 DUP2 DUP2 MSTORE PUSH1 0x18 PUSH1 0x20 MSTORE PUSH1 0x40 SWAP1 KECCAK256 PUSH1 0x2 ADD SLOAD PUSH1 0x3 EQ PUSH2 0x1C85 JUMPI PUSH1 0x40 MLOAD PUSH3 0x461BCD PUSH1 0xE5 SHL DUP2 MSTORE PUSH1 0x20 PUSH1 0x4 DUP3 ADD MSTORE PUSH1 0x15 PUSH1 0x24 DUP3 ADD MSTORE PUSH21 0x596F7520646F6E2774206E65656420746F20706179 PUSH1 0x58 SHL PUSH1 0x44 DUP3 ADD MSTORE PUSH1 0x64 ADD PUSH2 0xC5C JUMP JUMPDEST PUSH1 0x0 DUP2 DUP2 MSTORE PUSH1 0x18 PUSH1 0x20 MSTORE PUSH1 0x40 SWAP1 KECCAK256 PUSH1 0x2 ADD SLOAD PUSH1 0x11 SWAP1 PUSH2 0x1CA6 SWAP1 PUSH1 0x1 SWAP1 PUSH2 0x3E2F JUMP JUMPDEST DUP2 SLOAD DUP2 LT PUSH2 0x1CB6 JUMPI PUSH2 0x1CB6 PUSH2 0x3E46 JUMP JUMPDEST SWAP1 PUSH1 0x0 MSTORE PUSH1 0x20 PUSH1 0x0 KECCAK256 ADD SLOAD PUSH8 0xDE0B6B3A7640000 PUSH2 0x1CD4 SWAP2 SWAP1 PUSH2 0x3E5C JUMP JUMPDEST PUSH2 0x1CDD CALLVALUE PUSH2 0x1A56 JUMP JUMPDEST LT ISZERO PUSH2 0x1D2B JUMPI PUSH1 0x40 MLOAD PUSH3 0x461BCD PUSH1 0xE5 SHL DUP2 MSTORE PUSH1 0x20 PUSH1 0x4 DUP3 ADD MSTORE PUSH1 0x1C PUSH1 0x24 DUP3 ADD MSTORE PUSH32 0x596F7520646F6E2774206861766520656E6F756768206D6F6E65792100000000 PUSH1 0x44 DUP3 ADD MSTORE PUSH1 0x64 ADD PUSH2 0xC5C JUMP JUMPDEST PUSH1 0x0 DUP2 DUP2 MSTORE PUSH1 0x18 PUSH1 0x20 MSTORE PUSH1 0x40 SWAP1 KECCAK256 PUSH1 0x5 ADD DUP1 SLOAD PUSH1 0xFF NOT AND PUSH1 0x1 OR SWAP1 SSTORE PUSH2 0x1D4E TIMESTAMP SWAP1 JUMP JUMPDEST PUSH1 0x0 SWAP2 DUP3 MSTORE PUSH1 0x18 PUSH1 0x20 MSTORE PUSH1 0x40 SWAP1 SWAP2 KECCAK256 PUSH1 0x1 ADD SSTORE JUMP JUMPDEST PUSH1 0xA SLOAD PUSH1 0x1 PUSH1 0x1 PUSH1 0xA0 SHL SUB AND CALLER EQ PUSH2 0x1D8D JUMPI PUSH1 0x40 MLOAD PUSH3 0x461BCD PUSH1 0xE5 SHL DUP2 MSTORE PUSH1 0x4 ADD PUSH2 0xC5C SWAP1 PUSH2 0x3DA9 JUMP JUMPDEST DUP1 MLOAD PUSH2 0x1331 SWAP1 PUSH1 0xE SWAP1 PUSH1 0x20 DUP5 ADD SWAP1 PUSH2 0x37F2 JUMP JUMPDEST PUSH1 0x60 PUSH1 0x1 DUP1 SLOAD PUSH2 0xC87 SWAP1 PUSH2 0x3DDE JUMP JUMPDEST PUSH1 0x0 PUSH1 0x13 SLOAD PUSH2 0x1DBE DUP5 DUP5 PUSH2 0x154F JUMP JUMPDEST LT PUSH2 0x18A7 JUMPI POP PUSH1 0x1 PUSH2 0xC2C JUMP JUMPDEST PUSH1 0x0 DUP1 PUSH1 0x10 PUSH1 0x2 DUP2 SLOAD DUP2 LT PUSH2 0x1DE2 JUMPI PUSH2 0x1DE2 PUSH2 0x3E46 JUMP JUMPDEST SWAP1 PUSH1 0x0 MSTORE PUSH1 0x20 PUSH1 0x0 KECCAK256 ADD PUSH1 0x0 SWAP1 SLOAD SWAP1 PUSH2 0x100 EXP SWAP1 DIV PUSH1 0x1 PUSH1 0x1 PUSH1 0xA0 SHL SUB AND PUSH1 0x1 PUSH1 0x1 PUSH1 0xA0 SHL SUB AND PUSH4 0xFEAF968C PUSH1 0x40 MLOAD DUP2 PUSH4 0xFFFFFFFF AND PUSH1 0xE0 SHL DUP2 MSTORE PUSH1 0x4 ADD PUSH1 0xA0 PUSH1 0x40 MLOAD DUP1 DUP4 SUB DUP2 DUP7 GAS STATICCALL ISZERO DUP1 ISZERO PUSH2 0x1E3D JUMPI RETURNDATASIZE PUSH1 0x0 DUP1 RETURNDATACOPY RETURNDATASIZE PUSH1 0x0 REVERT JUMPDEST POP POP POP POP PUSH1 0x40 MLOAD RETURNDATASIZE PUSH1 0x1F NOT PUSH1 0x1F DUP3 ADD AND DUP3 ADD DUP1 PUSH1 0x40 MSTORE POP DUP2 ADD SWAP1 PUSH2 0x1E61 SWAP2 SWAP1 PUSH2 0x3FB0 JUMP JUMPDEST POP POP POP SWAP2 POP POP DUP1 PUSH5 0x2540BE400 PUSH2 0x1E78 SWAP2 SWAP1 PUSH2 0x4000 JUMP JUMPDEST SWAP2 POP POP SWAP1 JUMP JUMPDEST PUSH1 0xD SLOAD PUSH1 0xFF AND ISZERO PUSH2 0x1EBF JUMPI PUSH1 0x40 MLOAD PUSH3 0x461BCD PUSH1 0xE5 SHL DUP2 MSTORE PUSH1 0x20 PUSH1 0x4 DUP3 ADD MSTORE PUSH1 0xB PUSH1 0x24 DUP3 ADD MSTORE PUSH11 0x135A5B9D081C185D5CD959 PUSH1 0xAA SHL PUSH1 0x44 DUP3 ADD MSTORE PUSH1 0x64 ADD PUSH2 0xC5C JUMP JUMPDEST PUSH1 0x0 DUP1 PUSH1 0x0 PUSH1 0x10 PUSH1 0x1 DUP2 SLOAD DUP2 LT PUSH2 0x1ED8 JUMPI PUSH2 0x1ED8 PUSH2 0x3E46 JUMP JUMPDEST PUSH1 0x0 SWAP2 DUP3 MSTORE PUSH1 0x20 SWAP1 SWAP2 KECCAK256 ADD SLOAD PUSH1 0x40 MLOAD PUSH4 0x28D68CA3 PUSH1 0xE1 SHL DUP2 MSTORE CALLER PUSH1 0x4 DUP3 ADD MSTORE PUSH1 0x24 DUP2 ADD DUP7 SWAP1 MSTORE PUSH1 0x1 PUSH1 0x1 PUSH1 0xA0 SHL SUB SWAP1 SWAP2 AND SWAP1 PUSH4 0x51AD1946 SWAP1 PUSH1 0x44 ADD PUSH1 0x60 PUSH1 0x40 MLOAD DUP1 DUP4 SUB DUP2 DUP7 GAS STATICCALL ISZERO DUP1 ISZERO PUSH2 0x1F30 JUMPI RETURNDATASIZE PUSH1 0x0 DUP1 RETURNDATACOPY RETURNDATASIZE PUSH1 0x0 REVERT JUMPDEST POP POP POP POP PUSH1 0x40 MLOAD RETURNDATASIZE PUSH1 0x1F NOT PUSH1 0x1F DUP3 ADD AND DUP3 ADD DUP1 PUSH1 0x40 MSTORE POP DUP2 ADD SWAP1 PUSH2 0x1F54 SWAP2 SWAP1 PUSH2 0x3F46 JUMP JUMPDEST POP SWAP1 SWAP2 POP POP PUSH1 0x1 DUP2 ISZERO ISZERO EQ ISZERO PUSH2 0x225A JUMPI CALLER PUSH1 0x0 SWAP1 DUP2 MSTORE PUSH1 0x1A PUSH1 0x20 SWAP1 DUP2 MSTORE PUSH1 0x40 DUP1 DUP4 KECCAK256 DUP8 DUP5 MSTORE SWAP1 SWAP2 MSTORE SWAP1 KECCAK256 PUSH1 0x1 ADD SLOAD PUSH1 0xFF AND ISZERO DUP1 ISZERO PUSH2 0x1F9B JUMPI POP PUSH1 0x1 PUSH2 0x1F99 CALLER DUP7 PUSH2 0x1873 JUMP JUMPDEST LT JUMPDEST ISZERO PUSH2 0x1FA9 JUMPI PUSH1 0x1 SWAP2 POP PUSH2 0x1FFB JUMP JUMPDEST PUSH2 0x1FB3 CALLER DUP6 PUSH2 0x1873 JUMP JUMPDEST SWAP2 POP PUSH1 0x0 DUP3 GT PUSH2 0x1FFB JUMPI PUSH1 0x40 MLOAD PUSH3 0x461BCD PUSH1 0xE5 SHL DUP2 MSTORE PUSH1 0x20 PUSH1 0x4 DUP3 ADD MSTORE PUSH1 0x13 PUSH1 0x24 DUP3 ADD MSTORE PUSH19 0x596F752063616E2774206D696E742079657421 PUSH1 0x68 SHL PUSH1 0x44 DUP3 ADD MSTORE PUSH1 0x64 ADD PUSH2 0xC5C JUMP JUMPDEST PUSH2 0x269E DUP5 GT PUSH2 0x200D JUMPI PUSH1 0x1 SWAP3 POP PUSH2 0x2012 JUMP JUMPDEST PUSH1 0x3 SWAP3 POP JUMPDEST PUSH1 0x16 PUSH2 0x201F PUSH1 0x1 DUP6 PUSH2 0x3E2F JUMP JUMPDEST DUP2 SLOAD DUP2 LT PUSH2 0x202F JUMPI PUSH2 0x202F PUSH2 0x3E46 JUMP JUMPDEST SWAP1 PUSH1 0x0 MSTORE PUSH1 0x20 PUSH1 0x0 KECCAK256 ADD SLOAD DUP3 PUSH1 0x15 PUSH1 0x1 DUP7 PUSH2 0x204A SWAP2 SWAP1 PUSH2 0x3E2F JUMP JUMPDEST DUP2 SLOAD DUP2 LT PUSH2 0x205A JUMPI PUSH2 0x205A PUSH2 0x3E46 JUMP JUMPDEST SWAP1 PUSH1 0x0 MSTORE PUSH1 0x20 PUSH1 0x0 KECCAK256 ADD SLOAD PUSH2 0x206F SWAP2 SWAP1 PUSH2 0x3EC2 JUMP JUMPDEST GT ISZERO PUSH2 0x20A9 JUMPI PUSH1 0x40 MLOAD PUSH3 0x461BCD PUSH1 0xE5 SHL DUP2 MSTORE PUSH1 0x20 PUSH1 0x4 DUP3 ADD MSTORE PUSH1 0x9 PUSH1 0x24 DUP3 ADD MSTORE PUSH9 0x536F6C64206F757421 PUSH1 0xB8 SHL PUSH1 0x44 DUP3 ADD MSTORE PUSH1 0x64 ADD PUSH2 0xC5C JUMP JUMPDEST PUSH1 0x0 JUMPDEST DUP3 DUP2 LT ISZERO PUSH2 0x2206 JUMPI PUSH2 0x20C0 CALLER PUSH1 0xC SLOAD PUSH2 0x2FFB JUMP JUMPDEST PUSH2 0x20C8 PUSH2 0x3015 JUMP JUMPDEST PUSH1 0x40 MLOAD DUP1 PUSH2 0x100 ADD PUSH1 0x40 MSTORE DUP1 PUSH2 0x20DB TIMESTAMP SWAP1 JUMP JUMPDEST DUP2 MSTORE PUSH1 0x20 ADD TIMESTAMP DUP2 MSTORE PUSH1 0x20 DUP2 ADD DUP7 SWAP1 MSTORE PUSH1 0x0 PUSH1 0x40 DUP3 ADD MSTORE PUSH1 0x60 ADD PUSH1 0xF PUSH2 0x2101 PUSH1 0x1 DUP9 PUSH2 0x3E2F JUMP JUMPDEST DUP2 SLOAD DUP2 LT PUSH2 0x2111 JUMPI PUSH2 0x2111 PUSH2 0x3E46 JUMP JUMPDEST PUSH1 0x0 SWAP2 DUP3 MSTORE PUSH1 0x20 DUP1 DUP4 KECCAK256 SWAP1 SWAP2 ADD SLOAD DUP4 MSTORE PUSH1 0x1 DUP4 DUP3 ADD DUP2 SWAP1 MSTORE PUSH1 0x40 DUP1 DUP6 ADD DUP5 SWAP1 MSTORE PUSH1 0x60 SWAP5 DUP6 ADD DUP5 SWAP1 MSTORE PUSH1 0xC SLOAD DUP5 MSTORE PUSH1 0x18 DUP4 MSTORE SWAP3 DUP4 SWAP1 KECCAK256 DUP6 MLOAD DUP2 SSTORE SWAP2 DUP6 ADD MLOAD DUP3 DUP3 ADD SSTORE SWAP2 DUP5 ADD MLOAD PUSH1 0x2 DUP3 ADD SSTORE SWAP2 DUP4 ADD MLOAD PUSH1 0x3 DUP4 ADD SSTORE PUSH1 0x80 DUP4 ADD MLOAD PUSH1 0x4 DUP4 ADD SSTORE PUSH1 0xA0 DUP4 ADD MLOAD PUSH1 0x5 DUP4 ADD DUP1 SLOAD PUSH1 0xC0 DUP7 ADD MLOAD ISZERO ISZERO PUSH2 0x100 MUL PUSH2 0xFF00 NOT SWAP4 ISZERO ISZERO SWAP4 SWAP1 SWAP4 AND PUSH2 0xFFFF NOT SWAP1 SWAP2 AND OR SWAP2 SWAP1 SWAP2 OR SWAP1 SSTORE PUSH1 0xE0 SWAP1 SWAP3 ADD MLOAD PUSH1 0x6 SWAP1 SWAP2 ADD SSTORE PUSH1 0x15 PUSH2 0x21B5 DUP3 DUP8 PUSH2 0x3E2F JUMP JUMPDEST DUP2 SLOAD DUP2 LT PUSH2 0x21C5 JUMPI PUSH2 0x21C5 PUSH2 0x3E46 JUMP JUMPDEST SWAP1 PUSH1 0x0 MSTORE PUSH1 0x20 PUSH1 0x0 KECCAK256 ADD PUSH1 0x0 DUP3 DUP3 SLOAD PUSH2 0x21DE SWAP2 SWAP1 PUSH2 0x3EC2 JUMP JUMPDEST SWAP1 SWAP2 SSTORE POP POP PUSH1 0xC SLOAD PUSH2 0x21F1 SWAP1 PUSH1 0x1 PUSH2 0x3EC2 JUMP JUMPDEST PUSH1 0xC SSTORE DUP1 PUSH2 0x21FE DUP2 PUSH2 0x3F2B JUMP JUMPDEST SWAP2 POP POP PUSH2 0x20AC JUMP JUMPDEST POP PUSH1 0x40 MLOAD DUP1 PUSH1 0x40 ADD PUSH1 0x40 MSTORE DUP1 PUSH2 0x2219 TIMESTAMP SWAP1 JUMP JUMPDEST DUP2 MSTORE PUSH1 0x1 PUSH1 0x20 SWAP2 DUP3 ADD DUP2 SWAP1 MSTORE CALLER PUSH1 0x0 SWAP1 DUP2 MSTORE PUSH1 0x1A DUP4 MSTORE PUSH1 0x40 DUP1 DUP3 KECCAK256 DUP10 DUP4 MSTORE DUP5 MSTORE SWAP1 KECCAK256 DUP4 MLOAD DUP2 SSTORE SWAP3 SWAP1 SWAP2 ADD MLOAD SWAP2 ADD DUP1 SLOAD PUSH1 0xFF NOT AND SWAP2 ISZERO ISZERO SWAP2 SWAP1 SWAP2 OR SWAP1 SSTORE PUSH2 0x22D4 JUMP JUMPDEST CALLER PUSH1 0x0 SWAP1 DUP2 MSTORE PUSH1 0x1A PUSH1 0x20 SWAP1 DUP2 MSTORE PUSH1 0x40 DUP1 DUP4 KECCAK256 DUP8 DUP5 MSTORE SWAP1 SWAP2 MSTORE DUP2 KECCAK256 SWAP1 DUP2 SSTORE PUSH1 0x1 SWAP1 DUP2 ADD DUP1 SLOAD PUSH1 0xFF NOT AND SWAP1 SSTORE DUP2 ISZERO ISZERO EQ PUSH2 0x22D4 JUMPI PUSH1 0x40 MLOAD PUSH3 0x461BCD PUSH1 0xE5 SHL DUP2 MSTORE PUSH1 0x20 PUSH1 0x4 DUP3 ADD MSTORE PUSH1 0x1C PUSH1 0x24 DUP3 ADD MSTORE PUSH32 0x596F7520646F6E277420686176652061207374616B6564204E46542100000000 PUSH1 0x44 DUP3 ADD MSTORE PUSH1 0x64 ADD PUSH2 0xC5C JUMP JUMPDEST POP POP POP POP JUMP JUMPDEST PUSH1 0x1 PUSH1 0x1 PUSH1 0xA0 SHL SUB DUP3 AND CALLER EQ ISZERO PUSH2 0x2333 JUMPI PUSH1 0x40 MLOAD PUSH3 0x461BCD PUSH1 0xE5 SHL DUP2 MSTORE PUSH1 0x20 PUSH1 0x4 DUP3 ADD MSTORE PUSH1 0x19 PUSH1 0x24 DUP3 ADD MSTORE PUSH32 0x4552433732313A20617070726F766520746F2063616C6C657200000000000000 PUSH1 0x44 DUP3 ADD MSTORE PUSH1 0x64 ADD PUSH2 0xC5C JUMP JUMPDEST CALLER PUSH1 0x0 DUP2 DUP2 MSTORE PUSH1 0x5 PUSH1 0x20 SWAP1 DUP2 MSTORE PUSH1 0x40 DUP1 DUP4 KECCAK256 PUSH1 0x1 PUSH1 0x1 PUSH1 0xA0 SHL SUB DUP8 AND DUP1 DUP6 MSTORE SWAP1 DUP4 MSTORE SWAP3 DUP2 SWAP1 KECCAK256 DUP1 SLOAD PUSH1 0xFF NOT AND DUP7 ISZERO ISZERO SWAP1 DUP2 OR SWAP1 SWAP2 SSTORE SWAP1 MLOAD SWAP1 DUP2 MSTORE SWAP2 SWAP3 SWAP2 PUSH32 0x17307EAB39AB6107E8899845AD3D59BD9653F200F220920489CA2B5937696C31 SWAP2 ADD PUSH1 0x40 MLOAD DUP1 SWAP2 SUB SWAP1 LOG3 POP POP JUMP JUMPDEST PUSH2 0x23A9 CALLER DUP4 PUSH2 0x2D07 JUMP JUMPDEST PUSH2 0x23C5 JUMPI PUSH1 0x40 MLOAD PUSH3 0x461BCD PUSH1 0xE5 SHL DUP2 MSTORE PUSH1 0x4 ADD PUSH2 0xC5C SWAP1 PUSH2 0x3EDA JUMP JUMPDEST PUSH2 0x22D4 DUP5 DUP5 DUP5 DUP5 PUSH2 0x311C JUMP JUMPDEST PUSH1 0xA SLOAD PUSH1 0x1 PUSH1 0x1 PUSH1 0xA0 SHL SUB AND CALLER EQ PUSH2 0x23FB JUMPI PUSH1 0x40 MLOAD PUSH3 0x461BCD PUSH1 0xE5 SHL DUP2 MSTORE PUSH1 0x4 ADD PUSH2 0xC5C SWAP1 PUSH2 0x3DA9 JUMP JUMPDEST DUP1 MLOAD PUSH2 0x1331 SWAP1 PUSH1 0x10 SWAP1 PUSH1 0x20 DUP5 ADD SWAP1 PUSH2 0x3865 JUMP JUMPDEST PUSH1 0xA SLOAD PUSH1 0x1 PUSH1 0x1 PUSH1 0xA0 SHL SUB AND CALLER EQ PUSH2 0x2438 JUMPI PUSH1 0x40 MLOAD PUSH3 0x461BCD PUSH1 0xE5 SHL DUP2 MSTORE PUSH1 0x4 ADD PUSH2 0xC5C SWAP1 PUSH2 0x3DA9 JUMP JUMPDEST PUSH1 0x0 JUMPDEST DUP2 DUP2 LT ISZERO PUSH2 0x1331 JUMPI PUSH2 0x244F CALLER PUSH1 0xC SLOAD PUSH2 0x2FFB JUMP JUMPDEST PUSH1 0xC SLOAD PUSH2 0x245D SWAP1 PUSH1 0x1 PUSH2 0x3EC2 JUMP JUMPDEST PUSH1 0xC SSTORE DUP1 PUSH2 0x246A DUP2 PUSH2 0x3F2B JUMP JUMPDEST SWAP2 POP POP PUSH2 0x243B JUMP JUMPDEST PUSH1 0xE DUP1 SLOAD PUSH2 0x19D5 SWAP1 PUSH2 0x3DDE JUMP JUMPDEST PUSH1 0x0 DUP2 DUP2 MSTORE PUSH1 0x2 PUSH1 0x20 MSTORE PUSH1 0x40 SWAP1 KECCAK256 SLOAD PUSH1 0x60 SWAP1 PUSH1 0x1 PUSH1 0x1 PUSH1 0xA0 SHL SUB AND PUSH2 0x24FE JUMPI PUSH1 0x40 MLOAD PUSH3 0x461BCD PUSH1 0xE5 SHL DUP2 MSTORE PUSH1 0x20 PUSH1 0x4 DUP3 ADD MSTORE PUSH1 0x2F PUSH1 0x24 DUP3 ADD MSTORE PUSH32 0x4552433732314D657461646174613A2055524920717565727920666F72206E6F PUSH1 0x44 DUP3 ADD MSTORE PUSH15 0x3732BC34B9BA32B73A103A37B5B2B7 PUSH1 0x89 SHL PUSH1 0x64 DUP3 ADD MSTORE PUSH1 0x84 ADD PUSH2 0xC5C JUMP JUMPDEST PUSH1 0x0 DUP3 DUP2 MSTORE PUSH1 0x18 PUSH1 0x20 MSTORE PUSH1 0x40 SWAP1 KECCAK256 PUSH1 0x2 ADD SLOAD PUSH1 0x1 EQ ISZERO PUSH2 0x2551 JUMPI PUSH2 0x2520 PUSH2 0x314F JUMP JUMPDEST PUSH2 0x252A PUSH1 0x1 PUSH2 0x315E JUMP JUMPDEST PUSH1 0x40 MLOAD PUSH1 0x20 ADD PUSH2 0x253B SWAP3 SWAP2 SWAP1 PUSH2 0x4085 JUMP JUMPDEST PUSH1 0x40 MLOAD PUSH1 0x20 DUP2 DUP4 SUB SUB DUP2 MSTORE SWAP1 PUSH1 0x40 MSTORE SWAP1 POP SWAP2 SWAP1 POP JUMP JUMPDEST PUSH1 0x0 DUP3 DUP2 MSTORE PUSH1 0x18 PUSH1 0x20 MSTORE PUSH1 0x40 SWAP1 KECCAK256 PUSH1 0x2 SWAP1 DUP2 ADD SLOAD EQ ISZERO PUSH2 0x257D JUMPI PUSH2 0x2573 PUSH2 0x314F JUMP JUMPDEST PUSH2 0x252A PUSH1 0x2 PUSH2 0x315E JUMP JUMPDEST PUSH1 0x0 PUSH2 0x2587 PUSH2 0x314F JUMP JUMPDEST SWAP1 POP DUP1 PUSH2 0x2594 PUSH1 0x3 PUSH2 0x315E JUMP JUMPDEST PUSH1 0x40 MLOAD PUSH1 0x20 ADD PUSH2 0x25A5 SWAP3 SWAP2 SWAP1 PUSH2 0x4085 JUMP JUMPDEST PUSH1 0x40 MLOAD PUSH1 0x20 DUP2 DUP4 SUB SUB DUP2 MSTORE SWAP1 PUSH1 0x40 MSTORE SWAP2 POP POP SWAP2 SWAP1 POP JUMP JUMPDEST PUSH1 0xA SLOAD PUSH1 0x1 PUSH1 0x1 PUSH1 0xA0 SHL SUB AND CALLER EQ PUSH2 0x25E6 JUMPI PUSH1 0x40 MLOAD PUSH3 0x461BCD PUSH1 0xE5 SHL DUP2 MSTORE PUSH1 0x4 ADD PUSH2 0xC5C SWAP1 PUSH2 0x3DA9 JUMP JUMPDEST DUP1 MLOAD PUSH2 0x1331 SWAP1 PUSH1 0x16 SWAP1 PUSH1 0x20 DUP5 ADD SWAP1 PUSH2 0x37A7 JUMP JUMPDEST PUSH1 0xD SLOAD PUSH1 0xFF AND ISZERO PUSH2 0x263B JUMPI PUSH1 0x40 MLOAD PUSH3 0x461BCD PUSH1 0xE5 SHL DUP2 MSTORE PUSH1 0x20 PUSH1 0x4 DUP3 ADD MSTORE PUSH1 0xC PUSH1 0x24 DUP3 ADD MSTORE PUSH12 0x4D696E742070617573656421 PUSH1 0xA0 SHL PUSH1 0x44 DUP3 ADD MSTORE PUSH1 0x64 ADD PUSH2 0xC5C JUMP JUMPDEST PUSH1 0x0 DUP2 GT DUP1 ISZERO PUSH2 0x264B JUMPI POP PUSH1 0x4 DUP2 LT JUMPDEST PUSH2 0x2697 JUMPI PUSH1 0x40 MLOAD PUSH3 0x461BCD PUSH1 0xE5 SHL DUP2 MSTORE PUSH1 0x20 PUSH1 0x4 DUP3 ADD MSTORE PUSH1 0x17 PUSH1 0x24 DUP3 ADD MSTORE PUSH32 0x5468657265206973206F6E6C79207469657220312D3321000000000000000000 PUSH1 0x44 DUP3 ADD MSTORE PUSH1 0x64 ADD PUSH2 0xC5C JUMP JUMPDEST PUSH1 0x16 PUSH2 0x26A4 PUSH1 0x1 DUP4 PUSH2 0x3E2F JUMP JUMPDEST DUP2 SLOAD DUP2 LT PUSH2 0x26B4 JUMPI PUSH2 0x26B4 PUSH2 0x3E46 JUMP JUMPDEST SWAP1 PUSH1 0x0 MSTORE PUSH1 0x20 PUSH1 0x0 KECCAK256 ADD SLOAD PUSH1 0x15 PUSH1 0x1 DUP4 PUSH2 0x26CE SWAP2 SWAP1 PUSH2 0x3E2F JUMP JUMPDEST DUP2 SLOAD DUP2 LT PUSH2 0x26DE JUMPI PUSH2 0x26DE PUSH2 0x3E46 JUMP JUMPDEST SWAP1 PUSH1 0x0 MSTORE PUSH1 0x20 PUSH1 0x0 KECCAK256 ADD SLOAD GT ISZERO PUSH2 0x2723 JUMPI PUSH1 0x40 MLOAD PUSH3 0x461BCD PUSH1 0xE5 SHL DUP2 MSTORE PUSH1 0x20 PUSH1 0x4 DUP3 ADD MSTORE PUSH1 0x9 PUSH1 0x24 DUP3 ADD MSTORE PUSH9 0x536F6C64206F757421 PUSH1 0xB8 SHL PUSH1 0x44 DUP3 ADD MSTORE PUSH1 0x64 ADD PUSH2 0xC5C JUMP JUMPDEST PUSH2 0x272B PUSH2 0x3015 JUMP JUMPDEST PUSH1 0x12 PUSH2 0x2738 PUSH1 0x1 DUP4 PUSH2 0x3E2F JUMP JUMPDEST DUP2 SLOAD DUP2 LT PUSH2 0x2748 JUMPI PUSH2 0x2748 PUSH2 0x3E46 JUMP JUMPDEST SWAP1 PUSH1 0x0 MSTORE PUSH1 0x20 PUSH1 0x0 KECCAK256 ADD SLOAD PUSH1 0x10 PUSH1 0x0 DUP2 SLOAD DUP2 LT PUSH2 0x2767 JUMPI PUSH2 0x2767 PUSH2 0x3E46 JUMP JUMPDEST PUSH1 0x0 SWAP2 DUP3 MSTORE PUSH1 0x20 SWAP1 SWAP2 KECCAK256 ADD SLOAD PUSH1 0x40 MLOAD PUSH4 0x70A08231 PUSH1 0xE0 SHL DUP2 MSTORE CALLER PUSH1 0x4 DUP3 ADD MSTORE PUSH1 0x1 PUSH1 0x1 PUSH1 0xA0 SHL SUB SWAP1 SWAP2 AND SWAP1 PUSH4 0x70A08231 SWAP1 PUSH1 0x24 ADD PUSH1 0x20 PUSH1 0x40 MLOAD DUP1 DUP4 SUB DUP2 DUP7 GAS STATICCALL ISZERO DUP1 ISZERO PUSH2 0x27B8 JUMPI RETURNDATASIZE PUSH1 0x0 DUP1 RETURNDATACOPY RETURNDATASIZE PUSH1 0x0 REVERT JUMPDEST POP POP POP POP PUSH1 0x40 MLOAD RETURNDATASIZE PUSH1 0x1F NOT PUSH1 0x1F DUP3 ADD AND DUP3 ADD DUP1 PUSH1 0x40 MSTORE POP DUP2 ADD SWAP1 PUSH2 0x27DC SWAP2 SWAP1 PUSH2 0x3F7D JUMP JUMPDEST LT ISZERO PUSH2 0x282A JUMPI PUSH1 0x40 MLOAD PUSH3 0x461BCD PUSH1 0xE5 SHL DUP2 MSTORE PUSH1 0x20 PUSH1 0x4 DUP3 ADD MSTORE PUSH1 0x19 PUSH1 0x24 DUP3 ADD MSTORE PUSH32 0x4E6F7420656E6F75676820746F6B656E7320746F206275792100000000000000 PUSH1 0x44 DUP3 ADD MSTORE PUSH1 0x64 ADD PUSH2 0xC5C JUMP JUMPDEST PUSH1 0x10 PUSH1 0x0 DUP2 SLOAD DUP2 LT PUSH2 0x283E JUMPI PUSH2 0x283E PUSH2 0x3E46 JUMP JUMPDEST PUSH1 0x0 SWAP2 DUP3 MSTORE PUSH1 0x20 SWAP1 SWAP2 KECCAK256 ADD SLOAD PUSH1 0x1 PUSH1 0x1 PUSH1 0xA0 SHL SUB AND PUSH4 0x23B872DD CALLER PUSH2 0x286B PUSH1 0xA SLOAD PUSH1 0x1 PUSH1 0x1 PUSH1 0xA0 SHL SUB AND SWAP1 JUMP JUMPDEST PUSH1 0x12 PUSH2 0x2878 PUSH1 0x1 DUP8 PUSH2 0x3E2F JUMP JUMPDEST DUP2 SLOAD DUP2 LT PUSH2 0x2888 JUMPI PUSH2 0x2888 PUSH2 0x3E46 JUMP JUMPDEST PUSH1 0x0 SWAP2 DUP3 MSTORE PUSH1 0x20 SWAP1 SWAP2 KECCAK256 ADD SLOAD PUSH1 0x40 MLOAD PUSH1 0x1 PUSH1 0x1 PUSH1 0xE0 SHL SUB NOT PUSH1 0xE0 DUP7 SWAP1 SHL AND DUP2 MSTORE PUSH1 0x1 PUSH1 0x1 PUSH1 0xA0 SHL SUB SWAP4 DUP5 AND PUSH1 0x4 DUP3 ADD MSTORE SWAP3 SWAP1 SWAP2 AND PUSH1 0x24 DUP4 ADD MSTORE PUSH1 0x44 DUP3 ADD MSTORE PUSH1 0x64 ADD PUSH1 0x20 PUSH1 0x40 MLOAD DUP1 DUP4 SUB DUP2 PUSH1 0x0 DUP8 GAS CALL ISZERO DUP1 ISZERO PUSH2 0x28E8 JUMPI RETURNDATASIZE PUSH1 0x0 DUP1 RETURNDATACOPY RETURNDATASIZE PUSH1 0x0 REVERT JUMPDEST POP POP POP POP PUSH1 0x40 MLOAD RETURNDATASIZE PUSH1 0x1F NOT PUSH1 0x1F DUP3 ADD AND DUP3 ADD DUP1 PUSH1 0x40 MSTORE POP DUP2 ADD SWAP1 PUSH2 0x290C SWAP2 SWAP1 PUSH2 0x3EA5 JUMP JUMPDEST POP PUSH2 0x2919 CALLER PUSH1 0xC SLOAD PUSH2 0x2FFB JUMP JUMPDEST PUSH1 0x40 MLOAD DUP1 PUSH2 0x100 ADD PUSH1 0x40 MSTORE DUP1 PUSH2 0x292C TIMESTAMP SWAP1 JUMP JUMPDEST DUP2 MSTORE PUSH1 0x20 ADD TIMESTAMP DUP2 MSTORE PUSH1 0x20 DUP2 ADD DUP4 SWAP1 MSTORE PUSH1 0x0 PUSH1 0x40 DUP3 ADD MSTORE PUSH1 0x60 ADD PUSH1 0xF PUSH2 0x2952 PUSH1 0x1 DUP6 PUSH2 0x3E2F JUMP JUMPDEST DUP2 SLOAD DUP2 LT PUSH2 0x2962 JUMPI PUSH2 0x2962 PUSH2 0x3E46 JUMP JUMPDEST PUSH1 0x0 SWAP2 DUP3 MSTORE PUSH1 0x20 DUP1 DUP4 KECCAK256 SWAP1 SWAP2 ADD SLOAD DUP4 MSTORE PUSH1 0x1 DUP4 DUP3 ADD DUP2 SWAP1 MSTORE PUSH1 0x40 DUP1 DUP6 ADD DUP5 SWAP1 MSTORE PUSH1 0x60 SWAP5 DUP6 ADD DUP5 SWAP1 MSTORE PUSH1 0xC SLOAD DUP5 MSTORE PUSH1 0x18 DUP4 MSTORE SWAP3 DUP4 SWAP1 KECCAK256 DUP6 MLOAD DUP2 SSTORE SWAP2 DUP6 ADD MLOAD DUP3 DUP3 ADD SSTORE SWAP2 DUP5 ADD MLOAD PUSH1 0x2 DUP3 ADD SSTORE SWAP2 DUP4 ADD MLOAD PUSH1 0x3 DUP4 ADD SSTORE PUSH1 0x80 DUP4 ADD MLOAD PUSH1 0x4 DUP4 ADD SSTORE PUSH1 0xA0 DUP4 ADD MLOAD PUSH1 0x5 DUP4 ADD DUP1 SLOAD PUSH1 0xC0 DUP7 ADD MLOAD ISZERO ISZERO PUSH2 0x100 MUL PUSH2 0xFF00 NOT SWAP4 ISZERO ISZERO SWAP4 SWAP1 SWAP4 AND PUSH2 0xFFFF NOT SWAP1 SWAP2 AND OR SWAP2 SWAP1 SWAP2 OR SWAP1 SSTORE PUSH1 0xE0 SWAP1 SWAP3 ADD MLOAD PUSH1 0x6 SWAP1 SWAP2 ADD SSTORE PUSH1 0x15 PUSH2 0x2A06 DUP3 DUP5 PUSH2 0x3E2F JUMP JUMPDEST DUP2 SLOAD DUP2 LT PUSH2 0x2A16 JUMPI PUSH2 0x2A16 PUSH2 0x3E46 JUMP JUMPDEST SWAP1 PUSH1 0x0 MSTORE PUSH1 0x20 PUSH1 0x0 KECCAK256 ADD PUSH1 0x0 DUP3 DUP3 SLOAD PUSH2 0x2A2F SWAP2 SWAP1 PUSH2 0x3EC2 JUMP JUMPDEST SWAP1 SWAP2 SSTORE POP POP PUSH1 0xC SLOAD PUSH2 0x2A42 SWAP1 PUSH1 0x1 PUSH2 0x3EC2 JUMP JUMPDEST PUSH1 0xC SSTORE POP JUMP JUMPDEST PUSH1 0xA SLOAD PUSH1 0x1 PUSH1 0x1 PUSH1 0xA0 SHL SUB AND CALLER EQ PUSH2 0x2A72 JUMPI PUSH1 0x40 MLOAD PUSH3 0x461BCD PUSH1 0xE5 SHL DUP2 MSTORE PUSH1 0x4 ADD PUSH2 0xC5C SWAP1 PUSH2 0x3DA9 JUMP JUMPDEST PUSH1 0x13 SSTORE JUMP JUMPDEST PUSH1 0x60 PUSH1 0xE DUP1 SLOAD PUSH2 0xC87 SWAP1 PUSH2 0x3DDE JUMP JUMPDEST PUSH1 0x10 DUP2 DUP2 SLOAD DUP2 LT PUSH2 0x2A96 JUMPI PUSH1 0x0 DUP1 REVERT JUMPDEST PUSH1 0x0 SWAP2 DUP3 MSTORE PUSH1 0x20 SWAP1 SWAP2 KECCAK256 ADD SLOAD PUSH1 0x1 PUSH1 0x1 PUSH1 0xA0 SHL SUB AND SWAP1 POP DUP2 JUMP JUMPDEST PUSH1 0xF DUP2 DUP2 SLOAD DUP2 LT PUSH2 0x1774 JUMPI PUSH1 0x0 DUP1 REVERT JUMPDEST PUSH1 0xA SLOAD PUSH1 0x1 PUSH1 0x1 PUSH1 0xA0 SHL SUB AND CALLER EQ PUSH2 0x2AEA JUMPI PUSH1 0x40 MLOAD PUSH3 0x461BCD PUSH1 0xE5 SHL DUP2 MSTORE PUSH1 0x4 ADD PUSH2 0xC5C SWAP1 PUSH2 0x3DA9 JUMP JUMPDEST PUSH1 0x1 PUSH1 0x1 PUSH1 0xA0 SHL SUB DUP2 AND PUSH2 0x2B4F JUMPI PUSH1 0x40 MLOAD PUSH3 0x461BCD PUSH1 0xE5 SHL DUP2 MSTORE PUSH1 0x20 PUSH1 0x4 DUP3 ADD MSTORE PUSH1 0x26 PUSH1 0x24 DUP3 ADD MSTORE PUSH32 0x4F776E61626C653A206E6577206F776E657220697320746865207A65726F2061 PUSH1 0x44 DUP3 ADD MSTORE PUSH6 0x646472657373 PUSH1 0xD0 SHL PUSH1 0x64 DUP3 ADD MSTORE PUSH1 0x84 ADD PUSH2 0xC5C JUMP JUMPDEST PUSH2 0x145E DUP2 PUSH2 0x2FA9 JUMP JUMPDEST PUSH1 0x0 PUSH1 0x1 PUSH1 0x1 PUSH1 0xE0 SHL SUB NOT DUP3 AND PUSH4 0x80AC58CD PUSH1 0xE0 SHL EQ DUP1 PUSH2 0x2B89 JUMPI POP PUSH1 0x1 PUSH1 0x1 PUSH1 0xE0 SHL SUB NOT DUP3 AND PUSH4 0x5B5E139F PUSH1 0xE0 SHL EQ JUMPDEST DUP1 PUSH2 0xC2C JUMPI POP PUSH4 0x1FFC9A7 PUSH1 0xE0 SHL PUSH1 0x1 PUSH1 0x1 PUSH1 0xE0 SHL SUB NOT DUP4 AND EQ PUSH2 0xC2C JUMP JUMPDEST PUSH1 0x0 DUP2 DUP2 MSTORE PUSH1 0x4 PUSH1 0x20 MSTORE PUSH1 0x40 SWAP1 KECCAK256 DUP1 SLOAD PUSH1 0x1 PUSH1 0x1 PUSH1 0xA0 SHL SUB NOT AND PUSH1 0x1 PUSH1 0x1 PUSH1 0xA0 SHL SUB DUP5 AND SWAP1 DUP2 OR SWAP1 SWAP2 SSTORE DUP2 SWAP1 PUSH2 0x2BDD DUP3 PUSH2 0x1939 JUMP JUMPDEST PUSH1 0x1 PUSH1 0x1 PUSH1 0xA0 SHL SUB AND PUSH32 0x8C5BE1E5EBEC7D5BD14F71427D1E84F3DD0314C0F7B2291E5B200AC8C7C3B925 PUSH1 0x40 MLOAD PUSH1 0x40 MLOAD DUP1 SWAP2 SUB SWAP1 LOG4 POP POP JUMP JUMPDEST PUSH1 0x13 SLOAD PUSH2 0x2C22 DUP4 PUSH2 0x19B0 JUMP JUMPDEST GT ISZERO PUSH2 0x1331 JUMPI PUSH1 0x10 PUSH1 0x3 DUP2 SLOAD DUP2 LT PUSH2 0x2C3C JUMPI PUSH2 0x2C3C PUSH2 0x3E46 JUMP JUMPDEST PUSH1 0x0 SWAP2 DUP3 MSTORE PUSH1 0x20 SWAP1 SWAP2 KECCAK256 ADD SLOAD PUSH1 0x40 MLOAD PUSH4 0x70A08231 PUSH1 0xE0 SHL DUP2 MSTORE CALLER PUSH1 0x4 DUP3 ADD MSTORE PUSH1 0x1 PUSH1 0x1 PUSH1 0xA0 SHL SUB SWAP1 SWAP2 AND SWAP1 PUSH4 0x70A08231 SWAP1 PUSH1 0x24 ADD PUSH1 0x20 PUSH1 0x40 MLOAD DUP1 DUP4 SUB DUP2 DUP7 GAS STATICCALL ISZERO DUP1 ISZERO PUSH2 0x2C8D JUMPI RETURNDATASIZE PUSH1 0x0 DUP1 RETURNDATACOPY RETURNDATASIZE PUSH1 0x0 REVERT JUMPDEST POP POP POP POP PUSH1 0x40 MLOAD RETURNDATASIZE PUSH1 0x1F NOT PUSH1 0x1F DUP3 ADD AND DUP3 ADD DUP1 PUSH1 0x40 MSTORE POP DUP2 ADD SWAP1 PUSH2 0x2CB1 SWAP2 SWAP1 PUSH2 0x3F7D JUMP JUMPDEST PUSH2 0x2CD1 JUMPI POP PUSH1 0x0 SWAP1 DUP2 MSTORE PUSH1 0x18 PUSH1 0x20 MSTORE PUSH1 0x40 SWAP1 KECCAK256 PUSH1 0x5 ADD DUP1 SLOAD PUSH1 0xFF NOT AND SWAP1 SSTORE JUMP JUMPDEST PUSH1 0x0 DUP3 DUP2 MSTORE PUSH1 0x18 PUSH1 0x20 MSTORE PUSH1 0x40 SWAP1 KECCAK256 PUSH1 0x2 ADD SLOAD PUSH1 0x3 EQ ISZERO PUSH2 0x1331 JUMPI POP PUSH1 0x0 SWAP1 DUP2 MSTORE PUSH1 0x18 PUSH1 0x20 MSTORE PUSH1 0x40 SWAP1 KECCAK256 PUSH1 0x5 ADD DUP1 SLOAD PUSH1 0xFF NOT AND SWAP1 SSTORE JUMP JUMPDEST PUSH1 0x0 DUP2 DUP2 MSTORE PUSH1 0x2 PUSH1 0x20 MSTORE PUSH1 0x40 DUP2 KECCAK256 SLOAD PUSH1 0x1 PUSH1 0x1 PUSH1 0xA0 SHL SUB AND PUSH2 0x2D80 JUMPI PUSH1 0x40 MLOAD PUSH3 0x461BCD PUSH1 0xE5 SHL DUP2 MSTORE PUSH1 0x20 PUSH1 0x4 DUP3 ADD MSTORE PUSH1 0x2C PUSH1 0x24 DUP3 ADD MSTORE PUSH32 0x4552433732313A206F70657261746F7220717565727920666F72206E6F6E6578 PUSH1 0x44 DUP3 ADD MSTORE PUSH12 0x34B9BA32B73A103A37B5B2B7 PUSH1 0xA1 SHL PUSH1 0x64 DUP3 ADD MSTORE PUSH1 0x84 ADD PUSH2 0xC5C JUMP JUMPDEST PUSH1 0x0 PUSH2 0x2D8B DUP4 PUSH2 0x1939 JUMP JUMPDEST SWAP1 POP DUP1 PUSH1 0x1 PUSH1 0x1 PUSH1 0xA0 SHL SUB AND DUP5 PUSH1 0x1 PUSH1 0x1 PUSH1 0xA0 SHL SUB AND EQ DUP1 PUSH2 0x2DC6 JUMPI POP DUP4 PUSH1 0x1 PUSH1 0x1 PUSH1 0xA0 SHL SUB AND PUSH2 0x2DBB DUP5 PUSH2 0xD0A JUMP JUMPDEST PUSH1 0x1 PUSH1 0x1 PUSH1 0xA0 SHL SUB AND EQ JUMPDEST DUP1 PUSH2 0x2DF6 JUMPI POP PUSH1 0x1 PUSH1 0x1 PUSH1 0xA0 SHL SUB DUP1 DUP3 AND PUSH1 0x0 SWAP1 DUP2 MSTORE PUSH1 0x5 PUSH1 0x20 SWAP1 DUP2 MSTORE PUSH1 0x40 DUP1 DUP4 KECCAK256 SWAP4 DUP9 AND DUP4 MSTORE SWAP3 SWAP1 MSTORE KECCAK256 SLOAD PUSH1 0xFF AND JUMPDEST SWAP5 SWAP4 POP POP POP POP JUMP JUMPDEST DUP3 PUSH1 0x1 PUSH1 0x1 PUSH1 0xA0 SHL SUB AND PUSH2 0x2E11 DUP3 PUSH2 0x1939 JUMP JUMPDEST PUSH1 0x1 PUSH1 0x1 PUSH1 0xA0 SHL SUB AND EQ PUSH2 0x2E79 JUMPI PUSH1 0x40 MLOAD PUSH3 0x461BCD PUSH1 0xE5 SHL DUP2 MSTORE PUSH1 0x20 PUSH1 0x4 DUP3 ADD MSTORE PUSH1 0x29 PUSH1 0x24 DUP3 ADD MSTORE PUSH32 0x4552433732313A207472616E73666572206F6620746F6B656E20746861742069 PUSH1 0x44 DUP3 ADD MSTORE PUSH9 0x39903737BA1037BBB7 PUSH1 0xB9 SHL PUSH1 0x64 DUP3 ADD MSTORE PUSH1 0x84 ADD PUSH2 0xC5C JUMP JUMPDEST PUSH1 0x1 PUSH1 0x1 PUSH1 0xA0 SHL SUB DUP3 AND PUSH2 0x2EDB JUMPI PUSH1 0x40 MLOAD PUSH3 0x461BCD PUSH1 0xE5 SHL DUP2 MSTORE PUSH1 0x20 PUSH1 0x4 DUP3 ADD MSTORE PUSH1 0x24 DUP1 DUP3 ADD MSTORE PUSH32 0x4552433732313A207472616E7366657220746F20746865207A65726F20616464 PUSH1 0x44 DUP3 ADD MSTORE PUSH4 0x72657373 PUSH1 0xE0 SHL PUSH1 0x64 DUP3 ADD MSTORE PUSH1 0x84 ADD PUSH2 0xC5C JUMP JUMPDEST PUSH2 0x2EE6 DUP4 DUP4 DUP4 PUSH2 0x325C JUMP JUMPDEST PUSH2 0x2EF1 PUSH1 0x0 DUP3 PUSH2 0x2BA8 JUMP JUMPDEST PUSH1 0x1 PUSH1 0x1 PUSH1 0xA0 SHL SUB DUP4 AND PUSH1 0x0 SWAP1 DUP2 MSTORE PUSH1 0x3 PUSH1 0x20 MSTORE PUSH1 0x40 DUP2 KECCAK256 DUP1 SLOAD PUSH1 0x1 SWAP3 SWAP1 PUSH2 0x2F1A SWAP1 DUP5 SWAP1 PUSH2 0x3E2F JUMP JUMPDEST SWAP1 SWAP2 SSTORE POP POP PUSH1 0x1 PUSH1 0x1 PUSH1 0xA0 SHL SUB DUP3 AND PUSH1 0x0 SWAP1 DUP2 MSTORE PUSH1 0x3 PUSH1 0x20 MSTORE PUSH1 0x40 DUP2 KECCAK256 DUP1 SLOAD PUSH1 0x1 SWAP3 SWAP1 PUSH2 0x2F48 SWAP1 DUP5 SWAP1 PUSH2 0x3EC2 JUMP JUMPDEST SWAP1 SWAP2 SSTORE POP POP PUSH1 0x0 DUP2 DUP2 MSTORE PUSH1 0x2 PUSH1 0x20 MSTORE PUSH1 0x40 DUP1 DUP3 KECCAK256 DUP1 SLOAD PUSH1 0x1 PUSH1 0x1 PUSH1 0xA0 SHL SUB NOT AND PUSH1 0x1 PUSH1 0x1 PUSH1 0xA0 SHL SUB DUP7 DUP2 AND SWAP2 DUP3 OR SWAP1 SWAP3 SSTORE SWAP2 MLOAD DUP5 SWAP4 SWAP2 DUP8 AND SWAP2 PUSH32 0xDDF252AD1BE2C89B69C2B068FC378DAA952BA7F163C4A11628F55A4DF523B3EF SWAP2 LOG4 POP POP POP JUMP JUMPDEST PUSH1 0xA DUP1 SLOAD PUSH1 0x1 PUSH1 0x1 PUSH1 0xA0 SHL SUB DUP4 DUP2 AND PUSH1 0x1 PUSH1 0x1 PUSH1 0xA0 SHL SUB NOT DUP4 AND DUP2 OR SWAP1 SWAP4 SSTORE PUSH1 0x40 MLOAD SWAP2 AND SWAP2 SWAP1 DUP3 SWAP1 PUSH32 0x8BE0079C531659141344CD1FD0A4F28419497F9722A3DAAFE3B4186F6B6457E0 SWAP1 PUSH1 0x0 SWAP1 LOG3 POP POP JUMP JUMPDEST PUSH2 0x1331 DUP3 DUP3 PUSH1 0x40 MLOAD DUP1 PUSH1 0x20 ADD PUSH1 0x40 MSTORE DUP1 PUSH1 0x0 DUP2 MSTORE POP PUSH2 0x32E0 JUMP JUMPDEST PUSH2 0x2710 PUSH1 0xC SLOAD PUSH2 0x3025 SWAP2 SWAP1 PUSH2 0x40C1 JUMP JUMPDEST PUSH2 0x3076 JUMPI PUSH1 0x12 PUSH1 0x0 DUP2 SLOAD DUP2 LT PUSH2 0x303D JUMPI PUSH2 0x303D PUSH2 0x3E46 JUMP JUMPDEST SWAP1 PUSH1 0x0 MSTORE PUSH1 0x20 PUSH1 0x0 KECCAK256 ADD SLOAD PUSH1 0x1 PUSH2 0x3054 SWAP2 SWAP1 PUSH2 0x3EC2 JUMP JUMPDEST PUSH1 0x12 PUSH1 0x0 DUP2 SLOAD DUP2 LT PUSH2 0x3068 JUMPI PUSH2 0x3068 PUSH2 0x3E46 JUMP JUMPDEST PUSH1 0x0 SWAP2 DUP3 MSTORE PUSH1 0x20 SWAP1 SWAP2 KECCAK256 ADD SSTORE JUMP JUMPDEST PUSH2 0x1388 PUSH1 0xC SLOAD PUSH2 0x3086 SWAP2 SWAP1 PUSH2 0x40C1 JUMP JUMPDEST PUSH2 0x30C9 JUMPI PUSH1 0x12 PUSH1 0x1 DUP2 SLOAD DUP2 LT PUSH2 0x309E JUMPI PUSH2 0x309E PUSH2 0x3E46 JUMP JUMPDEST SWAP1 PUSH1 0x0 MSTORE PUSH1 0x20 PUSH1 0x0 KECCAK256 ADD SLOAD PUSH1 0x3 PUSH2 0x30B5 SWAP2 SWAP1 PUSH2 0x3EC2 JUMP JUMPDEST PUSH1 0x12 PUSH1 0x1 DUP2 SLOAD DUP2 LT PUSH2 0x3068 JUMPI PUSH2 0x3068 PUSH2 0x3E46 JUMP JUMPDEST PUSH2 0xBB8 PUSH1 0xC SLOAD PUSH2 0x30D9 SWAP2 SWAP1 PUSH2 0x40C1 JUMP JUMPDEST PUSH2 0x1B39 JUMPI PUSH1 0x12 PUSH1 0x2 DUP2 SLOAD DUP2 LT PUSH2 0x30F1 JUMPI PUSH2 0x30F1 PUSH2 0x3E46 JUMP JUMPDEST SWAP1 PUSH1 0x0 MSTORE PUSH1 0x20 PUSH1 0x0 KECCAK256 ADD SLOAD PUSH1 0xB PUSH2 0x3108 SWAP2 SWAP1 PUSH2 0x3EC2 JUMP JUMPDEST PUSH1 0x12 PUSH1 0x2 DUP2 SLOAD DUP2 LT PUSH2 0x3068 JUMPI PUSH2 0x3068 PUSH2 0x3E46 JUMP JUMPDEST PUSH2 0x3127 DUP5 DUP5 DUP5 PUSH2 0x2DFE JUMP JUMPDEST PUSH2 0x3133 DUP5 DUP5 DUP5 DUP5 PUSH2 0x3313 JUMP JUMPDEST PUSH2 0x22D4 JUMPI PUSH1 0x40 MLOAD PUSH3 0x461BCD PUSH1 0xE5 SHL DUP2 MSTORE PUSH1 0x4 ADD PUSH2 0xC5C SWAP1 PUSH2 0x40D5 JUMP JUMPDEST PUSH1 0x60 PUSH1 0xB DUP1 SLOAD PUSH2 0xC87 SWAP1 PUSH2 0x3DDE JUMP JUMPDEST PUSH1 0x60 DUP2 PUSH2 0x3182 JUMPI POP POP PUSH1 0x40 DUP1 MLOAD DUP1 DUP3 ADD SWAP1 SWAP2 MSTORE PUSH1 0x1 DUP2 MSTORE PUSH1 0x3 PUSH1 0xFC SHL PUSH1 0x20 DUP3 ADD MSTORE SWAP1 JUMP JUMPDEST DUP2 PUSH1 0x0 JUMPDEST DUP2 ISZERO PUSH2 0x31AC JUMPI DUP1 PUSH2 0x3196 DUP2 PUSH2 0x3F2B JUMP JUMPDEST SWAP2 POP PUSH2 0x31A5 SWAP1 POP PUSH1 0xA DUP4 PUSH2 0x3E91 JUMP JUMPDEST SWAP2 POP PUSH2 0x3186 JUMP JUMPDEST PUSH1 0x0 DUP2 PUSH8 0xFFFFFFFFFFFFFFFF DUP2 GT ISZERO PUSH2 0x31C7 JUMPI PUSH2 0x31C7 PUSH2 0x3A35 JUMP JUMPDEST PUSH1 0x40 MLOAD SWAP1 DUP1 DUP3 MSTORE DUP1 PUSH1 0x1F ADD PUSH1 0x1F NOT AND PUSH1 0x20 ADD DUP3 ADD PUSH1 0x40 MSTORE DUP1 ISZERO PUSH2 0x31F1 JUMPI PUSH1 0x20 DUP3 ADD DUP2 DUP1 CALLDATASIZE DUP4 CALLDATACOPY ADD SWAP1 POP JUMPDEST POP SWAP1 POP JUMPDEST DUP5 ISZERO PUSH2 0x2DF6 JUMPI PUSH2 0x3206 PUSH1 0x1 DUP4 PUSH2 0x3E2F JUMP JUMPDEST SWAP2 POP PUSH2 0x3213 PUSH1 0xA DUP7 PUSH2 0x40C1 JUMP JUMPDEST PUSH2 0x321E SWAP1 PUSH1 0x30 PUSH2 0x3EC2 JUMP JUMPDEST PUSH1 0xF8 SHL DUP2 DUP4 DUP2 MLOAD DUP2 LT PUSH2 0x3233 JUMPI PUSH2 0x3233 PUSH2 0x3E46 JUMP JUMPDEST PUSH1 0x20 ADD ADD SWAP1 PUSH1 0x1 PUSH1 0x1 PUSH1 0xF8 SHL SUB NOT AND SWAP1 DUP2 PUSH1 0x0 BYTE SWAP1 MSTORE8 POP PUSH2 0x3255 PUSH1 0xA DUP7 PUSH2 0x3E91 JUMP JUMPDEST SWAP5 POP PUSH2 0x31F5 JUMP JUMPDEST PUSH2 0x3267 DUP4 DUP4 DUP4 PUSH2 0x3411 JUMP JUMPDEST PUSH1 0x14 SLOAD PUSH1 0xFF AND ISZERO ISZERO PUSH1 0x1 EQ ISZERO PUSH2 0xEB0 JUMPI PUSH1 0x1 PUSH1 0x1 PUSH1 0xA0 SHL SUB DUP4 AND ISZERO PUSH2 0xEB0 JUMPI PUSH1 0x40 MLOAD PUSH3 0x461BCD PUSH1 0xE5 SHL DUP2 MSTORE PUSH1 0x20 PUSH1 0x4 DUP3 ADD MSTORE PUSH1 0x29 PUSH1 0x24 DUP3 ADD MSTORE PUSH32 0x4E6F6465204E4654205472616E73666572732063757272656E746C79206E6F74 PUSH1 0x44 DUP3 ADD MSTORE PUSH9 0x20616C6C6F77656421 PUSH1 0xB8 SHL PUSH1 0x64 DUP3 ADD MSTORE PUSH1 0x84 ADD PUSH2 0xC5C JUMP JUMPDEST PUSH2 0x32EA DUP4 DUP4 PUSH2 0x34C9 JUMP JUMPDEST PUSH2 0x32F7 PUSH1 0x0 DUP5 DUP5 DUP5 PUSH2 0x3313 JUMP JUMPDEST PUSH2 0xEB0 JUMPI PUSH1 0x40 MLOAD PUSH3 0x461BCD PUSH1 0xE5 SHL DUP2 MSTORE PUSH1 0x4 ADD PUSH2 0xC5C SWAP1 PUSH2 0x40D5 JUMP JUMPDEST PUSH1 0x0 PUSH1 0x1 PUSH1 0x1 PUSH1 0xA0 SHL SUB DUP5 AND EXTCODESIZE ISZERO PUSH2 0x3406 JUMPI PUSH1 0x40 MLOAD PUSH4 0xA85BD01 PUSH1 0xE1 SHL DUP2 MSTORE PUSH1 0x1 PUSH1 0x1 PUSH1 0xA0 SHL SUB DUP6 AND SWAP1 PUSH4 0x150B7A02 SWAP1 PUSH2 0x3357 SWAP1 CALLER SWAP1 DUP10 SWAP1 DUP9 SWAP1 DUP9 SWAP1 PUSH1 0x4 ADD PUSH2 0x4127 JUMP JUMPDEST PUSH1 0x20 PUSH1 0x40 MLOAD DUP1 DUP4 SUB DUP2 PUSH1 0x0 DUP8 GAS CALL SWAP3 POP POP POP DUP1 ISZERO PUSH2 0x3392 JUMPI POP PUSH1 0x40 DUP1 MLOAD PUSH1 0x1F RETURNDATASIZE SWAP1 DUP2 ADD PUSH1 0x1F NOT AND DUP3 ADD SWAP1 SWAP3 MSTORE PUSH2 0x338F SWAP2 DUP2 ADD SWAP1 PUSH2 0x4164 JUMP JUMPDEST PUSH1 0x1 JUMPDEST PUSH2 0x33EC JUMPI RETURNDATASIZE DUP1 DUP1 ISZERO PUSH2 0x33C0 JUMPI PUSH1 0x40 MLOAD SWAP2 POP PUSH1 0x1F NOT PUSH1 0x3F RETURNDATASIZE ADD AND DUP3 ADD PUSH1 0x40 MSTORE RETURNDATASIZE DUP3 MSTORE RETURNDATASIZE PUSH1 0x0 PUSH1 0x20 DUP5 ADD RETURNDATACOPY PUSH2 0x33C5 JUMP JUMPDEST PUSH1 0x60 SWAP2 POP JUMPDEST POP DUP1 MLOAD PUSH2 0x33E4 JUMPI PUSH1 0x40 MLOAD PUSH3 0x461BCD PUSH1 0xE5 SHL DUP2 MSTORE PUSH1 0x4 ADD PUSH2 0xC5C SWAP1 PUSH2 0x40D5 JUMP JUMPDEST DUP1 MLOAD DUP2 PUSH1 0x20 ADD REVERT JUMPDEST PUSH1 0x1 PUSH1 0x1 PUSH1 0xE0 SHL SUB NOT AND PUSH4 0xA85BD01 PUSH1 0xE1 SHL EQ SWAP1 POP PUSH2 0x2DF6 JUMP JUMPDEST POP PUSH1 0x1 SWAP5 SWAP4 POP POP POP POP JUMP JUMPDEST PUSH1 0x1 PUSH1 0x1 PUSH1 0xA0 SHL SUB DUP4 AND PUSH2 0x346C JUMPI PUSH2 0x3467 DUP2 PUSH1 0x8 DUP1 SLOAD PUSH1 0x0 DUP4 DUP2 MSTORE PUSH1 0x9 PUSH1 0x20 MSTORE PUSH1 0x40 DUP2 KECCAK256 DUP3 SWAP1 SSTORE PUSH1 0x1 DUP3 ADD DUP4 SSTORE SWAP2 SWAP1 SWAP2 MSTORE PUSH32 0xF3F7A9FE364FAAB93B216DA50A3214154F22A0A2B415B23A84C8169E8B636EE3 ADD SSTORE JUMP JUMPDEST PUSH2 0x348F JUMP JUMPDEST DUP2 PUSH1 0x1 PUSH1 0x1 PUSH1 0xA0 SHL SUB AND DUP4 PUSH1 0x1 PUSH1 0x1 PUSH1 0xA0 SHL SUB AND EQ PUSH2 0x348F JUMPI PUSH2 0x348F DUP4 DUP3 PUSH2 0x3617 JUMP JUMPDEST PUSH1 0x1 PUSH1 0x1 PUSH1 0xA0 SHL SUB DUP3 AND PUSH2 0x34A6 JUMPI PUSH2 0xEB0 DUP2 PUSH2 0x36B4 JUMP JUMPDEST DUP3 PUSH1 0x1 PUSH1 0x1 PUSH1 0xA0 SHL SUB AND DUP3 PUSH1 0x1 PUSH1 0x1 PUSH1 0xA0 SHL SUB AND EQ PUSH2 0xEB0 JUMPI PUSH2 0xEB0 DUP3 DUP3 PUSH2 0x3763 JUMP JUMPDEST PUSH1 0x1 PUSH1 0x1 PUSH1 0xA0 SHL SUB DUP3 AND PUSH2 0x351F JUMPI PUSH1 0x40 MLOAD PUSH3 0x461BCD PUSH1 0xE5 SHL DUP2 MSTORE PUSH1 0x20 PUSH1 0x4 DUP3 ADD DUP2 SWAP1 MSTORE PUSH1 0x24 DUP3 ADD MSTORE PUSH32 0x4552433732313A206D696E7420746F20746865207A65726F2061646472657373 PUSH1 0x44 DUP3 ADD MSTORE PUSH1 0x64 ADD PUSH2 0xC5C JUMP JUMPDEST PUSH1 0x0 DUP2 DUP2 MSTORE PUSH1 0x2 PUSH1 0x20 MSTORE PUSH1 0x40 SWAP1 KECCAK256 SLOAD PUSH1 0x1 PUSH1 0x1 PUSH1 0xA0 SHL SUB AND ISZERO PUSH2 0x3584 JUMPI PUSH1 0x40 MLOAD PUSH3 0x461BCD PUSH1 0xE5 SHL DUP2 MSTORE PUSH1 0x20 PUSH1 0x4 DUP3 ADD MSTORE PUSH1 0x1C PUSH1 0x24 DUP3 ADD MSTORE PUSH32 0x4552433732313A20746F6B656E20616C7265616479206D696E74656400000000 PUSH1 0x44 DUP3 ADD MSTORE PUSH1 0x64 ADD PUSH2 0xC5C JUMP JUMPDEST PUSH2 0x3590 PUSH1 0x0 DUP4 DUP4 PUSH2 0x325C JUMP JUMPDEST PUSH1 0x1 PUSH1 0x1 PUSH1 0xA0 SHL SUB DUP3 AND PUSH1 0x0 SWAP1 DUP2 MSTORE PUSH1 0x3 PUSH1 0x20 MSTORE PUSH1 0x40 DUP2 KECCAK256 DUP1 SLOAD PUSH1 0x1 SWAP3 SWAP1 PUSH2 0x35B9 SWAP1 DUP5 SWAP1 PUSH2 0x3EC2 JUMP JUMPDEST SWAP1 SWAP2 SSTORE POP POP PUSH1 0x0 DUP2 DUP2 MSTORE PUSH1 0x2 PUSH1 0x20 MSTORE PUSH1 0x40 DUP1 DUP3 KECCAK256 DUP1 SLOAD PUSH1 0x1 PUSH1 0x1 PUSH1 0xA0 SHL SUB NOT AND PUSH1 0x1 PUSH1 0x1 PUSH1 0xA0 SHL SUB DUP7 AND SWAP1 DUP2 OR SWAP1 SWAP2 SSTORE SWAP1 MLOAD DUP4 SWAP3 SWAP1 PUSH32 0xDDF252AD1BE2C89B69C2B068FC378DAA952BA7F163C4A11628F55A4DF523B3EF SWAP1 DUP3 SWAP1 LOG4 POP POP JUMP JUMPDEST PUSH1 0x0 PUSH1 0x1 PUSH2 0x3624 DUP5 PUSH2 0x1A7E JUMP JUMPDEST PUSH2 0x362E SWAP2 SWAP1 PUSH2 0x3E2F JUMP JUMPDEST PUSH1 0x0 DUP4 DUP2 MSTORE PUSH1 0x7 PUSH1 0x20 MSTORE PUSH1 0x40 SWAP1 KECCAK256 SLOAD SWAP1 SWAP2 POP DUP1 DUP3 EQ PUSH2 0x3681 JUMPI PUSH1 0x1 PUSH1 0x1 PUSH1 0xA0 SHL SUB DUP5 AND PUSH1 0x0 SWAP1 DUP2 MSTORE PUSH1 0x6 PUSH1 0x20 SWAP1 DUP2 MSTORE PUSH1 0x40 DUP1 DUP4 KECCAK256 DUP6 DUP5 MSTORE DUP3 MSTORE DUP1 DUP4 KECCAK256 SLOAD DUP5 DUP5 MSTORE DUP2 DUP5 KECCAK256 DUP2 SWAP1 SSTORE DUP4 MSTORE PUSH1 0x7 SWAP1 SWAP2 MSTORE SWAP1 KECCAK256 DUP2 SWAP1 SSTORE JUMPDEST POP PUSH1 0x0 SWAP2 DUP3 MSTORE PUSH1 0x7 PUSH1 0x20 SWAP1 DUP2 MSTORE PUSH1 0x40 DUP1 DUP5 KECCAK256 DUP5 SWAP1 SSTORE PUSH1 0x1 PUSH1 0x1 PUSH1 0xA0 SHL SUB SWAP1 SWAP5 AND DUP4 MSTORE PUSH1 0x6 DUP2 MSTORE DUP4 DUP4 KECCAK256 SWAP2 DUP4 MSTORE MSTORE SWAP1 DUP2 KECCAK256 SSTORE JUMP JUMPDEST PUSH1 0x8 SLOAD PUSH1 0x0 SWAP1 PUSH2 0x36C6 SWAP1 PUSH1 0x1 SWAP1 PUSH2 0x3E2F JUMP JUMPDEST PUSH1 0x0 DUP4 DUP2 MSTORE PUSH1 0x9 PUSH1 0x20 MSTORE PUSH1 0x40 DUP2 KECCAK256 SLOAD PUSH1 0x8 DUP1 SLOAD SWAP4 SWAP5 POP SWAP1 SWAP3 DUP5 SWAP1 DUP2 LT PUSH2 0x36EE JUMPI PUSH2 0x36EE PUSH2 0x3E46 JUMP JUMPDEST SWAP1 PUSH1 0x0 MSTORE PUSH1 0x20 PUSH1 0x0 KECCAK256 ADD SLOAD SWAP1 POP DUP1 PUSH1 0x8 DUP4 DUP2 SLOAD DUP2 LT PUSH2 0x370F JUMPI PUSH2 0x370F PUSH2 0x3E46 JUMP JUMPDEST PUSH1 0x0 SWAP2 DUP3 MSTORE PUSH1 0x20 DUP1 DUP4 KECCAK256 SWAP1 SWAP2 ADD SWAP3 SWAP1 SWAP3 SSTORE DUP3 DUP2 MSTORE PUSH1 0x9 SWAP1 SWAP2 MSTORE PUSH1 0x40 DUP1 DUP3 KECCAK256 DUP5 SWAP1 SSTORE DUP6 DUP3 MSTORE DUP2 KECCAK256 SSTORE PUSH1 0x8 DUP1 SLOAD DUP1 PUSH2 0x3747 JUMPI PUSH2 0x3747 PUSH2 0x4181 JUMP JUMPDEST PUSH1 0x1 SWAP1 SUB DUP2 DUP2 SWAP1 PUSH1 0x0 MSTORE PUSH1 0x20 PUSH1 0x0 KECCAK256 ADD PUSH1 0x0 SWAP1 SSTORE SWAP1 SSTORE POP POP POP POP JUMP JUMPDEST PUSH1 0x0 PUSH2 0x376E DUP4 PUSH2 0x1A7E JUMP JUMPDEST PUSH1 0x1 PUSH1 0x1 PUSH1 0xA0 SHL SUB SWAP1 SWAP4 AND PUSH1 0x0 SWAP1 DUP2 MSTORE PUSH1 0x6 PUSH1 0x20 SWAP1 DUP2 MSTORE PUSH1 0x40 DUP1 DUP4 KECCAK256 DUP7 DUP5 MSTORE DUP3 MSTORE DUP1 DUP4 KECCAK256 DUP6 SWAP1 SSTORE SWAP4 DUP3 MSTORE PUSH1 0x7 SWAP1 MSTORE SWAP2 SWAP1 SWAP2 KECCAK256 SWAP2 SWAP1 SWAP2 SSTORE POP JUMP JUMPDEST DUP3 DUP1 SLOAD DUP3 DUP3 SSTORE SWAP1 PUSH1 0x0 MSTORE PUSH1 0x20 PUSH1 0x0 KECCAK256 SWAP1 DUP2 ADD SWAP3 DUP3 ISZERO PUSH2 0x37E2 JUMPI SWAP2 PUSH1 0x20 MUL DUP3 ADD JUMPDEST DUP3 DUP2 GT ISZERO PUSH2 0x37E2 JUMPI DUP3 MLOAD DUP3 SSTORE SWAP2 PUSH1 0x20 ADD SWAP2 SWAP1 PUSH1 0x1 ADD SWAP1 PUSH2 0x37C7 JUMP JUMPDEST POP PUSH2 0x37EE SWAP3 SWAP2 POP PUSH2 0x38BA JUMP JUMPDEST POP SWAP1 JUMP JUMPDEST DUP3 DUP1 SLOAD PUSH2 0x37FE SWAP1 PUSH2 0x3DDE JUMP JUMPDEST SWAP1 PUSH1 0x0 MSTORE PUSH1 0x20 PUSH1 0x0 KECCAK256 SWAP1 PUSH1 0x1F ADD PUSH1 0x20 SWAP1 DIV DUP2 ADD SWAP3 DUP3 PUSH2 0x3820 JUMPI PUSH1 0x0 DUP6 SSTORE PUSH2 0x37E2 JUMP JUMPDEST DUP3 PUSH1 0x1F LT PUSH2 0x3839 JUMPI DUP1 MLOAD PUSH1 0xFF NOT AND DUP4 DUP1 ADD OR DUP6 SSTORE PUSH2 0x37E2 JUMP JUMPDEST DUP3 DUP1 ADD PUSH1 0x1 ADD DUP6 SSTORE DUP3 ISZERO PUSH2 0x37E2 JUMPI SWAP2 DUP3 ADD DUP3 DUP2 GT ISZERO PUSH2 0x37E2 JUMPI DUP3 MLOAD DUP3 SSTORE SWAP2 PUSH1 0x20 ADD SWAP2 SWAP1 PUSH1 0x1 ADD SWAP1 PUSH2 0x37C7 JUMP JUMPDEST DUP3 DUP1 SLOAD DUP3 DUP3 SSTORE SWAP1 PUSH1 0x0 MSTORE PUSH1 0x20 PUSH1 0x0 KECCAK256 SWAP1 DUP2 ADD SWAP3 DUP3 ISZERO PUSH2 0x37E2 JUMPI SWAP2 PUSH1 0x20 MUL DUP3 ADD JUMPDEST DUP3 DUP2 GT ISZERO PUSH2 0x37E2 JUMPI DUP3 MLOAD DUP3 SLOAD PUSH1 0x1 PUSH1 0x1 PUSH1 0xA0 SHL SUB NOT AND PUSH1 0x1 PUSH1 0x1 PUSH1 0xA0 SHL SUB SWAP1 SWAP2 AND OR DUP3 SSTORE PUSH1 0x20 SWAP1 SWAP3 ADD SWAP2 PUSH1 0x1 SWAP1 SWAP2 ADD SWAP1 PUSH2 0x3885 JUMP JUMPDEST JUMPDEST DUP1 DUP3 GT ISZERO PUSH2 0x37EE JUMPI PUSH1 0x0 DUP2 SSTORE PUSH1 0x1 ADD PUSH2 0x38BB JUMP JUMPDEST PUSH1 0x0 PUSH1 0x20 DUP3 DUP5 SUB SLT ISZERO PUSH2 0x38E1 JUMPI PUSH1 0x0 DUP1 REVERT JUMPDEST POP CALLDATALOAD SWAP2 SWAP1 POP JUMP JUMPDEST PUSH1 0x1 PUSH1 0x1 PUSH1 0xE0 SHL SUB NOT DUP2 AND DUP2 EQ PUSH2 0x145E JUMPI PUSH1 0x0 DUP1 REVERT JUMPDEST PUSH1 0x0 PUSH1 0x20 DUP3 DUP5 SUB SLT ISZERO PUSH2 0x3910 JUMPI PUSH1 0x0 DUP1 REVERT JUMPDEST DUP2 CALLDATALOAD PUSH2 0x391B DUP2 PUSH2 0x38E8 JUMP JUMPDEST SWAP4 SWAP3 POP POP POP JUMP JUMPDEST DUP1 ISZERO ISZERO DUP2 EQ PUSH2 0x145E JUMPI PUSH1 0x0 DUP1 REVERT JUMPDEST PUSH1 0x0 PUSH1 0x20 DUP3 DUP5 SUB SLT ISZERO PUSH2 0x3942 JUMPI PUSH1 0x0 DUP1 REVERT JUMPDEST DUP2 CALLDATALOAD PUSH2 0x391B DUP2 PUSH2 0x3922 JUMP JUMPDEST PUSH1 0x0 JUMPDEST DUP4 DUP2 LT ISZERO PUSH2 0x3968 JUMPI DUP2 DUP2 ADD MLOAD DUP4 DUP3 ADD MSTORE PUSH1 0x20 ADD PUSH2 0x3950 JUMP JUMPDEST DUP4 DUP2 GT ISZERO PUSH2 0x22D4 JUMPI POP POP PUSH1 0x0 SWAP2 ADD MSTORE JUMP JUMPDEST PUSH1 0x0 DUP2 MLOAD DUP1 DUP5 MSTORE PUSH2 0x3991 DUP2 PUSH1 0x20 DUP7 ADD PUSH1 0x20 DUP7 ADD PUSH2 0x394D JUMP JUMPDEST PUSH1 0x1F ADD PUSH1 0x1F NOT AND SWAP3 SWAP1 SWAP3 ADD PUSH1 0x20 ADD SWAP3 SWAP2 POP POP JUMP JUMPDEST PUSH1 0x20 DUP2 MSTORE PUSH1 0x0 PUSH2 0x391B PUSH1 0x20 DUP4 ADD DUP5 PUSH2 0x3979 JUMP JUMPDEST DUP1 CALLDATALOAD PUSH1 0x1 PUSH1 0x1 PUSH1 0xA0 SHL SUB DUP2 AND DUP2 EQ PUSH2 0x17DB JUMPI PUSH1 0x0 DUP1 REVERT JUMPDEST PUSH1 0x0 DUP1 PUSH1 0x40 DUP4 DUP6 SUB SLT ISZERO PUSH2 0x39E2 JUMPI PUSH1 0x0 DUP1 REVERT JUMPDEST PUSH2 0x39EB DUP4 PUSH2 0x39B8 JUMP JUMPDEST SWAP5 PUSH1 0x20 SWAP4 SWAP1 SWAP4 ADD CALLDATALOAD SWAP4 POP POP POP JUMP JUMPDEST PUSH1 0x0 DUP1 PUSH1 0x0 PUSH1 0x60 DUP5 DUP7 SUB SLT ISZERO PUSH2 0x3A0E JUMPI PUSH1 0x0 DUP1 REVERT JUMPDEST PUSH2 0x3A17 DUP5 PUSH2 0x39B8 JUMP JUMPDEST SWAP3 POP PUSH2 0x3A25 PUSH1 0x20 DUP6 ADD PUSH2 0x39B8 JUMP JUMPDEST SWAP2 POP PUSH1 0x40 DUP5 ADD CALLDATALOAD SWAP1 POP SWAP3 POP SWAP3 POP SWAP3 JUMP JUMPDEST PUSH4 0x4E487B71 PUSH1 0xE0 SHL PUSH1 0x0 MSTORE PUSH1 0x41 PUSH1 0x4 MSTORE PUSH1 0x24 PUSH1 0x0 REVERT JUMPDEST PUSH1 0x40 MLOAD PUSH1 0x1F DUP3 ADD PUSH1 0x1F NOT AND DUP2 ADD PUSH8 0xFFFFFFFFFFFFFFFF DUP2 GT DUP3 DUP3 LT OR ISZERO PUSH2 0x3A74 JUMPI PUSH2 0x3A74 PUSH2 0x3A35 JUMP JUMPDEST PUSH1 0x40 MSTORE SWAP2 SWAP1 POP JUMP JUMPDEST PUSH1 0x0 PUSH8 0xFFFFFFFFFFFFFFFF DUP3 GT ISZERO PUSH2 0x3A96 JUMPI PUSH2 0x3A96 PUSH2 0x3A35 JUMP JUMPDEST POP PUSH1 0x5 SHL PUSH1 0x20 ADD SWAP1 JUMP JUMPDEST PUSH1 0x0 PUSH1 0x20 DUP1 DUP4 DUP6 SUB SLT ISZERO PUSH2 0x3AB3 JUMPI PUSH1 0x0 DUP1 REVERT JUMPDEST DUP3 CALLDATALOAD PUSH8 0xFFFFFFFFFFFFFFFF DUP2 GT ISZERO PUSH2 0x3ACA JUMPI PUSH1 0x0 DUP1 REVERT JUMPDEST DUP4 ADD PUSH1 0x1F DUP2 ADD DUP6 SGT PUSH2 0x3ADB JUMPI PUSH1 0x0 DUP1 REVERT JUMPDEST DUP1 CALLDATALOAD PUSH2 0x3AEE PUSH2 0x3AE9 DUP3 PUSH2 0x3A7C JUMP JUMPDEST PUSH2 0x3A4B JUMP JUMPDEST DUP2 DUP2 MSTORE PUSH1 0x5 SWAP2 SWAP1 SWAP2 SHL DUP3 ADD DUP4 ADD SWAP1 DUP4 DUP2 ADD SWAP1 DUP8 DUP4 GT ISZERO PUSH2 0x3B0D JUMPI PUSH1 0x0 DUP1 REVERT JUMPDEST SWAP3 DUP5 ADD SWAP3 JUMPDEST DUP3 DUP5 LT ISZERO PUSH2 0x3B2B JUMPI DUP4 CALLDATALOAD DUP3 MSTORE SWAP3 DUP5 ADD SWAP3 SWAP1 DUP5 ADD SWAP1 PUSH2 0x3B12 JUMP JUMPDEST SWAP8 SWAP7 POP POP POP POP POP POP POP JUMP JUMPDEST PUSH1 0x0 PUSH1 0x20 DUP3 DUP5 SUB SLT ISZERO PUSH2 0x3B48 JUMPI PUSH1 0x0 DUP1 REVERT JUMPDEST PUSH2 0x391B DUP3 PUSH2 0x39B8 JUMP JUMPDEST PUSH1 0x20 DUP1 DUP3 MSTORE DUP3 MLOAD DUP3 DUP3 ADD DUP2 SWAP1 MSTORE PUSH1 0x0 SWAP2 SWAP1 DUP5 DUP3 ADD SWAP1 PUSH1 0x40 DUP6 ADD SWAP1 DUP5 JUMPDEST DUP2 DUP2 LT ISZERO PUSH2 0x3B89 JUMPI DUP4 MLOAD DUP4 MSTORE SWAP3 DUP5 ADD SWAP3 SWAP2 DUP5 ADD SWAP2 PUSH1 0x1 ADD PUSH2 0x3B6D JUMP JUMPDEST POP SWAP1 SWAP7 SWAP6 POP POP POP POP POP POP JUMP JUMPDEST PUSH1 0x0 PUSH8 0xFFFFFFFFFFFFFFFF DUP4 GT ISZERO PUSH2 0x3BAF JUMPI PUSH2 0x3BAF PUSH2 0x3A35 JUMP JUMPDEST PUSH2 0x3BC2 PUSH1 0x1F DUP5 ADD PUSH1 0x1F NOT AND PUSH1 0x20 ADD PUSH2 0x3A4B JUMP JUMPDEST SWAP1 POP DUP3 DUP2 MSTORE DUP4 DUP4 DUP4 ADD GT ISZERO PUSH2 0x3BD6 JUMPI PUSH1 0x0 DUP1 REVERT JUMPDEST DUP3 DUP3 PUSH1 0x20 DUP4 ADD CALLDATACOPY PUSH1 0x0 PUSH1 0x20 DUP5 DUP4 ADD ADD MSTORE SWAP4 SWAP3 POP POP POP JUMP JUMPDEST PUSH1 0x0 PUSH1 0x20 DUP3 DUP5 SUB SLT ISZERO PUSH2 0x3BFF JUMPI PUSH1 0x0 DUP1 REVERT JUMPDEST DUP2 CALLDATALOAD PUSH8 0xFFFFFFFFFFFFFFFF DUP2 GT ISZERO PUSH2 0x3C16 JUMPI PUSH1 0x0 DUP1 REVERT JUMPDEST DUP3 ADD PUSH1 0x1F DUP2 ADD DUP5 SGT PUSH2 0x3C27 JUMPI PUSH1 0x0 DUP1 REVERT JUMPDEST PUSH2 0x2DF6 DUP5 DUP3 CALLDATALOAD PUSH1 0x20 DUP5 ADD PUSH2 0x3B95 JUMP JUMPDEST PUSH1 0x0 DUP1 PUSH1 0x40 DUP4 DUP6 SUB SLT ISZERO PUSH2 0x3C49 JUMPI PUSH1 0x0 DUP1 REVERT JUMPDEST PUSH2 0x3C52 DUP4 PUSH2 0x39B8 JUMP JUMPDEST SWAP2 POP PUSH1 0x20 DUP4 ADD CALLDATALOAD PUSH2 0x3C62 DUP2 PUSH2 0x3922 JUMP JUMPDEST DUP1 SWAP2 POP POP SWAP3 POP SWAP3 SWAP1 POP JUMP JUMPDEST PUSH1 0x0 DUP1 PUSH1 0x0 DUP1 PUSH1 0x80 DUP6 DUP8 SUB SLT ISZERO PUSH2 0x3C83 JUMPI PUSH1 0x0 DUP1 REVERT JUMPDEST PUSH2 0x3C8C DUP6 PUSH2 0x39B8 JUMP JUMPDEST SWAP4 POP PUSH2 0x3C9A PUSH1 0x20 DUP7 ADD PUSH2 0x39B8 JUMP JUMPDEST SWAP3 POP PUSH1 0x40 DUP6 ADD CALLDATALOAD SWAP2 POP PUSH1 0x60 DUP6 ADD CALLDATALOAD PUSH8 0xFFFFFFFFFFFFFFFF DUP2 GT ISZERO PUSH2 0x3CBD JUMPI PUSH1 0x0 DUP1 REVERT JUMPDEST DUP6 ADD PUSH1 0x1F DUP2 ADD DUP8 SGT PUSH2 0x3CCE JUMPI PUSH1 0x0 DUP1 REVERT JUMPDEST PUSH2 0x3CDD DUP8 DUP3 CALLDATALOAD PUSH1 0x20 DUP5 ADD PUSH2 0x3B95 JUMP JUMPDEST SWAP2 POP POP SWAP3 SWAP6 SWAP2 SWAP5 POP SWAP3 POP JUMP JUMPDEST PUSH1 0x0 PUSH1 0x20 DUP1 DUP4 DUP6 SUB SLT ISZERO PUSH2 0x3CFC JUMPI PUSH1 0x0 DUP1 REVERT JUMPDEST DUP3 CALLDATALOAD PUSH8 0xFFFFFFFFFFFFFFFF DUP2 GT ISZERO PUSH2 0x3D13 JUMPI PUSH1 0x0 DUP1 REVERT JUMPDEST DUP4 ADD PUSH1 0x1F DUP2 ADD DUP6 SGT PUSH2 0x3D24 JUMPI PUSH1 0x0 DUP1 REVERT JUMPDEST DUP1 CALLDATALOAD PUSH2 0x3D32 PUSH2 0x3AE9 DUP3 PUSH2 0x3A7C JUMP JUMPDEST DUP2 DUP2 MSTORE PUSH1 0x5 SWAP2 SWAP1 SWAP2 SHL DUP3 ADD DUP4 ADD SWAP1 DUP4 DUP2 ADD SWAP1 DUP8 DUP4 GT ISZERO PUSH2 0x3D51 JUMPI PUSH1 0x0 DUP1 REVERT JUMPDEST SWAP3 DUP5 ADD SWAP3 JUMPDEST DUP3 DUP5 LT ISZERO PUSH2 0x3B2B JUMPI PUSH2 0x3D67 DUP5 PUSH2 0x39B8 JUMP JUMPDEST DUP3 MSTORE SWAP3 DUP5 ADD SWAP3 SWAP1 DUP5 ADD SWAP1 PUSH2 0x3D56 JUMP JUMPDEST PUSH1 0x0 DUP1 PUSH1 0x40 DUP4 DUP6 SUB SLT ISZERO PUSH2 0x3D89 JUMPI PUSH1 0x0 DUP1 REVERT JUMPDEST PUSH2 0x3D92 DUP4 PUSH2 0x39B8 JUMP JUMPDEST SWAP2 POP PUSH2 0x3DA0 PUSH1 0x20 DUP5 ADD PUSH2 0x39B8 JUMP JUMPDEST SWAP1 POP SWAP3 POP SWAP3 SWAP1 POP JUMP JUMPDEST PUSH1 0x20 DUP1 DUP3 MSTORE DUP2 DUP2 ADD MSTORE PUSH32 0x4F776E61626C653A2063616C6C6572206973206E6F7420746865206F776E6572 PUSH1 0x40 DUP3 ADD MSTORE PUSH1 0x60 ADD SWAP1 JUMP JUMPDEST PUSH1 0x1 DUP2 DUP2 SHR SWAP1 DUP3 AND DUP1 PUSH2 0x3DF2 JUMPI PUSH1 0x7F DUP3 AND SWAP2 POP JUMPDEST PUSH1 0x20 DUP3 LT DUP2 EQ ISZERO PUSH2 0x3E13 JUMPI PUSH4 0x4E487B71 PUSH1 0xE0 SHL PUSH1 0x0 MSTORE PUSH1 0x22 PUSH1 0x4 MSTORE PUSH1 0x24 PUSH1 0x0 REVERT JUMPDEST POP SWAP2 SWAP1 POP JUMP JUMPDEST PUSH4 0x4E487B71 PUSH1 0xE0 SHL PUSH1 0x0 MSTORE PUSH1 0x11 PUSH1 0x4 MSTORE PUSH1 0x24 PUSH1 0x0 REVERT JUMPDEST PUSH1 0x0 DUP3 DUP3 LT ISZERO PUSH2 0x3E41 JUMPI PUSH2 0x3E41 PUSH2 0x3E19 JUMP JUMPDEST POP SUB SWAP1 JUMP JUMPDEST PUSH4 0x4E487B71 PUSH1 0xE0 SHL PUSH1 0x0 MSTORE PUSH1 0x32 PUSH1 0x4 MSTORE PUSH1 0x24 PUSH1 0x0 REVERT JUMPDEST PUSH1 0x0 DUP2 PUSH1 0x0 NOT DIV DUP4 GT DUP3 ISZERO ISZERO AND ISZERO PUSH2 0x3E76 JUMPI PUSH2 0x3E76 PUSH2 0x3E19 JUMP JUMPDEST POP MUL SWAP1 JUMP JUMPDEST PUSH4 0x4E487B71 PUSH1 0xE0 SHL PUSH1 0x0 MSTORE PUSH1 0x12 PUSH1 0x4 MSTORE PUSH1 0x24 PUSH1 0x0 REVERT JUMPDEST PUSH1 0x0 DUP3 PUSH2 0x3EA0 JUMPI PUSH2 0x3EA0 PUSH2 0x3E7B JUMP JUMPDEST POP DIV SWAP1 JUMP JUMPDEST PUSH1 0x0 PUSH1 0x20 DUP3 DUP5 SUB SLT ISZERO PUSH2 0x3EB7 JUMPI PUSH1 0x0 DUP1 REVERT JUMPDEST DUP2 MLOAD PUSH2 0x391B DUP2 PUSH2 0x3922 JUMP JUMPDEST PUSH1 0x0 DUP3 NOT DUP3 GT ISZERO PUSH2 0x3ED5 JUMPI PUSH2 0x3ED5 PUSH2 0x3E19 JUMP JUMPDEST POP ADD SWAP1 JUMP JUMPDEST PUSH1 0x20 DUP1 DUP3 MSTORE PUSH1 0x31 SWAP1 DUP3 ADD MSTORE PUSH32 0x4552433732313A207472616E736665722063616C6C6572206973206E6F74206F PUSH1 0x40 DUP3 ADD MSTORE PUSH17 0x1DDB995C881B9BDC88185C1C1C9BDD9959 PUSH1 0x7A SHL PUSH1 0x60 DUP3 ADD MSTORE PUSH1 0x80 ADD SWAP1 JUMP JUMPDEST PUSH1 0x0 PUSH1 0x0 NOT DUP3 EQ ISZERO PUSH2 0x3F3F JUMPI PUSH2 0x3F3F PUSH2 0x3E19 JUMP JUMPDEST POP PUSH1 0x1 ADD SWAP1 JUMP JUMPDEST PUSH1 0x0 DUP1 PUSH1 0x0 PUSH1 0x60 DUP5 DUP7 SUB SLT ISZERO PUSH2 0x3F5B JUMPI PUSH1 0x0 DUP1 REVERT JUMPDEST DUP4 MLOAD PUSH2 0x3F66 DUP2 PUSH2 0x3922 JUMP JUMPDEST PUSH1 0x20 DUP6 ADD MLOAD PUSH1 0x40 SWAP1 SWAP6 ADD MLOAD SWAP1 SWAP7 SWAP5 SWAP6 POP SWAP4 SWAP3 POP POP POP JUMP JUMPDEST PUSH1 0x0 PUSH1 0x20 DUP3 DUP5 SUB SLT ISZERO PUSH2 0x3F8F JUMPI PUSH1 0x0 DUP1 REVERT JUMPDEST POP MLOAD SWAP2 SWAP1 POP JUMP JUMPDEST DUP1 MLOAD PUSH10 0xFFFFFFFFFFFFFFFFFFFF DUP2 AND DUP2 EQ PUSH2 0x17DB JUMPI PUSH1 0x0 DUP1 REVERT JUMPDEST PUSH1 0x0 DUP1 PUSH1 0x0 DUP1 PUSH1 0x0 PUSH1 0xA0 DUP7 DUP9 SUB SLT ISZERO PUSH2 0x3FC8 JUMPI PUSH1 0x0 DUP1 REVERT JUMPDEST PUSH2 0x3FD1 DUP7 PUSH2 0x3F96 JUMP JUMPDEST SWAP5 POP PUSH1 0x20 DUP7 ADD MLOAD SWAP4 POP PUSH1 0x40 DUP7 ADD MLOAD SWAP3 POP PUSH1 0x60 DUP7 ADD MLOAD SWAP2 POP PUSH2 0x3FF4 PUSH1 0x80 DUP8 ADD PUSH2 0x3F96 JUMP JUMPDEST SWAP1 POP SWAP3 SWAP6 POP SWAP3 SWAP6 SWAP1 SWAP4 POP JUMP JUMPDEST PUSH1 0x0 PUSH1 0x1 PUSH1 0x1 PUSH1 0xFF SHL SUB DUP2 DUP5 SGT DUP3 DUP5 SGT DUP1 DUP3 AND DUP7 DUP5 DIV DUP7 GT AND ISZERO PUSH2 0x4026 JUMPI PUSH2 0x4026 PUSH2 0x3E19 JUMP JUMPDEST PUSH1 0x1 PUSH1 0xFF SHL PUSH1 0x0 DUP8 SLT DUP3 DUP2 AND DUP8 DUP4 SDIV DUP10 SLT AND ISZERO PUSH2 0x4045 JUMPI PUSH2 0x4045 PUSH2 0x3E19 JUMP JUMPDEST PUSH1 0x0 DUP8 SLT SWAP3 POP DUP8 DUP3 SDIV DUP8 SLT DUP5 DUP5 AND AND ISZERO PUSH2 0x4061 JUMPI PUSH2 0x4061 PUSH2 0x3E19 JUMP JUMPDEST DUP8 DUP6 SDIV DUP8 SLT DUP2 DUP5 AND AND ISZERO PUSH2 0x4077 JUMPI PUSH2 0x4077 PUSH2 0x3E19 JUMP JUMPDEST POP POP POP SWAP3 SWAP1 SWAP4 MUL SWAP4 SWAP3 POP POP POP JUMP JUMPDEST PUSH1 0x0 DUP4 MLOAD PUSH2 0x4097 DUP2 DUP5 PUSH1 0x20 DUP9 ADD PUSH2 0x394D JUMP JUMPDEST PUSH1 0x2F PUSH1 0xF8 SHL SWAP1 DUP4 ADD SWAP1 DUP2 MSTORE DUP4 MLOAD PUSH2 0x40B5 DUP2 PUSH1 0x1 DUP5 ADD PUSH1 0x20 DUP9 ADD PUSH2 0x394D JUMP JUMPDEST ADD PUSH1 0x1 ADD SWAP5 SWAP4 POP POP POP POP JUMP JUMPDEST PUSH1 0x0 DUP3 PUSH2 0x40D0 JUMPI PUSH2 0x40D0 PUSH2 0x3E7B JUMP JUMPDEST POP MOD SWAP1 JUMP JUMPDEST PUSH1 0x20 DUP1 DUP3 MSTORE PUSH1 0x32 SWAP1 DUP3 ADD MSTORE PUSH32 0x4552433732313A207472616E7366657220746F206E6F6E204552433732315265 PUSH1 0x40 DUP3 ADD MSTORE PUSH18 0x31B2B4BB32B91034B6B83632B6B2B73A32B9 PUSH1 0x71 SHL PUSH1 0x60 DUP3 ADD MSTORE PUSH1 0x80 ADD SWAP1 JUMP JUMPDEST PUSH1 0x1 PUSH1 0x1 PUSH1 0xA0 SHL SUB DUP6 DUP2 AND DUP3 MSTORE DUP5 AND PUSH1 0x20 DUP3 ADD MSTORE PUSH1 0x40 DUP2 ADD DUP4 SWAP1 MSTORE PUSH1 0x80 PUSH1 0x60 DUP3 ADD DUP2 SWAP1 MSTORE PUSH1 0x0 SWAP1 PUSH2 0x415A SWAP1 DUP4 ADD DUP5 PUSH2 0x3979 JUMP JUMPDEST SWAP7 SWAP6 POP POP POP POP POP POP JUMP JUMPDEST PUSH1 0x0 PUSH1 0x20 DUP3 DUP5 SUB SLT ISZERO PUSH2 0x4176 JUMPI PUSH1 0x0 DUP1 REVERT JUMPDEST DUP2 MLOAD PUSH2 0x391B DUP2 PUSH2 0x38E8 JUMP JUMPDEST PUSH4 0x4E487B71 PUSH1 0xE0 SHL PUSH1 0x0 MSTORE PUSH1 0x31 PUSH1 0x4 MSTORE PUSH1 0x24 PUSH1 0x0 REVERT INVALID LOG2 PUSH5 0x6970667358 0x22 SLT KECCAK256 0xCF RETURNDATASIZE SWAP6 0x5E 0xDF 0xD0 SWAP4 JUMP SMOD 0xEA 0xEA SWAP10 EQ DUP5 0xAB SELFDESTRUCT 0xCA DIV SHR INVALID BYTE EXTCODESIZE SWAP1 CREATE 0xBD GASPRICE 0xB6 0xD8 0xB9 0xEC 0xB5 0xC0 PUSH5 0x736F6C6343 STOP ADDMOD SIGNEXTEND STOP CALLER ",
  "sha1": "c6ac011c8cbd5b1ae524f1f91cd04270f0a9ec68",
  "source": "// SPDX-License-Identifier: MIT\npragma solidity >=0.7.0 <0.9.0;\n\nimport \"@openzeppelin/contracts/token/ERC721/extensions/ERC721Enumerable.sol\";\nimport \"@openzeppelin/contracts/access/Ownable.sol\";\nimport \"@openzeppelin/contracts/utils/Strings.sol\";\nimport \"@chainlink/contracts/src/v0.8/interfaces/AggregatorV3Interface.sol\";\nimport \"./TokenFarm.sol\";\nimport \"./CreateNFT.sol\";\nimport \"@openzeppelin/contracts/token/ERC20/ERC20.sol\";\n\n\ncontract CreateNFTNode is ERC721Enumerable, Ownable {\n    string public baseURI;\n    uint256 public counter = 1;\n    bool public paused = false;\n    string public contractUri;\n    uint256[] public rewardRates;\n    address[] public addresses;\n    uint256[] public fees;\n    uint256[] public priceNodes;\n    uint256 public mintRate;\n    bool locked;\n    uint256[] tierCounter;\n    uint256[] tierMax;\n\n    struct Node {\n        uint256 rewardTimestamp;\n        uint256 feeTimestamp;\n        uint256 tierNumber;\n        uint256 rewardSum;\n        uint256 rewardRate;\n        bool monthlyFeePaid;\n        bool firstRound;\n        uint256 calcPre;\n    }\n\n    struct Nft {\n        uint256 lastUpdate;\n        bool firstMintOver;\n    }\n\n    mapping(address => uint256[]) public tokenIds;\n    mapping(uint256 => Node) public nodeToken;\n    mapping(address => mapping(uint256 => uint256)) public tokensReceived;\n    mapping(address => mapping(uint256 => Nft)) public nftMapping;\n\n    constructor (string memory _name,\n        string memory _symbol,\n        string memory _initBaseURI, string memory _initContractURI, uint256[] memory _initRewardRates, address[] memory _initAddresses, uint256[] memory dollarFees, uint256[] memory _initPriceNodes, uint256 _initMintRate, uint256[] memory _initTierMax) public ERC721 (_name, _symbol){\n        setBaseURI(_initBaseURI);\n        setContractURI(_initContractURI);\n        setRewardRates(_initRewardRates);\n        setAddresses(_initAddresses);\n        setFees(dollarFees);\n        setPriceNodes(_initPriceNodes);\n        setMintRate(_initMintRate);\n        setTierMax(_initTierMax);\n        locked = true;\n        tierCounter = new uint256[](3);\n    }\n\n    //set the locked flag for transfers\n    function setLocked(bool _locked) public onlyOwner\n    {\n        locked = _locked;\n    }\n\n\n    //override beforeTokenTransfer to prevent node transfers except the mint\n    function _beforeTokenTransfer(\n        address from,\n        address to,\n        uint256 tokenId\n    ) internal virtual override {\n        super._beforeTokenTransfer(from, to, tokenId);\n        if (locked == true)\n        {\n            require(from == address(0), \"Node NFT Transfers currently not allowed!\");\n        }\n\n    }\n\n\n    //set the rate for the node mints\n    function setMintRate(uint256 _newMintRate) public onlyOwner\n    {\n        mintRate = _newMintRate;\n    }\n\n    function setTierMax(uint256[] memory _newTierMax) public onlyOwner\n    {\n        tierMax = _newTierMax;\n    }\n\n\n    //set the buy prices for the nodes in FACED token\n    function setPriceNodes(uint256[] memory _newPriceNodes) public onlyOwner\n    {\n        priceNodes = _newPriceNodes;\n    }\n\n    //get information about a specific node\n    function getNodeToken(uint256 tokenId) public view returns (uint256, uint256, uint256, bool, uint256)\n    {\n        return (nodeToken[tokenId].rewardTimestamp, nodeToken[tokenId].feeTimestamp, nodeToken[tokenId].tierNumber, nodeToken[tokenId].monthlyFeePaid, nodeToken[tokenId].rewardRate);\n\n    }\n\n    //set the monthly fees for claiming rewards\n    function setFees(uint256[] memory _fees) public onlyOwner\n    {\n        fees = _fees;\n    }\n\n\n    //get price()\n    //TODO: test\n    function getPrice() public view returns (uint256){\n\n        (,int256 answer,,,) = AggregatorV3Interface(addresses[2]).latestRoundData();\n        return uint256(answer * 10000000000);\n    }\n\n    // 1000000000\n    //TODO: test\n    function getConversionRate(uint256 ftmAmount) public view returns (uint256){\n        return (getPrice() * ftmAmount) / 1000000000000000000;\n    }\n\n\n    //get the contract URI\n    function contractURI() public view returns (string memory) {\n        return contractUri;\n    }\n\n\n    //set the different token addresses (nft, token, farm, price feed)\n    function setAddresses(address[] memory _addresses) public onlyOwner\n    {\n        addresses = _addresses;\n    }\n\n\n    // internal\n    function _baseURI() internal view virtual override returns (string memory) {\n        return baseURI;\n    }\n\n\n    //set base uri for metadata\n    function setBaseURI(string memory _newBaseURI) public onlyOwner {\n        baseURI = _newBaseURI;\n    }\n\n\n    //set the different reward rates for the different tiers\n    function setRewardRates(uint256[] memory _newRewardRates) public onlyOwner {\n        rewardRates = _newRewardRates;\n    }\n\n    //get the current timestamp\n    function getTime() public virtual view returns (uint256)\n    {\n        return block.timestamp;\n    }\n\n\n    //pause the mint\n    function pause(bool _state) public onlyOwner {\n        paused = _state;\n    }\n\n\n    //mint nfts for giveaways by the owner\n    function mintForGiveaways(uint256 number) public onlyOwner {\n        for (uint256 i = 0; i < number; i++) {\n            _safeMint(msg.sender, counter);\n            counter = counter + 1;}\n    }\n\n    //check the number of purchased nodes, price goes up after specific steps\n    function checkStepCounter() private\n    {\n        if (counter % 10000 == 0)\n        {\n            priceNodes[0] = priceNodes[0] + 1;\n        }\n        else if (counter % 5000 == 0)\n        {\n\n            priceNodes[1] = priceNodes[1] + 3;\n\n        }\n\n        else if (counter % 3000 == 0)\n        {\n            priceNodes[2] = priceNodes[2] + 11;\n        }\n    }\n\n    //mint nodes (only possible when having staked nft)\n    function mint(uint256 tokenId) public virtual payable {\n        require(!paused, \"Mint paused\");\n        uint256 tierNumber;\n        uint256 numberOfNodes;\n        //TODO: checkTime\n        //check if there is staked token with this id and sender\n        (bool doesExist,,) = TokenFarm(addresses[1]).getStakedToken(msg.sender, tokenId);\n        if (doesExist == true) {\n            //first node can be minted without waiting one month\n            if (nftMapping[msg.sender][tokenId].firstMintOver == false && getNumberOfNodes(msg.sender, tokenId) < 1)\n            {\n                numberOfNodes = 1;\n            }\n            //else the number will be calculated, needs to be more than 1\n            else {\n                numberOfNodes = getNumberOfNodes(msg.sender, tokenId);\n                require(numberOfNodes > 0, \"You can't mint yet!\");\n            }\n            //nfts with id <= 9886 can only mint tier one\n            if (tokenId <= 9886)\n            {\n                tierNumber = 1;\n            }\n            //only legendary get tier 3\n            else\n            {\n                tierNumber = 3;\n            }\n\n            require(tierCounter[tierNumber - 1] + numberOfNodes <= tierMax[tierNumber - 1], \"Sold out!\");\n\n            for (uint256 i = 0;\n                i < numberOfNodes;\n                i++)\n            {\n                //mint nodes and safe in mapping\n                _safeMint(msg.sender, counter);\n                //TODO: check\n                checkStepCounter();\n                nodeToken[counter] = Node(getTime(), getTime(), tierNumber, 0, rewardRates[tierNumber - 1], true, false, 0);\n                //TODO: check\n                tierCounter[tierNumber - 1] += 1;\n                counter = counter + 1;\n            }\n            //mapping for knowing when time for next mint\n            nftMapping[msg.sender][tokenId] = Nft(getTime(), true);\n        }\n        else\n        {\n            //if there is no staked nft anymore the mapping can be deleted and the function will revert\n            delete nftMapping[msg.sender][tokenId];\n            require(doesExist == true, \"You don't have a staked NFT!\");\n        }\n    }\n\n    //buy node with specific tier\n    function buy(uint256 tier) public virtual payable\n    {require(!paused, \"Mint paused!\");\n        require((tier > 0) && (tier < 4), \"There is only tier 1-3!\");\n        require(tierCounter[tier - 1] <= tierMax[tier - 1], \"Sold out!\");\n        checkStepCounter();\n        require(ERC20(addresses[0]).balanceOf(msg.sender) >= priceNodes[tier - 1], \"Not enough tokens to buy!\");\n        ERC20(addresses[0]).transferFrom(msg.sender, owner(), priceNodes[tier - 1]);\n        _safeMint(msg.sender, counter);\n        nodeToken[counter] = Node(getTime(), getTime(), tier, 0, rewardRates[tier - 1], true, false, 0);\n        tierCounter[tier - 1] += 1;\n        counter = counter + 1;\n    }\n\n    //TODO: pay Problems\n    //pay the monthly fee for getting rewards (only for tier3 nft holder or only node holder)\n    function payMonthlyFee(uint256 _tokenId) public virtual payable\n    {\n        require(ownerOf(_tokenId) == msg.sender, \"Needs to be owner of Node\");\n        if (CreateNFT(addresses[3]).balanceOf(msg.sender) > 0)\n        {\n            require(nodeToken[_tokenId].tierNumber == 3, \"You don't need to pay\");\n        }\n        require(getConversionRate(msg.value) >= fees[nodeToken[_tokenId].tierNumber - 1] * 10 ** 18, \"You don't have enough money!\");\n        nodeToken[_tokenId].monthlyFeePaid = true;\n        nodeToken[_tokenId].feeTimestamp = getTime();\n    }\n    //TODO:do it\n    //check if the month is over for the fee to pay\n    function checkIfMonthOver(uint256 _tokenId, address sender) private\n    {\n        if (calcTimeElapsedFee(_tokenId) > mintRate) {\n            if (CreateNFT(addresses[3]).balanceOf(msg.sender) == 0)\n            {\n                nodeToken[_tokenId].monthlyFeePaid = false;\n            }\n            else\n            {\n                if (nodeToken[_tokenId].tierNumber == 3)\n                {\n                    nodeToken[_tokenId].monthlyFeePaid = false;\n                }\n            }\n        }}\n\n\n    //metadata URI for nfts\n    function tokenURI(uint256 tokenId)\n    public\n    view\n    virtual\n    override\n    returns (string memory)\n    {\n        require(\n            _exists(tokenId),\n            \"ERC721Metadata: URI query for nonexistent token\"\n        );\n        //TODO: idea\n        if (nodeToken[tokenId].tierNumber == 1)\n        {\n            return string(abi.encodePacked(\n                    _baseURI(), \"/\",\n                    Strings.toString(1)\n                ));\n        }\n\n        else if (nodeToken[tokenId].tierNumber == 2)\n        {\n            return string(abi.encodePacked(\n                    _baseURI(), \"/\",\n                    Strings.toString(2)\n                ));\n\n        }\n        else {\n            string memory currentBaseURI = _baseURI();\n            return string(abi.encodePacked(\n                    currentBaseURI, \"/\",\n                    Strings.toString(3)\n                ));}\n    }\n\n    //return nft ids of one owner\n    function walletOfOwner(address _owner)\n    public\n    view\n    returns (uint256[] memory)\n    {\n        uint256 ownerTokenCount = balanceOf(_owner);\n        uint256[] memory tokenIdes = new uint256[](ownerTokenCount);\n        for (uint256 i; i < ownerTokenCount; i++) {\n            tokenIdes[i] = tokenOfOwnerByIndex(_owner, i);\n        }\n        return tokenIdes;\n    }\n\n    // set contract uri\n    function setContractURI(string memory _contractURI) public onlyOwner {\n        contractUri = _contractURI;\n    }\n\n    //withdraw the collected eth from mint\n    function withdraw() payable onlyOwner public {\n        payable(msg.sender).transfer(address(this).balance);\n    }\n\n    // get the claim fee for the rewards\n    function getClaimFee(uint256 _tokenId) public view returns (uint256)\n    {\n        if (calcTimeElapsedReward(_tokenId) < 518400)\n        {\n            return 88;\n\n        }\n        else if ((calcTimeElapsedReward(_tokenId) > 518400) && (calcTimeElapsedReward(_tokenId) < 1123200))\n        {\n            return 94;\n        }\n        else {\n            return 100;\n        }\n\n    }\n\n    //claim reward token\n    function claimRewards(uint256 nodeTokenId) public\n    {\n        //TODO: paid the fee\n        //TOD0: check if msg.sender owns this id\n        require(ownerOf(nodeTokenId) == msg.sender, \"Needs to be owner of the node\");\n        checkIfMonthOver(nodeTokenId, msg.sender);\n        require(nodeToken[nodeTokenId].monthlyFeePaid == true, \"You need to pay the fee first!\");\n        nodeToken[nodeTokenId].rewardRate = rewardRates[nodeToken[nodeTokenId].tierNumber - 1];\n        uint256 wholeReward = calcTimeElapsedReward(nodeTokenId) * nodeToken[nodeTokenId].rewardRate * getClaimFee(nodeTokenId);\n        nodeToken[nodeTokenId].rewardTimestamp = getTime();\n        require(wholeReward > 0, \"Reward needs to be greater than 0!\");\n        ERC20(addresses[0]).transferFrom(owner(), msg.sender, wholeReward / 100);\n        nodeToken[nodeTokenId].rewardSum += wholeReward;\n        uint256 calc = nodeToken[nodeTokenId].rewardSum / priceNodes[nodeToken[nodeTokenId].tierNumber - 1];\n        if ((nodeToken[nodeTokenId].calcPre < calc) && (calc <= 1))\n        {\n            nodeToken[nodeTokenId].rewardRate = 7 * nodeToken[nodeTokenId].rewardRate / 10;\n            nodeToken[nodeTokenId].calcPre = calc;\n        }\n        else if (nodeToken[nodeTokenId].calcPre < calc)\n        {\n            nodeToken[nodeTokenId].rewardRate = 95 * nodeToken[nodeTokenId].rewardRate / 100;\n            nodeToken[nodeTokenId].calcPre = calc;\n        }\n    }\n\n    //get the time elapsed since last reward\n    function calcTimeElapsedReward(uint256 _tokenId) public view returns (uint256)\n    {\n        return getTime() - nodeToken[_tokenId].rewardTimestamp;\n    }\n\n    // get time elapsed since last fee\n    function calcTimeElapsedFee(uint256 _tokenId) public view returns (uint256)\n    {\n        return getTime() - nodeToken[_tokenId].feeTimestamp;\n    }\n\n    //calculates the time that has elapsed since the last node mint\n    function calcTimeElapsedForNFTMint(address _staker, uint256 _tokenId) public view returns (uint256)\n    {\n        uint256 elapsedTime;\n        //get the start timestamp and the duration in months of the staked nft\n        (, uint256 startTimestamp, uint256 nrOfMonths) = TokenFarm(addresses[1]).getStakedToken(msg.sender, _tokenId);\n        //if first time call\n        if ((nftMapping[_staker][_tokenId].lastUpdate == 0) || (nftMapping[_staker][_tokenId].lastUpdate < startTimestamp))\n        {\n            //maximum elapsed time can be the staked time\n            if (getTime() > (startTimestamp + nrOfMonths * 2628000))\n            {\n                elapsedTime = (startTimestamp + nrOfMonths * 2628000) - startTimestamp;\n            }\n            //else elapsed time since start of staking\n            else {\n                elapsedTime = getTime() - startTimestamp;\n            }\n        }\n        //TODO: revert\n        //TODO: check what if he stakes after unstaking again, and then trying to get it again\n        //if trying to mint nft after staking no more rewards possible\n        else if (nftMapping[_staker][_tokenId].lastUpdate >= startTimestamp + nrOfMonths * 2628000)\n        {\n            elapsedTime = 0;\n        }\n\n        else {\n            if (getTime() > (startTimestamp + nrOfMonths * 2628000))\n            {\n                elapsedTime = (startTimestamp + nrOfMonths * 2628000) - nftMapping[_staker][_tokenId].lastUpdate;\n            }\n            else {\n                elapsedTime = getTime() - nftMapping[_staker][_tokenId].lastUpdate;\n            }\n        }\n        return elapsedTime;\n    }\n\n    //checks if the staker can mint another node\n    function checkIfTimeForMint(address _staker, uint256 _tokenId) public view returns (bool)\n    {\n        if (calcTimeElapsedForNFTMint(_staker, _tokenId) >= mintRate)\n        {\n            return true;\n        }\n        else\n        {\n            return false;\n        }\n    }\n\n    //get the number of nodes that can be minted by staker\n    function getNumberOfNodes(address staker, uint256 tokenId) public view returns (uint256)\n    {\n        if (checkIfTimeForMint(staker, tokenId) == true)\n        {\n            return calcTimeElapsedForNFTMint(staker, tokenId) / mintRate;\n        }\n        else {\n            return 0;\n        }\n    }}\n",
  "sourcePath": "contracts/CreateNFTNode.sol",
  "type": "contract"
}