{
  "abi": [
    {
      "inputs": [
        {
          "internalType": "string",
          "name": "_initNotRevealedUri",
          "type": "string"
        },
        {
          "internalType": "string",
          "name": "_name",
          "type": "string"
        },
        {
          "internalType": "string",
          "name": "_symbol",
          "type": "string"
        },
        {
          "internalType": "string",
          "name": "_initBaseURI",
          "type": "string"
        },
        {
          "internalType": "string",
          "name": "_initContractURI",
          "type": "string"
        },
        {
          "internalType": "uint256[]",
          "name": "_initWlCosts",
          "type": "uint256[]"
        },
        {
          "internalType": "uint256[]",
          "name": "_initWlPlaces",
          "type": "uint256[]"
        },
        {
          "internalType": "uint256",
          "name": "_initMaxMintAmount",
          "type": "uint256"
        },
        {
          "internalType": "uint256",
          "name": "_initPublicMintPrice",
          "type": "uint256"
        }
      ],
      "stateMutability": "nonpayable",
      "type": "constructor"
    },
    {
      "anonymous": false,
      "inputs": [
        {
          "indexed": true,
          "internalType": "address",
          "name": "owner",
          "type": "address"
        },
        {
          "indexed": true,
          "internalType": "address",
          "name": "approved",
          "type": "address"
        },
        {
          "indexed": true,
          "internalType": "uint256",
          "name": "tokenId",
          "type": "uint256"
        }
      ],
      "name": "Approval",
      "type": "event"
    },
    {
      "anonymous": false,
      "inputs": [
        {
          "indexed": true,
          "internalType": "address",
          "name": "owner",
          "type": "address"
        },
        {
          "indexed": true,
          "internalType": "address",
          "name": "operator",
          "type": "address"
        },
        {
          "indexed": false,
          "internalType": "bool",
          "name": "approved",
          "type": "bool"
        }
      ],
      "name": "ApprovalForAll",
      "type": "event"
    },
    {
      "anonymous": false,
      "inputs": [
        {
          "indexed": true,
          "internalType": "address",
          "name": "previousOwner",
          "type": "address"
        },
        {
          "indexed": true,
          "internalType": "address",
          "name": "newOwner",
          "type": "address"
        }
      ],
      "name": "OwnershipTransferred",
      "type": "event"
    },
    {
      "anonymous": false,
      "inputs": [
        {
          "indexed": true,
          "internalType": "address",
          "name": "from",
          "type": "address"
        },
        {
          "indexed": true,
          "internalType": "address",
          "name": "to",
          "type": "address"
        },
        {
          "indexed": true,
          "internalType": "uint256",
          "name": "tokenId",
          "type": "uint256"
        }
      ],
      "name": "Transfer",
      "type": "event"
    },
    {
      "inputs": [
        {
          "internalType": "address",
          "name": "_addressToWhitelist",
          "type": "address"
        }
      ],
      "name": "addUser",
      "outputs": [],
      "stateMutability": "nonpayable",
      "type": "function"
    },
    {
      "inputs": [
        {
          "internalType": "address",
          "name": "to",
          "type": "address"
        },
        {
          "internalType": "uint256",
          "name": "tokenId",
          "type": "uint256"
        }
      ],
      "name": "approve",
      "outputs": [],
      "stateMutability": "nonpayable",
      "type": "function"
    },
    {
      "inputs": [
        {
          "internalType": "address",
          "name": "owner",
          "type": "address"
        }
      ],
      "name": "balanceOf",
      "outputs": [
        {
          "internalType": "uint256",
          "name": "",
          "type": "uint256"
        }
      ],
      "stateMutability": "view",
      "type": "function"
    },
    {
      "inputs": [],
      "name": "baseURI",
      "outputs": [
        {
          "internalType": "string",
          "name": "",
          "type": "string"
        }
      ],
      "stateMutability": "view",
      "type": "function"
    },
    {
      "inputs": [],
      "name": "checkForPause",
      "outputs": [],
      "stateMutability": "nonpayable",
      "type": "function"
    },
    {
      "inputs": [],
      "name": "contractURI",
      "outputs": [
        {
          "internalType": "string",
          "name": "",
          "type": "string"
        }
      ],
      "stateMutability": "view",
      "type": "function"
    },
    {
      "inputs": [],
      "name": "contractUri",
      "outputs": [
        {
          "internalType": "string",
          "name": "",
          "type": "string"
        }
      ],
      "stateMutability": "view",
      "type": "function"
    },
    {
      "inputs": [
        {
          "internalType": "uint256",
          "name": "",
          "type": "uint256"
        }
      ],
      "name": "costsWL",
      "outputs": [
        {
          "internalType": "uint256",
          "name": "",
          "type": "uint256"
        }
      ],
      "stateMutability": "view",
      "type": "function"
    },
    {
      "inputs": [
        {
          "internalType": "uint256",
          "name": "tokenId",
          "type": "uint256"
        }
      ],
      "name": "getApproved",
      "outputs": [
        {
          "internalType": "address",
          "name": "",
          "type": "address"
        }
      ],
      "stateMutability": "view",
      "type": "function"
    },
    {
      "inputs": [
        {
          "internalType": "address",
          "name": "owner",
          "type": "address"
        },
        {
          "internalType": "address",
          "name": "operator",
          "type": "address"
        }
      ],
      "name": "isApprovedForAll",
      "outputs": [
        {
          "internalType": "bool",
          "name": "",
          "type": "bool"
        }
      ],
      "stateMutability": "view",
      "type": "function"
    },
    {
      "inputs": [],
      "name": "maxMintAmount",
      "outputs": [
        {
          "internalType": "uint256",
          "name": "",
          "type": "uint256"
        }
      ],
      "stateMutability": "view",
      "type": "function"
    },
    {
      "inputs": [],
      "name": "maxSupply",
      "outputs": [
        {
          "internalType": "uint256",
          "name": "",
          "type": "uint256"
        }
      ],
      "stateMutability": "view",
      "type": "function"
    },
    {
      "inputs": [
        {
          "internalType": "uint256",
          "name": "_mintAmount",
          "type": "uint256"
        }
      ],
      "name": "mint",
      "outputs": [],
      "stateMutability": "payable",
      "type": "function"
    },
    {
      "inputs": [
        {
          "internalType": "uint256",
          "name": "amount",
          "type": "uint256"
        }
      ],
      "name": "mintForGiveaways",
      "outputs": [],
      "stateMutability": "nonpayable",
      "type": "function"
    },
    {
      "inputs": [],
      "name": "mintLegendary",
      "outputs": [],
      "stateMutability": "nonpayable",
      "type": "function"
    },
    {
      "inputs": [
        {
          "internalType": "address",
          "name": "",
          "type": "address"
        }
      ],
      "name": "minted",
      "outputs": [
        {
          "internalType": "uint256",
          "name": "",
          "type": "uint256"
        }
      ],
      "stateMutability": "view",
      "type": "function"
    },
    {
      "inputs": [],
      "name": "name",
      "outputs": [
        {
          "internalType": "string",
          "name": "",
          "type": "string"
        }
      ],
      "stateMutability": "view",
      "type": "function"
    },
    {
      "inputs": [],
      "name": "nftCounter",
      "outputs": [
        {
          "internalType": "uint256",
          "name": "",
          "type": "uint256"
        }
      ],
      "stateMutability": "view",
      "type": "function"
    },
    {
      "inputs": [],
      "name": "notRevealedUri",
      "outputs": [
        {
          "internalType": "string",
          "name": "",
          "type": "string"
        }
      ],
      "stateMutability": "view",
      "type": "function"
    },
    {
      "inputs": [],
      "name": "owner",
      "outputs": [
        {
          "internalType": "address",
          "name": "",
          "type": "address"
        }
      ],
      "stateMutability": "view",
      "type": "function"
    },
    {
      "inputs": [
        {
          "internalType": "uint256",
          "name": "tokenId",
          "type": "uint256"
        }
      ],
      "name": "ownerOf",
      "outputs": [
        {
          "internalType": "address",
          "name": "",
          "type": "address"
        }
      ],
      "stateMutability": "view",
      "type": "function"
    },
    {
      "inputs": [
        {
          "internalType": "bool",
          "name": "_state",
          "type": "bool"
        }
      ],
      "name": "pause",
      "outputs": [],
      "stateMutability": "nonpayable",
      "type": "function"
    },
    {
      "inputs": [],
      "name": "paused",
      "outputs": [
        {
          "internalType": "bool",
          "name": "",
          "type": "bool"
        }
      ],
      "stateMutability": "view",
      "type": "function"
    },
    {
      "inputs": [
        {
          "internalType": "uint256",
          "name": "_mintAmount",
          "type": "uint256"
        }
      ],
      "name": "publicMint",
      "outputs": [],
      "stateMutability": "payable",
      "type": "function"
    },
    {
      "inputs": [],
      "name": "publicMintPossible",
      "outputs": [
        {
          "internalType": "bool",
          "name": "",
          "type": "bool"
        }
      ],
      "stateMutability": "view",
      "type": "function"
    },
    {
      "inputs": [],
      "name": "publicMintPrice",
      "outputs": [
        {
          "internalType": "uint256",
          "name": "",
          "type": "uint256"
        }
      ],
      "stateMutability": "view",
      "type": "function"
    },
    {
      "inputs": [
        {
          "internalType": "address",
          "name": "_user",
          "type": "address"
        }
      ],
      "name": "removeWhitelistUser",
      "outputs": [],
      "stateMutability": "nonpayable",
      "type": "function"
    },
    {
      "inputs": [],
      "name": "renounceOwnership",
      "outputs": [],
      "stateMutability": "nonpayable",
      "type": "function"
    },
    {
      "inputs": [],
      "name": "revealed",
      "outputs": [
        {
          "internalType": "bool",
          "name": "",
          "type": "bool"
        }
      ],
      "stateMutability": "view",
      "type": "function"
    },
    {
      "inputs": [
        {
          "internalType": "address",
          "name": "from",
          "type": "address"
        },
        {
          "internalType": "address",
          "name": "to",
          "type": "address"
        },
        {
          "internalType": "uint256",
          "name": "tokenId",
          "type": "uint256"
        }
      ],
      "name": "safeTransferFrom",
      "outputs": [],
      "stateMutability": "nonpayable",
      "type": "function"
    },
    {
      "inputs": [
        {
          "internalType": "address",
          "name": "from",
          "type": "address"
        },
        {
          "internalType": "address",
          "name": "to",
          "type": "address"
        },
        {
          "internalType": "uint256",
          "name": "tokenId",
          "type": "uint256"
        },
        {
          "internalType": "bytes",
          "name": "_data",
          "type": "bytes"
        }
      ],
      "name": "safeTransferFrom",
      "outputs": [],
      "stateMutability": "nonpayable",
      "type": "function"
    },
    {
      "inputs": [
        {
          "internalType": "address",
          "name": "operator",
          "type": "address"
        },
        {
          "internalType": "bool",
          "name": "approved",
          "type": "bool"
        }
      ],
      "name": "setApprovalForAll",
      "outputs": [],
      "stateMutability": "nonpayable",
      "type": "function"
    },
    {
      "inputs": [
        {
          "internalType": "string",
          "name": "_newBaseURI",
          "type": "string"
        }
      ],
      "name": "setBaseURI",
      "outputs": [],
      "stateMutability": "nonpayable",
      "type": "function"
    },
    {
      "inputs": [
        {
          "internalType": "string",
          "name": "_contractURI",
          "type": "string"
        }
      ],
      "name": "setContractURI",
      "outputs": [],
      "stateMutability": "nonpayable",
      "type": "function"
    },
    {
      "inputs": [
        {
          "internalType": "uint256",
          "name": "_maxMintAmount",
          "type": "uint256"
        }
      ],
      "name": "setMaxMintAmount",
      "outputs": [],
      "stateMutability": "nonpayable",
      "type": "function"
    },
    {
      "inputs": [
        {
          "internalType": "string",
          "name": "_notRevealedURI",
          "type": "string"
        }
      ],
      "name": "setNotRevealedURI",
      "outputs": [],
      "stateMutability": "nonpayable",
      "type": "function"
    },
    {
      "inputs": [],
      "name": "setPublic",
      "outputs": [],
      "stateMutability": "nonpayable",
      "type": "function"
    },
    {
      "inputs": [
        {
          "internalType": "uint256",
          "name": "_publicMintPrice",
          "type": "uint256"
        }
      ],
      "name": "setPublicMintPrice",
      "outputs": [],
      "stateMutability": "nonpayable",
      "type": "function"
    },
    {
      "inputs": [],
      "name": "setRevealed",
      "outputs": [],
      "stateMutability": "nonpayable",
      "type": "function"
    },
    {
      "inputs": [
        {
          "internalType": "uint256[]",
          "name": "_costsWL",
          "type": "uint256[]"
        }
      ],
      "name": "setWLCosts",
      "outputs": [],
      "stateMutability": "nonpayable",
      "type": "function"
    },
    {
      "inputs": [
        {
          "internalType": "uint256[]",
          "name": "_placesWL",
          "type": "uint256[]"
        }
      ],
      "name": "setWLPlaces",
      "outputs": [],
      "stateMutability": "nonpayable",
      "type": "function"
    },
    {
      "inputs": [
        {
          "internalType": "bytes4",
          "name": "interfaceId",
          "type": "bytes4"
        }
      ],
      "name": "supportsInterface",
      "outputs": [
        {
          "internalType": "bool",
          "name": "",
          "type": "bool"
        }
      ],
      "stateMutability": "view",
      "type": "function"
    },
    {
      "inputs": [],
      "name": "symbol",
      "outputs": [
        {
          "internalType": "string",
          "name": "",
          "type": "string"
        }
      ],
      "stateMutability": "view",
      "type": "function"
    },
    {
      "inputs": [
        {
          "internalType": "uint256",
          "name": "index",
          "type": "uint256"
        }
      ],
      "name": "tokenByIndex",
      "outputs": [
        {
          "internalType": "uint256",
          "name": "",
          "type": "uint256"
        }
      ],
      "stateMutability": "view",
      "type": "function"
    },
    {
      "inputs": [
        {
          "internalType": "address",
          "name": "owner",
          "type": "address"
        },
        {
          "internalType": "uint256",
          "name": "index",
          "type": "uint256"
        }
      ],
      "name": "tokenOfOwnerByIndex",
      "outputs": [
        {
          "internalType": "uint256",
          "name": "",
          "type": "uint256"
        }
      ],
      "stateMutability": "view",
      "type": "function"
    },
    {
      "inputs": [
        {
          "internalType": "uint256",
          "name": "tokenId",
          "type": "uint256"
        }
      ],
      "name": "tokenURI",
      "outputs": [
        {
          "internalType": "string",
          "name": "",
          "type": "string"
        }
      ],
      "stateMutability": "view",
      "type": "function"
    },
    {
      "inputs": [],
      "name": "totalSupply",
      "outputs": [
        {
          "internalType": "uint256",
          "name": "",
          "type": "uint256"
        }
      ],
      "stateMutability": "view",
      "type": "function"
    },
    {
      "inputs": [
        {
          "internalType": "address",
          "name": "from",
          "type": "address"
        },
        {
          "internalType": "address",
          "name": "to",
          "type": "address"
        },
        {
          "internalType": "uint256",
          "name": "tokenId",
          "type": "uint256"
        }
      ],
      "name": "transferFrom",
      "outputs": [],
      "stateMutability": "nonpayable",
      "type": "function"
    },
    {
      "inputs": [
        {
          "internalType": "address",
          "name": "newOwner",
          "type": "address"
        }
      ],
      "name": "transferOwnership",
      "outputs": [],
      "stateMutability": "nonpayable",
      "type": "function"
    },
    {
      "inputs": [
        {
          "internalType": "address",
          "name": "_whitelistedAddress",
          "type": "address"
        }
      ],
      "name": "verifyUser",
      "outputs": [
        {
          "internalType": "bool",
          "name": "",
          "type": "bool"
        }
      ],
      "stateMutability": "view",
      "type": "function"
    },
    {
      "inputs": [
        {
          "internalType": "address",
          "name": "_owner",
          "type": "address"
        }
      ],
      "name": "walletOfOwner",
      "outputs": [
        {
          "internalType": "uint256[]",
          "name": "",
          "type": "uint256[]"
        }
      ],
      "stateMutability": "view",
      "type": "function"
    },
    {
      "inputs": [
        {
          "internalType": "address",
          "name": "",
          "type": "address"
        }
      ],
      "name": "whitelisted",
      "outputs": [
        {
          "internalType": "bool",
          "name": "",
          "type": "bool"
        }
      ],
      "stateMutability": "view",
      "type": "function"
    },
    {
      "inputs": [],
      "name": "withdraw",
      "outputs": [],
      "stateMutability": "payable",
      "type": "function"
    }
  ],
  "bytecode": "6080604052612710600e556012805462ffffff191690553480156200002357600080fd5b50604051620038323803806200383283398101604081905262000046916200061a565b8751889088906200005f906000906020850190620003d1565b50805162000075906001906020840190620003d1565b505050620000926200008c620000f360201b60201c565b620000f7565b6200009d8662000149565b620000a889620001b1565b620000b38162000211565b620000be8562000261565b6001600c55620000ce84620002c1565b620000d98362000321565b620000e48262000381565b5050505050505050506200079b565b3390565b600a80546001600160a01b038381166001600160a01b0319831681179093556040519116919082907f8be0079c531659141344cd1fd0a4f28419497f9722a3daafe3b4186f6b6457e090600090a35050565b600a546001600160a01b03163314620001985760405162461bcd60e51b815260206004820181905260248201526000805160206200381283398151915260448201526064015b60405180910390fd5b8051620001ad90600b906020840190620003d1565b5050565b600a546001600160a01b03163314620001fc5760405162461bcd60e51b815260206004820181905260248201526000805160206200381283398151915260448201526064016200018f565b8051620001ad906013906020840190620003d1565b600a546001600160a01b031633146200025c5760405162461bcd60e51b815260206004820181905260248201526000805160206200381283398151915260448201526064016200018f565b601055565b600a546001600160a01b03163314620002ac5760405162461bcd60e51b815260206004820181905260248201526000805160206200381283398151915260448201526064016200018f565b8051620001ad906014906020840190620003d1565b600a546001600160a01b031633146200030c5760405162461bcd60e51b815260206004820181905260248201526000805160206200381283398151915260448201526064016200018f565b8051620001ad90600d90602084019062000460565b600a546001600160a01b031633146200036c5760405162461bcd60e51b815260206004820181905260248201526000805160206200381283398151915260448201526064016200018f565b8051620001ad90601190602084019062000460565b600a546001600160a01b03163314620003cc5760405162461bcd60e51b815260206004820181905260248201526000805160206200381283398151915260448201526064016200018f565b600f55565b828054620003df906200075e565b90600052602060002090601f0160209004810192826200040357600085556200044e565b82601f106200041e57805160ff19168380011785556200044e565b828001600101855582156200044e579182015b828111156200044e57825182559160200191906001019062000431565b506200045c9291506200049d565b5090565b8280548282559060005260206000209081019282156200044e57916020028201828111156200044e57825182559160200191906001019062000431565b5b808211156200045c57600081556001016200049e565b634e487b7160e01b600052604160045260246000fd5b604051601f8201601f191681016001600160401b0381118282101715620004f557620004f5620004b4565b604052919050565b600082601f8301126200050f57600080fd5b81516001600160401b038111156200052b576200052b620004b4565b602062000541601f8301601f19168201620004ca565b82815285828487010111156200055657600080fd5b60005b838110156200057657858101830151828201840152820162000559565b83811115620005885760008385840101525b5095945050505050565b600082601f830112620005a457600080fd5b815160206001600160401b03821115620005c257620005c2620004b4565b8160051b620005d3828201620004ca565b9283528481018201928281019087851115620005ee57600080fd5b83870192505b848310156200060f57825182529183019190830190620005f4565b979650505050505050565b60008060008060008060008060006101208a8c0312156200063a57600080fd5b89516001600160401b03808211156200065257600080fd5b620006608d838e01620004fd565b9a5060208c01519150808211156200067757600080fd5b620006858d838e01620004fd565b995060408c01519150808211156200069c57600080fd5b620006aa8d838e01620004fd565b985060608c0151915080821115620006c157600080fd5b620006cf8d838e01620004fd565b975060808c0151915080821115620006e657600080fd5b620006f48d838e01620004fd565b965060a08c01519150808211156200070b57600080fd5b620007198d838e0162000592565b955060c08c01519150808211156200073057600080fd5b506200073f8c828d0162000592565b93505060e08a015191506101008a015190509295985092959850929598565b600181811c908216806200077357607f821691505b602082108114156200079557634e487b7160e01b600052602260045260246000fd5b50919050565b61306780620007ab6000396000f3fe60806040526004361061031a5760003560e01c80635d82cf6e116101ab578063a59888d3116100f7578063dc53fd9211610095578063e985e9c51161006f578063e985e9c5146108e1578063f2c4ce1e1461092a578063f2fde38b1461094a578063fb26bab91461096a57600080fd5b8063dc53fd92146108a0578063e574609e146108b6578063e8a3d485146108cc57600080fd5b8063c0e24d5e116100d1578063c0e24d5e14610825578063c87b56dd1461083a578063d5abeb011461085a578063d936547e1461087057600080fd5b8063a59888d3146107d0578063b88d4fde146107e5578063bfbe109e1461080557600080fd5b806377e5635711610164578063938e3d7b1161013e578063938e3d7b1461076857806395d89b4114610788578063a0712d681461079d578063a22cb465146107b057600080fd5b806377e56357146107205780638a03dd7a146107355780638da5cb5b1461074a57600080fd5b80635d82cf6e146106765780635fd6a991146106965780636352211e146106b65780636c0360eb146106d657806370a08231146106eb578063715018a61461070b57600080fd5b80632db115441161026a57806342842e0e116102235780634f6ccce7116101fd5780634f6ccce7146105fd578063518302271461061d57806355f804b31461063c5780635c975abb1461065c57600080fd5b806342842e0e14610577578063438b6300146105975780634d813120146105c457600080fd5b80632db11544146104e75780632f745c59146104fa57806330cc7ae01461051a5780633bd649681461053a5780633ccfd60b1461054f578063421b2d8b1461055757600080fd5b8063095ea7b3116102d75780631e7269c5116102b15780631e7269c514610464578063239c70ae1461049157806323b872dd146104a75780632be08351146104c757600080fd5b8063095ea7b31461040557806318160ddd146104255780631d79749f1461044457600080fd5b806301ffc9a71461031f57806302329a291461035457806306fdde0314610376578063081812fc14610398578063081c8c44146103d0578063088a4ed0146103e5575b600080fd5b34801561032b57600080fd5b5061033f61033a366004612888565b61098a565b60405190151581526020015b60405180910390f35b34801561036057600080fd5b5061037461036f3660046128c1565b6109b5565b005b34801561038257600080fd5b5061038b6109fb565b60405161034b9190612934565b3480156103a457600080fd5b506103b86103b3366004612947565b610a8d565b6040516001600160a01b03909116815260200161034b565b3480156103dc57600080fd5b5061038b610b22565b3480156103f157600080fd5b50610374610400366004612947565b610bb0565b34801561041157600080fd5b50610374610420366004612977565b610bdf565b34801561043157600080fd5b506008545b60405190815260200161034b565b34801561045057600080fd5b5061043661045f366004612947565b610cf5565b34801561047057600080fd5b5061043661047f3660046129a1565b60166020526000908152604090205481565b34801561049d57600080fd5b50610436600f5481565b3480156104b357600080fd5b506103746104c23660046129bc565b610d16565b3480156104d357600080fd5b5060125461033f9062010000900460ff1681565b6103746104f5366004612947565b610d47565b34801561050657600080fd5b50610436610515366004612977565b610f6e565b34801561052657600080fd5b506103746105353660046129a1565b611004565b34801561054657600080fd5b5061037461104f565b61037461108a565b34801561056357600080fd5b506103746105723660046129a1565b6110e3565b34801561058357600080fd5b506103746105923660046129bc565b611131565b3480156105a357600080fd5b506105b76105b23660046129a1565b61114c565b60405161034b91906129f8565b3480156105d057600080fd5b5061033f6105df3660046129a1565b6001600160a01b031660009081526015602052604090205460ff1690565b34801561060957600080fd5b50610436610618366004612947565b6111ee565b34801561062957600080fd5b5060125461033f90610100900460ff1681565b34801561064857600080fd5b50610374610657366004612adb565b611281565b34801561066857600080fd5b5060125461033f9060ff1681565b34801561068257600080fd5b50610374610691366004612947565b6112be565b3480156106a257600080fd5b506103746106b1366004612b24565b6112ed565b3480156106c257600080fd5b506103b86106d1366004612947565b61132a565b3480156106e257600080fd5b5061038b6113a1565b3480156106f757600080fd5b506104366107063660046129a1565b6113ae565b34801561071757600080fd5b50610374611435565b34801561072c57600080fd5b5061037461146b565b34801561074157600080fd5b506103746114a8565b34801561075657600080fd5b50600a546001600160a01b03166103b8565b34801561077457600080fd5b50610374610783366004612adb565b6114fc565b34801561079457600080fd5b5061038b611539565b6103746107ab366004612947565b611548565b3480156107bc57600080fd5b506103746107cb366004612bca565b6119ed565b3480156107dc57600080fd5b50610374611ab2565b3480156107f157600080fd5b50610374610800366004612bfd565b611b0e565b34801561081157600080fd5b50610374610820366004612947565b611b46565b34801561083157600080fd5b5061038b611baa565b34801561084657600080fd5b5061038b610855366004612947565b611bb7565b34801561086657600080fd5b50610436600e5481565b34801561087c57600080fd5b5061033f61088b3660046129a1565b60156020526000908152604090205460ff1681565b3480156108ac57600080fd5b5061043660105481565b3480156108c257600080fd5b50610436600c5481565b3480156108d857600080fd5b5061038b611cab565b3480156108ed57600080fd5b5061033f6108fc366004612c79565b6001600160a01b03918216600090815260056020908152604080832093909416825291909152205460ff1690565b34801561093657600080fd5b50610374610945366004612adb565b611cba565b34801561095657600080fd5b506103746109653660046129a1565b611cf7565b34801561097657600080fd5b50610374610985366004612b24565b611d8f565b60006001600160e01b0319821663780e9d6360e01b14806109af57506109af82611dcc565b92915050565b600a546001600160a01b031633146109e85760405162461bcd60e51b81526004016109df90612ca3565b60405180910390fd5b6012805460ff1916911515919091179055565b606060008054610a0a90612cd8565b80601f0160208091040260200160405190810160405280929190818152602001828054610a3690612cd8565b8015610a835780601f10610a5857610100808354040283529160200191610a83565b820191906000526020600020905b815481529060010190602001808311610a6657829003601f168201915b5050505050905090565b6000818152600260205260408120546001600160a01b0316610b065760405162461bcd60e51b815260206004820152602c60248201527f4552433732313a20617070726f76656420717565727920666f72206e6f6e657860448201526b34b9ba32b73a103a37b5b2b760a11b60648201526084016109df565b506000908152600460205260409020546001600160a01b031690565b60138054610b2f90612cd8565b80601f0160208091040260200160405190810160405280929190818152602001828054610b5b90612cd8565b8015610ba85780601f10610b7d57610100808354040283529160200191610ba8565b820191906000526020600020905b815481529060010190602001808311610b8b57829003601f168201915b505050505081565b600a546001600160a01b03163314610bda5760405162461bcd60e51b81526004016109df90612ca3565b600f55565b6000610bea8261132a565b9050806001600160a01b0316836001600160a01b03161415610c585760405162461bcd60e51b815260206004820152602160248201527f4552433732313a20617070726f76616c20746f2063757272656e74206f776e656044820152603960f91b60648201526084016109df565b336001600160a01b0382161480610c745750610c7481336108fc565b610ce65760405162461bcd60e51b815260206004820152603860248201527f4552433732313a20617070726f76652063616c6c6572206973206e6f74206f7760448201527f6e6572206e6f7220617070726f76656420666f7220616c6c000000000000000060648201526084016109df565b610cf08383611e1c565b505050565b600d8181548110610d0557600080fd5b600091825260209091200154905081565b610d203382611e8a565b610d3c5760405162461bcd60e51b81526004016109df90612d13565b610cf0838383611f81565b60125462010000900460ff161515600114610da45760405162461bcd60e51b815260206004820152601860248201527f4e6f207075626c6963206d696e7420706f737369626c6521000000000000000060448201526064016109df565b60125460ff1615610de65760405162461bcd60e51b815260206004820152600c60248201526b4d696e74207061757365642160a01b60448201526064016109df565b60008111610e2d5760405162461bcd60e51b8152602060048201526014602482015273596f752063616e2774206d696e74207a65726f2160601b60448201526064016109df565b600f5433600090815260166020526040902054610e4b908390612d7a565b1115610e925760405162461bcd60e51b8152602060048201526016602482015275596f752063616e206f6e6c79206d696e742074776f2160501b60448201526064016109df565b600e5481600c54610ea39190612d7a565b1115610edd5760405162461bcd60e51b8152602060048201526009602482015268536f6c64206f75742160b81b60448201526064016109df565b80601054610eeb9190612d92565b341015610f0a5760405162461bcd60e51b81526004016109df90612db1565b60005b81811015610f6a57610f2133600c5461212c565b600c54610f2f906001612d7a565b600c55336000908152601660205260408120805460019290610f52908490612d7a565b90915550819050610f6281612dda565b915050610f0d565b5050565b6000610f79836113ae565b8210610fdb5760405162461bcd60e51b815260206004820152602b60248201527f455243373231456e756d657261626c653a206f776e657220696e646578206f7560448201526a74206f6620626f756e647360a81b60648201526084016109df565b506001600160a01b03919091166000908152600660209081526040808320938352929052205490565b600a546001600160a01b0316331461102e5760405162461bcd60e51b81526004016109df90612ca3565b6001600160a01b03166000908152601560205260409020805460ff19169055565b600a546001600160a01b031633146110795760405162461bcd60e51b81526004016109df90612ca3565b6012805461ff001916610100179055565b600a546001600160a01b031633146110b45760405162461bcd60e51b81526004016109df90612ca3565b60405133904780156108fc02916000818181858888f193505050501580156110e0573d6000803e3d6000fd5b50565b600a546001600160a01b0316331461110d5760405162461bcd60e51b81526004016109df90612ca3565b6001600160a01b03166000908152601560205260409020805460ff19166001179055565b610cf083838360405180602001604052806000815250611b0e565b60606000611159836113ae565b905060008167ffffffffffffffff81111561117657611176612a3c565b60405190808252806020026020018201604052801561119f578160200160208202803683370190505b50905060005b828110156111e6576111b78582610f6e565b8282815181106111c9576111c9612df5565b6020908102919091010152806111de81612dda565b9150506111a5565b509392505050565b60006111f960085490565b821061125c5760405162461bcd60e51b815260206004820152602c60248201527f455243373231456e756d657261626c653a20676c6f62616c20696e646578206f60448201526b7574206f6620626f756e647360a01b60648201526084016109df565b6008828154811061126f5761126f612df5565b90600052602060002001549050919050565b600a546001600160a01b031633146112ab5760405162461bcd60e51b81526004016109df90612ca3565b8051610f6a90600b90602084019061279f565b600a546001600160a01b031633146112e85760405162461bcd60e51b81526004016109df90612ca3565b601055565b600a546001600160a01b031633146113175760405162461bcd60e51b81526004016109df90612ca3565b8051610f6a90600d906020840190612823565b6000818152600260205260408120546001600160a01b0316806109af5760405162461bcd60e51b815260206004820152602960248201527f4552433732313a206f776e657220717565727920666f72206e6f6e657869737460448201526832b73a103a37b5b2b760b91b60648201526084016109df565b600b8054610b2f90612cd8565b60006001600160a01b0382166114195760405162461bcd60e51b815260206004820152602a60248201527f4552433732313a2062616c616e636520717565727920666f7220746865207a65604482015269726f206164647265737360b01b60648201526084016109df565b506001600160a01b031660009081526003602052604090205490565b600a546001600160a01b0316331461145f5760405162461bcd60e51b81526004016109df90612ca3565b6114696000612146565b565b600a546001600160a01b031633146114955760405162461bcd60e51b81526004016109df90612ca3565b6012805462ff0000191662010000179055565b600a546001600160a01b031633146114d25760405162461bcd60e51b81526004016109df90612ca3565b61269e5b600e548110156110e0576114ea338261212c565b806114f481612dda565b9150506114d6565b600a546001600160a01b031633146115265760405162461bcd60e51b81526004016109df90612ca3565b8051610f6a90601490602084019061279f565b606060018054610a0a90612cd8565b3360008181526015602052604090205460ff166115a75760405162461bcd60e51b815260206004820152601a60248201527f596f75206e65656420746f2062652077686974656c697374656400000000000060448201526064016109df565b60125460ff16156115e95760405162461bcd60e51b815260206004820152600c60248201526b4d696e74207061757365642160a01b60448201526064016109df565b600082116116305760405162461bcd60e51b8152602060048201526014602482015273596f752063616e2774206d696e74207a65726f2160601b60448201526064016109df565b600f543360009081526016602052604090205461164e908490612d7a565b11156116955760405162461bcd60e51b8152602060048201526016602482015275596f752063616e206f6e6c79206d696e742074776f2160501b60448201526064016109df565b61269e82600c546116a69190612d7a565b11156116e05760405162461bcd60e51b8152602060048201526009602482015268536f6c64206f75742160b81b60448201526064016109df565b600a546001600160a01b0316331461198557601160008154811061170657611706612df5565b906000526020600020015482600c5461171f9190612d7a565b116117bd57601160008154811061173857611738612df5565b906000526020600020015482600c546117519190612d7a565b111561176f5760405162461bcd60e51b81526004016109df90612e0b565b81600d60008154811061178457611784612df5565b90600052602060002001546117999190612d92565b3410156117b85760405162461bcd60e51b81526004016109df90612db1565b611985565b81600c546117cb9190612d7a565b60116000815481106117df576117df612df5565b90600052602060002001541080156118225750601160018154811061180657611806612df5565b906000526020600020015482600c5461181f9190612d7a565b11155b1561188757601160018154811061183b5761183b612df5565b906000526020600020015482600c546118549190612d7a565b11156118725760405162461bcd60e51b81526004016109df90612e0b565b81600d60018154811061178457611784612df5565b81600c546118959190612d7a565b60116001815481106118a9576118a9612df5565b90600052602060002001541080156118ec575060116002815481106118d0576118d0612df5565b906000526020600020015482600c546118e99190612d7a565b11155b1561198557601160028154811061190557611905612df5565b906000526020600020015482600c5461191e9190612d7a565b111561193c5760405162461bcd60e51b81526004016109df90612e0b565b81600d60028154811061195157611951612df5565b90600052602060002001546119669190612d92565b3410156119855760405162461bcd60e51b81526004016109df90612db1565b60005b82811015610cf05761199c33600c5461212c565b600c546119aa906001612d7a565b600c553360009081526016602052604081208054600192906119cd908490612d7a565b909155506119db9050611ab2565b806119e581612dda565b915050611988565b6001600160a01b038216331415611a465760405162461bcd60e51b815260206004820152601960248201527f4552433732313a20617070726f766520746f2063616c6c65720000000000000060448201526064016109df565b3360008181526005602090815260408083206001600160a01b03871680855290835292819020805460ff191686151590811790915590519081529192917f17307eab39ab6107e8899845ad3d59bd9653f200f220920489ca2b5937696c31910160405180910390a35050565b6011600081548110611ac657611ac6612df5565b9060005260206000200154600c541480611aff57506011600181548110611aef57611aef612df5565b9060005260206000200154600c54145b156114695761146960016109b5565b611b183383611e8a565b611b345760405162461bcd60e51b81526004016109df90612d13565b611b4084848484612198565b50505050565b600a546001600160a01b03163314611b705760405162461bcd60e51b81526004016109df90612ca3565b60005b81811015610f6a57611b8733600c5461212c565b600c54611b95906001612d7a565b600c5580611ba281612dda565b915050611b73565b60148054610b2f90612cd8565b6000818152600260205260409020546060906001600160a01b0316611c365760405162461bcd60e51b815260206004820152602f60248201527f4552433732314d657461646174613a2055524920717565727920666f72206e6f60448201526e3732bc34b9ba32b73a103a37b5b2b760891b60648201526084016109df565b601254610100900460ff16611c6d576013604051602001611c579190612e42565b6040516020818303038152906040529050919050565b6000611c776121cb565b905080611c83846121da565b604051602001611c94929190612ede565b604051602081830303815290604052915050919050565b606060148054610a0a90612cd8565b600a546001600160a01b03163314611ce45760405162461bcd60e51b81526004016109df90612ca3565b8051610f6a90601390602084019061279f565b600a546001600160a01b03163314611d215760405162461bcd60e51b81526004016109df90612ca3565b6001600160a01b038116611d865760405162461bcd60e51b815260206004820152602660248201527f4f776e61626c653a206e6577206f776e657220697320746865207a65726f206160448201526564647265737360d01b60648201526084016109df565b6110e081612146565b600a546001600160a01b03163314611db95760405162461bcd60e51b81526004016109df90612ca3565b8051610f6a906011906020840190612823565b60006001600160e01b031982166380ac58cd60e01b1480611dfd57506001600160e01b03198216635b5e139f60e01b145b806109af57506301ffc9a760e01b6001600160e01b03198316146109af565b600081815260046020526040902080546001600160a01b0319166001600160a01b0384169081179091558190611e518261132a565b6001600160a01b03167f8c5be1e5ebec7d5bd14f71427d1e84f3dd0314c0f7b2291e5b200ac8c7c3b92560405160405180910390a45050565b6000818152600260205260408120546001600160a01b0316611f035760405162461bcd60e51b815260206004820152602c60248201527f4552433732313a206f70657261746f7220717565727920666f72206e6f6e657860448201526b34b9ba32b73a103a37b5b2b760a11b60648201526084016109df565b6000611f0e8361132a565b9050806001600160a01b0316846001600160a01b03161480611f495750836001600160a01b0316611f3e84610a8d565b6001600160a01b0316145b80611f7957506001600160a01b0380821660009081526005602090815260408083209388168352929052205460ff165b949350505050565b826001600160a01b0316611f948261132a565b6001600160a01b031614611ffc5760405162461bcd60e51b815260206004820152602960248201527f4552433732313a207472616e73666572206f6620746f6b656e2074686174206960448201526839903737ba1037bbb760b91b60648201526084016109df565b6001600160a01b03821661205e5760405162461bcd60e51b8152602060048201526024808201527f4552433732313a207472616e7366657220746f20746865207a65726f206164646044820152637265737360e01b60648201526084016109df565b6120698383836122d8565b612074600082611e1c565b6001600160a01b038316600090815260036020526040812080546001929061209d908490612f1a565b90915550506001600160a01b03821660009081526003602052604081208054600192906120cb908490612d7a565b909155505060008181526002602052604080822080546001600160a01b0319166001600160a01b0386811691821790925591518493918716917fddf252ad1be2c89b69c2b068fc378daa952ba7f163c4a11628f55a4df523b3ef91a4505050565b610f6a828260405180602001604052806000815250612390565b600a80546001600160a01b038381166001600160a01b0319831681179093556040519116919082907f8be0079c531659141344cd1fd0a4f28419497f9722a3daafe3b4186f6b6457e090600090a35050565b6121a3848484611f81565b6121af848484846123c3565b611b405760405162461bcd60e51b81526004016109df90612f31565b6060600b8054610a0a90612cd8565b6060816121fe5750506040805180820190915260018152600360fc1b602082015290565b8160005b8115612228578061221281612dda565b91506122219050600a83612f99565b9150612202565b60008167ffffffffffffffff81111561224357612243612a3c565b6040519080825280601f01601f19166020018201604052801561226d576020820181803683370190505b5090505b8415611f7957612282600183612f1a565b915061228f600a86612fad565b61229a906030612d7a565b60f81b8183815181106122af576122af612df5565b60200101906001600160f81b031916908160001a9053506122d1600a86612f99565b9450612271565b6001600160a01b0383166123335761232e81600880546000838152600960205260408120829055600182018355919091527ff3f7a9fe364faab93b216da50a3214154f22a0a2b415b23a84c8169e8b636ee30155565b612356565b816001600160a01b0316836001600160a01b0316146123565761235683826124c1565b6001600160a01b03821661236d57610cf08161255e565b826001600160a01b0316826001600160a01b031614610cf057610cf0828261260d565b61239a8383612651565b6123a760008484846123c3565b610cf05760405162461bcd60e51b81526004016109df90612f31565b60006001600160a01b0384163b156124b657604051630a85bd0160e11b81526001600160a01b0385169063150b7a0290612407903390899088908890600401612fc1565b6020604051808303816000875af1925050508015612442575060408051601f3d908101601f1916820190925261243f91810190612ffe565b60015b61249c573d808015612470576040519150601f19603f3d011682016040523d82523d6000602084013e612475565b606091505b5080516124945760405162461bcd60e51b81526004016109df90612f31565b805181602001fd5b6001600160e01b031916630a85bd0160e11b149050611f79565b506001949350505050565b600060016124ce846113ae565b6124d89190612f1a565b60008381526007602052604090205490915080821461252b576001600160a01b03841660009081526006602090815260408083208584528252808320548484528184208190558352600790915290208190555b5060009182526007602090815260408084208490556001600160a01b039094168352600681528383209183525290812055565b60085460009061257090600190612f1a565b6000838152600960205260408120546008805493945090928490811061259857612598612df5565b9060005260206000200154905080600883815481106125b9576125b9612df5565b60009182526020808320909101929092558281526009909152604080822084905585825281205560088054806125f1576125f161301b565b6001900381819060005260206000200160009055905550505050565b6000612618836113ae565b6001600160a01b039093166000908152600660209081526040808320868452825280832085905593825260079052919091209190915550565b6001600160a01b0382166126a75760405162461bcd60e51b815260206004820181905260248201527f4552433732313a206d696e7420746f20746865207a65726f206164647265737360448201526064016109df565b6000818152600260205260409020546001600160a01b03161561270c5760405162461bcd60e51b815260206004820152601c60248201527f4552433732313a20746f6b656e20616c7265616479206d696e7465640000000060448201526064016109df565b612718600083836122d8565b6001600160a01b0382166000908152600360205260408120805460019290612741908490612d7a565b909155505060008181526002602052604080822080546001600160a01b0319166001600160a01b03861690811790915590518392907fddf252ad1be2c89b69c2b068fc378daa952ba7f163c4a11628f55a4df523b3ef908290a45050565b8280546127ab90612cd8565b90600052602060002090601f0160209004810192826127cd5760008555612813565b82601f106127e657805160ff1916838001178555612813565b82800160010185558215612813579182015b828111156128135782518255916020019190600101906127f8565b5061281f92915061285d565b5090565b82805482825590600052602060002090810192821561281357916020028201828111156128135782518255916020019190600101906127f8565b5b8082111561281f576000815560010161285e565b6001600160e01b0319811681146110e057600080fd5b60006020828403121561289a57600080fd5b81356128a581612872565b9392505050565b803580151581146128bc57600080fd5b919050565b6000602082840312156128d357600080fd5b6128a5826128ac565b60005b838110156128f75781810151838201526020016128df565b83811115611b405750506000910152565b600081518084526129208160208601602086016128dc565b601f01601f19169290920160200192915050565b6020815260006128a56020830184612908565b60006020828403121561295957600080fd5b5035919050565b80356001600160a01b03811681146128bc57600080fd5b6000806040838503121561298a57600080fd5b61299383612960565b946020939093013593505050565b6000602082840312156129b357600080fd5b6128a582612960565b6000806000606084860312156129d157600080fd5b6129da84612960565b92506129e860208501612960565b9150604084013590509250925092565b6020808252825182820181905260009190848201906040850190845b81811015612a3057835183529284019291840191600101612a14565b50909695505050505050565b634e487b7160e01b600052604160045260246000fd5b604051601f8201601f1916810167ffffffffffffffff81118282101715612a7b57612a7b612a3c565b604052919050565b600067ffffffffffffffff831115612a9d57612a9d612a3c565b612ab0601f8401601f1916602001612a52565b9050828152838383011115612ac457600080fd5b828260208301376000602084830101529392505050565b600060208284031215612aed57600080fd5b813567ffffffffffffffff811115612b0457600080fd5b8201601f81018413612b1557600080fd5b611f7984823560208401612a83565b60006020808385031215612b3757600080fd5b823567ffffffffffffffff80821115612b4f57600080fd5b818501915085601f830112612b6357600080fd5b813581811115612b7557612b75612a3c565b8060051b9150612b86848301612a52565b8181529183018401918481019088841115612ba057600080fd5b938501935b83851015612bbe57843582529385019390850190612ba5565b98975050505050505050565b60008060408385031215612bdd57600080fd5b612be683612960565b9150612bf4602084016128ac565b90509250929050565b60008060008060808587031215612c1357600080fd5b612c1c85612960565b9350612c2a60208601612960565b925060408501359150606085013567ffffffffffffffff811115612c4d57600080fd5b8501601f81018713612c5e57600080fd5b612c6d87823560208401612a83565b91505092959194509250565b60008060408385031215612c8c57600080fd5b612c9583612960565b9150612bf460208401612960565b6020808252818101527f4f776e61626c653a2063616c6c6572206973206e6f7420746865206f776e6572604082015260600190565b600181811c90821680612cec57607f821691505b60208210811415612d0d57634e487b7160e01b600052602260045260246000fd5b50919050565b60208082526031908201527f4552433732313a207472616e736665722063616c6c6572206973206e6f74206f6040820152701ddb995c881b9bdc88185c1c1c9bdd9959607a1b606082015260800190565b634e487b7160e01b600052601160045260246000fd5b60008219821115612d8d57612d8d612d64565b500190565b6000816000190483118215151615612dac57612dac612d64565b500290565b6020808252600f908201526e4e6f7420656e6f756768204554482160881b604082015260600190565b6000600019821415612dee57612dee612d64565b5060010190565b634e487b7160e01b600052603260045260246000fd5b6020808252601d908201527f4e6f7420656e6f756768204e4654206c65667420666f722073616c6521000000604082015260600190565b600080835481600182811c915080831680612e5e57607f831692505b6020808410821415612e7e57634e487b7160e01b86526022600452602486fd5b818015612e925760018114612ea357612ed0565b60ff19861689528489019650612ed0565b60008a81526020902060005b86811015612ec85781548b820152908501908301612eaf565b505084890196505b509498975050505050505050565b60008351612ef08184602088016128dc565b602f60f81b9083019081528351612f0e8160018401602088016128dc565b01600101949350505050565b600082821015612f2c57612f2c612d64565b500390565b60208082526032908201527f4552433732313a207472616e7366657220746f206e6f6e20455243373231526560408201527131b2b4bb32b91034b6b83632b6b2b73a32b960711b606082015260800190565b634e487b7160e01b600052601260045260246000fd5b600082612fa857612fa8612f83565b500490565b600082612fbc57612fbc612f83565b500690565b6001600160a01b0385811682528416602082015260408101839052608060608201819052600090612ff490830184612908565b9695505050505050565b60006020828403121561301057600080fd5b81516128a581612872565b634e487b7160e01b600052603160045260246000fdfea2646970667358221220d976b7d5954a13c1437ae086c11750778e6f64650c53e30b1ac7799e4230f6d464736f6c634300080b00334f776e61626c653a2063616c6c6572206973206e6f7420746865206f776e6572",
  "bytecodeSha1": "da39a3ee5e6b4b0d3255bfef95601890afd80709",
  "compiler": {
    "evm_version": "istanbul",
    "optimizer": {
      "enabled": true,
      "runs": 200
    },
    "version": "0.8.11+commit.d7f03943"
  },
  "contractName": "CreateNFT",
  "language": "Solidity",
  "natspec": {
    "kind": "dev",
    "methods": {
      "approve(address,uint256)": {
        "details": "See {IERC721-approve}."
      },
      "balanceOf(address)": {
        "details": "See {IERC721-balanceOf}."
      },
      "getApproved(uint256)": {
        "details": "See {IERC721-getApproved}."
      },
      "isApprovedForAll(address,address)": {
        "details": "See {IERC721-isApprovedForAll}."
      },
      "name()": {
        "details": "See {IERC721Metadata-name}."
      },
      "owner()": {
        "details": "Returns the address of the current owner."
      },
      "ownerOf(uint256)": {
        "details": "See {IERC721-ownerOf}."
      },
      "renounceOwnership()": {
        "details": "Leaves the contract without owner. It will not be possible to call `onlyOwner` functions anymore. Can only be called by the current owner. NOTE: Renouncing ownership will leave the contract without an owner, thereby removing any functionality that is only available to the owner."
      },
      "safeTransferFrom(address,address,uint256)": {
        "details": "See {IERC721-safeTransferFrom}."
      },
      "safeTransferFrom(address,address,uint256,bytes)": {
        "details": "See {IERC721-safeTransferFrom}."
      },
      "setApprovalForAll(address,bool)": {
        "details": "See {IERC721-setApprovalForAll}."
      },
      "supportsInterface(bytes4)": {
        "details": "See {IERC165-supportsInterface}."
      },
      "symbol()": {
        "details": "See {IERC721Metadata-symbol}."
      },
      "tokenByIndex(uint256)": {
        "details": "See {IERC721Enumerable-tokenByIndex}."
      },
      "tokenOfOwnerByIndex(address,uint256)": {
        "details": "See {IERC721Enumerable-tokenOfOwnerByIndex}."
      },
      "tokenURI(uint256)": {
        "details": "See {IERC721Metadata-tokenURI}."
      },
      "totalSupply()": {
        "details": "See {IERC721Enumerable-totalSupply}."
      },
      "transferFrom(address,address,uint256)": {
        "details": "See {IERC721-transferFrom}."
      },
      "transferOwnership(address)": {
        "details": "Transfers ownership of the contract to a new account (`newOwner`). Can only be called by the current owner."
      }
    },
    "version": 1
  },
  "opcodes": "PUSH1 0x80 PUSH1 0x40 MSTORE PUSH1 0x4 CALLDATASIZE LT PUSH2 0x31A JUMPI PUSH1 0x0 CALLDATALOAD PUSH1 0xE0 SHR DUP1 PUSH4 0x5D82CF6E GT PUSH2 0x1AB JUMPI DUP1 PUSH4 0xA59888D3 GT PUSH2 0xF7 JUMPI DUP1 PUSH4 0xDC53FD92 GT PUSH2 0x95 JUMPI DUP1 PUSH4 0xE985E9C5 GT PUSH2 0x6F JUMPI DUP1 PUSH4 0xE985E9C5 EQ PUSH2 0x8E1 JUMPI DUP1 PUSH4 0xF2C4CE1E EQ PUSH2 0x92A JUMPI DUP1 PUSH4 0xF2FDE38B EQ PUSH2 0x94A JUMPI DUP1 PUSH4 0xFB26BAB9 EQ PUSH2 0x96A JUMPI PUSH1 0x0 DUP1 REVERT JUMPDEST DUP1 PUSH4 0xDC53FD92 EQ PUSH2 0x8A0 JUMPI DUP1 PUSH4 0xE574609E EQ PUSH2 0x8B6 JUMPI DUP1 PUSH4 0xE8A3D485 EQ PUSH2 0x8CC JUMPI PUSH1 0x0 DUP1 REVERT JUMPDEST DUP1 PUSH4 0xC0E24D5E GT PUSH2 0xD1 JUMPI DUP1 PUSH4 0xC0E24D5E EQ PUSH2 0x825 JUMPI DUP1 PUSH4 0xC87B56DD EQ PUSH2 0x83A JUMPI DUP1 PUSH4 0xD5ABEB01 EQ PUSH2 0x85A JUMPI DUP1 PUSH4 0xD936547E EQ PUSH2 0x870 JUMPI PUSH1 0x0 DUP1 REVERT JUMPDEST DUP1 PUSH4 0xA59888D3 EQ PUSH2 0x7D0 JUMPI DUP1 PUSH4 0xB88D4FDE EQ PUSH2 0x7E5 JUMPI DUP1 PUSH4 0xBFBE109E EQ PUSH2 0x805 JUMPI PUSH1 0x0 DUP1 REVERT JUMPDEST DUP1 PUSH4 0x77E56357 GT PUSH2 0x164 JUMPI DUP1 PUSH4 0x938E3D7B GT PUSH2 0x13E JUMPI DUP1 PUSH4 0x938E3D7B EQ PUSH2 0x768 JUMPI DUP1 PUSH4 0x95D89B41 EQ PUSH2 0x788 JUMPI DUP1 PUSH4 0xA0712D68 EQ PUSH2 0x79D JUMPI DUP1 PUSH4 0xA22CB465 EQ PUSH2 0x7B0 JUMPI PUSH1 0x0 DUP1 REVERT JUMPDEST DUP1 PUSH4 0x77E56357 EQ PUSH2 0x720 JUMPI DUP1 PUSH4 0x8A03DD7A EQ PUSH2 0x735 JUMPI DUP1 PUSH4 0x8DA5CB5B EQ PUSH2 0x74A JUMPI PUSH1 0x0 DUP1 REVERT JUMPDEST DUP1 PUSH4 0x5D82CF6E EQ PUSH2 0x676 JUMPI DUP1 PUSH4 0x5FD6A991 EQ PUSH2 0x696 JUMPI DUP1 PUSH4 0x6352211E EQ PUSH2 0x6B6 JUMPI DUP1 PUSH4 0x6C0360EB EQ PUSH2 0x6D6 JUMPI DUP1 PUSH4 0x70A08231 EQ PUSH2 0x6EB JUMPI DUP1 PUSH4 0x715018A6 EQ PUSH2 0x70B JUMPI PUSH1 0x0 DUP1 REVERT JUMPDEST DUP1 PUSH4 0x2DB11544 GT PUSH2 0x26A JUMPI DUP1 PUSH4 0x42842E0E GT PUSH2 0x223 JUMPI DUP1 PUSH4 0x4F6CCCE7 GT PUSH2 0x1FD JUMPI DUP1 PUSH4 0x4F6CCCE7 EQ PUSH2 0x5FD JUMPI DUP1 PUSH4 0x51830227 EQ PUSH2 0x61D JUMPI DUP1 PUSH4 0x55F804B3 EQ PUSH2 0x63C JUMPI DUP1 PUSH4 0x5C975ABB EQ PUSH2 0x65C JUMPI PUSH1 0x0 DUP1 REVERT JUMPDEST DUP1 PUSH4 0x42842E0E EQ PUSH2 0x577 JUMPI DUP1 PUSH4 0x438B6300 EQ PUSH2 0x597 JUMPI DUP1 PUSH4 0x4D813120 EQ PUSH2 0x5C4 JUMPI PUSH1 0x0 DUP1 REVERT JUMPDEST DUP1 PUSH4 0x2DB11544 EQ PUSH2 0x4E7 JUMPI DUP1 PUSH4 0x2F745C59 EQ PUSH2 0x4FA JUMPI DUP1 PUSH4 0x30CC7AE0 EQ PUSH2 0x51A JUMPI DUP1 PUSH4 0x3BD64968 EQ PUSH2 0x53A JUMPI DUP1 PUSH4 0x3CCFD60B EQ PUSH2 0x54F JUMPI DUP1 PUSH4 0x421B2D8B EQ PUSH2 0x557 JUMPI PUSH1 0x0 DUP1 REVERT JUMPDEST DUP1 PUSH4 0x95EA7B3 GT PUSH2 0x2D7 JUMPI DUP1 PUSH4 0x1E7269C5 GT PUSH2 0x2B1 JUMPI DUP1 PUSH4 0x1E7269C5 EQ PUSH2 0x464 JUMPI DUP1 PUSH4 0x239C70AE EQ PUSH2 0x491 JUMPI DUP1 PUSH4 0x23B872DD EQ PUSH2 0x4A7 JUMPI DUP1 PUSH4 0x2BE08351 EQ PUSH2 0x4C7 JUMPI PUSH1 0x0 DUP1 REVERT JUMPDEST DUP1 PUSH4 0x95EA7B3 EQ PUSH2 0x405 JUMPI DUP1 PUSH4 0x18160DDD EQ PUSH2 0x425 JUMPI DUP1 PUSH4 0x1D79749F EQ PUSH2 0x444 JUMPI PUSH1 0x0 DUP1 REVERT JUMPDEST DUP1 PUSH4 0x1FFC9A7 EQ PUSH2 0x31F JUMPI DUP1 PUSH4 0x2329A29 EQ PUSH2 0x354 JUMPI DUP1 PUSH4 0x6FDDE03 EQ PUSH2 0x376 JUMPI DUP1 PUSH4 0x81812FC EQ PUSH2 0x398 JUMPI DUP1 PUSH4 0x81C8C44 EQ PUSH2 0x3D0 JUMPI DUP1 PUSH4 0x88A4ED0 EQ PUSH2 0x3E5 JUMPI JUMPDEST PUSH1 0x0 DUP1 REVERT JUMPDEST CALLVALUE DUP1 ISZERO PUSH2 0x32B JUMPI PUSH1 0x0 DUP1 REVERT JUMPDEST POP PUSH2 0x33F PUSH2 0x33A CALLDATASIZE PUSH1 0x4 PUSH2 0x2888 JUMP JUMPDEST PUSH2 0x98A JUMP JUMPDEST PUSH1 0x40 MLOAD SWAP1 ISZERO ISZERO DUP2 MSTORE PUSH1 0x20 ADD JUMPDEST PUSH1 0x40 MLOAD DUP1 SWAP2 SUB SWAP1 RETURN JUMPDEST CALLVALUE DUP1 ISZERO PUSH2 0x360 JUMPI PUSH1 0x0 DUP1 REVERT JUMPDEST POP PUSH2 0x374 PUSH2 0x36F CALLDATASIZE PUSH1 0x4 PUSH2 0x28C1 JUMP JUMPDEST PUSH2 0x9B5 JUMP JUMPDEST STOP JUMPDEST CALLVALUE DUP1 ISZERO PUSH2 0x382 JUMPI PUSH1 0x0 DUP1 REVERT JUMPDEST POP PUSH2 0x38B PUSH2 0x9FB JUMP JUMPDEST PUSH1 0x40 MLOAD PUSH2 0x34B SWAP2 SWAP1 PUSH2 0x2934 JUMP JUMPDEST CALLVALUE DUP1 ISZERO PUSH2 0x3A4 JUMPI PUSH1 0x0 DUP1 REVERT JUMPDEST POP PUSH2 0x3B8 PUSH2 0x3B3 CALLDATASIZE PUSH1 0x4 PUSH2 0x2947 JUMP JUMPDEST PUSH2 0xA8D JUMP JUMPDEST PUSH1 0x40 MLOAD PUSH1 0x1 PUSH1 0x1 PUSH1 0xA0 SHL SUB SWAP1 SWAP2 AND DUP2 MSTORE PUSH1 0x20 ADD PUSH2 0x34B JUMP JUMPDEST CALLVALUE DUP1 ISZERO PUSH2 0x3DC JUMPI PUSH1 0x0 DUP1 REVERT JUMPDEST POP PUSH2 0x38B PUSH2 0xB22 JUMP JUMPDEST CALLVALUE DUP1 ISZERO PUSH2 0x3F1 JUMPI PUSH1 0x0 DUP1 REVERT JUMPDEST POP PUSH2 0x374 PUSH2 0x400 CALLDATASIZE PUSH1 0x4 PUSH2 0x2947 JUMP JUMPDEST PUSH2 0xBB0 JUMP JUMPDEST CALLVALUE DUP1 ISZERO PUSH2 0x411 JUMPI PUSH1 0x0 DUP1 REVERT JUMPDEST POP PUSH2 0x374 PUSH2 0x420 CALLDATASIZE PUSH1 0x4 PUSH2 0x2977 JUMP JUMPDEST PUSH2 0xBDF JUMP JUMPDEST CALLVALUE DUP1 ISZERO PUSH2 0x431 JUMPI PUSH1 0x0 DUP1 REVERT JUMPDEST POP PUSH1 0x8 SLOAD JUMPDEST PUSH1 0x40 MLOAD SWAP1 DUP2 MSTORE PUSH1 0x20 ADD PUSH2 0x34B JUMP JUMPDEST CALLVALUE DUP1 ISZERO PUSH2 0x450 JUMPI PUSH1 0x0 DUP1 REVERT JUMPDEST POP PUSH2 0x436 PUSH2 0x45F CALLDATASIZE PUSH1 0x4 PUSH2 0x2947 JUMP JUMPDEST PUSH2 0xCF5 JUMP JUMPDEST CALLVALUE DUP1 ISZERO PUSH2 0x470 JUMPI PUSH1 0x0 DUP1 REVERT JUMPDEST POP PUSH2 0x436 PUSH2 0x47F CALLDATASIZE PUSH1 0x4 PUSH2 0x29A1 JUMP JUMPDEST PUSH1 0x16 PUSH1 0x20 MSTORE PUSH1 0x0 SWAP1 DUP2 MSTORE PUSH1 0x40 SWAP1 KECCAK256 SLOAD DUP2 JUMP JUMPDEST CALLVALUE DUP1 ISZERO PUSH2 0x49D JUMPI PUSH1 0x0 DUP1 REVERT JUMPDEST POP PUSH2 0x436 PUSH1 0xF SLOAD DUP2 JUMP JUMPDEST CALLVALUE DUP1 ISZERO PUSH2 0x4B3 JUMPI PUSH1 0x0 DUP1 REVERT JUMPDEST POP PUSH2 0x374 PUSH2 0x4C2 CALLDATASIZE PUSH1 0x4 PUSH2 0x29BC JUMP JUMPDEST PUSH2 0xD16 JUMP JUMPDEST CALLVALUE DUP1 ISZERO PUSH2 0x4D3 JUMPI PUSH1 0x0 DUP1 REVERT JUMPDEST POP PUSH1 0x12 SLOAD PUSH2 0x33F SWAP1 PUSH3 0x10000 SWAP1 DIV PUSH1 0xFF AND DUP2 JUMP JUMPDEST PUSH2 0x374 PUSH2 0x4F5 CALLDATASIZE PUSH1 0x4 PUSH2 0x2947 JUMP JUMPDEST PUSH2 0xD47 JUMP JUMPDEST CALLVALUE DUP1 ISZERO PUSH2 0x506 JUMPI PUSH1 0x0 DUP1 REVERT JUMPDEST POP PUSH2 0x436 PUSH2 0x515 CALLDATASIZE PUSH1 0x4 PUSH2 0x2977 JUMP JUMPDEST PUSH2 0xF6E JUMP JUMPDEST CALLVALUE DUP1 ISZERO PUSH2 0x526 JUMPI PUSH1 0x0 DUP1 REVERT JUMPDEST POP PUSH2 0x374 PUSH2 0x535 CALLDATASIZE PUSH1 0x4 PUSH2 0x29A1 JUMP JUMPDEST PUSH2 0x1004 JUMP JUMPDEST CALLVALUE DUP1 ISZERO PUSH2 0x546 JUMPI PUSH1 0x0 DUP1 REVERT JUMPDEST POP PUSH2 0x374 PUSH2 0x104F JUMP JUMPDEST PUSH2 0x374 PUSH2 0x108A JUMP JUMPDEST CALLVALUE DUP1 ISZERO PUSH2 0x563 JUMPI PUSH1 0x0 DUP1 REVERT JUMPDEST POP PUSH2 0x374 PUSH2 0x572 CALLDATASIZE PUSH1 0x4 PUSH2 0x29A1 JUMP JUMPDEST PUSH2 0x10E3 JUMP JUMPDEST CALLVALUE DUP1 ISZERO PUSH2 0x583 JUMPI PUSH1 0x0 DUP1 REVERT JUMPDEST POP PUSH2 0x374 PUSH2 0x592 CALLDATASIZE PUSH1 0x4 PUSH2 0x29BC JUMP JUMPDEST PUSH2 0x1131 JUMP JUMPDEST CALLVALUE DUP1 ISZERO PUSH2 0x5A3 JUMPI PUSH1 0x0 DUP1 REVERT JUMPDEST POP PUSH2 0x5B7 PUSH2 0x5B2 CALLDATASIZE PUSH1 0x4 PUSH2 0x29A1 JUMP JUMPDEST PUSH2 0x114C JUMP JUMPDEST PUSH1 0x40 MLOAD PUSH2 0x34B SWAP2 SWAP1 PUSH2 0x29F8 JUMP JUMPDEST CALLVALUE DUP1 ISZERO PUSH2 0x5D0 JUMPI PUSH1 0x0 DUP1 REVERT JUMPDEST POP PUSH2 0x33F PUSH2 0x5DF CALLDATASIZE PUSH1 0x4 PUSH2 0x29A1 JUMP JUMPDEST PUSH1 0x1 PUSH1 0x1 PUSH1 0xA0 SHL SUB AND PUSH1 0x0 SWAP1 DUP2 MSTORE PUSH1 0x15 PUSH1 0x20 MSTORE PUSH1 0x40 SWAP1 KECCAK256 SLOAD PUSH1 0xFF AND SWAP1 JUMP JUMPDEST CALLVALUE DUP1 ISZERO PUSH2 0x609 JUMPI PUSH1 0x0 DUP1 REVERT JUMPDEST POP PUSH2 0x436 PUSH2 0x618 CALLDATASIZE PUSH1 0x4 PUSH2 0x2947 JUMP JUMPDEST PUSH2 0x11EE JUMP JUMPDEST CALLVALUE DUP1 ISZERO PUSH2 0x629 JUMPI PUSH1 0x0 DUP1 REVERT JUMPDEST POP PUSH1 0x12 SLOAD PUSH2 0x33F SWAP1 PUSH2 0x100 SWAP1 DIV PUSH1 0xFF AND DUP2 JUMP JUMPDEST CALLVALUE DUP1 ISZERO PUSH2 0x648 JUMPI PUSH1 0x0 DUP1 REVERT JUMPDEST POP PUSH2 0x374 PUSH2 0x657 CALLDATASIZE PUSH1 0x4 PUSH2 0x2ADB JUMP JUMPDEST PUSH2 0x1281 JUMP JUMPDEST CALLVALUE DUP1 ISZERO PUSH2 0x668 JUMPI PUSH1 0x0 DUP1 REVERT JUMPDEST POP PUSH1 0x12 SLOAD PUSH2 0x33F SWAP1 PUSH1 0xFF AND DUP2 JUMP JUMPDEST CALLVALUE DUP1 ISZERO PUSH2 0x682 JUMPI PUSH1 0x0 DUP1 REVERT JUMPDEST POP PUSH2 0x374 PUSH2 0x691 CALLDATASIZE PUSH1 0x4 PUSH2 0x2947 JUMP JUMPDEST PUSH2 0x12BE JUMP JUMPDEST CALLVALUE DUP1 ISZERO PUSH2 0x6A2 JUMPI PUSH1 0x0 DUP1 REVERT JUMPDEST POP PUSH2 0x374 PUSH2 0x6B1 CALLDATASIZE PUSH1 0x4 PUSH2 0x2B24 JUMP JUMPDEST PUSH2 0x12ED JUMP JUMPDEST CALLVALUE DUP1 ISZERO PUSH2 0x6C2 JUMPI PUSH1 0x0 DUP1 REVERT JUMPDEST POP PUSH2 0x3B8 PUSH2 0x6D1 CALLDATASIZE PUSH1 0x4 PUSH2 0x2947 JUMP JUMPDEST PUSH2 0x132A JUMP JUMPDEST CALLVALUE DUP1 ISZERO PUSH2 0x6E2 JUMPI PUSH1 0x0 DUP1 REVERT JUMPDEST POP PUSH2 0x38B PUSH2 0x13A1 JUMP JUMPDEST CALLVALUE DUP1 ISZERO PUSH2 0x6F7 JUMPI PUSH1 0x0 DUP1 REVERT JUMPDEST POP PUSH2 0x436 PUSH2 0x706 CALLDATASIZE PUSH1 0x4 PUSH2 0x29A1 JUMP JUMPDEST PUSH2 0x13AE JUMP JUMPDEST CALLVALUE DUP1 ISZERO PUSH2 0x717 JUMPI PUSH1 0x0 DUP1 REVERT JUMPDEST POP PUSH2 0x374 PUSH2 0x1435 JUMP JUMPDEST CALLVALUE DUP1 ISZERO PUSH2 0x72C JUMPI PUSH1 0x0 DUP1 REVERT JUMPDEST POP PUSH2 0x374 PUSH2 0x146B JUMP JUMPDEST CALLVALUE DUP1 ISZERO PUSH2 0x741 JUMPI PUSH1 0x0 DUP1 REVERT JUMPDEST POP PUSH2 0x374 PUSH2 0x14A8 JUMP JUMPDEST CALLVALUE DUP1 ISZERO PUSH2 0x756 JUMPI PUSH1 0x0 DUP1 REVERT JUMPDEST POP PUSH1 0xA SLOAD PUSH1 0x1 PUSH1 0x1 PUSH1 0xA0 SHL SUB AND PUSH2 0x3B8 JUMP JUMPDEST CALLVALUE DUP1 ISZERO PUSH2 0x774 JUMPI PUSH1 0x0 DUP1 REVERT JUMPDEST POP PUSH2 0x374 PUSH2 0x783 CALLDATASIZE PUSH1 0x4 PUSH2 0x2ADB JUMP JUMPDEST PUSH2 0x14FC JUMP JUMPDEST CALLVALUE DUP1 ISZERO PUSH2 0x794 JUMPI PUSH1 0x0 DUP1 REVERT JUMPDEST POP PUSH2 0x38B PUSH2 0x1539 JUMP JUMPDEST PUSH2 0x374 PUSH2 0x7AB CALLDATASIZE PUSH1 0x4 PUSH2 0x2947 JUMP JUMPDEST PUSH2 0x1548 JUMP JUMPDEST CALLVALUE DUP1 ISZERO PUSH2 0x7BC JUMPI PUSH1 0x0 DUP1 REVERT JUMPDEST POP PUSH2 0x374 PUSH2 0x7CB CALLDATASIZE PUSH1 0x4 PUSH2 0x2BCA JUMP JUMPDEST PUSH2 0x19ED JUMP JUMPDEST CALLVALUE DUP1 ISZERO PUSH2 0x7DC JUMPI PUSH1 0x0 DUP1 REVERT JUMPDEST POP PUSH2 0x374 PUSH2 0x1AB2 JUMP JUMPDEST CALLVALUE DUP1 ISZERO PUSH2 0x7F1 JUMPI PUSH1 0x0 DUP1 REVERT JUMPDEST POP PUSH2 0x374 PUSH2 0x800 CALLDATASIZE PUSH1 0x4 PUSH2 0x2BFD JUMP JUMPDEST PUSH2 0x1B0E JUMP JUMPDEST CALLVALUE DUP1 ISZERO PUSH2 0x811 JUMPI PUSH1 0x0 DUP1 REVERT JUMPDEST POP PUSH2 0x374 PUSH2 0x820 CALLDATASIZE PUSH1 0x4 PUSH2 0x2947 JUMP JUMPDEST PUSH2 0x1B46 JUMP JUMPDEST CALLVALUE DUP1 ISZERO PUSH2 0x831 JUMPI PUSH1 0x0 DUP1 REVERT JUMPDEST POP PUSH2 0x38B PUSH2 0x1BAA JUMP JUMPDEST CALLVALUE DUP1 ISZERO PUSH2 0x846 JUMPI PUSH1 0x0 DUP1 REVERT JUMPDEST POP PUSH2 0x38B PUSH2 0x855 CALLDATASIZE PUSH1 0x4 PUSH2 0x2947 JUMP JUMPDEST PUSH2 0x1BB7 JUMP JUMPDEST CALLVALUE DUP1 ISZERO PUSH2 0x866 JUMPI PUSH1 0x0 DUP1 REVERT JUMPDEST POP PUSH2 0x436 PUSH1 0xE SLOAD DUP2 JUMP JUMPDEST CALLVALUE DUP1 ISZERO PUSH2 0x87C JUMPI PUSH1 0x0 DUP1 REVERT JUMPDEST POP PUSH2 0x33F PUSH2 0x88B CALLDATASIZE PUSH1 0x4 PUSH2 0x29A1 JUMP JUMPDEST PUSH1 0x15 PUSH1 0x20 MSTORE PUSH1 0x0 SWAP1 DUP2 MSTORE PUSH1 0x40 SWAP1 KECCAK256 SLOAD PUSH1 0xFF AND DUP2 JUMP JUMPDEST CALLVALUE DUP1 ISZERO PUSH2 0x8AC JUMPI PUSH1 0x0 DUP1 REVERT JUMPDEST POP PUSH2 0x436 PUSH1 0x10 SLOAD DUP2 JUMP JUMPDEST CALLVALUE DUP1 ISZERO PUSH2 0x8C2 JUMPI PUSH1 0x0 DUP1 REVERT JUMPDEST POP PUSH2 0x436 PUSH1 0xC SLOAD DUP2 JUMP JUMPDEST CALLVALUE DUP1 ISZERO PUSH2 0x8D8 JUMPI PUSH1 0x0 DUP1 REVERT JUMPDEST POP PUSH2 0x38B PUSH2 0x1CAB JUMP JUMPDEST CALLVALUE DUP1 ISZERO PUSH2 0x8ED JUMPI PUSH1 0x0 DUP1 REVERT JUMPDEST POP PUSH2 0x33F PUSH2 0x8FC CALLDATASIZE PUSH1 0x4 PUSH2 0x2C79 JUMP JUMPDEST PUSH1 0x1 PUSH1 0x1 PUSH1 0xA0 SHL SUB SWAP2 DUP3 AND PUSH1 0x0 SWAP1 DUP2 MSTORE PUSH1 0x5 PUSH1 0x20 SWAP1 DUP2 MSTORE PUSH1 0x40 DUP1 DUP4 KECCAK256 SWAP4 SWAP1 SWAP5 AND DUP3 MSTORE SWAP2 SWAP1 SWAP2 MSTORE KECCAK256 SLOAD PUSH1 0xFF AND SWAP1 JUMP JUMPDEST CALLVALUE DUP1 ISZERO PUSH2 0x936 JUMPI PUSH1 0x0 DUP1 REVERT JUMPDEST POP PUSH2 0x374 PUSH2 0x945 CALLDATASIZE PUSH1 0x4 PUSH2 0x2ADB JUMP JUMPDEST PUSH2 0x1CBA JUMP JUMPDEST CALLVALUE DUP1 ISZERO PUSH2 0x956 JUMPI PUSH1 0x0 DUP1 REVERT JUMPDEST POP PUSH2 0x374 PUSH2 0x965 CALLDATASIZE PUSH1 0x4 PUSH2 0x29A1 JUMP JUMPDEST PUSH2 0x1CF7 JUMP JUMPDEST CALLVALUE DUP1 ISZERO PUSH2 0x976 JUMPI PUSH1 0x0 DUP1 REVERT JUMPDEST POP PUSH2 0x374 PUSH2 0x985 CALLDATASIZE PUSH1 0x4 PUSH2 0x2B24 JUMP JUMPDEST PUSH2 0x1D8F JUMP JUMPDEST PUSH1 0x0 PUSH1 0x1 PUSH1 0x1 PUSH1 0xE0 SHL SUB NOT DUP3 AND PUSH4 0x780E9D63 PUSH1 0xE0 SHL EQ DUP1 PUSH2 0x9AF JUMPI POP PUSH2 0x9AF DUP3 PUSH2 0x1DCC JUMP JUMPDEST SWAP3 SWAP2 POP POP JUMP JUMPDEST PUSH1 0xA SLOAD PUSH1 0x1 PUSH1 0x1 PUSH1 0xA0 SHL SUB AND CALLER EQ PUSH2 0x9E8 JUMPI PUSH1 0x40 MLOAD PUSH3 0x461BCD PUSH1 0xE5 SHL DUP2 MSTORE PUSH1 0x4 ADD PUSH2 0x9DF SWAP1 PUSH2 0x2CA3 JUMP JUMPDEST PUSH1 0x40 MLOAD DUP1 SWAP2 SUB SWAP1 REVERT JUMPDEST PUSH1 0x12 DUP1 SLOAD PUSH1 0xFF NOT AND SWAP2 ISZERO ISZERO SWAP2 SWAP1 SWAP2 OR SWAP1 SSTORE JUMP JUMPDEST PUSH1 0x60 PUSH1 0x0 DUP1 SLOAD PUSH2 0xA0A SWAP1 PUSH2 0x2CD8 JUMP JUMPDEST DUP1 PUSH1 0x1F ADD PUSH1 0x20 DUP1 SWAP2 DIV MUL PUSH1 0x20 ADD PUSH1 0x40 MLOAD SWAP1 DUP2 ADD PUSH1 0x40 MSTORE DUP1 SWAP3 SWAP2 SWAP1 DUP2 DUP2 MSTORE PUSH1 0x20 ADD DUP3 DUP1 SLOAD PUSH2 0xA36 SWAP1 PUSH2 0x2CD8 JUMP JUMPDEST DUP1 ISZERO PUSH2 0xA83 JUMPI DUP1 PUSH1 0x1F LT PUSH2 0xA58 JUMPI PUSH2 0x100 DUP1 DUP4 SLOAD DIV MUL DUP4 MSTORE SWAP2 PUSH1 0x20 ADD SWAP2 PUSH2 0xA83 JUMP JUMPDEST DUP3 ADD SWAP2 SWAP1 PUSH1 0x0 MSTORE PUSH1 0x20 PUSH1 0x0 KECCAK256 SWAP1 JUMPDEST DUP2 SLOAD DUP2 MSTORE SWAP1 PUSH1 0x1 ADD SWAP1 PUSH1 0x20 ADD DUP1 DUP4 GT PUSH2 0xA66 JUMPI DUP3 SWAP1 SUB PUSH1 0x1F AND DUP3 ADD SWAP2 JUMPDEST POP POP POP POP POP SWAP1 POP SWAP1 JUMP JUMPDEST PUSH1 0x0 DUP2 DUP2 MSTORE PUSH1 0x2 PUSH1 0x20 MSTORE PUSH1 0x40 DUP2 KECCAK256 SLOAD PUSH1 0x1 PUSH1 0x1 PUSH1 0xA0 SHL SUB AND PUSH2 0xB06 JUMPI PUSH1 0x40 MLOAD PUSH3 0x461BCD PUSH1 0xE5 SHL DUP2 MSTORE PUSH1 0x20 PUSH1 0x4 DUP3 ADD MSTORE PUSH1 0x2C PUSH1 0x24 DUP3 ADD MSTORE PUSH32 0x4552433732313A20617070726F76656420717565727920666F72206E6F6E6578 PUSH1 0x44 DUP3 ADD MSTORE PUSH12 0x34B9BA32B73A103A37B5B2B7 PUSH1 0xA1 SHL PUSH1 0x64 DUP3 ADD MSTORE PUSH1 0x84 ADD PUSH2 0x9DF JUMP JUMPDEST POP PUSH1 0x0 SWAP1 DUP2 MSTORE PUSH1 0x4 PUSH1 0x20 MSTORE PUSH1 0x40 SWAP1 KECCAK256 SLOAD PUSH1 0x1 PUSH1 0x1 PUSH1 0xA0 SHL SUB AND SWAP1 JUMP JUMPDEST PUSH1 0x13 DUP1 SLOAD PUSH2 0xB2F SWAP1 PUSH2 0x2CD8 JUMP JUMPDEST DUP1 PUSH1 0x1F ADD PUSH1 0x20 DUP1 SWAP2 DIV MUL PUSH1 0x20 ADD PUSH1 0x40 MLOAD SWAP1 DUP2 ADD PUSH1 0x40 MSTORE DUP1 SWAP3 SWAP2 SWAP1 DUP2 DUP2 MSTORE PUSH1 0x20 ADD DUP3 DUP1 SLOAD PUSH2 0xB5B SWAP1 PUSH2 0x2CD8 JUMP JUMPDEST DUP1 ISZERO PUSH2 0xBA8 JUMPI DUP1 PUSH1 0x1F LT PUSH2 0xB7D JUMPI PUSH2 0x100 DUP1 DUP4 SLOAD DIV MUL DUP4 MSTORE SWAP2 PUSH1 0x20 ADD SWAP2 PUSH2 0xBA8 JUMP JUMPDEST DUP3 ADD SWAP2 SWAP1 PUSH1 0x0 MSTORE PUSH1 0x20 PUSH1 0x0 KECCAK256 SWAP1 JUMPDEST DUP2 SLOAD DUP2 MSTORE SWAP1 PUSH1 0x1 ADD SWAP1 PUSH1 0x20 ADD DUP1 DUP4 GT PUSH2 0xB8B JUMPI DUP3 SWAP1 SUB PUSH1 0x1F AND DUP3 ADD SWAP2 JUMPDEST POP POP POP POP POP DUP2 JUMP JUMPDEST PUSH1 0xA SLOAD PUSH1 0x1 PUSH1 0x1 PUSH1 0xA0 SHL SUB AND CALLER EQ PUSH2 0xBDA JUMPI PUSH1 0x40 MLOAD PUSH3 0x461BCD PUSH1 0xE5 SHL DUP2 MSTORE PUSH1 0x4 ADD PUSH2 0x9DF SWAP1 PUSH2 0x2CA3 JUMP JUMPDEST PUSH1 0xF SSTORE JUMP JUMPDEST PUSH1 0x0 PUSH2 0xBEA DUP3 PUSH2 0x132A JUMP JUMPDEST SWAP1 POP DUP1 PUSH1 0x1 PUSH1 0x1 PUSH1 0xA0 SHL SUB AND DUP4 PUSH1 0x1 PUSH1 0x1 PUSH1 0xA0 SHL SUB AND EQ ISZERO PUSH2 0xC58 JUMPI PUSH1 0x40 MLOAD PUSH3 0x461BCD PUSH1 0xE5 SHL DUP2 MSTORE PUSH1 0x20 PUSH1 0x4 DUP3 ADD MSTORE PUSH1 0x21 PUSH1 0x24 DUP3 ADD MSTORE PUSH32 0x4552433732313A20617070726F76616C20746F2063757272656E74206F776E65 PUSH1 0x44 DUP3 ADD MSTORE PUSH1 0x39 PUSH1 0xF9 SHL PUSH1 0x64 DUP3 ADD MSTORE PUSH1 0x84 ADD PUSH2 0x9DF JUMP JUMPDEST CALLER PUSH1 0x1 PUSH1 0x1 PUSH1 0xA0 SHL SUB DUP3 AND EQ DUP1 PUSH2 0xC74 JUMPI POP PUSH2 0xC74 DUP2 CALLER PUSH2 0x8FC JUMP JUMPDEST PUSH2 0xCE6 JUMPI PUSH1 0x40 MLOAD PUSH3 0x461BCD PUSH1 0xE5 SHL DUP2 MSTORE PUSH1 0x20 PUSH1 0x4 DUP3 ADD MSTORE PUSH1 0x38 PUSH1 0x24 DUP3 ADD MSTORE PUSH32 0x4552433732313A20617070726F76652063616C6C6572206973206E6F74206F77 PUSH1 0x44 DUP3 ADD MSTORE PUSH32 0x6E6572206E6F7220617070726F76656420666F7220616C6C0000000000000000 PUSH1 0x64 DUP3 ADD MSTORE PUSH1 0x84 ADD PUSH2 0x9DF JUMP JUMPDEST PUSH2 0xCF0 DUP4 DUP4 PUSH2 0x1E1C JUMP JUMPDEST POP POP POP JUMP JUMPDEST PUSH1 0xD DUP2 DUP2 SLOAD DUP2 LT PUSH2 0xD05 JUMPI PUSH1 0x0 DUP1 REVERT JUMPDEST PUSH1 0x0 SWAP2 DUP3 MSTORE PUSH1 0x20 SWAP1 SWAP2 KECCAK256 ADD SLOAD SWAP1 POP DUP2 JUMP JUMPDEST PUSH2 0xD20 CALLER DUP3 PUSH2 0x1E8A JUMP JUMPDEST PUSH2 0xD3C JUMPI PUSH1 0x40 MLOAD PUSH3 0x461BCD PUSH1 0xE5 SHL DUP2 MSTORE PUSH1 0x4 ADD PUSH2 0x9DF SWAP1 PUSH2 0x2D13 JUMP JUMPDEST PUSH2 0xCF0 DUP4 DUP4 DUP4 PUSH2 0x1F81 JUMP JUMPDEST PUSH1 0x12 SLOAD PUSH3 0x10000 SWAP1 DIV PUSH1 0xFF AND ISZERO ISZERO PUSH1 0x1 EQ PUSH2 0xDA4 JUMPI PUSH1 0x40 MLOAD PUSH3 0x461BCD PUSH1 0xE5 SHL DUP2 MSTORE PUSH1 0x20 PUSH1 0x4 DUP3 ADD MSTORE PUSH1 0x18 PUSH1 0x24 DUP3 ADD MSTORE PUSH32 0x4E6F207075626C6963206D696E7420706F737369626C65210000000000000000 PUSH1 0x44 DUP3 ADD MSTORE PUSH1 0x64 ADD PUSH2 0x9DF JUMP JUMPDEST PUSH1 0x12 SLOAD PUSH1 0xFF AND ISZERO PUSH2 0xDE6 JUMPI PUSH1 0x40 MLOAD PUSH3 0x461BCD PUSH1 0xE5 SHL DUP2 MSTORE PUSH1 0x20 PUSH1 0x4 DUP3 ADD MSTORE PUSH1 0xC PUSH1 0x24 DUP3 ADD MSTORE PUSH12 0x4D696E742070617573656421 PUSH1 0xA0 SHL PUSH1 0x44 DUP3 ADD MSTORE PUSH1 0x64 ADD PUSH2 0x9DF JUMP JUMPDEST PUSH1 0x0 DUP2 GT PUSH2 0xE2D JUMPI PUSH1 0x40 MLOAD PUSH3 0x461BCD PUSH1 0xE5 SHL DUP2 MSTORE PUSH1 0x20 PUSH1 0x4 DUP3 ADD MSTORE PUSH1 0x14 PUSH1 0x24 DUP3 ADD MSTORE PUSH20 0x596F752063616E2774206D696E74207A65726F21 PUSH1 0x60 SHL PUSH1 0x44 DUP3 ADD MSTORE PUSH1 0x64 ADD PUSH2 0x9DF JUMP JUMPDEST PUSH1 0xF SLOAD CALLER PUSH1 0x0 SWAP1 DUP2 MSTORE PUSH1 0x16 PUSH1 0x20 MSTORE PUSH1 0x40 SWAP1 KECCAK256 SLOAD PUSH2 0xE4B SWAP1 DUP4 SWAP1 PUSH2 0x2D7A JUMP JUMPDEST GT ISZERO PUSH2 0xE92 JUMPI PUSH1 0x40 MLOAD PUSH3 0x461BCD PUSH1 0xE5 SHL DUP2 MSTORE PUSH1 0x20 PUSH1 0x4 DUP3 ADD MSTORE PUSH1 0x16 PUSH1 0x24 DUP3 ADD MSTORE PUSH22 0x596F752063616E206F6E6C79206D696E742074776F21 PUSH1 0x50 SHL PUSH1 0x44 DUP3 ADD MSTORE PUSH1 0x64 ADD PUSH2 0x9DF JUMP JUMPDEST PUSH1 0xE SLOAD DUP2 PUSH1 0xC SLOAD PUSH2 0xEA3 SWAP2 SWAP1 PUSH2 0x2D7A JUMP JUMPDEST GT ISZERO PUSH2 0xEDD JUMPI PUSH1 0x40 MLOAD PUSH3 0x461BCD PUSH1 0xE5 SHL DUP2 MSTORE PUSH1 0x20 PUSH1 0x4 DUP3 ADD MSTORE PUSH1 0x9 PUSH1 0x24 DUP3 ADD MSTORE PUSH9 0x536F6C64206F757421 PUSH1 0xB8 SHL PUSH1 0x44 DUP3 ADD MSTORE PUSH1 0x64 ADD PUSH2 0x9DF JUMP JUMPDEST DUP1 PUSH1 0x10 SLOAD PUSH2 0xEEB SWAP2 SWAP1 PUSH2 0x2D92 JUMP JUMPDEST CALLVALUE LT ISZERO PUSH2 0xF0A JUMPI PUSH1 0x40 MLOAD PUSH3 0x461BCD PUSH1 0xE5 SHL DUP2 MSTORE PUSH1 0x4 ADD PUSH2 0x9DF SWAP1 PUSH2 0x2DB1 JUMP JUMPDEST PUSH1 0x0 JUMPDEST DUP2 DUP2 LT ISZERO PUSH2 0xF6A JUMPI PUSH2 0xF21 CALLER PUSH1 0xC SLOAD PUSH2 0x212C JUMP JUMPDEST PUSH1 0xC SLOAD PUSH2 0xF2F SWAP1 PUSH1 0x1 PUSH2 0x2D7A JUMP JUMPDEST PUSH1 0xC SSTORE CALLER PUSH1 0x0 SWAP1 DUP2 MSTORE PUSH1 0x16 PUSH1 0x20 MSTORE PUSH1 0x40 DUP2 KECCAK256 DUP1 SLOAD PUSH1 0x1 SWAP3 SWAP1 PUSH2 0xF52 SWAP1 DUP5 SWAP1 PUSH2 0x2D7A JUMP JUMPDEST SWAP1 SWAP2 SSTORE POP DUP2 SWAP1 POP PUSH2 0xF62 DUP2 PUSH2 0x2DDA JUMP JUMPDEST SWAP2 POP POP PUSH2 0xF0D JUMP JUMPDEST POP POP JUMP JUMPDEST PUSH1 0x0 PUSH2 0xF79 DUP4 PUSH2 0x13AE JUMP JUMPDEST DUP3 LT PUSH2 0xFDB JUMPI PUSH1 0x40 MLOAD PUSH3 0x461BCD PUSH1 0xE5 SHL DUP2 MSTORE PUSH1 0x20 PUSH1 0x4 DUP3 ADD MSTORE PUSH1 0x2B PUSH1 0x24 DUP3 ADD MSTORE PUSH32 0x455243373231456E756D657261626C653A206F776E657220696E646578206F75 PUSH1 0x44 DUP3 ADD MSTORE PUSH11 0x74206F6620626F756E6473 PUSH1 0xA8 SHL PUSH1 0x64 DUP3 ADD MSTORE PUSH1 0x84 ADD PUSH2 0x9DF JUMP JUMPDEST POP PUSH1 0x1 PUSH1 0x1 PUSH1 0xA0 SHL SUB SWAP2 SWAP1 SWAP2 AND PUSH1 0x0 SWAP1 DUP2 MSTORE PUSH1 0x6 PUSH1 0x20 SWAP1 DUP2 MSTORE PUSH1 0x40 DUP1 DUP4 KECCAK256 SWAP4 DUP4 MSTORE SWAP3 SWAP1 MSTORE KECCAK256 SLOAD SWAP1 JUMP JUMPDEST PUSH1 0xA SLOAD PUSH1 0x1 PUSH1 0x1 PUSH1 0xA0 SHL SUB AND CALLER EQ PUSH2 0x102E JUMPI PUSH1 0x40 MLOAD PUSH3 0x461BCD PUSH1 0xE5 SHL DUP2 MSTORE PUSH1 0x4 ADD PUSH2 0x9DF SWAP1 PUSH2 0x2CA3 JUMP JUMPDEST PUSH1 0x1 PUSH1 0x1 PUSH1 0xA0 SHL SUB AND PUSH1 0x0 SWAP1 DUP2 MSTORE PUSH1 0x15 PUSH1 0x20 MSTORE PUSH1 0x40 SWAP1 KECCAK256 DUP1 SLOAD PUSH1 0xFF NOT AND SWAP1 SSTORE JUMP JUMPDEST PUSH1 0xA SLOAD PUSH1 0x1 PUSH1 0x1 PUSH1 0xA0 SHL SUB AND CALLER EQ PUSH2 0x1079 JUMPI PUSH1 0x40 MLOAD PUSH3 0x461BCD PUSH1 0xE5 SHL DUP2 MSTORE PUSH1 0x4 ADD PUSH2 0x9DF SWAP1 PUSH2 0x2CA3 JUMP JUMPDEST PUSH1 0x12 DUP1 SLOAD PUSH2 0xFF00 NOT AND PUSH2 0x100 OR SWAP1 SSTORE JUMP JUMPDEST PUSH1 0xA SLOAD PUSH1 0x1 PUSH1 0x1 PUSH1 0xA0 SHL SUB AND CALLER EQ PUSH2 0x10B4 JUMPI PUSH1 0x40 MLOAD PUSH3 0x461BCD PUSH1 0xE5 SHL DUP2 MSTORE PUSH1 0x4 ADD PUSH2 0x9DF SWAP1 PUSH2 0x2CA3 JUMP JUMPDEST PUSH1 0x40 MLOAD CALLER SWAP1 SELFBALANCE DUP1 ISZERO PUSH2 0x8FC MUL SWAP2 PUSH1 0x0 DUP2 DUP2 DUP2 DUP6 DUP9 DUP9 CALL SWAP4 POP POP POP POP ISZERO DUP1 ISZERO PUSH2 0x10E0 JUMPI RETURNDATASIZE PUSH1 0x0 DUP1 RETURNDATACOPY RETURNDATASIZE PUSH1 0x0 REVERT JUMPDEST POP JUMP JUMPDEST PUSH1 0xA SLOAD PUSH1 0x1 PUSH1 0x1 PUSH1 0xA0 SHL SUB AND CALLER EQ PUSH2 0x110D JUMPI PUSH1 0x40 MLOAD PUSH3 0x461BCD PUSH1 0xE5 SHL DUP2 MSTORE PUSH1 0x4 ADD PUSH2 0x9DF SWAP1 PUSH2 0x2CA3 JUMP JUMPDEST PUSH1 0x1 PUSH1 0x1 PUSH1 0xA0 SHL SUB AND PUSH1 0x0 SWAP1 DUP2 MSTORE PUSH1 0x15 PUSH1 0x20 MSTORE PUSH1 0x40 SWAP1 KECCAK256 DUP1 SLOAD PUSH1 0xFF NOT AND PUSH1 0x1 OR SWAP1 SSTORE JUMP JUMPDEST PUSH2 0xCF0 DUP4 DUP4 DUP4 PUSH1 0x40 MLOAD DUP1 PUSH1 0x20 ADD PUSH1 0x40 MSTORE DUP1 PUSH1 0x0 DUP2 MSTORE POP PUSH2 0x1B0E JUMP JUMPDEST PUSH1 0x60 PUSH1 0x0 PUSH2 0x1159 DUP4 PUSH2 0x13AE JUMP JUMPDEST SWAP1 POP PUSH1 0x0 DUP2 PUSH8 0xFFFFFFFFFFFFFFFF DUP2 GT ISZERO PUSH2 0x1176 JUMPI PUSH2 0x1176 PUSH2 0x2A3C JUMP JUMPDEST PUSH1 0x40 MLOAD SWAP1 DUP1 DUP3 MSTORE DUP1 PUSH1 0x20 MUL PUSH1 0x20 ADD DUP3 ADD PUSH1 0x40 MSTORE DUP1 ISZERO PUSH2 0x119F JUMPI DUP2 PUSH1 0x20 ADD PUSH1 0x20 DUP3 MUL DUP1 CALLDATASIZE DUP4 CALLDATACOPY ADD SWAP1 POP JUMPDEST POP SWAP1 POP PUSH1 0x0 JUMPDEST DUP3 DUP2 LT ISZERO PUSH2 0x11E6 JUMPI PUSH2 0x11B7 DUP6 DUP3 PUSH2 0xF6E JUMP JUMPDEST DUP3 DUP3 DUP2 MLOAD DUP2 LT PUSH2 0x11C9 JUMPI PUSH2 0x11C9 PUSH2 0x2DF5 JUMP JUMPDEST PUSH1 0x20 SWAP1 DUP2 MUL SWAP2 SWAP1 SWAP2 ADD ADD MSTORE DUP1 PUSH2 0x11DE DUP2 PUSH2 0x2DDA JUMP JUMPDEST SWAP2 POP POP PUSH2 0x11A5 JUMP JUMPDEST POP SWAP4 SWAP3 POP POP POP JUMP JUMPDEST PUSH1 0x0 PUSH2 0x11F9 PUSH1 0x8 SLOAD SWAP1 JUMP JUMPDEST DUP3 LT PUSH2 0x125C JUMPI PUSH1 0x40 MLOAD PUSH3 0x461BCD PUSH1 0xE5 SHL DUP2 MSTORE PUSH1 0x20 PUSH1 0x4 DUP3 ADD MSTORE PUSH1 0x2C PUSH1 0x24 DUP3 ADD MSTORE PUSH32 0x455243373231456E756D657261626C653A20676C6F62616C20696E646578206F PUSH1 0x44 DUP3 ADD MSTORE PUSH12 0x7574206F6620626F756E6473 PUSH1 0xA0 SHL PUSH1 0x64 DUP3 ADD MSTORE PUSH1 0x84 ADD PUSH2 0x9DF JUMP JUMPDEST PUSH1 0x8 DUP3 DUP2 SLOAD DUP2 LT PUSH2 0x126F JUMPI PUSH2 0x126F PUSH2 0x2DF5 JUMP JUMPDEST SWAP1 PUSH1 0x0 MSTORE PUSH1 0x20 PUSH1 0x0 KECCAK256 ADD SLOAD SWAP1 POP SWAP2 SWAP1 POP JUMP JUMPDEST PUSH1 0xA SLOAD PUSH1 0x1 PUSH1 0x1 PUSH1 0xA0 SHL SUB AND CALLER EQ PUSH2 0x12AB JUMPI PUSH1 0x40 MLOAD PUSH3 0x461BCD PUSH1 0xE5 SHL DUP2 MSTORE PUSH1 0x4 ADD PUSH2 0x9DF SWAP1 PUSH2 0x2CA3 JUMP JUMPDEST DUP1 MLOAD PUSH2 0xF6A SWAP1 PUSH1 0xB SWAP1 PUSH1 0x20 DUP5 ADD SWAP1 PUSH2 0x279F JUMP JUMPDEST PUSH1 0xA SLOAD PUSH1 0x1 PUSH1 0x1 PUSH1 0xA0 SHL SUB AND CALLER EQ PUSH2 0x12E8 JUMPI PUSH1 0x40 MLOAD PUSH3 0x461BCD PUSH1 0xE5 SHL DUP2 MSTORE PUSH1 0x4 ADD PUSH2 0x9DF SWAP1 PUSH2 0x2CA3 JUMP JUMPDEST PUSH1 0x10 SSTORE JUMP JUMPDEST PUSH1 0xA SLOAD PUSH1 0x1 PUSH1 0x1 PUSH1 0xA0 SHL SUB AND CALLER EQ PUSH2 0x1317 JUMPI PUSH1 0x40 MLOAD PUSH3 0x461BCD PUSH1 0xE5 SHL DUP2 MSTORE PUSH1 0x4 ADD PUSH2 0x9DF SWAP1 PUSH2 0x2CA3 JUMP JUMPDEST DUP1 MLOAD PUSH2 0xF6A SWAP1 PUSH1 0xD SWAP1 PUSH1 0x20 DUP5 ADD SWAP1 PUSH2 0x2823 JUMP JUMPDEST PUSH1 0x0 DUP2 DUP2 MSTORE PUSH1 0x2 PUSH1 0x20 MSTORE PUSH1 0x40 DUP2 KECCAK256 SLOAD PUSH1 0x1 PUSH1 0x1 PUSH1 0xA0 SHL SUB AND DUP1 PUSH2 0x9AF JUMPI PUSH1 0x40 MLOAD PUSH3 0x461BCD PUSH1 0xE5 SHL DUP2 MSTORE PUSH1 0x20 PUSH1 0x4 DUP3 ADD MSTORE PUSH1 0x29 PUSH1 0x24 DUP3 ADD MSTORE PUSH32 0x4552433732313A206F776E657220717565727920666F72206E6F6E6578697374 PUSH1 0x44 DUP3 ADD MSTORE PUSH9 0x32B73A103A37B5B2B7 PUSH1 0xB9 SHL PUSH1 0x64 DUP3 ADD MSTORE PUSH1 0x84 ADD PUSH2 0x9DF JUMP JUMPDEST PUSH1 0xB DUP1 SLOAD PUSH2 0xB2F SWAP1 PUSH2 0x2CD8 JUMP JUMPDEST PUSH1 0x0 PUSH1 0x1 PUSH1 0x1 PUSH1 0xA0 SHL SUB DUP3 AND PUSH2 0x1419 JUMPI PUSH1 0x40 MLOAD PUSH3 0x461BCD PUSH1 0xE5 SHL DUP2 MSTORE PUSH1 0x20 PUSH1 0x4 DUP3 ADD MSTORE PUSH1 0x2A PUSH1 0x24 DUP3 ADD MSTORE PUSH32 0x4552433732313A2062616C616E636520717565727920666F7220746865207A65 PUSH1 0x44 DUP3 ADD MSTORE PUSH10 0x726F2061646472657373 PUSH1 0xB0 SHL PUSH1 0x64 DUP3 ADD MSTORE PUSH1 0x84 ADD PUSH2 0x9DF JUMP JUMPDEST POP PUSH1 0x1 PUSH1 0x1 PUSH1 0xA0 SHL SUB AND PUSH1 0x0 SWAP1 DUP2 MSTORE PUSH1 0x3 PUSH1 0x20 MSTORE PUSH1 0x40 SWAP1 KECCAK256 SLOAD SWAP1 JUMP JUMPDEST PUSH1 0xA SLOAD PUSH1 0x1 PUSH1 0x1 PUSH1 0xA0 SHL SUB AND CALLER EQ PUSH2 0x145F JUMPI PUSH1 0x40 MLOAD PUSH3 0x461BCD PUSH1 0xE5 SHL DUP2 MSTORE PUSH1 0x4 ADD PUSH2 0x9DF SWAP1 PUSH2 0x2CA3 JUMP JUMPDEST PUSH2 0x1469 PUSH1 0x0 PUSH2 0x2146 JUMP JUMPDEST JUMP JUMPDEST PUSH1 0xA SLOAD PUSH1 0x1 PUSH1 0x1 PUSH1 0xA0 SHL SUB AND CALLER EQ PUSH2 0x1495 JUMPI PUSH1 0x40 MLOAD PUSH3 0x461BCD PUSH1 0xE5 SHL DUP2 MSTORE PUSH1 0x4 ADD PUSH2 0x9DF SWAP1 PUSH2 0x2CA3 JUMP JUMPDEST PUSH1 0x12 DUP1 SLOAD PUSH3 0xFF0000 NOT AND PUSH3 0x10000 OR SWAP1 SSTORE JUMP JUMPDEST PUSH1 0xA SLOAD PUSH1 0x1 PUSH1 0x1 PUSH1 0xA0 SHL SUB AND CALLER EQ PUSH2 0x14D2 JUMPI PUSH1 0x40 MLOAD PUSH3 0x461BCD PUSH1 0xE5 SHL DUP2 MSTORE PUSH1 0x4 ADD PUSH2 0x9DF SWAP1 PUSH2 0x2CA3 JUMP JUMPDEST PUSH2 0x269E JUMPDEST PUSH1 0xE SLOAD DUP2 LT ISZERO PUSH2 0x10E0 JUMPI PUSH2 0x14EA CALLER DUP3 PUSH2 0x212C JUMP JUMPDEST DUP1 PUSH2 0x14F4 DUP2 PUSH2 0x2DDA JUMP JUMPDEST SWAP2 POP POP PUSH2 0x14D6 JUMP JUMPDEST PUSH1 0xA SLOAD PUSH1 0x1 PUSH1 0x1 PUSH1 0xA0 SHL SUB AND CALLER EQ PUSH2 0x1526 JUMPI PUSH1 0x40 MLOAD PUSH3 0x461BCD PUSH1 0xE5 SHL DUP2 MSTORE PUSH1 0x4 ADD PUSH2 0x9DF SWAP1 PUSH2 0x2CA3 JUMP JUMPDEST DUP1 MLOAD PUSH2 0xF6A SWAP1 PUSH1 0x14 SWAP1 PUSH1 0x20 DUP5 ADD SWAP1 PUSH2 0x279F JUMP JUMPDEST PUSH1 0x60 PUSH1 0x1 DUP1 SLOAD PUSH2 0xA0A SWAP1 PUSH2 0x2CD8 JUMP JUMPDEST CALLER PUSH1 0x0 DUP2 DUP2 MSTORE PUSH1 0x15 PUSH1 0x20 MSTORE PUSH1 0x40 SWAP1 KECCAK256 SLOAD PUSH1 0xFF AND PUSH2 0x15A7 JUMPI PUSH1 0x40 MLOAD PUSH3 0x461BCD PUSH1 0xE5 SHL DUP2 MSTORE PUSH1 0x20 PUSH1 0x4 DUP3 ADD MSTORE PUSH1 0x1A PUSH1 0x24 DUP3 ADD MSTORE PUSH32 0x596F75206E65656420746F2062652077686974656C6973746564000000000000 PUSH1 0x44 DUP3 ADD MSTORE PUSH1 0x64 ADD PUSH2 0x9DF JUMP JUMPDEST PUSH1 0x12 SLOAD PUSH1 0xFF AND ISZERO PUSH2 0x15E9 JUMPI PUSH1 0x40 MLOAD PUSH3 0x461BCD PUSH1 0xE5 SHL DUP2 MSTORE PUSH1 0x20 PUSH1 0x4 DUP3 ADD MSTORE PUSH1 0xC PUSH1 0x24 DUP3 ADD MSTORE PUSH12 0x4D696E742070617573656421 PUSH1 0xA0 SHL PUSH1 0x44 DUP3 ADD MSTORE PUSH1 0x64 ADD PUSH2 0x9DF JUMP JUMPDEST PUSH1 0x0 DUP3 GT PUSH2 0x1630 JUMPI PUSH1 0x40 MLOAD PUSH3 0x461BCD PUSH1 0xE5 SHL DUP2 MSTORE PUSH1 0x20 PUSH1 0x4 DUP3 ADD MSTORE PUSH1 0x14 PUSH1 0x24 DUP3 ADD MSTORE PUSH20 0x596F752063616E2774206D696E74207A65726F21 PUSH1 0x60 SHL PUSH1 0x44 DUP3 ADD MSTORE PUSH1 0x64 ADD PUSH2 0x9DF JUMP JUMPDEST PUSH1 0xF SLOAD CALLER PUSH1 0x0 SWAP1 DUP2 MSTORE PUSH1 0x16 PUSH1 0x20 MSTORE PUSH1 0x40 SWAP1 KECCAK256 SLOAD PUSH2 0x164E SWAP1 DUP5 SWAP1 PUSH2 0x2D7A JUMP JUMPDEST GT ISZERO PUSH2 0x1695 JUMPI PUSH1 0x40 MLOAD PUSH3 0x461BCD PUSH1 0xE5 SHL DUP2 MSTORE PUSH1 0x20 PUSH1 0x4 DUP3 ADD MSTORE PUSH1 0x16 PUSH1 0x24 DUP3 ADD MSTORE PUSH22 0x596F752063616E206F6E6C79206D696E742074776F21 PUSH1 0x50 SHL PUSH1 0x44 DUP3 ADD MSTORE PUSH1 0x64 ADD PUSH2 0x9DF JUMP JUMPDEST PUSH2 0x269E DUP3 PUSH1 0xC SLOAD PUSH2 0x16A6 SWAP2 SWAP1 PUSH2 0x2D7A JUMP JUMPDEST GT ISZERO PUSH2 0x16E0 JUMPI PUSH1 0x40 MLOAD PUSH3 0x461BCD PUSH1 0xE5 SHL DUP2 MSTORE PUSH1 0x20 PUSH1 0x4 DUP3 ADD MSTORE PUSH1 0x9 PUSH1 0x24 DUP3 ADD MSTORE PUSH9 0x536F6C64206F757421 PUSH1 0xB8 SHL PUSH1 0x44 DUP3 ADD MSTORE PUSH1 0x64 ADD PUSH2 0x9DF JUMP JUMPDEST PUSH1 0xA SLOAD PUSH1 0x1 PUSH1 0x1 PUSH1 0xA0 SHL SUB AND CALLER EQ PUSH2 0x1985 JUMPI PUSH1 0x11 PUSH1 0x0 DUP2 SLOAD DUP2 LT PUSH2 0x1706 JUMPI PUSH2 0x1706 PUSH2 0x2DF5 JUMP JUMPDEST SWAP1 PUSH1 0x0 MSTORE PUSH1 0x20 PUSH1 0x0 KECCAK256 ADD SLOAD DUP3 PUSH1 0xC SLOAD PUSH2 0x171F SWAP2 SWAP1 PUSH2 0x2D7A JUMP JUMPDEST GT PUSH2 0x17BD JUMPI PUSH1 0x11 PUSH1 0x0 DUP2 SLOAD DUP2 LT PUSH2 0x1738 JUMPI PUSH2 0x1738 PUSH2 0x2DF5 JUMP JUMPDEST SWAP1 PUSH1 0x0 MSTORE PUSH1 0x20 PUSH1 0x0 KECCAK256 ADD SLOAD DUP3 PUSH1 0xC SLOAD PUSH2 0x1751 SWAP2 SWAP1 PUSH2 0x2D7A JUMP JUMPDEST GT ISZERO PUSH2 0x176F JUMPI PUSH1 0x40 MLOAD PUSH3 0x461BCD PUSH1 0xE5 SHL DUP2 MSTORE PUSH1 0x4 ADD PUSH2 0x9DF SWAP1 PUSH2 0x2E0B JUMP JUMPDEST DUP2 PUSH1 0xD PUSH1 0x0 DUP2 SLOAD DUP2 LT PUSH2 0x1784 JUMPI PUSH2 0x1784 PUSH2 0x2DF5 JUMP JUMPDEST SWAP1 PUSH1 0x0 MSTORE PUSH1 0x20 PUSH1 0x0 KECCAK256 ADD SLOAD PUSH2 0x1799 SWAP2 SWAP1 PUSH2 0x2D92 JUMP JUMPDEST CALLVALUE LT ISZERO PUSH2 0x17B8 JUMPI PUSH1 0x40 MLOAD PUSH3 0x461BCD PUSH1 0xE5 SHL DUP2 MSTORE PUSH1 0x4 ADD PUSH2 0x9DF SWAP1 PUSH2 0x2DB1 JUMP JUMPDEST PUSH2 0x1985 JUMP JUMPDEST DUP2 PUSH1 0xC SLOAD PUSH2 0x17CB SWAP2 SWAP1 PUSH2 0x2D7A JUMP JUMPDEST PUSH1 0x11 PUSH1 0x0 DUP2 SLOAD DUP2 LT PUSH2 0x17DF JUMPI PUSH2 0x17DF PUSH2 0x2DF5 JUMP JUMPDEST SWAP1 PUSH1 0x0 MSTORE PUSH1 0x20 PUSH1 0x0 KECCAK256 ADD SLOAD LT DUP1 ISZERO PUSH2 0x1822 JUMPI POP PUSH1 0x11 PUSH1 0x1 DUP2 SLOAD DUP2 LT PUSH2 0x1806 JUMPI PUSH2 0x1806 PUSH2 0x2DF5 JUMP JUMPDEST SWAP1 PUSH1 0x0 MSTORE PUSH1 0x20 PUSH1 0x0 KECCAK256 ADD SLOAD DUP3 PUSH1 0xC SLOAD PUSH2 0x181F SWAP2 SWAP1 PUSH2 0x2D7A JUMP JUMPDEST GT ISZERO JUMPDEST ISZERO PUSH2 0x1887 JUMPI PUSH1 0x11 PUSH1 0x1 DUP2 SLOAD DUP2 LT PUSH2 0x183B JUMPI PUSH2 0x183B PUSH2 0x2DF5 JUMP JUMPDEST SWAP1 PUSH1 0x0 MSTORE PUSH1 0x20 PUSH1 0x0 KECCAK256 ADD SLOAD DUP3 PUSH1 0xC SLOAD PUSH2 0x1854 SWAP2 SWAP1 PUSH2 0x2D7A JUMP JUMPDEST GT ISZERO PUSH2 0x1872 JUMPI PUSH1 0x40 MLOAD PUSH3 0x461BCD PUSH1 0xE5 SHL DUP2 MSTORE PUSH1 0x4 ADD PUSH2 0x9DF SWAP1 PUSH2 0x2E0B JUMP JUMPDEST DUP2 PUSH1 0xD PUSH1 0x1 DUP2 SLOAD DUP2 LT PUSH2 0x1784 JUMPI PUSH2 0x1784 PUSH2 0x2DF5 JUMP JUMPDEST DUP2 PUSH1 0xC SLOAD PUSH2 0x1895 SWAP2 SWAP1 PUSH2 0x2D7A JUMP JUMPDEST PUSH1 0x11 PUSH1 0x1 DUP2 SLOAD DUP2 LT PUSH2 0x18A9 JUMPI PUSH2 0x18A9 PUSH2 0x2DF5 JUMP JUMPDEST SWAP1 PUSH1 0x0 MSTORE PUSH1 0x20 PUSH1 0x0 KECCAK256 ADD SLOAD LT DUP1 ISZERO PUSH2 0x18EC JUMPI POP PUSH1 0x11 PUSH1 0x2 DUP2 SLOAD DUP2 LT PUSH2 0x18D0 JUMPI PUSH2 0x18D0 PUSH2 0x2DF5 JUMP JUMPDEST SWAP1 PUSH1 0x0 MSTORE PUSH1 0x20 PUSH1 0x0 KECCAK256 ADD SLOAD DUP3 PUSH1 0xC SLOAD PUSH2 0x18E9 SWAP2 SWAP1 PUSH2 0x2D7A JUMP JUMPDEST GT ISZERO JUMPDEST ISZERO PUSH2 0x1985 JUMPI PUSH1 0x11 PUSH1 0x2 DUP2 SLOAD DUP2 LT PUSH2 0x1905 JUMPI PUSH2 0x1905 PUSH2 0x2DF5 JUMP JUMPDEST SWAP1 PUSH1 0x0 MSTORE PUSH1 0x20 PUSH1 0x0 KECCAK256 ADD SLOAD DUP3 PUSH1 0xC SLOAD PUSH2 0x191E SWAP2 SWAP1 PUSH2 0x2D7A JUMP JUMPDEST GT ISZERO PUSH2 0x193C JUMPI PUSH1 0x40 MLOAD PUSH3 0x461BCD PUSH1 0xE5 SHL DUP2 MSTORE PUSH1 0x4 ADD PUSH2 0x9DF SWAP1 PUSH2 0x2E0B JUMP JUMPDEST DUP2 PUSH1 0xD PUSH1 0x2 DUP2 SLOAD DUP2 LT PUSH2 0x1951 JUMPI PUSH2 0x1951 PUSH2 0x2DF5 JUMP JUMPDEST SWAP1 PUSH1 0x0 MSTORE PUSH1 0x20 PUSH1 0x0 KECCAK256 ADD SLOAD PUSH2 0x1966 SWAP2 SWAP1 PUSH2 0x2D92 JUMP JUMPDEST CALLVALUE LT ISZERO PUSH2 0x1985 JUMPI PUSH1 0x40 MLOAD PUSH3 0x461BCD PUSH1 0xE5 SHL DUP2 MSTORE PUSH1 0x4 ADD PUSH2 0x9DF SWAP1 PUSH2 0x2DB1 JUMP JUMPDEST PUSH1 0x0 JUMPDEST DUP3 DUP2 LT ISZERO PUSH2 0xCF0 JUMPI PUSH2 0x199C CALLER PUSH1 0xC SLOAD PUSH2 0x212C JUMP JUMPDEST PUSH1 0xC SLOAD PUSH2 0x19AA SWAP1 PUSH1 0x1 PUSH2 0x2D7A JUMP JUMPDEST PUSH1 0xC SSTORE CALLER PUSH1 0x0 SWAP1 DUP2 MSTORE PUSH1 0x16 PUSH1 0x20 MSTORE PUSH1 0x40 DUP2 KECCAK256 DUP1 SLOAD PUSH1 0x1 SWAP3 SWAP1 PUSH2 0x19CD SWAP1 DUP5 SWAP1 PUSH2 0x2D7A JUMP JUMPDEST SWAP1 SWAP2 SSTORE POP PUSH2 0x19DB SWAP1 POP PUSH2 0x1AB2 JUMP JUMPDEST DUP1 PUSH2 0x19E5 DUP2 PUSH2 0x2DDA JUMP JUMPDEST SWAP2 POP POP PUSH2 0x1988 JUMP JUMPDEST PUSH1 0x1 PUSH1 0x1 PUSH1 0xA0 SHL SUB DUP3 AND CALLER EQ ISZERO PUSH2 0x1A46 JUMPI PUSH1 0x40 MLOAD PUSH3 0x461BCD PUSH1 0xE5 SHL DUP2 MSTORE PUSH1 0x20 PUSH1 0x4 DUP3 ADD MSTORE PUSH1 0x19 PUSH1 0x24 DUP3 ADD MSTORE PUSH32 0x4552433732313A20617070726F766520746F2063616C6C657200000000000000 PUSH1 0x44 DUP3 ADD MSTORE PUSH1 0x64 ADD PUSH2 0x9DF JUMP JUMPDEST CALLER PUSH1 0x0 DUP2 DUP2 MSTORE PUSH1 0x5 PUSH1 0x20 SWAP1 DUP2 MSTORE PUSH1 0x40 DUP1 DUP4 KECCAK256 PUSH1 0x1 PUSH1 0x1 PUSH1 0xA0 SHL SUB DUP8 AND DUP1 DUP6 MSTORE SWAP1 DUP4 MSTORE SWAP3 DUP2 SWAP1 KECCAK256 DUP1 SLOAD PUSH1 0xFF NOT AND DUP7 ISZERO ISZERO SWAP1 DUP2 OR SWAP1 SWAP2 SSTORE SWAP1 MLOAD SWAP1 DUP2 MSTORE SWAP2 SWAP3 SWAP2 PUSH32 0x17307EAB39AB6107E8899845AD3D59BD9653F200F220920489CA2B5937696C31 SWAP2 ADD PUSH1 0x40 MLOAD DUP1 SWAP2 SUB SWAP1 LOG3 POP POP JUMP JUMPDEST PUSH1 0x11 PUSH1 0x0 DUP2 SLOAD DUP2 LT PUSH2 0x1AC6 JUMPI PUSH2 0x1AC6 PUSH2 0x2DF5 JUMP JUMPDEST SWAP1 PUSH1 0x0 MSTORE PUSH1 0x20 PUSH1 0x0 KECCAK256 ADD SLOAD PUSH1 0xC SLOAD EQ DUP1 PUSH2 0x1AFF JUMPI POP PUSH1 0x11 PUSH1 0x1 DUP2 SLOAD DUP2 LT PUSH2 0x1AEF JUMPI PUSH2 0x1AEF PUSH2 0x2DF5 JUMP JUMPDEST SWAP1 PUSH1 0x0 MSTORE PUSH1 0x20 PUSH1 0x0 KECCAK256 ADD SLOAD PUSH1 0xC SLOAD EQ JUMPDEST ISZERO PUSH2 0x1469 JUMPI PUSH2 0x1469 PUSH1 0x1 PUSH2 0x9B5 JUMP JUMPDEST PUSH2 0x1B18 CALLER DUP4 PUSH2 0x1E8A JUMP JUMPDEST PUSH2 0x1B34 JUMPI PUSH1 0x40 MLOAD PUSH3 0x461BCD PUSH1 0xE5 SHL DUP2 MSTORE PUSH1 0x4 ADD PUSH2 0x9DF SWAP1 PUSH2 0x2D13 JUMP JUMPDEST PUSH2 0x1B40 DUP5 DUP5 DUP5 DUP5 PUSH2 0x2198 JUMP JUMPDEST POP POP POP POP JUMP JUMPDEST PUSH1 0xA SLOAD PUSH1 0x1 PUSH1 0x1 PUSH1 0xA0 SHL SUB AND CALLER EQ PUSH2 0x1B70 JUMPI PUSH1 0x40 MLOAD PUSH3 0x461BCD PUSH1 0xE5 SHL DUP2 MSTORE PUSH1 0x4 ADD PUSH2 0x9DF SWAP1 PUSH2 0x2CA3 JUMP JUMPDEST PUSH1 0x0 JUMPDEST DUP2 DUP2 LT ISZERO PUSH2 0xF6A JUMPI PUSH2 0x1B87 CALLER PUSH1 0xC SLOAD PUSH2 0x212C JUMP JUMPDEST PUSH1 0xC SLOAD PUSH2 0x1B95 SWAP1 PUSH1 0x1 PUSH2 0x2D7A JUMP JUMPDEST PUSH1 0xC SSTORE DUP1 PUSH2 0x1BA2 DUP2 PUSH2 0x2DDA JUMP JUMPDEST SWAP2 POP POP PUSH2 0x1B73 JUMP JUMPDEST PUSH1 0x14 DUP1 SLOAD PUSH2 0xB2F SWAP1 PUSH2 0x2CD8 JUMP JUMPDEST PUSH1 0x0 DUP2 DUP2 MSTORE PUSH1 0x2 PUSH1 0x20 MSTORE PUSH1 0x40 SWAP1 KECCAK256 SLOAD PUSH1 0x60 SWAP1 PUSH1 0x1 PUSH1 0x1 PUSH1 0xA0 SHL SUB AND PUSH2 0x1C36 JUMPI PUSH1 0x40 MLOAD PUSH3 0x461BCD PUSH1 0xE5 SHL DUP2 MSTORE PUSH1 0x20 PUSH1 0x4 DUP3 ADD MSTORE PUSH1 0x2F PUSH1 0x24 DUP3 ADD MSTORE PUSH32 0x4552433732314D657461646174613A2055524920717565727920666F72206E6F PUSH1 0x44 DUP3 ADD MSTORE PUSH15 0x3732BC34B9BA32B73A103A37B5B2B7 PUSH1 0x89 SHL PUSH1 0x64 DUP3 ADD MSTORE PUSH1 0x84 ADD PUSH2 0x9DF JUMP JUMPDEST PUSH1 0x12 SLOAD PUSH2 0x100 SWAP1 DIV PUSH1 0xFF AND PUSH2 0x1C6D JUMPI PUSH1 0x13 PUSH1 0x40 MLOAD PUSH1 0x20 ADD PUSH2 0x1C57 SWAP2 SWAP1 PUSH2 0x2E42 JUMP JUMPDEST PUSH1 0x40 MLOAD PUSH1 0x20 DUP2 DUP4 SUB SUB DUP2 MSTORE SWAP1 PUSH1 0x40 MSTORE SWAP1 POP SWAP2 SWAP1 POP JUMP JUMPDEST PUSH1 0x0 PUSH2 0x1C77 PUSH2 0x21CB JUMP JUMPDEST SWAP1 POP DUP1 PUSH2 0x1C83 DUP5 PUSH2 0x21DA JUMP JUMPDEST PUSH1 0x40 MLOAD PUSH1 0x20 ADD PUSH2 0x1C94 SWAP3 SWAP2 SWAP1 PUSH2 0x2EDE JUMP JUMPDEST PUSH1 0x40 MLOAD PUSH1 0x20 DUP2 DUP4 SUB SUB DUP2 MSTORE SWAP1 PUSH1 0x40 MSTORE SWAP2 POP POP SWAP2 SWAP1 POP JUMP JUMPDEST PUSH1 0x60 PUSH1 0x14 DUP1 SLOAD PUSH2 0xA0A SWAP1 PUSH2 0x2CD8 JUMP JUMPDEST PUSH1 0xA SLOAD PUSH1 0x1 PUSH1 0x1 PUSH1 0xA0 SHL SUB AND CALLER EQ PUSH2 0x1CE4 JUMPI PUSH1 0x40 MLOAD PUSH3 0x461BCD PUSH1 0xE5 SHL DUP2 MSTORE PUSH1 0x4 ADD PUSH2 0x9DF SWAP1 PUSH2 0x2CA3 JUMP JUMPDEST DUP1 MLOAD PUSH2 0xF6A SWAP1 PUSH1 0x13 SWAP1 PUSH1 0x20 DUP5 ADD SWAP1 PUSH2 0x279F JUMP JUMPDEST PUSH1 0xA SLOAD PUSH1 0x1 PUSH1 0x1 PUSH1 0xA0 SHL SUB AND CALLER EQ PUSH2 0x1D21 JUMPI PUSH1 0x40 MLOAD PUSH3 0x461BCD PUSH1 0xE5 SHL DUP2 MSTORE PUSH1 0x4 ADD PUSH2 0x9DF SWAP1 PUSH2 0x2CA3 JUMP JUMPDEST PUSH1 0x1 PUSH1 0x1 PUSH1 0xA0 SHL SUB DUP2 AND PUSH2 0x1D86 JUMPI PUSH1 0x40 MLOAD PUSH3 0x461BCD PUSH1 0xE5 SHL DUP2 MSTORE PUSH1 0x20 PUSH1 0x4 DUP3 ADD MSTORE PUSH1 0x26 PUSH1 0x24 DUP3 ADD MSTORE PUSH32 0x4F776E61626C653A206E6577206F776E657220697320746865207A65726F2061 PUSH1 0x44 DUP3 ADD MSTORE PUSH6 0x646472657373 PUSH1 0xD0 SHL PUSH1 0x64 DUP3 ADD MSTORE PUSH1 0x84 ADD PUSH2 0x9DF JUMP JUMPDEST PUSH2 0x10E0 DUP2 PUSH2 0x2146 JUMP JUMPDEST PUSH1 0xA SLOAD PUSH1 0x1 PUSH1 0x1 PUSH1 0xA0 SHL SUB AND CALLER EQ PUSH2 0x1DB9 JUMPI PUSH1 0x40 MLOAD PUSH3 0x461BCD PUSH1 0xE5 SHL DUP2 MSTORE PUSH1 0x4 ADD PUSH2 0x9DF SWAP1 PUSH2 0x2CA3 JUMP JUMPDEST DUP1 MLOAD PUSH2 0xF6A SWAP1 PUSH1 0x11 SWAP1 PUSH1 0x20 DUP5 ADD SWAP1 PUSH2 0x2823 JUMP JUMPDEST PUSH1 0x0 PUSH1 0x1 PUSH1 0x1 PUSH1 0xE0 SHL SUB NOT DUP3 AND PUSH4 0x80AC58CD PUSH1 0xE0 SHL EQ DUP1 PUSH2 0x1DFD JUMPI POP PUSH1 0x1 PUSH1 0x1 PUSH1 0xE0 SHL SUB NOT DUP3 AND PUSH4 0x5B5E139F PUSH1 0xE0 SHL EQ JUMPDEST DUP1 PUSH2 0x9AF JUMPI POP PUSH4 0x1FFC9A7 PUSH1 0xE0 SHL PUSH1 0x1 PUSH1 0x1 PUSH1 0xE0 SHL SUB NOT DUP4 AND EQ PUSH2 0x9AF JUMP JUMPDEST PUSH1 0x0 DUP2 DUP2 MSTORE PUSH1 0x4 PUSH1 0x20 MSTORE PUSH1 0x40 SWAP1 KECCAK256 DUP1 SLOAD PUSH1 0x1 PUSH1 0x1 PUSH1 0xA0 SHL SUB NOT AND PUSH1 0x1 PUSH1 0x1 PUSH1 0xA0 SHL SUB DUP5 AND SWAP1 DUP2 OR SWAP1 SWAP2 SSTORE DUP2 SWAP1 PUSH2 0x1E51 DUP3 PUSH2 0x132A JUMP JUMPDEST PUSH1 0x1 PUSH1 0x1 PUSH1 0xA0 SHL SUB AND PUSH32 0x8C5BE1E5EBEC7D5BD14F71427D1E84F3DD0314C0F7B2291E5B200AC8C7C3B925 PUSH1 0x40 MLOAD PUSH1 0x40 MLOAD DUP1 SWAP2 SUB SWAP1 LOG4 POP POP JUMP JUMPDEST PUSH1 0x0 DUP2 DUP2 MSTORE PUSH1 0x2 PUSH1 0x20 MSTORE PUSH1 0x40 DUP2 KECCAK256 SLOAD PUSH1 0x1 PUSH1 0x1 PUSH1 0xA0 SHL SUB AND PUSH2 0x1F03 JUMPI PUSH1 0x40 MLOAD PUSH3 0x461BCD PUSH1 0xE5 SHL DUP2 MSTORE PUSH1 0x20 PUSH1 0x4 DUP3 ADD MSTORE PUSH1 0x2C PUSH1 0x24 DUP3 ADD MSTORE PUSH32 0x4552433732313A206F70657261746F7220717565727920666F72206E6F6E6578 PUSH1 0x44 DUP3 ADD MSTORE PUSH12 0x34B9BA32B73A103A37B5B2B7 PUSH1 0xA1 SHL PUSH1 0x64 DUP3 ADD MSTORE PUSH1 0x84 ADD PUSH2 0x9DF JUMP JUMPDEST PUSH1 0x0 PUSH2 0x1F0E DUP4 PUSH2 0x132A JUMP JUMPDEST SWAP1 POP DUP1 PUSH1 0x1 PUSH1 0x1 PUSH1 0xA0 SHL SUB AND DUP5 PUSH1 0x1 PUSH1 0x1 PUSH1 0xA0 SHL SUB AND EQ DUP1 PUSH2 0x1F49 JUMPI POP DUP4 PUSH1 0x1 PUSH1 0x1 PUSH1 0xA0 SHL SUB AND PUSH2 0x1F3E DUP5 PUSH2 0xA8D JUMP JUMPDEST PUSH1 0x1 PUSH1 0x1 PUSH1 0xA0 SHL SUB AND EQ JUMPDEST DUP1 PUSH2 0x1F79 JUMPI POP PUSH1 0x1 PUSH1 0x1 PUSH1 0xA0 SHL SUB DUP1 DUP3 AND PUSH1 0x0 SWAP1 DUP2 MSTORE PUSH1 0x5 PUSH1 0x20 SWAP1 DUP2 MSTORE PUSH1 0x40 DUP1 DUP4 KECCAK256 SWAP4 DUP9 AND DUP4 MSTORE SWAP3 SWAP1 MSTORE KECCAK256 SLOAD PUSH1 0xFF AND JUMPDEST SWAP5 SWAP4 POP POP POP POP JUMP JUMPDEST DUP3 PUSH1 0x1 PUSH1 0x1 PUSH1 0xA0 SHL SUB AND PUSH2 0x1F94 DUP3 PUSH2 0x132A JUMP JUMPDEST PUSH1 0x1 PUSH1 0x1 PUSH1 0xA0 SHL SUB AND EQ PUSH2 0x1FFC JUMPI PUSH1 0x40 MLOAD PUSH3 0x461BCD PUSH1 0xE5 SHL DUP2 MSTORE PUSH1 0x20 PUSH1 0x4 DUP3 ADD MSTORE PUSH1 0x29 PUSH1 0x24 DUP3 ADD MSTORE PUSH32 0x4552433732313A207472616E73666572206F6620746F6B656E20746861742069 PUSH1 0x44 DUP3 ADD MSTORE PUSH9 0x39903737BA1037BBB7 PUSH1 0xB9 SHL PUSH1 0x64 DUP3 ADD MSTORE PUSH1 0x84 ADD PUSH2 0x9DF JUMP JUMPDEST PUSH1 0x1 PUSH1 0x1 PUSH1 0xA0 SHL SUB DUP3 AND PUSH2 0x205E JUMPI PUSH1 0x40 MLOAD PUSH3 0x461BCD PUSH1 0xE5 SHL DUP2 MSTORE PUSH1 0x20 PUSH1 0x4 DUP3 ADD MSTORE PUSH1 0x24 DUP1 DUP3 ADD MSTORE PUSH32 0x4552433732313A207472616E7366657220746F20746865207A65726F20616464 PUSH1 0x44 DUP3 ADD MSTORE PUSH4 0x72657373 PUSH1 0xE0 SHL PUSH1 0x64 DUP3 ADD MSTORE PUSH1 0x84 ADD PUSH2 0x9DF JUMP JUMPDEST PUSH2 0x2069 DUP4 DUP4 DUP4 PUSH2 0x22D8 JUMP JUMPDEST PUSH2 0x2074 PUSH1 0x0 DUP3 PUSH2 0x1E1C JUMP JUMPDEST PUSH1 0x1 PUSH1 0x1 PUSH1 0xA0 SHL SUB DUP4 AND PUSH1 0x0 SWAP1 DUP2 MSTORE PUSH1 0x3 PUSH1 0x20 MSTORE PUSH1 0x40 DUP2 KECCAK256 DUP1 SLOAD PUSH1 0x1 SWAP3 SWAP1 PUSH2 0x209D SWAP1 DUP5 SWAP1 PUSH2 0x2F1A JUMP JUMPDEST SWAP1 SWAP2 SSTORE POP POP PUSH1 0x1 PUSH1 0x1 PUSH1 0xA0 SHL SUB DUP3 AND PUSH1 0x0 SWAP1 DUP2 MSTORE PUSH1 0x3 PUSH1 0x20 MSTORE PUSH1 0x40 DUP2 KECCAK256 DUP1 SLOAD PUSH1 0x1 SWAP3 SWAP1 PUSH2 0x20CB SWAP1 DUP5 SWAP1 PUSH2 0x2D7A JUMP JUMPDEST SWAP1 SWAP2 SSTORE POP POP PUSH1 0x0 DUP2 DUP2 MSTORE PUSH1 0x2 PUSH1 0x20 MSTORE PUSH1 0x40 DUP1 DUP3 KECCAK256 DUP1 SLOAD PUSH1 0x1 PUSH1 0x1 PUSH1 0xA0 SHL SUB NOT AND PUSH1 0x1 PUSH1 0x1 PUSH1 0xA0 SHL SUB DUP7 DUP2 AND SWAP2 DUP3 OR SWAP1 SWAP3 SSTORE SWAP2 MLOAD DUP5 SWAP4 SWAP2 DUP8 AND SWAP2 PUSH32 0xDDF252AD1BE2C89B69C2B068FC378DAA952BA7F163C4A11628F55A4DF523B3EF SWAP2 LOG4 POP POP POP JUMP JUMPDEST PUSH2 0xF6A DUP3 DUP3 PUSH1 0x40 MLOAD DUP1 PUSH1 0x20 ADD PUSH1 0x40 MSTORE DUP1 PUSH1 0x0 DUP2 MSTORE POP PUSH2 0x2390 JUMP JUMPDEST PUSH1 0xA DUP1 SLOAD PUSH1 0x1 PUSH1 0x1 PUSH1 0xA0 SHL SUB DUP4 DUP2 AND PUSH1 0x1 PUSH1 0x1 PUSH1 0xA0 SHL SUB NOT DUP4 AND DUP2 OR SWAP1 SWAP4 SSTORE PUSH1 0x40 MLOAD SWAP2 AND SWAP2 SWAP1 DUP3 SWAP1 PUSH32 0x8BE0079C531659141344CD1FD0A4F28419497F9722A3DAAFE3B4186F6B6457E0 SWAP1 PUSH1 0x0 SWAP1 LOG3 POP POP JUMP JUMPDEST PUSH2 0x21A3 DUP5 DUP5 DUP5 PUSH2 0x1F81 JUMP JUMPDEST PUSH2 0x21AF DUP5 DUP5 DUP5 DUP5 PUSH2 0x23C3 JUMP JUMPDEST PUSH2 0x1B40 JUMPI PUSH1 0x40 MLOAD PUSH3 0x461BCD PUSH1 0xE5 SHL DUP2 MSTORE PUSH1 0x4 ADD PUSH2 0x9DF SWAP1 PUSH2 0x2F31 JUMP JUMPDEST PUSH1 0x60 PUSH1 0xB DUP1 SLOAD PUSH2 0xA0A SWAP1 PUSH2 0x2CD8 JUMP JUMPDEST PUSH1 0x60 DUP2 PUSH2 0x21FE JUMPI POP POP PUSH1 0x40 DUP1 MLOAD DUP1 DUP3 ADD SWAP1 SWAP2 MSTORE PUSH1 0x1 DUP2 MSTORE PUSH1 0x3 PUSH1 0xFC SHL PUSH1 0x20 DUP3 ADD MSTORE SWAP1 JUMP JUMPDEST DUP2 PUSH1 0x0 JUMPDEST DUP2 ISZERO PUSH2 0x2228 JUMPI DUP1 PUSH2 0x2212 DUP2 PUSH2 0x2DDA JUMP JUMPDEST SWAP2 POP PUSH2 0x2221 SWAP1 POP PUSH1 0xA DUP4 PUSH2 0x2F99 JUMP JUMPDEST SWAP2 POP PUSH2 0x2202 JUMP JUMPDEST PUSH1 0x0 DUP2 PUSH8 0xFFFFFFFFFFFFFFFF DUP2 GT ISZERO PUSH2 0x2243 JUMPI PUSH2 0x2243 PUSH2 0x2A3C JUMP JUMPDEST PUSH1 0x40 MLOAD SWAP1 DUP1 DUP3 MSTORE DUP1 PUSH1 0x1F ADD PUSH1 0x1F NOT AND PUSH1 0x20 ADD DUP3 ADD PUSH1 0x40 MSTORE DUP1 ISZERO PUSH2 0x226D JUMPI PUSH1 0x20 DUP3 ADD DUP2 DUP1 CALLDATASIZE DUP4 CALLDATACOPY ADD SWAP1 POP JUMPDEST POP SWAP1 POP JUMPDEST DUP5 ISZERO PUSH2 0x1F79 JUMPI PUSH2 0x2282 PUSH1 0x1 DUP4 PUSH2 0x2F1A JUMP JUMPDEST SWAP2 POP PUSH2 0x228F PUSH1 0xA DUP7 PUSH2 0x2FAD JUMP JUMPDEST PUSH2 0x229A SWAP1 PUSH1 0x30 PUSH2 0x2D7A JUMP JUMPDEST PUSH1 0xF8 SHL DUP2 DUP4 DUP2 MLOAD DUP2 LT PUSH2 0x22AF JUMPI PUSH2 0x22AF PUSH2 0x2DF5 JUMP JUMPDEST PUSH1 0x20 ADD ADD SWAP1 PUSH1 0x1 PUSH1 0x1 PUSH1 0xF8 SHL SUB NOT AND SWAP1 DUP2 PUSH1 0x0 BYTE SWAP1 MSTORE8 POP PUSH2 0x22D1 PUSH1 0xA DUP7 PUSH2 0x2F99 JUMP JUMPDEST SWAP5 POP PUSH2 0x2271 JUMP JUMPDEST PUSH1 0x1 PUSH1 0x1 PUSH1 0xA0 SHL SUB DUP4 AND PUSH2 0x2333 JUMPI PUSH2 0x232E DUP2 PUSH1 0x8 DUP1 SLOAD PUSH1 0x0 DUP4 DUP2 MSTORE PUSH1 0x9 PUSH1 0x20 MSTORE PUSH1 0x40 DUP2 KECCAK256 DUP3 SWAP1 SSTORE PUSH1 0x1 DUP3 ADD DUP4 SSTORE SWAP2 SWAP1 SWAP2 MSTORE PUSH32 0xF3F7A9FE364FAAB93B216DA50A3214154F22A0A2B415B23A84C8169E8B636EE3 ADD SSTORE JUMP JUMPDEST PUSH2 0x2356 JUMP JUMPDEST DUP2 PUSH1 0x1 PUSH1 0x1 PUSH1 0xA0 SHL SUB AND DUP4 PUSH1 0x1 PUSH1 0x1 PUSH1 0xA0 SHL SUB AND EQ PUSH2 0x2356 JUMPI PUSH2 0x2356 DUP4 DUP3 PUSH2 0x24C1 JUMP JUMPDEST PUSH1 0x1 PUSH1 0x1 PUSH1 0xA0 SHL SUB DUP3 AND PUSH2 0x236D JUMPI PUSH2 0xCF0 DUP2 PUSH2 0x255E JUMP JUMPDEST DUP3 PUSH1 0x1 PUSH1 0x1 PUSH1 0xA0 SHL SUB AND DUP3 PUSH1 0x1 PUSH1 0x1 PUSH1 0xA0 SHL SUB AND EQ PUSH2 0xCF0 JUMPI PUSH2 0xCF0 DUP3 DUP3 PUSH2 0x260D JUMP JUMPDEST PUSH2 0x239A DUP4 DUP4 PUSH2 0x2651 JUMP JUMPDEST PUSH2 0x23A7 PUSH1 0x0 DUP5 DUP5 DUP5 PUSH2 0x23C3 JUMP JUMPDEST PUSH2 0xCF0 JUMPI PUSH1 0x40 MLOAD PUSH3 0x461BCD PUSH1 0xE5 SHL DUP2 MSTORE PUSH1 0x4 ADD PUSH2 0x9DF SWAP1 PUSH2 0x2F31 JUMP JUMPDEST PUSH1 0x0 PUSH1 0x1 PUSH1 0x1 PUSH1 0xA0 SHL SUB DUP5 AND EXTCODESIZE ISZERO PUSH2 0x24B6 JUMPI PUSH1 0x40 MLOAD PUSH4 0xA85BD01 PUSH1 0xE1 SHL DUP2 MSTORE PUSH1 0x1 PUSH1 0x1 PUSH1 0xA0 SHL SUB DUP6 AND SWAP1 PUSH4 0x150B7A02 SWAP1 PUSH2 0x2407 SWAP1 CALLER SWAP1 DUP10 SWAP1 DUP9 SWAP1 DUP9 SWAP1 PUSH1 0x4 ADD PUSH2 0x2FC1 JUMP JUMPDEST PUSH1 0x20 PUSH1 0x40 MLOAD DUP1 DUP4 SUB DUP2 PUSH1 0x0 DUP8 GAS CALL SWAP3 POP POP POP DUP1 ISZERO PUSH2 0x2442 JUMPI POP PUSH1 0x40 DUP1 MLOAD PUSH1 0x1F RETURNDATASIZE SWAP1 DUP2 ADD PUSH1 0x1F NOT AND DUP3 ADD SWAP1 SWAP3 MSTORE PUSH2 0x243F SWAP2 DUP2 ADD SWAP1 PUSH2 0x2FFE JUMP JUMPDEST PUSH1 0x1 JUMPDEST PUSH2 0x249C JUMPI RETURNDATASIZE DUP1 DUP1 ISZERO PUSH2 0x2470 JUMPI PUSH1 0x40 MLOAD SWAP2 POP PUSH1 0x1F NOT PUSH1 0x3F RETURNDATASIZE ADD AND DUP3 ADD PUSH1 0x40 MSTORE RETURNDATASIZE DUP3 MSTORE RETURNDATASIZE PUSH1 0x0 PUSH1 0x20 DUP5 ADD RETURNDATACOPY PUSH2 0x2475 JUMP JUMPDEST PUSH1 0x60 SWAP2 POP JUMPDEST POP DUP1 MLOAD PUSH2 0x2494 JUMPI PUSH1 0x40 MLOAD PUSH3 0x461BCD PUSH1 0xE5 SHL DUP2 MSTORE PUSH1 0x4 ADD PUSH2 0x9DF SWAP1 PUSH2 0x2F31 JUMP JUMPDEST DUP1 MLOAD DUP2 PUSH1 0x20 ADD REVERT JUMPDEST PUSH1 0x1 PUSH1 0x1 PUSH1 0xE0 SHL SUB NOT AND PUSH4 0xA85BD01 PUSH1 0xE1 SHL EQ SWAP1 POP PUSH2 0x1F79 JUMP JUMPDEST POP PUSH1 0x1 SWAP5 SWAP4 POP POP POP POP JUMP JUMPDEST PUSH1 0x0 PUSH1 0x1 PUSH2 0x24CE DUP5 PUSH2 0x13AE JUMP JUMPDEST PUSH2 0x24D8 SWAP2 SWAP1 PUSH2 0x2F1A JUMP JUMPDEST PUSH1 0x0 DUP4 DUP2 MSTORE PUSH1 0x7 PUSH1 0x20 MSTORE PUSH1 0x40 SWAP1 KECCAK256 SLOAD SWAP1 SWAP2 POP DUP1 DUP3 EQ PUSH2 0x252B JUMPI PUSH1 0x1 PUSH1 0x1 PUSH1 0xA0 SHL SUB DUP5 AND PUSH1 0x0 SWAP1 DUP2 MSTORE PUSH1 0x6 PUSH1 0x20 SWAP1 DUP2 MSTORE PUSH1 0x40 DUP1 DUP4 KECCAK256 DUP6 DUP5 MSTORE DUP3 MSTORE DUP1 DUP4 KECCAK256 SLOAD DUP5 DUP5 MSTORE DUP2 DUP5 KECCAK256 DUP2 SWAP1 SSTORE DUP4 MSTORE PUSH1 0x7 SWAP1 SWAP2 MSTORE SWAP1 KECCAK256 DUP2 SWAP1 SSTORE JUMPDEST POP PUSH1 0x0 SWAP2 DUP3 MSTORE PUSH1 0x7 PUSH1 0x20 SWAP1 DUP2 MSTORE PUSH1 0x40 DUP1 DUP5 KECCAK256 DUP5 SWAP1 SSTORE PUSH1 0x1 PUSH1 0x1 PUSH1 0xA0 SHL SUB SWAP1 SWAP5 AND DUP4 MSTORE PUSH1 0x6 DUP2 MSTORE DUP4 DUP4 KECCAK256 SWAP2 DUP4 MSTORE MSTORE SWAP1 DUP2 KECCAK256 SSTORE JUMP JUMPDEST PUSH1 0x8 SLOAD PUSH1 0x0 SWAP1 PUSH2 0x2570 SWAP1 PUSH1 0x1 SWAP1 PUSH2 0x2F1A JUMP JUMPDEST PUSH1 0x0 DUP4 DUP2 MSTORE PUSH1 0x9 PUSH1 0x20 MSTORE PUSH1 0x40 DUP2 KECCAK256 SLOAD PUSH1 0x8 DUP1 SLOAD SWAP4 SWAP5 POP SWAP1 SWAP3 DUP5 SWAP1 DUP2 LT PUSH2 0x2598 JUMPI PUSH2 0x2598 PUSH2 0x2DF5 JUMP JUMPDEST SWAP1 PUSH1 0x0 MSTORE PUSH1 0x20 PUSH1 0x0 KECCAK256 ADD SLOAD SWAP1 POP DUP1 PUSH1 0x8 DUP4 DUP2 SLOAD DUP2 LT PUSH2 0x25B9 JUMPI PUSH2 0x25B9 PUSH2 0x2DF5 JUMP JUMPDEST PUSH1 0x0 SWAP2 DUP3 MSTORE PUSH1 0x20 DUP1 DUP4 KECCAK256 SWAP1 SWAP2 ADD SWAP3 SWAP1 SWAP3 SSTORE DUP3 DUP2 MSTORE PUSH1 0x9 SWAP1 SWAP2 MSTORE PUSH1 0x40 DUP1 DUP3 KECCAK256 DUP5 SWAP1 SSTORE DUP6 DUP3 MSTORE DUP2 KECCAK256 SSTORE PUSH1 0x8 DUP1 SLOAD DUP1 PUSH2 0x25F1 JUMPI PUSH2 0x25F1 PUSH2 0x301B JUMP JUMPDEST PUSH1 0x1 SWAP1 SUB DUP2 DUP2 SWAP1 PUSH1 0x0 MSTORE PUSH1 0x20 PUSH1 0x0 KECCAK256 ADD PUSH1 0x0 SWAP1 SSTORE SWAP1 SSTORE POP POP POP POP JUMP JUMPDEST PUSH1 0x0 PUSH2 0x2618 DUP4 PUSH2 0x13AE JUMP JUMPDEST PUSH1 0x1 PUSH1 0x1 PUSH1 0xA0 SHL SUB SWAP1 SWAP4 AND PUSH1 0x0 SWAP1 DUP2 MSTORE PUSH1 0x6 PUSH1 0x20 SWAP1 DUP2 MSTORE PUSH1 0x40 DUP1 DUP4 KECCAK256 DUP7 DUP5 MSTORE DUP3 MSTORE DUP1 DUP4 KECCAK256 DUP6 SWAP1 SSTORE SWAP4 DUP3 MSTORE PUSH1 0x7 SWAP1 MSTORE SWAP2 SWAP1 SWAP2 KECCAK256 SWAP2 SWAP1 SWAP2 SSTORE POP JUMP JUMPDEST PUSH1 0x1 PUSH1 0x1 PUSH1 0xA0 SHL SUB DUP3 AND PUSH2 0x26A7 JUMPI PUSH1 0x40 MLOAD PUSH3 0x461BCD PUSH1 0xE5 SHL DUP2 MSTORE PUSH1 0x20 PUSH1 0x4 DUP3 ADD DUP2 SWAP1 MSTORE PUSH1 0x24 DUP3 ADD MSTORE PUSH32 0x4552433732313A206D696E7420746F20746865207A65726F2061646472657373 PUSH1 0x44 DUP3 ADD MSTORE PUSH1 0x64 ADD PUSH2 0x9DF JUMP JUMPDEST PUSH1 0x0 DUP2 DUP2 MSTORE PUSH1 0x2 PUSH1 0x20 MSTORE PUSH1 0x40 SWAP1 KECCAK256 SLOAD PUSH1 0x1 PUSH1 0x1 PUSH1 0xA0 SHL SUB AND ISZERO PUSH2 0x270C JUMPI PUSH1 0x40 MLOAD PUSH3 0x461BCD PUSH1 0xE5 SHL DUP2 MSTORE PUSH1 0x20 PUSH1 0x4 DUP3 ADD MSTORE PUSH1 0x1C PUSH1 0x24 DUP3 ADD MSTORE PUSH32 0x4552433732313A20746F6B656E20616C7265616479206D696E74656400000000 PUSH1 0x44 DUP3 ADD MSTORE PUSH1 0x64 ADD PUSH2 0x9DF JUMP JUMPDEST PUSH2 0x2718 PUSH1 0x0 DUP4 DUP4 PUSH2 0x22D8 JUMP JUMPDEST PUSH1 0x1 PUSH1 0x1 PUSH1 0xA0 SHL SUB DUP3 AND PUSH1 0x0 SWAP1 DUP2 MSTORE PUSH1 0x3 PUSH1 0x20 MSTORE PUSH1 0x40 DUP2 KECCAK256 DUP1 SLOAD PUSH1 0x1 SWAP3 SWAP1 PUSH2 0x2741 SWAP1 DUP5 SWAP1 PUSH2 0x2D7A JUMP JUMPDEST SWAP1 SWAP2 SSTORE POP POP PUSH1 0x0 DUP2 DUP2 MSTORE PUSH1 0x2 PUSH1 0x20 MSTORE PUSH1 0x40 DUP1 DUP3 KECCAK256 DUP1 SLOAD PUSH1 0x1 PUSH1 0x1 PUSH1 0xA0 SHL SUB NOT AND PUSH1 0x1 PUSH1 0x1 PUSH1 0xA0 SHL SUB DUP7 AND SWAP1 DUP2 OR SWAP1 SWAP2 SSTORE SWAP1 MLOAD DUP4 SWAP3 SWAP1 PUSH32 0xDDF252AD1BE2C89B69C2B068FC378DAA952BA7F163C4A11628F55A4DF523B3EF SWAP1 DUP3 SWAP1 LOG4 POP POP JUMP JUMPDEST DUP3 DUP1 SLOAD PUSH2 0x27AB SWAP1 PUSH2 0x2CD8 JUMP JUMPDEST SWAP1 PUSH1 0x0 MSTORE PUSH1 0x20 PUSH1 0x0 KECCAK256 SWAP1 PUSH1 0x1F ADD PUSH1 0x20 SWAP1 DIV DUP2 ADD SWAP3 DUP3 PUSH2 0x27CD JUMPI PUSH1 0x0 DUP6 SSTORE PUSH2 0x2813 JUMP JUMPDEST DUP3 PUSH1 0x1F LT PUSH2 0x27E6 JUMPI DUP1 MLOAD PUSH1 0xFF NOT AND DUP4 DUP1 ADD OR DUP6 SSTORE PUSH2 0x2813 JUMP JUMPDEST DUP3 DUP1 ADD PUSH1 0x1 ADD DUP6 SSTORE DUP3 ISZERO PUSH2 0x2813 JUMPI SWAP2 DUP3 ADD JUMPDEST DUP3 DUP2 GT ISZERO PUSH2 0x2813 JUMPI DUP3 MLOAD DUP3 SSTORE SWAP2 PUSH1 0x20 ADD SWAP2 SWAP1 PUSH1 0x1 ADD SWAP1 PUSH2 0x27F8 JUMP JUMPDEST POP PUSH2 0x281F SWAP3 SWAP2 POP PUSH2 0x285D JUMP JUMPDEST POP SWAP1 JUMP JUMPDEST DUP3 DUP1 SLOAD DUP3 DUP3 SSTORE SWAP1 PUSH1 0x0 MSTORE PUSH1 0x20 PUSH1 0x0 KECCAK256 SWAP1 DUP2 ADD SWAP3 DUP3 ISZERO PUSH2 0x2813 JUMPI SWAP2 PUSH1 0x20 MUL DUP3 ADD DUP3 DUP2 GT ISZERO PUSH2 0x2813 JUMPI DUP3 MLOAD DUP3 SSTORE SWAP2 PUSH1 0x20 ADD SWAP2 SWAP1 PUSH1 0x1 ADD SWAP1 PUSH2 0x27F8 JUMP JUMPDEST JUMPDEST DUP1 DUP3 GT ISZERO PUSH2 0x281F JUMPI PUSH1 0x0 DUP2 SSTORE PUSH1 0x1 ADD PUSH2 0x285E JUMP JUMPDEST PUSH1 0x1 PUSH1 0x1 PUSH1 0xE0 SHL SUB NOT DUP2 AND DUP2 EQ PUSH2 0x10E0 JUMPI PUSH1 0x0 DUP1 REVERT JUMPDEST PUSH1 0x0 PUSH1 0x20 DUP3 DUP5 SUB SLT ISZERO PUSH2 0x289A JUMPI PUSH1 0x0 DUP1 REVERT JUMPDEST DUP2 CALLDATALOAD PUSH2 0x28A5 DUP2 PUSH2 0x2872 JUMP JUMPDEST SWAP4 SWAP3 POP POP POP JUMP JUMPDEST DUP1 CALLDATALOAD DUP1 ISZERO ISZERO DUP2 EQ PUSH2 0x28BC JUMPI PUSH1 0x0 DUP1 REVERT JUMPDEST SWAP2 SWAP1 POP JUMP JUMPDEST PUSH1 0x0 PUSH1 0x20 DUP3 DUP5 SUB SLT ISZERO PUSH2 0x28D3 JUMPI PUSH1 0x0 DUP1 REVERT JUMPDEST PUSH2 0x28A5 DUP3 PUSH2 0x28AC JUMP JUMPDEST PUSH1 0x0 JUMPDEST DUP4 DUP2 LT ISZERO PUSH2 0x28F7 JUMPI DUP2 DUP2 ADD MLOAD DUP4 DUP3 ADD MSTORE PUSH1 0x20 ADD PUSH2 0x28DF JUMP JUMPDEST DUP4 DUP2 GT ISZERO PUSH2 0x1B40 JUMPI POP POP PUSH1 0x0 SWAP2 ADD MSTORE JUMP JUMPDEST PUSH1 0x0 DUP2 MLOAD DUP1 DUP5 MSTORE PUSH2 0x2920 DUP2 PUSH1 0x20 DUP7 ADD PUSH1 0x20 DUP7 ADD PUSH2 0x28DC JUMP JUMPDEST PUSH1 0x1F ADD PUSH1 0x1F NOT AND SWAP3 SWAP1 SWAP3 ADD PUSH1 0x20 ADD SWAP3 SWAP2 POP POP JUMP JUMPDEST PUSH1 0x20 DUP2 MSTORE PUSH1 0x0 PUSH2 0x28A5 PUSH1 0x20 DUP4 ADD DUP5 PUSH2 0x2908 JUMP JUMPDEST PUSH1 0x0 PUSH1 0x20 DUP3 DUP5 SUB SLT ISZERO PUSH2 0x2959 JUMPI PUSH1 0x0 DUP1 REVERT JUMPDEST POP CALLDATALOAD SWAP2 SWAP1 POP JUMP JUMPDEST DUP1 CALLDATALOAD PUSH1 0x1 PUSH1 0x1 PUSH1 0xA0 SHL SUB DUP2 AND DUP2 EQ PUSH2 0x28BC JUMPI PUSH1 0x0 DUP1 REVERT JUMPDEST PUSH1 0x0 DUP1 PUSH1 0x40 DUP4 DUP6 SUB SLT ISZERO PUSH2 0x298A JUMPI PUSH1 0x0 DUP1 REVERT JUMPDEST PUSH2 0x2993 DUP4 PUSH2 0x2960 JUMP JUMPDEST SWAP5 PUSH1 0x20 SWAP4 SWAP1 SWAP4 ADD CALLDATALOAD SWAP4 POP POP POP JUMP JUMPDEST PUSH1 0x0 PUSH1 0x20 DUP3 DUP5 SUB SLT ISZERO PUSH2 0x29B3 JUMPI PUSH1 0x0 DUP1 REVERT JUMPDEST PUSH2 0x28A5 DUP3 PUSH2 0x2960 JUMP JUMPDEST PUSH1 0x0 DUP1 PUSH1 0x0 PUSH1 0x60 DUP5 DUP7 SUB SLT ISZERO PUSH2 0x29D1 JUMPI PUSH1 0x0 DUP1 REVERT JUMPDEST PUSH2 0x29DA DUP5 PUSH2 0x2960 JUMP JUMPDEST SWAP3 POP PUSH2 0x29E8 PUSH1 0x20 DUP6 ADD PUSH2 0x2960 JUMP JUMPDEST SWAP2 POP PUSH1 0x40 DUP5 ADD CALLDATALOAD SWAP1 POP SWAP3 POP SWAP3 POP SWAP3 JUMP JUMPDEST PUSH1 0x20 DUP1 DUP3 MSTORE DUP3 MLOAD DUP3 DUP3 ADD DUP2 SWAP1 MSTORE PUSH1 0x0 SWAP2 SWAP1 DUP5 DUP3 ADD SWAP1 PUSH1 0x40 DUP6 ADD SWAP1 DUP5 JUMPDEST DUP2 DUP2 LT ISZERO PUSH2 0x2A30 JUMPI DUP4 MLOAD DUP4 MSTORE SWAP3 DUP5 ADD SWAP3 SWAP2 DUP5 ADD SWAP2 PUSH1 0x1 ADD PUSH2 0x2A14 JUMP JUMPDEST POP SWAP1 SWAP7 SWAP6 POP POP POP POP POP POP JUMP JUMPDEST PUSH4 0x4E487B71 PUSH1 0xE0 SHL PUSH1 0x0 MSTORE PUSH1 0x41 PUSH1 0x4 MSTORE PUSH1 0x24 PUSH1 0x0 REVERT JUMPDEST PUSH1 0x40 MLOAD PUSH1 0x1F DUP3 ADD PUSH1 0x1F NOT AND DUP2 ADD PUSH8 0xFFFFFFFFFFFFFFFF DUP2 GT DUP3 DUP3 LT OR ISZERO PUSH2 0x2A7B JUMPI PUSH2 0x2A7B PUSH2 0x2A3C JUMP JUMPDEST PUSH1 0x40 MSTORE SWAP2 SWAP1 POP JUMP JUMPDEST PUSH1 0x0 PUSH8 0xFFFFFFFFFFFFFFFF DUP4 GT ISZERO PUSH2 0x2A9D JUMPI PUSH2 0x2A9D PUSH2 0x2A3C JUMP JUMPDEST PUSH2 0x2AB0 PUSH1 0x1F DUP5 ADD PUSH1 0x1F NOT AND PUSH1 0x20 ADD PUSH2 0x2A52 JUMP JUMPDEST SWAP1 POP DUP3 DUP2 MSTORE DUP4 DUP4 DUP4 ADD GT ISZERO PUSH2 0x2AC4 JUMPI PUSH1 0x0 DUP1 REVERT JUMPDEST DUP3 DUP3 PUSH1 0x20 DUP4 ADD CALLDATACOPY PUSH1 0x0 PUSH1 0x20 DUP5 DUP4 ADD ADD MSTORE SWAP4 SWAP3 POP POP POP JUMP JUMPDEST PUSH1 0x0 PUSH1 0x20 DUP3 DUP5 SUB SLT ISZERO PUSH2 0x2AED JUMPI PUSH1 0x0 DUP1 REVERT JUMPDEST DUP2 CALLDATALOAD PUSH8 0xFFFFFFFFFFFFFFFF DUP2 GT ISZERO PUSH2 0x2B04 JUMPI PUSH1 0x0 DUP1 REVERT JUMPDEST DUP3 ADD PUSH1 0x1F DUP2 ADD DUP5 SGT PUSH2 0x2B15 JUMPI PUSH1 0x0 DUP1 REVERT JUMPDEST PUSH2 0x1F79 DUP5 DUP3 CALLDATALOAD PUSH1 0x20 DUP5 ADD PUSH2 0x2A83 JUMP JUMPDEST PUSH1 0x0 PUSH1 0x20 DUP1 DUP4 DUP6 SUB SLT ISZERO PUSH2 0x2B37 JUMPI PUSH1 0x0 DUP1 REVERT JUMPDEST DUP3 CALLDATALOAD PUSH8 0xFFFFFFFFFFFFFFFF DUP1 DUP3 GT ISZERO PUSH2 0x2B4F JUMPI PUSH1 0x0 DUP1 REVERT JUMPDEST DUP2 DUP6 ADD SWAP2 POP DUP6 PUSH1 0x1F DUP4 ADD SLT PUSH2 0x2B63 JUMPI PUSH1 0x0 DUP1 REVERT JUMPDEST DUP2 CALLDATALOAD DUP2 DUP2 GT ISZERO PUSH2 0x2B75 JUMPI PUSH2 0x2B75 PUSH2 0x2A3C JUMP JUMPDEST DUP1 PUSH1 0x5 SHL SWAP2 POP PUSH2 0x2B86 DUP5 DUP4 ADD PUSH2 0x2A52 JUMP JUMPDEST DUP2 DUP2 MSTORE SWAP2 DUP4 ADD DUP5 ADD SWAP2 DUP5 DUP2 ADD SWAP1 DUP9 DUP5 GT ISZERO PUSH2 0x2BA0 JUMPI PUSH1 0x0 DUP1 REVERT JUMPDEST SWAP4 DUP6 ADD SWAP4 JUMPDEST DUP4 DUP6 LT ISZERO PUSH2 0x2BBE JUMPI DUP5 CALLDATALOAD DUP3 MSTORE SWAP4 DUP6 ADD SWAP4 SWAP1 DUP6 ADD SWAP1 PUSH2 0x2BA5 JUMP JUMPDEST SWAP9 SWAP8 POP POP POP POP POP POP POP POP JUMP JUMPDEST PUSH1 0x0 DUP1 PUSH1 0x40 DUP4 DUP6 SUB SLT ISZERO PUSH2 0x2BDD JUMPI PUSH1 0x0 DUP1 REVERT JUMPDEST PUSH2 0x2BE6 DUP4 PUSH2 0x2960 JUMP JUMPDEST SWAP2 POP PUSH2 0x2BF4 PUSH1 0x20 DUP5 ADD PUSH2 0x28AC JUMP JUMPDEST SWAP1 POP SWAP3 POP SWAP3 SWAP1 POP JUMP JUMPDEST PUSH1 0x0 DUP1 PUSH1 0x0 DUP1 PUSH1 0x80 DUP6 DUP8 SUB SLT ISZERO PUSH2 0x2C13 JUMPI PUSH1 0x0 DUP1 REVERT JUMPDEST PUSH2 0x2C1C DUP6 PUSH2 0x2960 JUMP JUMPDEST SWAP4 POP PUSH2 0x2C2A PUSH1 0x20 DUP7 ADD PUSH2 0x2960 JUMP JUMPDEST SWAP3 POP PUSH1 0x40 DUP6 ADD CALLDATALOAD SWAP2 POP PUSH1 0x60 DUP6 ADD CALLDATALOAD PUSH8 0xFFFFFFFFFFFFFFFF DUP2 GT ISZERO PUSH2 0x2C4D JUMPI PUSH1 0x0 DUP1 REVERT JUMPDEST DUP6 ADD PUSH1 0x1F DUP2 ADD DUP8 SGT PUSH2 0x2C5E JUMPI PUSH1 0x0 DUP1 REVERT JUMPDEST PUSH2 0x2C6D DUP8 DUP3 CALLDATALOAD PUSH1 0x20 DUP5 ADD PUSH2 0x2A83 JUMP JUMPDEST SWAP2 POP POP SWAP3 SWAP6 SWAP2 SWAP5 POP SWAP3 POP JUMP JUMPDEST PUSH1 0x0 DUP1 PUSH1 0x40 DUP4 DUP6 SUB SLT ISZERO PUSH2 0x2C8C JUMPI PUSH1 0x0 DUP1 REVERT JUMPDEST PUSH2 0x2C95 DUP4 PUSH2 0x2960 JUMP JUMPDEST SWAP2 POP PUSH2 0x2BF4 PUSH1 0x20 DUP5 ADD PUSH2 0x2960 JUMP JUMPDEST PUSH1 0x20 DUP1 DUP3 MSTORE DUP2 DUP2 ADD MSTORE PUSH32 0x4F776E61626C653A2063616C6C6572206973206E6F7420746865206F776E6572 PUSH1 0x40 DUP3 ADD MSTORE PUSH1 0x60 ADD SWAP1 JUMP JUMPDEST PUSH1 0x1 DUP2 DUP2 SHR SWAP1 DUP3 AND DUP1 PUSH2 0x2CEC JUMPI PUSH1 0x7F DUP3 AND SWAP2 POP JUMPDEST PUSH1 0x20 DUP3 LT DUP2 EQ ISZERO PUSH2 0x2D0D JUMPI PUSH4 0x4E487B71 PUSH1 0xE0 SHL PUSH1 0x0 MSTORE PUSH1 0x22 PUSH1 0x4 MSTORE PUSH1 0x24 PUSH1 0x0 REVERT JUMPDEST POP SWAP2 SWAP1 POP JUMP JUMPDEST PUSH1 0x20 DUP1 DUP3 MSTORE PUSH1 0x31 SWAP1 DUP3 ADD MSTORE PUSH32 0x4552433732313A207472616E736665722063616C6C6572206973206E6F74206F PUSH1 0x40 DUP3 ADD MSTORE PUSH17 0x1DDB995C881B9BDC88185C1C1C9BDD9959 PUSH1 0x7A SHL PUSH1 0x60 DUP3 ADD MSTORE PUSH1 0x80 ADD SWAP1 JUMP JUMPDEST PUSH4 0x4E487B71 PUSH1 0xE0 SHL PUSH1 0x0 MSTORE PUSH1 0x11 PUSH1 0x4 MSTORE PUSH1 0x24 PUSH1 0x0 REVERT JUMPDEST PUSH1 0x0 DUP3 NOT DUP3 GT ISZERO PUSH2 0x2D8D JUMPI PUSH2 0x2D8D PUSH2 0x2D64 JUMP JUMPDEST POP ADD SWAP1 JUMP JUMPDEST PUSH1 0x0 DUP2 PUSH1 0x0 NOT DIV DUP4 GT DUP3 ISZERO ISZERO AND ISZERO PUSH2 0x2DAC JUMPI PUSH2 0x2DAC PUSH2 0x2D64 JUMP JUMPDEST POP MUL SWAP1 JUMP JUMPDEST PUSH1 0x20 DUP1 DUP3 MSTORE PUSH1 0xF SWAP1 DUP3 ADD MSTORE PUSH15 0x4E6F7420656E6F7567682045544821 PUSH1 0x88 SHL PUSH1 0x40 DUP3 ADD MSTORE PUSH1 0x60 ADD SWAP1 JUMP JUMPDEST PUSH1 0x0 PUSH1 0x0 NOT DUP3 EQ ISZERO PUSH2 0x2DEE JUMPI PUSH2 0x2DEE PUSH2 0x2D64 JUMP JUMPDEST POP PUSH1 0x1 ADD SWAP1 JUMP JUMPDEST PUSH4 0x4E487B71 PUSH1 0xE0 SHL PUSH1 0x0 MSTORE PUSH1 0x32 PUSH1 0x4 MSTORE PUSH1 0x24 PUSH1 0x0 REVERT JUMPDEST PUSH1 0x20 DUP1 DUP3 MSTORE PUSH1 0x1D SWAP1 DUP3 ADD MSTORE PUSH32 0x4E6F7420656E6F756768204E4654206C65667420666F722073616C6521000000 PUSH1 0x40 DUP3 ADD MSTORE PUSH1 0x60 ADD SWAP1 JUMP JUMPDEST PUSH1 0x0 DUP1 DUP4 SLOAD DUP2 PUSH1 0x1 DUP3 DUP2 SHR SWAP2 POP DUP1 DUP4 AND DUP1 PUSH2 0x2E5E JUMPI PUSH1 0x7F DUP4 AND SWAP3 POP JUMPDEST PUSH1 0x20 DUP1 DUP5 LT DUP3 EQ ISZERO PUSH2 0x2E7E JUMPI PUSH4 0x4E487B71 PUSH1 0xE0 SHL DUP7 MSTORE PUSH1 0x22 PUSH1 0x4 MSTORE PUSH1 0x24 DUP7 REVERT JUMPDEST DUP2 DUP1 ISZERO PUSH2 0x2E92 JUMPI PUSH1 0x1 DUP2 EQ PUSH2 0x2EA3 JUMPI PUSH2 0x2ED0 JUMP JUMPDEST PUSH1 0xFF NOT DUP7 AND DUP10 MSTORE DUP5 DUP10 ADD SWAP7 POP PUSH2 0x2ED0 JUMP JUMPDEST PUSH1 0x0 DUP11 DUP2 MSTORE PUSH1 0x20 SWAP1 KECCAK256 PUSH1 0x0 JUMPDEST DUP7 DUP2 LT ISZERO PUSH2 0x2EC8 JUMPI DUP2 SLOAD DUP12 DUP3 ADD MSTORE SWAP1 DUP6 ADD SWAP1 DUP4 ADD PUSH2 0x2EAF JUMP JUMPDEST POP POP DUP5 DUP10 ADD SWAP7 POP JUMPDEST POP SWAP5 SWAP9 SWAP8 POP POP POP POP POP POP POP POP JUMP JUMPDEST PUSH1 0x0 DUP4 MLOAD PUSH2 0x2EF0 DUP2 DUP5 PUSH1 0x20 DUP9 ADD PUSH2 0x28DC JUMP JUMPDEST PUSH1 0x2F PUSH1 0xF8 SHL SWAP1 DUP4 ADD SWAP1 DUP2 MSTORE DUP4 MLOAD PUSH2 0x2F0E DUP2 PUSH1 0x1 DUP5 ADD PUSH1 0x20 DUP9 ADD PUSH2 0x28DC JUMP JUMPDEST ADD PUSH1 0x1 ADD SWAP5 SWAP4 POP POP POP POP JUMP JUMPDEST PUSH1 0x0 DUP3 DUP3 LT ISZERO PUSH2 0x2F2C JUMPI PUSH2 0x2F2C PUSH2 0x2D64 JUMP JUMPDEST POP SUB SWAP1 JUMP JUMPDEST PUSH1 0x20 DUP1 DUP3 MSTORE PUSH1 0x32 SWAP1 DUP3 ADD MSTORE PUSH32 0x4552433732313A207472616E7366657220746F206E6F6E204552433732315265 PUSH1 0x40 DUP3 ADD MSTORE PUSH18 0x31B2B4BB32B91034B6B83632B6B2B73A32B9 PUSH1 0x71 SHL PUSH1 0x60 DUP3 ADD MSTORE PUSH1 0x80 ADD SWAP1 JUMP JUMPDEST PUSH4 0x4E487B71 PUSH1 0xE0 SHL PUSH1 0x0 MSTORE PUSH1 0x12 PUSH1 0x4 MSTORE PUSH1 0x24 PUSH1 0x0 REVERT JUMPDEST PUSH1 0x0 DUP3 PUSH2 0x2FA8 JUMPI PUSH2 0x2FA8 PUSH2 0x2F83 JUMP JUMPDEST POP DIV SWAP1 JUMP JUMPDEST PUSH1 0x0 DUP3 PUSH2 0x2FBC JUMPI PUSH2 0x2FBC PUSH2 0x2F83 JUMP JUMPDEST POP MOD SWAP1 JUMP JUMPDEST PUSH1 0x1 PUSH1 0x1 PUSH1 0xA0 SHL SUB DUP6 DUP2 AND DUP3 MSTORE DUP5 AND PUSH1 0x20 DUP3 ADD MSTORE PUSH1 0x40 DUP2 ADD DUP4 SWAP1 MSTORE PUSH1 0x80 PUSH1 0x60 DUP3 ADD DUP2 SWAP1 MSTORE PUSH1 0x0 SWAP1 PUSH2 0x2FF4 SWAP1 DUP4 ADD DUP5 PUSH2 0x2908 JUMP JUMPDEST SWAP7 SWAP6 POP POP POP POP POP POP JUMP JUMPDEST PUSH1 0x0 PUSH1 0x20 DUP3 DUP5 SUB SLT ISZERO PUSH2 0x3010 JUMPI PUSH1 0x0 DUP1 REVERT JUMPDEST DUP2 MLOAD PUSH2 0x28A5 DUP2 PUSH2 0x2872 JUMP JUMPDEST PUSH4 0x4E487B71 PUSH1 0xE0 SHL PUSH1 0x0 MSTORE PUSH1 0x31 PUSH1 0x4 MSTORE PUSH1 0x24 PUSH1 0x0 REVERT INVALID LOG2 PUSH5 0x6970667358 0x22 SLT KECCAK256 0xD9 PUSH23 0xB7D5954A13C1437AE086C11750778E6F64650C53E30B1A 0xC7 PUSH26 0x9E4230F6D464736F6C634300080B003300000000000000000000 ",
  "sha1": "6bf0b36a1bfb281a1be22e8796b47142b77e15a6",
  "source": "// SPDX-License-Identifier: MIT\npragma solidity >=0.7.0 <0.9.0;\n\nimport \"@openzeppelin/contracts/token/ERC721/extensions/ERC721Enumerable.sol\";\nimport \"@openzeppelin/contracts/access/Ownable.sol\";\nimport \"@openzeppelin/contracts/utils/Strings.sol\";\n\ncontract CreateNFT is ERC721Enumerable, Ownable {\n    string public baseURI;\n    uint256 public nftCounter;\n    uint256[] public costsWL;\n    uint256 public maxSupply = 10000;\n    uint256 public maxMintAmount;\n    uint256 public publicMintPrice;\n    uint256[] wlPlaces;\n    bool public paused = false;\n    bool public revealed = false;\n    bool public publicMintPossible = false;\n    string public notRevealedUri;\n    string public contractUri;\n    mapping(address => bool) public whitelisted;\n    mapping(address => uint256) public minted;\n\n    constructor (string memory _initNotRevealedUri, string memory _name,\n        string memory _symbol,\n        string memory _initBaseURI, string memory _initContractURI, uint256[] memory _initWlCosts, uint256[] memory _initWlPlaces, uint256 _initMaxMintAmount, uint256 _initPublicMintPrice) public ERC721 (_name, _symbol){\n        setBaseURI(_initBaseURI);\n        setNotRevealedURI(_initNotRevealedUri);\n        setPublicMintPrice(_initPublicMintPrice);\n        setContractURI(_initContractURI);\n        nftCounter = 1;\n        setWLCosts(_initWlCosts);\n        setWLPlaces(_initWlPlaces);\n        setMaxMintAmount(_initMaxMintAmount);\n        //owner = msg.sender;\n    }\n\n\n\n    function contractURI() public view returns (string memory) {\n        return contractUri;\n    }\n\n    function setWLCosts(uint256[] memory _costsWL) public onlyOwner {\n        costsWL = _costsWL;\n\n    }\n\n    function setWLPlaces(uint256[] memory _placesWL) public onlyOwner {\n        wlPlaces = _placesWL;\n\n    }\n\n    function setPublicMintPrice(uint256 _publicMintPrice) public onlyOwner {\n\n        publicMintPrice = _publicMintPrice;\n    }\n\n    function setMaxMintAmount(uint256 _maxMintAmount) public onlyOwner {\n        maxMintAmount = _maxMintAmount;\n\n    }\n\n    // internal\n    function _baseURI() internal view virtual override returns (string memory) {\n        return baseURI;\n    }\n\n    // adds user address to whitelist\n    function addUser(address _addressToWhitelist) public onlyOwner {\n        whitelisted[_addressToWhitelist] = true;\n    }\n\n    //checks if user is on whitelist\n    function verifyUser(address _whitelistedAddress) public view returns (bool) {\n        bool userIsWhitelisted = whitelisted[_whitelistedAddress];\n        return userIsWhitelisted;\n    }\n\n    modifier isWhitelisted(address _address) {\n        require(whitelisted[_address], \"You need to be whitelisted\");\n        _;\n    }\n\n    //reveal the collection\n    function setRevealed() public onlyOwner {\n        revealed = true;\n    }\n\n    //set the mint public\n    function setPublic() public onlyOwner\n    {\n        publicMintPossible = true;\n    }\n\n    //set base uri for metadata\n    function setBaseURI(string memory _newBaseURI) public onlyOwner {\n        baseURI = _newBaseURI;\n    }\n\n    //pause the mint\n    function pause(bool _state) public onlyOwner {\n        paused = _state;\n    }\n\n    //remove user from whitelist\n    function removeWhitelistUser(address _user) public onlyOwner {\n        whitelisted[_user] = false;\n    }\n\n\n    //TODO:\n    function mintLegendary() public onlyOwner\n    {\n        for (uint256 i = 9886; i < maxSupply; i++)\n        {_safeMint(msg.sender, i);}\n\n\n    }\n\n    function mintForGiveaways(uint256 amount) public onlyOwner {\n        for (uint256 i = 0; i < amount; i++) {\n            _safeMint(msg.sender, nftCounter);\n            nftCounter = nftCounter + 1;}\n\n    }\n\n    //function for pausing the whitelist sales\n    function checkForPause() public\n    {\n        if ((nftCounter == wlPlaces[0]) || (nftCounter == wlPlaces[1]))\n        {\n            pause(true);\n        }\n    }\n\n    //TODO: in general only 2\n    //mint nfts\n    function mint(uint256 _mintAmount) isWhitelisted(msg.sender) public virtual payable {\n        require(!paused, \"Mint paused!\");\n        require(_mintAmount > 0, \"You can't mint zero!\");\n        require(minted[msg.sender] + _mintAmount <= maxMintAmount, \"You can only mint two!\");\n        require(nftCounter + _mintAmount <= 9886, \"Sold out!\");\n        //TODO: check\n        if (msg.sender != owner()) {\n            if ((nftCounter + _mintAmount) <= wlPlaces[0]) {\n                require((nftCounter + _mintAmount) <= wlPlaces[0], \"Not enough NFT left for sale!\");\n                require(msg.value >= costsWL[0] * _mintAmount, \"Not enough ETH!\");}\n            else if ((wlPlaces[0] < (nftCounter + _mintAmount)) && ((nftCounter + _mintAmount) <= wlPlaces[1])) {\n                require((nftCounter + _mintAmount) <= wlPlaces[1], \"Not enough NFT left for sale!\");\n                require(msg.value >= costsWL[1] * _mintAmount, \"Not enough ETH!\");}\n            else if ((wlPlaces[1] < (nftCounter + _mintAmount)) && ((nftCounter + _mintAmount) <= wlPlaces[2]))\n            {\n                require((nftCounter + _mintAmount) <= wlPlaces[2], \"Not enough NFT left for sale!\");\n                require(msg.value >= costsWL[2] * _mintAmount, \"Not enough ETH!\");\n            }\n        }\n        for (uint256 i = 0;\n            i < _mintAmount;\n            i++) {\n            _safeMint(msg.sender, nftCounter);\n            nftCounter = nftCounter + 1;\n            minted[msg.sender] += 1;\n            checkForPause();\n        }\n    }\n\n    function publicMint(uint256 _mintAmount) public virtual payable {\n        require(publicMintPossible == true, \"No public mint possible!\");\n        require(!paused, \"Mint paused!\");\n        require(_mintAmount > 0, \"You can't mint zero!\");\n        require(minted[msg.sender] + _mintAmount <= maxMintAmount, \"You can only mint two!\");\n        require(nftCounter + _mintAmount <= maxSupply, \"Sold out!\");\n        require(msg.value >= publicMintPrice * _mintAmount, \"Not enough ETH!\");\n        for (uint256 i = 0;\n            i < _mintAmount;\n            i++) {\n            _safeMint(msg.sender, nftCounter);\n            nftCounter = nftCounter + 1;\n            minted[msg.sender] += 1;\n        }\n    }\n\n    //metadata URI for nfts\n    function tokenURI(uint256 tokenId)\n    public\n    view\n    virtual\n    override\n    returns (string memory)\n    {\n        require(\n            _exists(tokenId),\n            \"ERC721Metadata: URI query for nonexistent token\"\n        );\n\n        if (revealed == false) {\n            return string(abi.encodePacked(notRevealedUri));\n        }\n\n        string memory currentBaseURI = _baseURI();\n        return string(abi.encodePacked(\n                currentBaseURI, \"/\",\n                Strings.toString(tokenId)\n            ));\n    }\n\n    //return nft ids of one owner\n    //TODO use balanceOf\n    function walletOfOwner(address _owner)\n    public\n    view\n    returns (uint256[] memory)\n    {\n        uint256 ownerTokenCount = balanceOf(_owner);\n        uint256[] memory tokenIds = new uint256[](ownerTokenCount);\n        for (uint256 i; i < ownerTokenCount; i++) {\n            tokenIds[i] = tokenOfOwnerByIndex(_owner, i);\n        }\n        return tokenIds;\n    }\n\n    //set url for not revealed metadata\n    function setNotRevealedURI(string memory _notRevealedURI) public onlyOwner {\n        notRevealedUri = _notRevealedURI;\n    }\n\n    // set contract url\n    function setContractURI(string memory _contractURI) public onlyOwner {\n        contractUri = _contractURI;\n    }\n\n    //withdraw the collected eth from mint\n    function withdraw() payable onlyOwner public {\n        payable(msg.sender).transfer(address(this).balance);\n    }\n}\n\n",
  "sourcePath": "contracts/CreateNFT.sol",
  "type": "contract"
}